:100000000C9493000C94B2000C94B2000C94B200C7
:100010000C94B2000C94B2000C94B2000C94B20098
:100020000C94B2000C94B2000C94B2000C94B20088
:100030000C94B2000C94B2000C94B2000C94B20078
:100040000C94B2000C94B2000C94B2000C94B20068
:100050000C94B2000C94B2000C94B2000C94B20058
:100060000C94B2000C94B2000C94B2000C94B20048
:100070000C94B2000C94B2000C945A100C94B20080
:100080000C94B2000C94AF0B0C94B2001301170146
:1000900025012A012F017A0251016A018301880199
:1000A0008B019601BD01C601D501DA01DF01F10125
:1000B0002B026F02B801C307D307EB07F507FF0751
:1000C000500A2D08500873087D08500A8008C80897
:1000D000DD08F60800090A0931097A09CD09B608D0
:1000E000500A500A500A500A500AE609000A0E0A3D
:1000F0001B0AFE0941542B55415254434F4E464969
:10010000472C002C4E2C312C300041542B42544DA6
:100110004F44452C330041542B42544E414D453DF4
:100120000041545A000011241FBECFEFD0E1DEBFC2
:10013000CDBF13E0A0E0B1E0E2EDF6E300E00BBFDD
:1001400002C007900D92AC32B107D9F714E0ACE2CF
:10015000B3E001C01D92A63AB107E1F70E94B400D6
:100160000C94681B0C9400000F931F93CF93DF93A4
:10017000CDB7DEB721970FB6F894DEBF0FBECDBF67
:1001800040E051E060E07BE480E090E00E94BE0C43
:10019000882331F060E07BE480E090E00E945E0A1A
:1001A00084E40E945C0B0E94E7130E942A120E94C2
:1001B000AC0F20E040E060E080E00E9430140E943C
:1001C0005A0E0E94F013813029F40E94031489838F
:1001D0000E94FE008E010F5F1F4FC8010E946C0B32
:1001E000813019F489810E94A607C8010E94900AF3
:1001F000813039F789810E949402E3CFBF92CF9278
:10020000DF92EF92FF920F931F93E82FFF27E531C4
:10021000F10508F06FC1EA5BFF4FEE0FFF1F05907D
:10022000F491E02D09940E9403148F5F61C10E9434
:100230000314082F0E940314182F0E940314482F40
:10024000612F802F0E943A1255C10E9403140E9410
:10025000751250C10E9403140E948A124BC10E9461
:100260000314C82E0E940314E82EFF240FC00F2D84
:1002700011270E940314F801EC5AFC4F80830E945E
:1002800003140A591C4FF8018083F394FE1479F784
:100290002E2D4C2D66E673E084E593E00E949D12BE
:1002A00029C10E940314F82E0E940314082F10E0A5
:1002B00008C00E940314E12FFF27EC5AFC4F8083F3
:1002C0001F5F1017B1F7402F6F2D84E593E00E9458
:1002D000011310C10E940314F82E0E940314082F6A
:1002E00010E008C00E940314E12FFF27EA59FC4FD9
:1002F00080831F5F1017B1F7402F6F2D84E593E0C7
:100300000E945413F7C00E9403140E948C13F2C081
:100310000E942A12EFC00E940314982F81508C3F34
:1003200008F0E8C0892F0E948B11E4C00E940314DA
:10033000B82E0E940314E82E0E940314C82E0E94B7
:100340000314082F0E94031499271127102F002748
:10035000802B912BDD24FF24FE2CEE24CE28DF28D9
:10036000AC01B6018B2D0E946D110E94C210C2C05B
:100370000E9403140E94C810BBC00E9403140E9474
:10038000850E9695879596958795B2C00E94031421
:10039000182F0E940314E82E0E940314FF24482FF4
:1003A000B701812F0E94A413A5C00E9403140E94CC
:1003B000D013A0C00E9403140E94C0139BC00E94CF
:1003C0000314F82E0E940314082F0E940314182F00
:1003D0000E940314282F412F602F8F2D0E9430146C
:1003E00089C00E940314182F0E940314382F113063
:1003F00091F0113030F01230C1F0133009F07AC0B2
:100400001FC028B381E090E002C0880F991F3A9581
:10041000E2F7282B3AC023B181E090E002C0880FB8
:10042000991F3A95E2F7282B3CC02091620081E0A9
:1004300090E002C0880F991F3A95E2F7282B3EC042
:100440002091650081E090E002C0880F991F3A95E5
:10045000E2F7282B41C00E940314182F0E940314B6
:10046000382F1130A1F0113030F01230E1F013309C
:1004700009F040C026C028B381E090E002C0880F98
:10048000991F3A95E2F78095282328BB33C023B102
:1004900081E090E002C0880F991F3A95E2F78095BD
:1004A000282323B927C02091620081E090E002C098
:1004B000880F991F3A95E2F78095282320936200D0
:1004C00019C02091650081E090E002C0880F991F5B
:1004D0003A95E2F780952823209365000BC00E948F
:1004E0000314182F0E940314682F812F0E944314B5
:1004F0000E941B141F910F91FF90EF90DF90CF90FF
:10050000BF900895962FBA01823049F0833059F494
:10051000A901892F0E946D110E94C2100895422FD7
:10052000892F0E943A1208956F927F928F929F9224
:10053000AF92BF92CF92DF92EF92FF920F931F93F1
:10054000CF93DF93CDB7DEB7C45CD2400FB6F8943B
:10055000DEBF0FBECDBF682E1E821D821C821B8295
:1005600018861F82E1E07E2E21E0CC53DD4F2883E8
:10057000C45CD24088249924CC53DD4F8881C45C6C
:10058000D240813011F040E007C06DA6CC53DD4F62
:100590001882C45CD24041E07DE2C72ED12CCC0E43
:1005A000DD1E6FEFC6010E94E1056CE2E62E61E000
:1005B000F62EEC0EFD1E282FA60168E170E0C701A3
:1005C0000E945F05B82E87010F5F1F4FF701408122
:1005D000B80188E091E00E94B805813009F426C195
:1005E000F7014081B8018FE091E00E94B8058130A9
:1005F00009F44BC2F7014081B80184E191E00E9407
:10060000B805813019F40E94100637C2F701408105
:10061000B80189E191E00E94B8058130F9F4F2E077
:10062000BF1609F0FDC182E190E0E80EF91ECE018F
:1006300002969F938F9384E291E09F938F93FF9212
:10064000EF920E94C5148A810E94C0138CE091E051
:100650000E94FE05EDB7FEB7369626C1F701408130
:10066000B8018BE291E00E94B805813011F488E472
:100670000AC0F7014081B8018FE291E00E94B805FD
:10068000813021F488E20E94D013D0C0F70140816C
:10069000B80184E391E00E94B805813011F480E54F
:1006A000F2CFF7014081B8018AE391E00E94B805DA
:1006B000813011F480E3E7CFF7014081B8018FE387
:1006C00091E00E94B805813011F480E0DCCFF701A1
:1006D0004081B80184E491E00E94B805813031F591
:1006E000F2E0BF1609F09CC182E190E0E80EF91E2D
:1006F000CE0101969F938F9304E211E01F930F9315
:10070000FF92EF920E94C51489810E94850E9F93EB
:100710008F931F930F93DF92CF920E949314C60181
:100720000E94FE05EDB7FEB73C96BEC087010F5F85
:100730001F4FF7014081B80188E491E00E94B8059D
:10074000813041F5F2E0BF1609F06AC187010E5E03
:100750001F4FF7014189B8018DE491E00E94B8056F
:10076000813039F48CE091E00E94FE0553E0752E53
:1007700084C1F7014189B80185E591E00E94B8057F
:10078000813009F04DC18CE091E00E94FE0542E00D
:10079000742E73C1F7014081B8018DE591E00E948C
:1007A000B805813009F086C0F1E07F1621F487E2B8
:1007B00091E00E94FE0523E0B216D9F582E190E0B7
:1007C000E80EF91ECE0102969F938F9304E211E08A
:1007D0001F930F93FF92EF920E94C514E1E1F0E0A6
:1007E000EE0EFF1ECE0105969F938F931F930F93DE
:1007F000FF92EF920E94C5148DB79EB70C960FB66C
:10080000F8949EBF0FBE8DBF93E0791619F484E66D
:1008100090E002C081E090E09C838B832B813C813F
:100820004D815E816A81872D0E9482028CE091E079
:1008300022C1E4E0BE1609F0F3C082E190E0E80EC8
:10084000F91ECE0102969F938F9304E211E01F934D
:100850000F93FF92EF920E94C514E1E1F0E0EE0EDB
:10086000FF1ECE0105969F938F931F930F93FF92C8
:10087000EF920E94C51481E190E0E80EF91ECE01CE
:1008800003969F938F931F930F93FF92EF920E9473
:10089000C5142B813C814D815E816A81872D0E9428
:1008A0008202EDB7FEB772960FB6F894FEBF0FBE88
:1008B000EDBFE3C0F7014081B80183E691E00E94FB
:1008C000B8058130B1F5F2E0BF1609F0A9C082E1A8
:1008D00090E0E80EF91ECE0102969F938F9384E27A
:1008E00091E09F938F93FF92EF920E94C51488240A
:1008F000992400E010E0EDB7FEB736960FB6F894F5
:10090000FEBF0FBEEDBF802F0E94C810813019F4CA
:100910000894811C911C0F5F1F4F0D3F110599F723
:10092000F2E08F1691040CF07BC08A810E948B113B
:100930007DCFF7014081B8018BE691E00E94B805B8
:10094000813009F070C0F1E0FB1508F069C0F701D3
:100950008189813031F48289803319F418861F82AD
:1009600017C0CE0107969F938F9384E291E09F93E7
:100970008F93CE01825C9E4F9F938F930E94C514EC
:100980008DB79EB706960FB6F8949EBF0FBE8DBF6B
:1009900032E0A32E8E01075F1F4F2EE4E22E21E0EE
:1009A000F22EEC0EFD1E93E2C92ED12C36C094E13E
:1009B000A91609F43BCFF7018081813039F4818198
:1009C000803321F4F8011182108218C01F930F9315
:1009D00084E291E09F938F93CE01845D9E4F8C0DB6
:1009E0009D1D9F938F930E94C5144C018DB79EB798
:1009F00006960FB6F8949EBF0FBE8DBF811491046A
:100A000019F4F80111821082A3940E5F1F4F81E147
:100A100090E0C80ED91EE80EF91EAB1441F606CFC1
:100A200087E291E028C0F7014081B80180E791E0BA
:100A30000E94B8058130E9F481E0F82E8E01075F4D
:100A40001F4FF801808191818F5F9F4F21F4B80182
:100A50008F2D0E94B911F3940E5F1F4F23E1F21600
:100A600081F744E650E062E1CE0109960E9423112D
:100A7000DDCE83E791E00E94FE05FE01E45DFE4FBE
:100A800010821182118A128A77CD8CE091E00E9447
:100A9000FE05CC53DD4F0FB6F894DEBF0FBECDBFC1
:100AA000DF91CF911F910F91FF90EF90DF90CF904A
:100AB000BF90AF909F908F907F906F900895CF924E
:100AC000DF92FF920F931F93CF93DF936C018B0103
:100AD000BA01522F40E030E020E081E1F82E2FC033
:100AE000FB01E40FF11DA081A03289F0822F99272C
:100AF000FC01B4E0EE0FFF1FBA95E1F7E80FF91F14
:100B0000EC0DFD1DE30FF11DA1833F5F17C03323E3
:100B1000A9F02F9DF0011124EC0DFD1DDF01A30FA5
:100B2000B11DED01198230832F5F822F992708179D
:100B300019071CF48FEF90E013C030E04F5F4517AA
:100B400079F6E1E12E9FF0011124EC0DFD1DDF018E
:100B5000A30FB11DED01198230832F5F822F9927DA
:100B6000DF91CF911F910F91FF90DF90CF9008956B
:100B7000CF93DF93EC01342F40E050E010C0E22F20
:100B8000FF274F5F5F4FDE01AE0FBF1FE60FF71F5E
:100B90009C918081981719F080E090E00FC0242F7D
:100BA000431768F3FE01E40FF11D8081882339F7B4
:100BB00080E090E0431711F481E090E0DF91CF9165
:100BC00008950F931F93CF93DF93EC01062F142FFB
:100BD0000E948B0A8D3041F0FE01E10FF11D8083F0
:100BE0001F5F0117A8F7102F812F9927C80FD91F52
:100BF0001882DF91CF911F910F910895CF93DF93CA
:100C0000EC0102C00E94870A89918823D9F78AE003
:100C10000E94870A8DE00E94870ADF91CF91089594
:100C2000DF92EF92FF920F931F93CF93DF93CDB795
:100C3000DEB760970FB6F894DEBF0FBECDBF20E0E1
:100C400040E060E080E00E9430140E945A0E85E788
:100C500091E00E94960F82E891E00E94960F8AE947
:100C600091E00E94960F8AEB91E00E94960F82ED30
:100C700091E00E94960F86EE91E00E94960F84E02C
:100C800092E00E94960F86E192E00E94960F81E228
:100C900092E00E94960F0E948B0A082F0E94870AFA
:100CA00084E392E00E94960F043309F469C005338F
:100CB00058F40233E9F1033308F046C0013339F642
:100CC0000DC08DE093E031C0063309F4D2C0063385
:100CD00008F480C0073309F0BACFF0C087E392E090
:100CE0000E94960FEE24FF248E2D0E94850EAA27C7
:100CF000BB278E010F5F1F4FA801BC01CD010E94D1
:100D00008E0EAB01BC01552766277727C8010E94CC
:100D1000460B80E20E94870A0894E11CF11C88E0DF
:100D2000E816F10409F784E392E00E94960F8FCF52
:100D300060E880E00E944314813019F489E592E074
:100D4000F4CF80E792E0F1CF41E061E080E00E94E3
:100D50003A1268EE73E080E090E00E946F0F41E08D
:100D60006FEF80E00E943A1268EE73E080E090E05E
:100D70000E946F0F47E061E080E00E943A1267CF67
:100D80000E94C91388E40E94D01368EE73E080E0EB
:100D900090E00E946F0F80E30E94D01368EE73E032
:100DA00080E090E00E946F0F88E20E94D01368EE0E
:100DB00073E080E090E00E946F0F80E50E94D01306
:100DC00068EE73E080E090E00E946F0F80E00E9488
:100DD000D0133DCF8BE892E00E94960FDD24EE24E5
:100DE000FF248E2D0E94C8108130E9F4D39486EB45
:100DF00092E00E94960FFF92EF9289EC92E09F930F
:100E00008F938E010F5F1F4F1F930F930E949314B8
:100E1000C8010E94960F8DB79EB706960FB6F8943C
:100E20009EBF0FBE8DBF0894E11CF11C9EEFE9161A
:100E3000F104B9F68EEC92E00E94960F8D2D992761
:100E40009F938F9389EC92E09F938F938E010F5F16
:100E50001F4F1F930F930E949314C8010E94960F77
:100E60008DB79EB706960FB6F8949EBF0FBE8DBF86
:100E7000EECE8AEE92E00E94960F08EE13E0602F0D
:100E8000685EC8010E94EF110F5F1F4F94E0073E9C
:100E90001907A9F78BEF92E00E94960F10E0812FBF
:100EA000992788519C4F0E94F911811709F009CFA9
:100EB0001F5F1F3FA1F787E193E037CF20E040E0BD
:100EC00060E080E00E94301460960FB6F894DEBFB8
:100ED0000FBECDBFDF91CF911F910F91FF90EF908B
:100EE000DF900895282F81E090E002C0880F991FBD
:100EF0006A95E2F7982F213069F0213028F02230EE
:100F000079F02330C1F412C080912C03892B809397
:100F10002C0311C080912D03892B80932D030BC0CE
:100F200080912E03892B80932E0305C080912F037F
:100F3000892B80932F0320912F0340912E036091E2
:100F40002D0380912C030E9430140895DF92EF92BC
:100F5000FF920F931F93CF93DF93CDB7DEB7249704
:100F60000FB6F894DEBF0FBECDBFE82FFF27EF31DD
:100F7000F10508F095C2E55AFF4FEE0FFF1F0590EF
:100F8000F491E02D0994CE0104960E946C0B882305
:100F9000D1F38C818F5F0E948A0B0E948D0B882376
:100FA00009F07EC2FACFCE0104960E946C0B882312
:100FB000D1F3CE0101960E946C0B8823D1F3CE01B0
:100FC00002960E946C0B8823D1F34A8169818C813F
:100FD0000E943A1265C2CE0104960E946C0B8823CF
:100FE000D1F38C810E9475125BC2CE0104960E94DF
:100FF0006C0B8823D1F38C810E948A1251C2CE01DE
:1010000004960E946C0B8823D1F3CE0101960E94B6
:101010006C0B8823D1F3EE24FF2413C00D2D112770
:10102000C8018C5A9C4F0E946C0B8823B9F3C801ED
:101030008A599C4F0E946C0B8823C9F30894E11CC9
:10104000F11CDE2C2981E21648F34C8166E673E040
:1010500084E593E00E949D1223C2CE0104960E9473
:101060006C0B8823D1F3CE0101960E946C0B882370
:10107000D1F300E010E00AC08F2D99278C5A9C4FC5
:101080000E946C0B8823C1F30F5F1F4FF02E498124
:10109000041790F36C8184E593E00E94011300C271
:1010A000CE0104960E946C0B8823D1F3CE010196E9
:1010B0000E946C0B8823D1F300E010E00AC08F2D52
:1010C00099278A599C4F0E946C0B8823C1F30F5FAC
:1010D0001F4FF02E4981041790F36C8186E693E050
:1010E0000E945413DDC1CE0104960E946C0B88232C
:1010F000D1F38C810E948C13D3C10E942A12D0C1DB
:10110000CE0104960E946C0B8823D1F3CE01019688
:101110000E946C0B8823D1F3CE0102960E946C0BC7
:101120008823D1F38A81082F112789819927982F45
:101130008827082B192BCE0102960E946C0B88235E
:10114000D1F3CE0101960E946C0B8823D1F3498123
:1011500055278A819927982F8827482B592BB80122
:101160008C810E946D110E94C2109AC1CE0104961A
:101170000E946C0B8823D1F38C810E94C810898354
:101180000E948A0B0E948D0B882309F089C1FACF37
:10119000CE0104960E946C0B8823D1F38C810E94AF
:1011A000850E96958795969587950E948A0B0E9445
:1011B0008D0B882309F074C1FACFCE0104960E94EA
:1011C0006C0B8823D1F3CE0101960E946C0B88230F
:1011D000D1F3CE0102960E946C0B8823D1F3698172
:1011E00077274A818C810E94A4135AC1CE010496AC
:1011F0000E946C0B8823D1F38C810E94D01350C1C4
:10120000CE0104960E946C0B8823D1F38C810E943E
:10121000C01346C1CE0104960E946C0B8823D1F303
:10122000CE0101960E946C0B8823D1F3CE01029669
:101230000E946C0B8823D1F3CE0103960E946C0BA5
:101240008823D1F38C8180932C03698160932D03D3
:101250004A8140932E032B8120932F030E94301448
:101260001FC1CE0104960E946C0B8823D1F3CE01DE
:1012700001960E946C0B8823D1F369818C810E94B6
:1012800072078C81813099F0813030F08230D1F05A
:10129000833009F005C122C028B381E090E00980C5
:1012A00002C0880F991F0A94E2F7282B49C023B186
:1012B00081E090E0098002C0880F991F0A94E2F74C
:1012C000282B4BC02091620081E090E0098002C091
:1012D000880F991F0A94E2F7282B4DC020916500D2
:1012E00081E090E0098002C0880F991F0A94E2F71C
:1012F000282B50C0CE0104960E946C0B8823D1F39A
:10130000CE0101960E946C0B8823D1F369818C81F8
:101310000E9472078C818130A9F0813030F08230D8
:10132000F1F0833009F0BCC029C028B381E090E01F
:10133000098002C0880F991F0A94E2F7809528233C
:1013400028BBAEC023B181E090E0098002C0880FC5
:10135000991F0A94E2F78095282323B9A1C0209110
:10136000620081E090E0098002C0880F991F0A9412
:10137000E2F7809528232093620092C020916500B7
:1013800081E090E0098002C0880F991F0A94E2F77B
:10139000809528232093650083C0CE0104960E9487
:1013A0006C0B8823D1F3CE0101960E946C0B88232D
:1013B000D1F369818C810E9443148A830E948A0B35
:1013C0000E948D0B882309F06BC0FACFCE010496E2
:1013D0000E946C0B8823D1F3198280E00E941B14B9
:1013E0008C810E941B140E94031489830E948A0B23
:1013F0000E948D0B882309F053C0FACF84E018C0F7
:1014000081E00E941B140E9403148C830E948A0BAB
:101410000E948D0B882309F043C0FACFCE010496B9
:101420000E946C0B8823D1F382E00E941B148C81F4
:101430000E941B1435C083E00E941B140E940314F9
:101440008C830E94031489830E9403148A830E9460
:1014500003148B830E940314182F8C810E948A0B23
:101460000E948D0B8823E1F389810E948A0B0E94E0
:101470008D0B8823E1F38A810E948A0B0E948D0BD9
:101480008823E1F38B810E948A0B0E948D0B8823B5
:10149000E1F3812F0E948A0B0E948D0B8823E1F3D8
:1014A00024960FB6F894DEBF0FBECDBFDF91CF916B
:1014B0001F910F91FF90EF90DF9008959B01AC0179
:1014C000203084E8380783E0480780E05807A9F017
:1014D00093E0220F331F441F551F9A95D1F760E008
:1014E00074E284EF90E00E94241B21503040832F4F
:1014F00099278093900029B902C088E089B982E4D5
:101500008BB988E18AB986E08093950008955D9B48
:10151000FECF8CB908955F9BFECF8CB199270895BB
:10152000FC015F9904C0108280E090E008958CB1C6
:10153000808381E090E008959B01AC0160E472E457
:101540008FE090E00E94241B21503040832F992788
:10155000809398002093990080E480939B0088E119
:1015600080939A0086E080939D00089580919B006F
:1015700087FFFCCF80919C0099270895982F809138
:101580009B0085FFFCCF90939C000895AF92BF9283
:10159000CF92DF92EF92FF920F931F93CF93DF933F
:1015A000EC015A016B01EE24FF2487010BC0FE0100
:1015B000EE0DFF1D80810E94BE0A0894E11CF11C03
:1015C000011D111DEA14FB040C051D0581F7DF91B7
:1015D000CF911F910F91FF90EF90DF90CF90BF9030
:1015E000AF900895FC0180919B0087FD04C010829C
:1015F00080E090E0089580919C00808381E090E0FD
:101600000895EF92FF920F931F93DC017A018B01F3
:1016100020E030E040E050E00EC080919B0087FF6A
:10162000FCCF80919C00FD01E20FF31F80832F5FB0
:101630003F4F4F4F5F4F2E153F054007510769F74A
:101640001F910F91FF90EF900895EF92FF920F93EB
:101650001F93DC017A018B0120E030E040E050E094
:101660000BC05F9BFECF8CB1FD01E20FF31F8083A7
:101670002F5F3F4F4F4F5F4F2E153F0540075107DC
:1016800081F71F910F91FF90EF9008959C0180E0EA
:1016900090E0A0E0B0E00AC0F901E80FF91FE08196
:1016A0005D9BFECFECB90196A11DB11D8417950776
:1016B000A607B70789F7089510927803109282035E
:1016C000109283037894809372008FEF809373005D
:1016D00085EC809374000895DC01909183038091E0
:1016E0008203981719F480E090E00895E92FFF270E
:1016F000E758FC4F80818C93892F8F5F8093830301
:10170000883019F081E090E008951092830381E021
:1017100090E008958093810308958091780382FD7D
:1017200003C080E090E00895F894809178038B7F67
:1017300080937803789481E090E008958091780315
:1017400083FD03C080E090E00895F89480917803D1
:10175000877F80937803789481E090E008951F92CA
:101760000F920FB60F9211248F939F93EF93FF93D5
:1017700080917100803AD9F1813A50F4803601F1BC
:10178000813618F48823C9F13AC08038E9F037C0AF
:10179000803CA9F1813C28F4883A41F0883B79F5F6
:1017A00005C0883C61F1883F51F52CC080917803D9
:1017B00084608093780380918103809373001FC0BD
:1017C00080917803816016C080918203E82FFF2703
:1017D00090917300E758FC4F90838F5F8093820352
:1017E00080918203883059F41092820308C080915E
:1017F000780388608093780302C085ED01C085EC92
:1018000080937400FF91EF919F918F910F900FBE85
:101810000F901F901895EF92FF921F93CF93DF9335
:101820007C010E948B0AC0E0D0E00CC013E00E9453
:101830008B0A113051F0113028F0123049F013307A
:1018400099F0F5CF8D30B9F013C08A30B9F010C0DF
:101850008D3061F3C132D1055CF4F701EC0FFD1F4F
:101860008083219612E0E3CF8A3011F4CE0109C0C3
:101870008FEF9FEF06C00E948B0AE7CF0E948B0A72
:10188000E7CFDF91CF911F91FF90EF900895AF9236
:10189000BF92CF92DF92EF92FF921F93CF93DF938D
:1018A000CDB7DEB721970FB6F894DEBF0FBECDBF20
:1018B0001982EE24FF24C12C20E2D22E10E05C011C
:1018C000CE0101960E94900A813041F5113061F0FD
:1018D000113028F0123069F0133049F51AC08981AF
:1018E0008D3059F511E023C089818A3031F512E03D
:1018F0001EC089818D3011F413E019C091E2E91600
:10190000F104DCF4F50181935F010894E11CF11C02
:101910000EC089818A3089F4C70111C061E070E08E
:1019200080E090E00E944A0F0894C108D108C114D9
:10193000D10431F68EEF9FEF02C08FEF9FEF21961B
:101940000FB6F894DEBF0FBECDBFDF91CF911F91D0
:10195000FF90EF90DF90CF90BF90AF900895CF931E
:10196000DF93EC0102C00E94870A89918823D9F78E
:101970008DE00E94870ADF91CF9108954F925F9288
:101980006F927F928F929F92AF92BF92CF92DF928F
:10199000EF92FF920F931F93CF93DF93CDB7DEB7F4
:1019A000E4970FB6F894DEBF0FBECDBF5B016C01AC
:1019B0002A0180E0A81686E9B80680E0C80680E023
:1019C000D806D1F1E1E0AE16E6E9BE06E0E0CE06CB
:1019D000E0E0DE0698F4F0E8AF16F5E2BF06F0E0CE
:1019E000CF06F0E0DF0641F180E0A8168BE4B806F0
:1019F00080E0C80680E0D806E1F41EC0E0E0AE1644
:101A0000E2ECBE06E1E0CE06E0E0DE06A9F0F0E0A2
:101A1000AF16F4E8BF06F3E0CF06F0E0DF0661F0B2
:101A200080E0A81681EEB80680E0C80680E0D806FF
:101A300019F081E090E027C100E010E002301105CC
:101A4000F1F0033011053CF40115110571F001307E
:101A5000110551F50FC004301105D9F004301105FE
:101A60009CF00530110501F519C060E875E280E0D1
:101A700090E018C060E07BE480E090E013C060E09C
:101A800076E980E090E00EC060E071EE80E090E0EA
:101A900009C060E072EC81E090E004C060E074E8AE
:101AA00083E090E00E945E0A8DE193E00E94AF0C1B
:101AB0001D8A1E8A1F8A64E670E080E090E00E9422
:101AC0004A0F60E270E0CE0145960E94470C8D8976
:101AD0008F3421F48E898B3449F417C0853431F466
:101AE0008E89823519F48F89823579F0CE01459639
:101AF0000E94900A8130D1F30F5F1F4F063011050D
:101B000009F09CCF82E090E0BEC064EF70E08E01EF
:101B10000F5F1F4FC8010E948C14EE24FF24480160
:101B200055E1652E712C6C0E7D1EF80105C0848B6D
:101B30000894E11CF11C319680818823C1F7A30130
:101B40004E0D5F1DC601B5010E948E0E8701060F66
:101B5000171F63E071E0C4010E948C14D301A00F31
:101B6000B11FF40104C08D930F5F1F4F3196808128
:101B70008823C9F745E1E42EF12CEC0EFD1E0E0D75
:101B80001F1DF8011082C7010E94AF0C60E270E0D7
:101B9000C7010E940B0C6AE071E08E010F5F1F4FBE
:101BA000C8010E948C14C8010E94AF0C60E270E072
:101BB000C7010E940B0C66E171E0C8010E948C1401
:101BC000A0E0B0E0F80103C0848B119631968081CB
:101BD0008823D1F74114510419F480E293E001C045
:101BE000C201AE014B5E5F4F4A0F5B1F05C0FA0199
:101BF0002193AF0111960196FC012081222319F057
:101C0000A032B105A4F335E1E32EF12CEC0EFD1E5C
:101C1000AE0DBF1D1C92C7010E94AF0C6CE271E0BB
:101C200080E090E00E946F0F60E270E0C7010E94C8
:101C30000B0C61E271E08E010F5F1F4FC8010E9423
:101C40008C14C8010E94AF0C64EF71E080E090E05A
:101C50000E946F0FC601B5010E945E0A60E270E04B
:101C6000C7010E94470CC8010E94AF0C64EF71E0ED
:101C700080E090E00E946F0F60E270E0C7010E9478
:101C8000470C80E090E0E4960FB6F894DEBF0FBEFC
:101C9000CDBFDF91CF911F910F91FF90EF90DF901B
:101CA000CF90BF90AF909F908F907F906F905F90FC
:101CB0004F90089584B7806884BF84B7806884BFDC
:101CC0001092610010926200379A359886B1887F31
:101CD000876086B987B18F7387B93D9887B1807E59
:101CE00087B9089597B1907E97B997B1982B97B916
:101CF0000895369A3699FECF84B125B199273327B6
:101D0000322F2227822B932B089597B1907E97B97B
:101D100097B1982B97B90E94790E08952F923F9210
:101D20004F925F926F927F928F929F92AF92BF92EB
:101D3000CF92DF92EF92FF920F931F93CF93DF9397
:101D4000CDB7DEB724970FB6F894DEBF0FBECDBF78
:101D50007B018C011A0197FD03C01C821B820FC0FE
:101D600010950095F094E094E11CF11C011D111DEB
:101D70008DE2FA01808321E030E03C832B831A82DC
:101D80001982612C8AEC782E8AE9882E8BE3982EB2
:101D90004B805C80420C531CC801B701A401930125
:101DA0000E94241BA22EBB24CC24DD24222371F00C
:101DB0008A2D805DF20181932F012B813C812F5F61
:101DC0003F4F3C832B8331E039830CC089818823CA
:101DD00049F0F20120E321932F018B819C81019630
:101DE0009C838B83C601B501A40193010E94051B4E
:101DF000E61AF70A080B190BC401B3012AE030E018
:101E000040E050E00E94241B39014A019A819F5F03
:101E10009A83993009F6EB81FC812E0E3F1EC80192
:101E2000B7010E94241B205DF10120832B813C819E
:101E30002F5F3F4FB901882777FD8095982F249613
:101E40000FB6F894DEBF0FBECDBFDF91CF911F91CB
:101E50000F91FF90EF90DF90CF90BF90AF909F9049
:101E60008F907F906F905F904F903F902F9008954C
:101E7000FB01282F22952F70922F905D9A3308F046
:101E8000995F90838F70982F905D9A3308F0995FD7
:101E900091830895109289001092880010928B000F
:101EA000660F771F881F991F82E080938A0040E0A9
:101EB00050E00FC03FB7F8942091880080918900CE
:101EC000422F55279927982F8827482B592B7894EC
:101ED0003FBF4617570770F310928A000895AF92DC
:101EE000BF92CF92DF92EF92FF920F931F935B010D
:101EF0006C01EE24FF2487010BC068EE73E080E0E4
:101F000090E00E944A0F0894E11CF11C011D111D74
:101F1000EA14FB040C051D0581F71F910F91FF903A
:101F2000EF90DF90CF90BF90AF9008950F931F93E5
:101F3000CF93DF938C01C0E0D0E002C00E94870AFB
:101F4000F801EC0FF11D808121968823B9F7DF910C
:101F5000CF911F910F9108958C9A949810929800A8
:101F600081E08093990082E480939B0088E98093CC
:101F70009A0086E080939D001092840380918403F0
:101F80008093850378940895E6E2F4E0E80FF11D6C
:101F900065830895E6E0F4E0E80FF11D808199275C
:101FA0000895482F9091850360E01FC02F5F3F4F39
:101FB00085E72233380731F49093850381E01AC016
:101FC00020E030E080918403981781F3903809F481
:101FD00090E0E92FFF27EA57FC4F8081E62FFF278B
:101FE000EA5FFB4F80839F5F6F5F641749F79093B1
:101FF000850380E0909128049E3F09F457C0882310
:1020000059F04F3F49F080918403809385036FEF2F
:102010007FEF8FEF9FEF0895643008F447C0809101
:1020200006048F3F21F4809107048F3F49F080918F
:102030008403809385036EEF7FEF8FEF9FEF08950A
:1020400080910804891749F0809184038093850367
:102050006DEF7FEF8FEF9FEF0895209109043327F5
:10206000862F992704972817390719F420E092E062
:1020700010C080918403809385036CEF7FEF8FEF16
:102080009FEF0895E92FFF27EA5FFB4F8081280F1C
:102090009F5F9617B9F72F3F49F080918403809393
:1020A00085036BEF7FEF8FEF9FEF089577278827EA
:1020B000992708951F920F920FB60F9211248F93B4
:1020C0009F93EF93FF9380918403803811F41092D3
:1020D000840380918403E82FFF2790919C00EA57A6
:1020E000FC4F90838F5F80938403FF91EF919F91CA
:1020F0008F910F900FBE0F901F9018950F931F9305
:10210000CF93DF939FEF90932604909327048093BF
:1021100028044E5F4093290460932A04042F0C5F27
:1021200052E040E0C02FDD279E012150304003C027
:102130008081480F5F5F852F9927FC01EA5DFB4F87
:1021400082179307ACF340954083949A10E00DC03A
:1021500080919B00806480939B00E12FFF27EA5DC4
:10216000FB4F80810E94BE0A1F5F101789F7809184
:102170009B0086FFFCCF9498CE01DF91CF911F91F9
:102180000F91089542E065E08EEF0E947E10089561
:1021900040E061E00E947E108FEF0E94D10F20E0AE
:1021A00030E0663011F421E030E0C90108950F936A
:1021B0001F93CF93DF938C01742F8EE180932B04B8
:1021C00084E080932C0450E042E0C32FDD272AC036
:1021D000E42FFF27EA5DFB4F6583A52FBB27AA0FDE
:1021E000BB1FA00FB11F4F5FE42FFF27EA5DFB4F1E
:1021F0008C9185834F5FE42FFF27EA5DFB4F8D9124
:102200009C91892F992785834F5FE42FFF27EA5DF3
:10221000FB4F25834F5FE42FFF27EA5DFB4FC5830C
:102220004F5F5F5F6F5F571799F645E0749FA0019E
:1022300011244E5F63E88EEF0E947E10DF91CF91F4
:102240001F910F9108951F93CF93DF93EC01162FE9
:102250008EE180932B0484E080932C04A0E032E094
:10226000652F77272BC02A2F2F5FE32FFF27EA5DEB
:10227000FB4F2583BB27AA0FBB1FAC0FBD1F3F5FC2
:10228000E32FFF27EA5DFB4F8C9185833F5FE32FB0
:10229000FF27EA5DFB4F8D919C91892F99278583BC
:1022A0003F5FE32FFF27EA5DFB4F45833F5FE32F4F
:1022B000FF27EA5DFB4F65833F5FA22FA11799F6C9
:1022C00045E0149FA00111244E5F63E88EEF0E9449
:1022D0007E10DF91CF911F9108959EE190932B0482
:1022E00060932C04672F772760932D0440932E046E
:1022F000452F552740932F0445E064E00E947E104F
:1023000086E00E94D10F663019F480E090E00895D5
:10231000862F99270895982F8E3F50F483E080935D
:102320002B0490932C0442E063E08EEF0E947E1019
:102330000895CF93DF93EA0160932B0491E090938B
:102340002C0442E062E00E947E1087E00E94D10FE0
:10235000673071058105910541F480910B048883F4
:1023600060E070E080E090E001C01882DF91CF91E2
:1023700008950F931F93CF93DF93082FEB0113E082
:1023800084E280932B0482E080932C0442E062E09C
:10239000802F0E947E1088E00E94D10F6830710566
:1023A0008105910589F420910C043327322F2227CF
:1023B0003983288380910B049927282B392B398363
:1023C000288380E090E006C01150D1F6198218826F
:1023D000862F9927DF91CF911F910F910895E19951
:1023E000FECF9FBB8EBB6DBBE29AE19AE199FECF17
:1023F0000895E199FECF9FBB8EBBE09A8DB39927DC
:1024000008958FE584BBAC98AE9A85B3807F85BB79
:1024100085B38A6085BB0895282F9D9BFECF85B329
:10242000807F85BB85B3922F92959F70892B85BB4A
:10243000AC9A9D99FECFAC989D9BFECF85B3807FD3
:1024400085BB85B32F70822B85BBAC9A9D99FECF3F
:10245000AC980895E0E3F3E081E080831182329646
:1024600093E0E435F907C9F70E94011289E00E9460
:102470000C120895EF92FF920F931F93E82EF62E01
:1024800081E18E1550F1477009F441E0FF2011F40D
:1024900021E0F22E2E2D3327F901EE0FFF1FE05D14
:1024A000FC4F81818F1508F4406840838901000F3B
:1024B000111F005D1C4FF801808180648083F182D0
:1024C00081E00E940C128E2D0E940C128F2D0E9412
:1024D0000C12F80180810E940C121F910F91FF9045
:1024E000EF90089580E090E008951F93182F8231B7
:1024F00078F482E00E940C12812F0E940C12E12FCE
:10250000FF27EE0FFF1FE05DFC4F8081806480831A
:102510001F9108951F93182F83E00E940C12812FA2
:102520000E940C12E12FFF27EE0FFF1FE05DFC4F12
:1025300080818F7880831F9108958F929F92AF92B0
:10254000BF92CF92DF92EF92FF920F931F93CF93A0
:10255000DF934C017B01042FA22E84E00E940C1219
:10256000802F0E940C128A2D0E940C12BB243AC0AC
:102570002B2D3327F701E20FF31F808187708083B3
:10258000E114F10419F471E0E72EF12CE401C20F1B
:10259000D31F8881882311F481E088839881C02E1D
:1025A000DD24F601EE0FFF1FE05DFC4F8181F70196
:1025B000E20FF31F891718F41081106802C0108110
:1025C0001F771064892F0E940C12812F0E940C1219
:1025D000F601EE0FFF1FE05DFC4F108388818183C1
:1025E000B3940F5FBA1421F6DF91CF911F910F9131
:1025F000FF90EF90DF90CF90BF90AF909F908F9023
:102600000895AF92BF92CF92DF92EF92FF920F9315
:102610001F93CF93DF935C01062FC42E86E00E94A8
:102620000C12802F0E940C128C2D0E940C12DD24A3
:102630002EC0E02EFF24F701EE0FFF1FE05DFC4FE0
:10264000808187708083882311F481E08083E50195
:10265000CD0DD11D8881882311F481E088832881E4
:1026600081819081821718F4192F106802C0192FE8
:102670001F77822F0E940C12F701EE0FFF1FE05D03
:10268000FC4F1064108388818183D3940F5FDC1426
:1026900081F6DF91CF911F910F91FF90EF90DF9026
:1026A000CF90BF90AF900895FF920F931F93CF9359
:1026B000DF93EC01162FF42E87E00E940C12812F7D
:1026C0000E940C128F2D0E940C1200E01DC0A02F42
:1026D000BB27FE01EA0FFB1F808187708083209754
:1026E00011F4C1E0D0E0E12FFF27EE0FFF1FE05D06
:1026F000FC4F8081807CAC0FBD1F9C91892B808317
:102700000E940C120F5F1F5F0F1509F7DF91CF9129
:102710001F910F91FF9008951F93182F177009F4C0
:1027200011E088E00E940C12812F0E940C12E0E35D
:10273000F3E08081807C812B8083329683E0E435D6
:10274000F807B9F71F910895EF92FF920F931F9327
:10275000182F7B01042F8AE00E940C12812F0E9407
:102760000C12F694E794F694E7948E2D0E940C12C6
:10277000802F0E940C121F910F91FF90EF900895EF
:10278000992786579D4F42E0BC018FEF0E94A4130A
:10279000089542E06AE872E08FEF0E94A413089562
:1027A0001F93182F8BE00E940C1280E00E940C12E5
:1027B0006AE070E080E090E00E946F0F8BE00E9482
:1027C0000C12812F88770E940C121F9108951ABA5B
:1027D0001BBABC9A87B38E7987BB8F98C49A089529
:1027E000B6990EC0B09B0CC086B3992725E096958C
:1027F00087952A95E1F7809590958170907008955E
:1028000080E090E008958799FECFB09BFECFB59908
:10281000FECFB699FECF8F9A1ABA9798C49889B30B
:1028200089B389B389B3C49A979AB099FECF8F9828
:10283000979899270895982FB699FECFB09BFECF11
:10284000B59BFECF8799FECF8F9A8FEF8ABB9BBB3C
:102850009798C498979AB099FECF8F9897980895B3
:1028600097B3917797BB97B38E78982B97BB82B12C
:10287000837082B982B16C7F862B82B940936100EC
:102880002093640008956830E1F0693038F46230D4
:10289000A1F06430A1F06130D9F40DC06032A9F02C
:1028A000613218F46031A1F40EC0603481F06038F8
:1028B00079F427E00DC020E00BC021E009C022E040
:1028C00007C023E005C024E003C025E001C026E0E6
:1028D000813059F0813038F0823049F0833089F00E
:1028E0008FEF90E0089586B303C081B101C080B13D
:1028F0008623992702C0959587952A95E2F799270F
:102900000895809163008623992702C09595879545
:102910002A95E2F799270895FB01DC0105900D92B5
:102920000020E1F708950F931F93CF93DF93CDB766
:10293000DEB760970FB6F894DEBF0FBECDBF0F892C
:10294000188D86E08E831C830B838FEF9FE798871B
:102950008F83AE01455E5F4F5A834983698D7A8DBF
:10296000CE0103960E94E91429853A85020F131FB0
:10297000F801108260960FB6F894DEBF0FBECDBF8F
:10298000DF91CF911F910F910895CF93DF93CDB732
:10299000DEB760970FB6F894DEBF0FBECDBF85E0FF
:1029A0008E838D899E899C838B83AE01475E5F4FAA
:1029B0005A8349836F89788DCE0103960E94B4179C
:1029C00060960FB6F894DEBF0FBECDBFDF91CF91FA
:1029D00008952F923F924F925F926F927F928F92C3
:1029E0009F92AF92BF92CF92DF92EF92FF920F939E
:1029F0001F93CF93DF93CDB7DEB764970FB6F894EC
:102A0000DEBF0FBECDBFCC24DD2476011C017C8B44
:102A10006B8B2A01FC0117821682838181FD03C022
:102A20008FEF9FEF88C2AA24BB2472C2A0FE57C2B8
:102A30008A8980538A30E8F4FA89F03341F42D858D
:102A4000222329F4A3FC03C080E091E06FC08AE058
:102A5000ED85E802C0011124FA89F80FF053FD87D3
:102A6000F7FF02C02FE72D87A3FC4CC23D853E87B0
:102A700049C2C50188709070A3FE05C0ED85EE23A4
:102A800011F4F1E0FD872A89283624F525360CF06B
:102A90005BC0233509F480C024358CF42B32C1F19E
:102AA0002C3234F42032C1F1233209F00DC23CC083
:102AB0003A893D32B1F13E3209F006C23AC08A8904
:102AC000833609F449C084360CF081C0883509F09A
:102AD000FBC11BC0EA89E03709F4A3C0E13744F425
:102AE000EC3669F1EF3671F0E93609F0EDC16FC0EF
:102AF000FA89F53709F49DC0F83739F0F33709F052
:102B0000E3C134C028E0298B94C030E1398B91C0F7
:102B100080E190E0A82AB92AE0E2F0E0AE2ABF2ADC
:102B2000F1C120E830E00DC080E490E0A82AB92A85
:102B3000E9C1E8E0F0E0AE2ABF2A1D86E3C124E047
:102B400030E0A22AB32ADEC14FE3C42E3E853150C5
:102B50003E8783E68A8B44C1F201C080FE85F15036
:102B6000FE8722E030E0420E531E3AC1F201C080DF
:102B7000D180892B49F0FD856F2F772767FD7095F0
:102B8000C6010E946E1A19C0F60101900020E9F7F3
:102B90003197EC19E98B12C0F201C080D180892BEA
:102BA00049F0FD856F2F772767FD7095C6010E945C
:102BB000631A03C0C6010E945A1A898B22E030E0D2
:102BC000420E531E3E858989381B3E8709C1A2FEED
:102BD00008C0F20180819181A281B38124E030E0BC
:102BE00009C0F20180819181AA2797FDA095BA2F93
:102BF00022E030E0420E531E6C017D01B7FF0CC095
:102C000082E090E0A82AB92AF094E094D094C0948D
:102C1000C11CD11CE11CF11CEFEBFFEFAE22BF2267
:102C200021C020E430E0A22AB32A38E73A8B80E1C1
:102C3000898BA2FE08C0F20180819181A281B381BB
:102C400024E030E007C0F20180819181AA27BB27F0
:102C500022E030E0420E531E6C017D018FEC9FEFAD
:102C6000A822B92287017601FE013196F88BEF8701
:102C7000F9896F2E772488249924C801B701A4010B
:102C800093010E94241B6A3024F02A89620F61524A
:102C900001C0605DEF85F8896193F88BEF87C8010B
:102CA000B701A40193010E94241B79018A01211517
:102CB00031054105510509F7CC24DD247601CE010B
:102CC0000196CF84C81AC50182739070892B19F0C0
:102CD000FE85F150FE87A6FE09C02989203111F436
:102CE00082E001C081E03E85381B3E8738E0832EBC
:102CF000912C8A209B20A3FE1BC08D85282F332773
:102D000027FD30958C2D99278217930754F0E7EF14
:102D1000FFEFAE22BF2228E0822E912C8A209B203A
:102D200007C0FD85FC19FD872E852F1B2E8703C04C
:102D30003E853C193E87C50180789170892B69F4E6
:102D40008E8506C0B10180E290E00E94BC1A812FFE
:102D5000182F11501816B4F31E87A1FE04C0B1013C
:102D60008DE290E00BC0A4FE04C0B1018BE290E0C4
:102D700005C0A5FE05C0B10180E290E00E94BC1A2A
:102D8000A6FE10C0B10180E390E00E94BC1A8989C0
:102D9000803141F4B101EA898E2F992787FD909502
:102DA0000E94BC1AB0FE0DC08E8506C0B10180E342
:102DB00090E00E94BC1A812F182F11501816B4F3FE
:102DC0001E87892869F02D8506C0B10180E390E057
:102DD0000E94BC1A212F122F11501216B4F31D8716
:102DE00090E8692E712C6A207B20A7FC0DC08E858F
:102DF00006C0B10180E290E00E94BC1A812F182F1A
:102E000011501816B4F31E87FA89F33641F4B10154
:102E10008C2D992787FD90950E94BC1A45C02A8960
:102E20002337B1F446015601198909C0F501819192
:102E30005F01B101992787FD90950E94BC1A11503E
:102E4000A8F76401F989CF0ED11C2FEF298B2CC074
:102E50003A89333519F00F8518891FC0460186015C
:102E6000B98808C0F8018491B10199270E94BC1A61
:102E70000F5F1F4FBA94FFEFBF16A1F764012989B6
:102E8000C20ED11CF98B10C0F80182918F01B101E3
:102E9000992787FD90950E94BC1ACE0101960817CC
:102EA000190791F7188B0F876728B1F08E8506C038
:102EB000B10180E290E00E94BC1A812F182F1150BE
:102EC0001816B4F31E8708C0B101FA898F2F99270D
:102ED00087FD90950E94BC1AAA24BB2413C02A899E
:102EE000253241F43AE0398B1E861D8681E0A82EFA
:102EF000B12C08C0B101EA898E2F992787FD9095E2
:102F00000E94BC1A2B893C892F5F3F4F3C8B2B8B37
:102F1000F101838183FF04C0EB89FC89F49103C034
:102F2000EB89FC89F081FA8B2A89222309F07ECD76
:102F3000F1018681978164960FB6F894DEBF0FBECB
:102F4000CDBFDF91CF911F910F91FF90EF90DF9058
:102F5000CF90BF90AF909F908F907F906F905F9039
:102F60004F903F902F9008952F923F924F925F92F3
:102F70006F927F928F929F92AF92BF92CF92DF9289
:102F8000EF92FF920F931F93CF93DF93CDB7DEB7EE
:102F90002A970FB6F894DEBF0FBECDBFAA24BB247C
:102FA00065013C017A8769872A01FC011782168234
:102FB000838180FD05C02FEF3FEF3D832C835FC2EF
:102FC0001F821E824FEF5FEF5D834C83882499241C
:102FD0001B821A8219821DC25981E52EFF24E0FE50
:102FE000DBC1153219F45E7F598300C2912F9053D3
:102FF0009A3060F48FE7281611F480E004C08AE06C
:10300000289E802D1124282E290EFEC1812F99275C
:1030100087FD90950E94551B382E9EE6391609F4BF
:103020008CC19315DCF0A8E63A1609F4EDC1A3159E
:1030300064F0B3E63B1691F1E4E63E1609F4A2C053
:10304000FAE23F1609F088C121C029E6321609F4D8
:1030500099C03CE6331609F07FC11CC043E7341623
:1030600009F44BC043154CF05FE6351609F47FC0F8
:1030700080E7381609F070C180C095E7391609F469
:103080007EC0A8E73A1609F067C177C0B981B06180
:10309000B983BAC1E981E460E983B6C187010071EF
:1030A0001070E4FC07C0D201AD90BC90E2E0F0E00B
:1030B0004E0E5F1EFFE72F1611F431E0232E75012F
:1030C0000FC0C3010E94791A4C012FEF8F3F920766
:1030D00009F4D1C10115110519F4D7018D937D01B2
:1030E0002A94822D8F5F181664F3570135C157015A
:1030F000B301C4010E94E91A34C087010071107045
:10310000E4FC07C0F201A080B18022E030E0420E72
:10311000531EC3010E94791A4C010E94461B892B41
:10312000C1F73FEF83163FEF930609F4A4C1750181
:1031300012C0C4010E94461B892BC9F60115110556
:1031400019F4D7018D927D01C3010E94791A4C01B7
:103150008F5F9F4F29F02A94822D8F5F18164CF3B2
:103160005701012B09F0F8C0F5011082F5C0E98183
:10317000E260E983F8E0F88705C020E1288739811B
:1031800032603983C3010E94791A4C010E94461BA8
:10319000892BC1F74FEF84164FEF940609F447C10E
:1031A000882D8D3211F08B3299F42A9412140CF080
:1031B0003EC18D3219F4598158605983C3010E9470
:1031C000791A4C018FEF88168FEF980609F42FC1FA
:1031D00090E38916A1F5AA24BB2465012A94121450
:1031E0000CF07EC0C3010E94791A4C01AFEF8F3FF3
:1031F0009A0709F475C00E94551B8837D9F4BFE6B9
:103200003B1631F0E4E63E1619F0F5E73F1629F4D7
:10321000B301C4010E94E91A63C0C3010E94791A74
:103220004C018F5F9F4F19F430E1388759C040E15E
:10323000488705C059E6351611F488E08887EE24E2
:10324000FF248701C4010E94551B20EDC22E2FEFE1
:10325000D22EC80ED91E9AE0C916D1043CF0C60180
:10326000C19762F0A9EDBFEFCA0EDB1ED7FC06C006
:10327000B8858B2F9927C816D9063CF057016801ED
:10328000B301C4010E94E91A21C0E8852E2F33271B
:1032900044275527C801B7010E94051B7B018C01FB
:1032A000C601AA2797FDA095BA2FE80EF91E0A1F9E
:1032B0001B1F2A94121444F4C3010E94791A4C0172
:1032C0008F5F9F4F09F0BECF57016801298123FF0F
:1032D00007C0AA24BB246501AE18BF08C00AD10AE2
:1032E0004981242F332724FD37C0C901867090708F
:1032F000069741F4D201ED91FC91A082B182C28285
:10330000D38226C021FF06C0D201ED91FC91B1828B
:10331000A0821EC0C201029622FF08C0D201ED9118
:10332000FC91A082B182C282D38205C0D201ED910C
:10333000FC91B182A0822C010FC0E4FC0DC0F2010F
:1033400020813181F30186819781D9018D939C93EE
:10335000E2E0F0E04E0E5F1EF301868197812A8144
:103360003B81281739076CF4398134FD06C04E8142
:103370005F814F5F5F4F5F834E831D821C82198286
:1033800043C05EE6351609F052C08FEF88168FEF06
:10339000980609F44CC0F3CF153269F4F3010680A6
:1033A000F781E02DFB83EA83FAE0F8878FE7282E88
:1033B00021E0298329C0812F992787FD90950E94BC
:1033C000461B892B99F0C3010E94791A4C010E9477
:1033D000461B892BC1F73FEF83163FEF930609F495
:1033E00041C0B301C4010E94E91A0EC0C3010E948A
:1033F000791A4C018F5F9F4FD1F0812F992787FD5C
:1034000090958816990699F489859A8501969A87E8
:103410008987F301838183FF04C0E985FA851491CC
:1034200003C0A985BA851C91112309F0D5CDB981B6
:103430002B2F332720FF11C0F301868197814A810A
:103440005B81481759074CF424FD05C08E819F818C
:1034500001969F838E831D821C829FEF89169FEFAA
:10346000990621F4AE81BF81AB2B49F0EE81FF813B
:10347000FD83EC8304C0F9812F2F3327DDCF8C81AE
:103480009D812A960FB6F894DEBF0FBECDBFDF91A7
:10349000CF911F910F91FF90EF90DF90CF90BF9051
:1034A000AF909F908F907F906F905F904F903F90E4
:1034B0002F900895FC0105900020E9F780959095E4
:1034C0008E0F9F1F0895FC01059061507040011000
:1034D000D8F7809590958E0F9F1F0895FC0161503D
:1034E000704001900110D8F7809590958E0F9F1F26
:1034F0000895CF93DF93EC012B81822F992780FFD2
:1035000015C086FF0AC02F7B2B838E819F81019679
:103510009F838E838A8199272CC082FF12C0E88105
:10352000F9818081882329F420622B838FEF9FEF1C
:1035300020C0282F332727FD30953196F983E88363
:1035400011C0EA85FB85CE0109959C0197FF0AC051
:103550008B812F5F3F4F11F490E101C090E2892BE6
:103560008B83E4CF8E819F8101969F838E83822FF0
:103570009927DF91CF9108950F931F93CF93DF93F6
:103580008C01EB018B81992781FF1BC082FF0DC04D
:103590002E813F818C819D812817390764F4E88151
:1035A000F9810193F983E88306C0E885F985802FC6
:1035B0000995892B31F48E819F8101969F838E839B
:1035C00002C00FEF1FEFC801DF91CF911F910F9144
:1035D0000895AC01FB012381822F992780FF12C03F
:1035E00086FD10C08FEF4F3F580761F04283206483
:1035F0002F7D238386819781019797838683842FEC
:10360000992708958FEF9FEF0895629FD001739FD0
:10361000F001829FE00DF11D649FE00DF11D929F6E
:10362000F00D839FF00D749FF00D659FF00D9927AD
:10363000729FB00DE11DF91F639FB00DE11DF91FD1
:10364000BD01CF0111240895A1E21A2EAA1BBB1BB4
:10365000FD010DC0AA1FBB1FEE1FFF1FA217B3075E
:10366000E407F50720F0A21BB30BE40BF50B661F74
:10367000771F881F991F1A9469F760957095809538
:1036800090959B01AC01BD01CF010895911113C02C
:10369000803251F08A3041F08C3031F08D3021F0A1
:1036A000893011F08B3099F708958F9309D08F915D
:1036B00009F08062089599278827089585FDFBCF3A
:1036C00080629111F8CF8136ECF38B37DCF70895E7
:0236D000FFCF2A
:1036D2004455414C504F4200504F42004F4B004521
:1036E2005849540054455354004D4F544F5253506F
:1036F200454544002564004E4F4B0052554E004C48
:10370200454654005249474854004241434B0053F6
:10371200544F5000414E4100545950450042494FC8
:103722004C4F4944004455414C504F42005345527E
:10373200564F0053455441583132005341564500CB
:10374200474F003F0054657374206D656E753A0AE9
:103752000D0031202D207465737420616E616C6FD1
:103762006720696E7075740A0D0032202D20746511
:103772007374206A6F79737469636B2070757368F0
:1037820020627574746F6E0A0D0033202D207465EB
:10379200737420736572766F6D6F746F7220300A66
:1037A2000D0034202D2074657374206463206D6FC6
:1037B200746F720A0D0035202D20746573742062B7
:1037C200696F6C6F696420736572766F6D6F746F69
:1037D200720A0D0036202D207465737420656570A1
:1037E200726F6D0A0D0037202D20657869740D0AFD
:1037F2000053656C65637420612063686F6963655B
:10380200733A20000A0D00504630205046312050B5
:103812004632205046332050463420504635205000
:103822004636205046370A0D000A0D5075736862FD
:103832007574746F6E2070726573730A0D0A0D00D1
:103842000A0D50757368627574746F6E204E4F5412
:103852002070726573730A0D0A0D000A0D7365619B
:1038620072636820666F72206178313220736572EC
:10387200766F2E2E2E706C65617365207761697488
:103882002E2E2E0D0A00736572766F206964656EA6
:103892007469666965723A200025640D0A004E75E6
:1038A2006D626572206F66206178313220736572B5
:1038B200766F6D6F746F723A20000A0D57726974D9
:1038C2006520656570726F6D3A20004F4B0A0D528C
:1038D20065616420656570726F6D3A2000464149EA
:1038E2004C45440A0A0D004F4B0A0A0D0041540090
:0C38F2004455414C504F420001000000C2
:00000001FF
