:100000000C9446000C9465000C9465000C946500FB
:100010000C9465000C9465000C9465000C946500CC
:100020000C9465000C9465000C9465000C946500BC
:100030000C9465000C9465000C9465000C946500AC
:100040000C9465000C9465000C9465000C9465009C
:100050000C9465000C9465000C9465000C9465008C
:100060000C9465000C9465000C9465000C9465007C
:100070000C9465000C9465000C9465000C9465006C
:100080000C9465000C9465000C94650011241FBE4F
:10009000CFEFD0E1DEBFCDBF11E0A0E0B1E0EAE8F4
:1000A000F9E000E00BBF02C007900D92AE30B1073F
:1000B000D9F711E0AEE0B1E001C01D92A233B10763
:1000C000E1F70E9467000C94C4040C94000060E007
:1000D0007BE480E090E00E9481000E94C60280E004
:1000E00091E00E9487020E94AE008136E1F788E429
:1000F0000E946C0441E064EF70E089EF0E944004CC
:10010000F2CF9B01AC01203084E8380783E0480738
:1001100080E05807A9F093E0220F331F441F551FBA
:100120009A95D1F760E074E284EF90E00E94A20417
:1001300021503040832F99278093900029B902C025
:1001400088E089B982E48BB988E18AB986E0809336
:10015000950008955D9BFECF8CB908955F9BFECFFF
:100160008CB199270895FC015F9904C0108280E04A
:1001700090E008958CB1808381E090E008959B0128
:10018000AC0160E472E48FE090E00E94A204215090
:100190003040832F9927809398002093990080E422
:1001A00080939B0088E180939A0086E080939D0075
:1001B000089580919B0087FFFCCF80919C00992738
:1001C0000895982F80919B0085FFFCCF90939C0011
:1001D0000895AF92BF92CF92DF92EF92FF920F936A
:1001E0001F93CF93DF93EC015A016B01EE24FF24A0
:1001F00087010BC0FE01EE0DFF1D80810E94E10012
:100200000894E11CF11C011D111DEA14FB040C05EE
:100210001D0581F7DF91CF911F910F91FF90EF9016
:10022000DF90CF90BF90AF900895FC0180919B002C
:1002300087FD04C0108280E090E0089580919C00CA
:10024000808381E090E00895EF92FF920F931F93D7
:10025000DC017A018B0120E030E040E050E00EC08C
:1002600080919B0087FFFCCF80919C00FD01E20FF5
:10027000F31F80832F5F3F4F4F4F5F4F2E153F057A
:100280004007510769F71F910F91FF90EF90089574
:10029000EF92FF920F931F93DC017A018B0120E014
:1002A00030E040E050E00BC05F9BFECF8CB1FD0121
:1002B000E20FF31F80832F5F3F4F4F4F5F4F2E158D
:1002C0003F054007510781F71F910F91FF90EF9075
:1002D00008959C0180E090E0A0E0B0E00AC0F90140
:1002E000E80FF91FE0815D9BFECFECB90196A11DDF
:1002F000B11D84179507A607B70789F708952F92B0
:100300003F924F925F926F927F928F929F92AF92A5
:10031000BF92CF92DF92EF92FF920F931F93CF93F2
:10032000DF93CDB7DEB724970FB6F894DEBF0FBECC
:10033000CDBF7B018C011A0197FD03C01C821B827B
:100340000FC010950095F094E094E11CF11C011D84
:10035000111D8DE2FA01808321E030E03C832B8384
:100360001A821982612C8AEC782E8AE9882E8BE316
:10037000982E4B805C80420C531CC801B701A4012D
:1003800093010E94A204A22EBB24CC24DD242223AC
:1003900071F08A2D805DF20181932F012B813C81C8
:1003A0002F5F3F4F3C832B8331E039830CC0898121
:1003B000882349F0F20120E321932F018B819C8156
:1003C00001969C838B83C601B501A40193010E9411
:1003D0008304E61AF70A080B190BC401B3012AE0DB
:1003E00030E040E050E00E94A20439014A019A81C5
:1003F0009F5F9A83993009F6EB81FC812E0E3F1E98
:10040000C801B7010E94A204205DF10120832B8165
:100410003C812F5F3F4FB901882777FD8095982F4A
:1004200024960FB6F894DEBF0FBECDBFDF91CF91FB
:100430001F910F91FF90EF90DF90CF90BF90AF9002
:100440009F908F907F906F905F904F903F902F90F4
:100450000895FB01282F22952F70922F905D9A33DB
:1004600008F0995F90838F70982F905D9A3308F011
:10047000995F9183089510928900109288001092DC
:100480008B00660F771F881F991F82E080938A0078
:1004900040E050E00FC03FB7F89420918800809171
:1004A0008900422F55279927982F8827482B592BA9
:1004B00078943FBF4617570770F310928A0008954B
:1004C000AF92BF92CF92DF92EF92FF920F931F9362
:1004D0005B016C01EE24FF2487010BC068EE73E022
:1004E00080E090E00E943B020894E11CF11C011D99
:1004F000111DEA14FB040C051D0581F71F910F91D6
:10050000FF90EF90DF90CF90BF90AF9008950F9342
:100510001F93CF93DF938C01C0E0D0E002C00E9414
:10052000AA00F801EC0FF11D808121968823B9F70C
:10053000DF91CF911F910F9108958FE584BBAC9807
:10054000AE9A85B3807F85BB85B38A6085BB0895ED
:10055000282F9D9BFECF85B3807F85BB85B3922FCF
:1005600092959F70892B85BBAC9A9D99FECFAC98D4
:100570009D9BFECF85B3807F85BB85B32F70822B7B
:1005800085BBAC9A9D99FECFAC980895EEE0F1E062
:1005900081E080831182329691E0E233F907C9F756
:1005A0000E949D0289E00E94A8020895EF92FF92A6
:1005B0000F931F93E82EF62E81E18E1550F14770B0
:1005C00009F441E0FF2011F421E0F22E2E2D332713
:1005D000F901EE0FFF1FE25FFE4F81818F1508F4D6
:1005E000406840838901000F111F025F1E4FF80110
:1005F000808180648083F18281E00E94A8028E2D38
:100600000E94A8028F2D0E94A802F80180810E94FA
:10061000A8021F910F91FF90EF90089580E090E065
:1006200008951F93182F823178F482E00E94A80267
:10063000812F0E94A802E12FFF27EE0FFF1FE25F2C
:10064000FE4F8081806480831F9108951F93182F2F
:1006500083E00E94A802812F0E94A802E12FFF27B9
:10066000EE0FFF1FE25FFE4F80818F7880831F9126
:1006700008958F929F92AF92BF92CF92DF92EF92A6
:10068000FF920F931F93CF93DF934C017B01042FB5
:10069000A22E84E00E94A802802F0E94A8028A2D28
:1006A0000E94A802BB243AC02B2D3327F701E20F8A
:1006B000F31F808187708083E114F10419F471E0E5
:1006C000E72EF12CE401C20FD31F8881882311F497
:1006D00081E088839881C02EDD24F601EE0FFF1F94
:1006E000E25FFE4F8181F701E20FF31F891718F4D3
:1006F0001081106802C010811F771064892F0E943A
:10070000A802812F0E94A802F601EE0FFF1FE25FF0
:10071000FE4F108388818183B3940F5FBA1421F652
:10072000DF91CF911F910F91FF90EF90DF90CF90CD
:10073000BF90AF909F908F900895AF92BF92CF924D
:10074000DF92EF92FF920F931F93CF93DF935C01A1
:10075000062FC42E86E00E94A802802F0E94A802C5
:100760008C2D0E94A802DD242EC0E02EFF24F7016C
:10077000EE0FFF1FE25FFE4F80818770808388232A
:1007800011F481E08083E501CD0DD11D888188239E
:1007900011F481E08883288181819081821718F487
:1007A000192F106802C0192F1F77822F0E94A802EC
:1007B000F701EE0FFF1FE25FFE4F10641083888188
:1007C0008183D3940F5FDC1481F6DF91CF911F9169
:1007D0000F91FF90EF90DF90CF90BF90AF90089572
:1007E000FF920F931F93CF93DF93EC01162FF42EFC
:1007F00087E00E94A802812F0E94A8028F2D0E94EC
:10080000A80200E01DC0A02FBB27FE01EA0FFB1FBE
:10081000808187708083209711F4C1E0D0E0E12FC0
:10082000FF27EE0FFF1FE25FFE4F8081807CAC0F41
:10083000BD1F9C91892B80830E94A8020F5F1F5FC0
:100840000F1509F7DF91CF911F910F91FF90089538
:100850001F93182F177009F411E088E00E94A80276
:10086000812F0E94A802EEE0F1E08081807C812B44
:100870008083329681E0E233F807B9F71F9108953B
:10088000EF92FF920F931F93182F7B01042F8AE0A2
:100890000E94A802812F0E94A802F694E794F69481
:1008A000E7948E2D0E94A802802F0E94A8021F911B
:1008B0000F91FF90EF900895992786579D4F42E042
:1008C000BC018FEF0E944004089542E06AE872E0A4
:1008D0008FEF0E94400408951F93182F8BE00E9411
:1008E000A80280E00E94A8026AE070E080E090E048
:1008F0000E9460028BE00E94A802812F88770E94EC
:10090000A8021F910895629FD001739FF001829FFA
:10091000E00DF11D649FE00DF11D929FF00D839F8E
:10092000F00D749FF00D659FF00D9927729FB00D2B
:10093000E11DF91F639FB00DE11DF91FBD01CF013E
:1009400011240895A1E21A2EAA1BBB1BFD010DC0A4
:10095000AA1FBB1FEE1FFF1FA217B307E407F5076F
:1009600020F0A21BB30BE40BF50B661F771F881F4B
:10097000991F1A9469F760957095809590959B01E1
:0A098000AC01BD01CF010895FFCFC7
:0E098A00496E6974206F6B0D0A0001000000B9
:00000001FF
