:10000000F80100EA110200EA100200EA0F0200EA19
:100010000E0200EA0D0200EA0C0200EA0B0200EAFE
:100020007047000030B58168C2680D1C146804C5B3
:1000300085605460151D054A1478631C1370C560F3
:100040000B68C3608160147030BD0000A868004078
:10005000F0B557464646C0B48168C2680D1C80465C
:10006000106804C54446A5601061704D2E78141CBC
:1000700043461034771C2F70DC600F689960DF6096
:100080002E703A68FC686A4D53692A601C60201C17
:1000900001F01EFC0106080E012800D186E03E6832
:1000A0007C68634D73692E609C60201C01F010FC1D
:1000B0000006010E012900D18EE03B68BC685C4D52
:1000C0005E692B607460201C01F002FC0006010ECA
:1000D000012900D196E03D68554C6969A24625602A
:1000E0000C682E1C002C3CD17E68B868041C74433C
:1000F000201C01F071FA4F4952460E6815606A697A
:100100003461301CD66001F0E3FB0306180E0128B1
:1001100000D180E03968464A4D6911604246A868BE
:100120006C682E68E96895682B1C80C393603A1C44
:10013000103238613D4F5460D16096603E7843463E
:1001400001363E704046DA6000F0CEFC2968424637
:100150009560D1603A78013A3A7018BC9846A24648
:10016000F0BDB9687D68081C684309F081FF324919
:1001700009F0A6FF0AF040F9041C01F02DFA2D4BFE
:1001800070691D6852462C611660C560281C01F01C
:100190009FFB0606310E0129BCD154462068017828
:1001A0002E780B1C9E42B5D32970B3E72A681178CC
:1001B00026780B1C9E4200D271E721703E687C6855
:1001C0001B4D73692E609C60201C01F081FB0006B2
:1001D000010E012900D070E72A68117825780B1CE0
:1001E0009D4200D269E721703B68BC68104D5E6992
:1001F0002B607460201C01F06BFB0006010E0129CE
:1002000000D068E72A68117825780B1C9D4200D23F
:1002100061E721705FE754462268117835780B1C3E
:100220009D4200D276E7317074E70000A868004074
:1002300094E50040A8E500400000003E30B581682C
:10024000C2680D1C146804C585605460151D054AFC
:100250001478631C1370C5600B68C36081601470F0
:1002600030BD0000A868004030B58168C2680D1C30
:10027000146804C585605460151D054A1478631C14
:100280001370C5600B68C3608160147030BD0000DE
:10029000A868004030B58168C2680D1C146804C5A8
:1002A00085605460151D054A1478631C1370C56081
:1002B0000B68C3608160147030BD0000A868004006
:1002C00070B58668C268351C04C58560084D2978FC
:1002D00001312970C260041C00F0AEFB3068A660DA
:1002E000E0602B78013B2B7001F048FC70BD0000F2
:1002F000A8680040F0B55F4656464D464446F0B407
:10030000071CBD68C0682C1C01C4BC60CD4C2178A2
:10031000243001312170F860381C00F09FFC2968FE
:10032000BD60F9602278561E2670BE68351C02C575
:10033000BD602270BD6824312B1C02C30132BB603A
:10034000381C2270F96000F077FB2868BD60F86007
:100350002578013D257001F011FC3568BE60FD6017
:10036000217801392170B848102101F0E5F8B74E25
:100370003368BE68321C20C2BA602A1C6B62243209
:1003800040219846002351609160D3602578013563
:100390002570381CFA60FFF75BFE3168BE60F960BB
:1003A0002078AB4A8A46411E21701368A94C40460A
:1003B000206098450AD00E060278330E9A4201D387
:1003C000017020685246916901F026FC4346504670
:1003D000836110219C4801F0AFF89C4D2B68BD68EB
:1003E0005246291C04C14024243250460126B960DB
:1003F000436254609460D660924C21780131217040
:10040000381CFA609846FFF723FE2E68BD60FE6038
:1004100020788F4B411E21701D688E4C4046206015
:10042000A84509D00D0602782B0E9A4201D301701F
:100430002068F16901F0F0FB4146F161BD682A1CBA
:10044000B46940C2BA6074627E4C311C2678243193
:1004500001362670381CF96000F07CFB2A68BD600C
:10046000FA6021784D1E2570BD682B1CD069161CC2
:1004700004C32436BB6050622170381CFE6000F05B
:1004800069FB2A68FA609246BD602678013E2670B4
:100490005346D86908241C615C6180466E49062277
:1004A0006E4801F0D5F86B4D2860BD6851462A1C96
:1004B00002C2BA6052462432002643464B6256605E
:1004C0009660D46010615F4C217801312170381C36
:1004D000FA6000F053FB2868BD60F8602678731E50
:1004E0002370BD682A1C01C22430BA602670F860EF
:1004F000381C00F0FFF92E68BD60FE602278511EA6
:100500002170BD682B1C40C32436BB60381C227090
:10051000FE6000F0FFF92E68BD60FE6020780022CA
:10052000013820707260402A4DDA0121B16011E07B
:10053000B269484D2A6053697468DA68B068A101ED
:100540000918012350695C422A604454B468611C54
:10055000B1607268402932DAF0256B005343B02253
:1005600050001C1248435825654301126C18F46072
:10057000BD682B1C40C3BB607462324C2278301CB7
:10058000243001322270F860381C00F07BF92E68AC
:10059000BD60FE6021780139217000243C75BC6982
:1005A000002CC5D1B1692B484B690160D9687568C9
:1005B000B268AB01016048699D184455C6E7013235
:1005C0007260402AB1DB07222549244801F040F837
:1005D000BC682049251C086040C5BD607062194D8B
:1005E0002B788846311C013324312B70381CF9607C
:1005F00000F0B0F92268BC60FA60287801382870F1
:1006000000263E75BC69124E43461C603368924614
:10061000201C9C420BD0297822780B1C9A4202D3D2
:100620002170414608685246116A01F0F5FA5346B6
:100630001C623368221C9C4200D18CE00021504691
:1006400041601AE0A86800403C000040A8E5004076
:10065000ACE5004094E50040100701000C080040A4
:1006600018070100456908231A35456103615046A2
:10067000446801344460026A211C4B4E13693260A5
:10068000994268DA50464169C4690569884606227C
:100690004649474800F0DCFF434E3060BE68514693
:1006A000321C02C2BA60524624324C624346556044
:1006B00009259360D56010613E4D2C7801342C7073
:1006C000381CFA6000F05AFA3468BE60FC602E787C
:1006D000013E2E70E0692169266A6369834660687D
:1006E000894671699A4683005E5803229244706974
:1006F00091442D4A2D491660066806222C4800F0C8
:10070000A7FFBA682849131C086010C39046BB6055
:10071000221C5B466362243249465346013E5160C7
:1007200010619360D6602B7801332B70381CFA600F
:1007300000F024FA404600684146F860B960297824
:10074000013929700469221C383482461C32402C3D
:1007500088DC02618BE7BE685146321C8C6902C29C
:100760005346BA605C62134C20782431013020700B
:10077000F960381C00F07EFA3268BE60FA602078BA
:10078000451E2570BD682B1CD169161C04C3243678
:10079000BB6051622070381CFE6000F07FFA286850
:1007A0008246F86070E6000094E500401007010002
:1007B0000C080040A868004030B58168C2680D1C74
:1007C000146804C585605460151D054A1478631CBF
:1007D0001370C5600B68C3608160147030BD000089
:1007E000A86800407047C04678309FE503D0A0E17C
:1007F00002AC4DE20010A0E301B0A0E10170A0E165
:100800004C109FE54C309FE5013053E00300000A97
:100810000020A0E30120C1E4013053E2FCFFFFCA45
:1008200034109FE534209FE534309FE5013053E0DC
:100830000300000A0140D2E40140C1E4013053E268
:10084000FBFFFFCA0000A0E30010A0E3E93F00EBBC
:10085000FEFFFFEA0C080040B4E500400000004045
:10086000040801000C080040FCFF00400120704714
:1008700000B5002201E0013001320378002BFAD1EB
:10088000101C00BD00B5C3681A68064B00219A42CF
:1008900004DC054913040A681B0CD15C01220275B3
:1008A000816100BD3F2900002008004000B5C368F9
:1008B0001A68054B00219A4202DC04494B68995C96
:1008C00001220275816100BD3F290000200800401F
:1008D00000B5C168054B0A6800219A4202DC044950
:1008E0008B68995C01220275816100BD3F2900007F
:1008F0002008004000B504F03BF900BD00B503F04E
:10090000B3FE00BD00B503F043FF00BD00B503F02A
:10091000C3FF00BD00B5024802F09AFD00BD000013
:100920002008004000B5024802F01AFF00BD000098
:100930002008004010B5C268041C1188044802F069
:1009400035FF0104080C01232375A06110BD0000D0
:1009500020080040F0B5474680B4314C314B80460A
:10096000211C31481A6803F06DFC0006050E002DAD
:1009700001D0092D08DD2D4F3E684246012010753B
:10098000966108BC9846F0BD294914220868291CC4
:1009900000F008FF061E38D00027002DEDDD201CDA
:1009A00017E013061A0E8A60C2783F2A02D9002285
:1009B000C270616913061A0ECA600423C356027915
:1009C000002B1EDB13061C0E01370C610830AF42F2
:1009D000D3DA7169BB005C58027861690A604278B9
:1009E0003F2A02D93F224270616913061A0E4A60FB
:1009F0000223C3568278002BD3DA7F22827061698A
:100A0000CFE7002202716169DCE70A4802F0BCFC12
:100A1000012642461675054D2C689461B1E7000029
:100A20002C0800405C00004020080040ACE500407D
:100A3000080000402007010000B5024803F0E4FC74
:100A400000BD00002008004000B5C368187819797F
:100A500003F0F6FC00BD000000B5024803F0E2FC24
:100A600000BD00007C08004000B504F081F8024899
:100A700002F04CFD00BD00007C08004000B5C168DC
:100A8000054B0A6800219A4202DC04490B68995C14
:100A900001220275816100BD3F2900007C080040F1
:100AA00000B5C168054B0A6800219A4202DC04497E
:100AB0004B68995C01220275816100BD3F290000ED
:100AC0007C08004000B5C168054B0A6800219A42C5
:100AD00002DC04498B68995C01220275816100BDCA
:100AE0003F2900007C08004030B5174CC2682178CF
:100AF000164D1268CB0059198A702278C168D3004C
:100B00004A685B195A70C1688B68012B17D023782B
:100B10000822DB005A55C2682078D168C2005319F8
:100B20004D6901305D60CA68094B01060D0E1A60FF
:100B3000012D02D90020207030BD2070FCE7227802
:100B4000D3000022E6E700001C08004088080040AF
:100B50009808004010B5C26813685969C86806490A
:100B600042694B6801249A4204D0E000401804F026
:100B7000DFF810BD0024F8E78808004070B5C468AD
:100B8000256869690A4DC8686B68426981B00126A9
:100B90009A420BD0074B2079217A227BF4001B6804
:100BA0006419009404F000FB01B070BD0026F1E769
:100BB000880800406000004010B5C368054A041C66
:100BC0001168187904F088FA0106080E01232375CC
:100BD000A06110BD6000004010B5C368054A041C48
:100BE0001168187904F0ACFA0106080E0123237588
:100BF000A06110BD6000004030B5C1680B685C6941
:100C0000E068074C4269636801259A4206D0EA0011
:100C100088881219098904F0ADF830BD0025F6E77F
:100C20008808004070B5C468256869690A4DC868BD
:100C30006B68426981B001269A420AD0A088218956
:100C4000A289238AF4006419009404F003F901B026
:100C500070BD0026F2E700008808004000B504F0EF
:100C6000ABFF00BD00B5024805F024FB00BD00004D
:100C70008808004010B5C26813685969C8680649F9
:100C800042694B6801249A4204D0E000401805F004
:100C900049F810BD0024F8E78808004010B5C26884
:100CA00013685969C868064942694B6801249A4229
:100CB00004D0E000401805F097F910BD0024F8E7D3
:100CC0008808004000B5C368186804F053FC00BDF4
:100CD00000B5C368187804F073FC00BD00B5C368A4
:100CE000187804F0FFFC00BD10B5041C04F0B4FC3F
:100CF0000106080E01232375A06110BD00B504F0A4
:100D00000DFD00BD00B5C368186804F037FE00BDD6
:100D100010B5041C04F038FE0104080C01232375EF
:100D2000A06110BD00B5C368186804F033FE00BDB3
:100D300000B5C368186804F033FE00BD00B5C36891
:100D40001888197904F03CFE00BD000010B5C26897
:100D5000041C108804F07AFE0106080E0123237596
:100D6000A06110BD00B5C368187801F05DFF00BD3B
:100D700000B5C1680B685869D96801F065FF00BD0E
:100D800010B5041C01F076FF01232375207610BDF9
:100D900010B5C2681168041C48690023037001F093
:100DA00079FF0006000E012804D00020A061012375
:100DB000237510BDA061FAE700B5C1680B685869DA
:100DC000D96801F077FF00BD00B5C26811684869B5
:100DD00003680248596902F0D7FA00BD3C070100D8
:100DE000F0B5474680B4C46884B02268051C184931
:100DF000684609F08BFB01262E75164A13680421FC
:100E0000041C986800F098FB0106080EE846FF28CD
:100E100017D0114E201C376800F0DEFB0106080ECB
:100E2000FF280ED030687B6900211860002C06D99D
:100E30004646735C426953540131A142F8D33B1CCE
:100E400000E0002304B0AB6108BC9846F0BD000090
:100E500040070100ACE50040A8E50040F0B547467A
:100E600080B4C46884B02288051C1849684609F01B
:100E70004DFB01262E75164A13680421041C986840
:100E800000F05AFB0106080EE846FF2817D0114E65
:100E9000201C376800F0A0FB0106080EFF280ED0CA
:100EA00030687B6900211860002C06D94646735CC7
:100EB000426953540131A142F8D33B1C00E00023A6
:100EC00004B0AB6108BC9846F0BD000040070100CB
:100ED000ACE50040A8E50040F0B5474680B4C468E2
:100EE00084B02268051C1849684609F00FFB0126EA
:100EF0002E75164A13680421041C986800F01CFB28
:100F00000106080EE846FF2817D0114E201C37684E
:100F100000F062FB0106080EFF280ED030687B69E6
:100F200000211860002C06D94646735C4269535470
:100F30000131A142F8D33B1C00E0002304B0AB61B7
:100F400008BC9846F0BD000040070100ACE5004039
:100F5000A8E50040F0B5474680B4C46884B0051CDD
:100F6000206809F049FA1849021C684609F0CEFACF
:100F700001262E75154A13680421041C986800F098
:100F8000DBFA0106080EE846FF2817D0104E201C99
:100F9000376800F021FB0106080EFF280ED03068EC
:100FA0007B6900211860002C06D94646735C4269B3
:100FB00053540131A142F8D33B1C00E0002304B09C
:100FC000AB6108BC9846F0BD40070100ACE50040AD
:100FD000A8E50040F0B5474680B4C46884B02268F4
:100FE000051C1849684609F091FA01262E75164A23
:100FF00013680421041C986800F09EFA0106080E8C
:10100000E846FF2817D0114E201C376800F0E4FA9C
:101010000106080EFF280ED030687B690021186099
:10102000002C06D94646735C426953540131A142F3
:10103000F8D33B1C00E0002304B0AB6108BC984629
:10104000F0BD000040070100ACE50040A8E500400D
:1010500000B5C368186804F061FC00BD10B5C16834
:10106000041C086808F054FB05F0C4FF08F094FE67
:1010700001232375A06110BD10B5C168041C086868
:1010800008F046FB05F00EFE08F086FE01232375EE
:10109000A06110BD10B5C168041C086808F038FBD9
:1010A00005F0F4FE08F078FE01232375A06110BD61
:1010B00010B5C168041C086808F02AFB05F058FE4A
:1010C00008F06AFE01232375A06110BD10B5C16848
:1010D000041C086808F01CFB05F032FF08F05CFEF9
:1010E00001232375A06110BD10B5C168041C0868F8
:1010F00008F00EFB05F098FE08F04EFE0123237564
:10110000A06110BD10B5C168041C086808F000FBA0
:1011100005F01EFC08F040FE01232375A06110BD00
:1011200010B5041C00F032FE0106080E01232375E1
:10113000A06110BD10B5C268041C107800F04CFE10
:101140000106080E01232375A06110BD00B5C36818
:10115000187800F0ABFE00BD00B5C368187800F049
:1011600023FF00BD00B5C368187800F039FF00BD4B
:1011700010B5C268041C107800F04EFF0106080E7E
:1011800001232375A06110BD10B5041C00F082FF7F
:101190000106080E01232375A06110BD10B5C268B9
:1011A000041C107800F09CFF0106080E0123237533
:1011B000A06110BD00B5C368187801F00DF800BD3E
:1011C00000B5C368187801F095F800BD00B5C36894
:1011D000187800F005FF00BD10B5041C01F0C2F83E
:1011E0000106080E01232375A06110BD10B5C26869
:1011F000041C107800F074FF0106080E012323750B
:10120000A06110BD00B5C368187801F03DF900BDBC
:1012100000B5C368187801F05FF900BD00B5C36878
:10122000187800F0DDFE00BD00B5C36818781979A4
:1012300001F030FA00BD000000B501F0CDFA00BDAC
:1012400000B501F0E5FA00BD00B5C368187801F0FB
:10125000FBFA00BD00B5C368187801F031FB00BD92
:1012600000B5C26882B01368684603805168418047
:101270009368037100F056FD02B000BD00B5C2686E
:1012800082B0136868460380516841809368037197
:1012900000F01EFD02B000BD00B5C368187801F073
:1012A00001FC00BD70B51B4DC26829681160041CAB
:1012B000194B80681B6804C099B0A060002B25D032
:1012C000684600216022189300F0A4F8134D6E4682
:1012D0002B6801A82E600093189B01F0F3FB0028F7
:1012E00006D02B689E420ED000F0FAFB19B070BDFC
:1012F000201CFFF777FA20690268201C08F036F8F6
:101300002B689E42F0D1009C2C60EDE7034E3368C1
:10131000D6E70000ACE50040400101008CE400404D
:10132000F0B5A0B004F0AAFA8021480100F096F8C8
:1013300019908020C60080201A9600F08FF81B902C
:1013400020202D4E00F08AF82C4C002330602268BB
:10135000037035686B70316800248C704C6082605B
:1013600031682748274D0122CC600C618C61CC612B
:1013700002604C61199A2C68234B1D9419601C92D1
:1013800011601B98214B04C01B6819AF1B90002BE8
:101390002FD0684600216022189300F03BF81C4CC7
:1013A0006D46236801A825600093189B01F08AFB15
:1013B000002810D023689D4218D000F091FB3068BF
:1013C00000F08EF8199800F08BF81B9800F088F860
:1013D000002020B0F0BD381CFFF704FA1D98026809
:1013E000381C07F0C3FF23689D42E6D1009F2760A9
:1013F000E3E7074D2B68CCE7ACE500400800004070
:10140000A4E5004000000040A8E5004040010100C4
:101410008CE4004000B5031C013A03D3197001337A
:10142000013AFBD200BD000000B5074B07491A681E
:101430000B780020002B06D0111C53681268DB00CB
:10144000C0188A42F9D100BD9C080040A0080040A5
:10145000014B186870470000A0E5004030B5073028
:10146000C008441C17480278002A24D1164B174D97
:10147000191C08315A602B60154A19609B60154B86
:101480004A601A60144A154B012101701A602A68DB
:10149000106804E02B6898420FD0021C0068436873
:1014A000A342F7D3A3420AD01A1BD50042604019C9
:1014B0004460083030BD054DE9E70020FAE70468D4
:1014C0001460F6E7A0080040A80800409C0800400F
:1014D000FF0B0000A4080040F85F0000A0E50040FA
:1014E00030B5002819D0134C21680A6808388242A8
:1014F00004D8111C236812689A42F8D14568EB00A1
:101500001B1802600860934208D02368994204D0F7
:101510004A68D3005C18844207D030BD03685A681B
:10152000AD181A6845600260EFE7541905684C6011
:101530000D60F2E79C080040F0B5474680B4174EB6
:101540003368DD6980460F1C002D24D12020FFF771
:1015500085FF041E1FD032681149D461A261E56184
:1015600034606570087843462070A5706560A3609C
:101570002561E760002F08D167610A4C25680135B5
:101580002560002008BC9846F0BD381CFFF766FFB8
:1015900060610028F1D1FF20F4E70000A8E50040D9
:1015A000A8680040A4E5004010B5002400220029EE
:1015B00004D0835C0132E4188A42FAD305490868F2
:1015C00003E04268A24203D080690028F9D10020DC
:1015D00010BD0000A8E50040F0B5474680B4071CE8
:1015E0001748184E036898463368DD69002D03D00C
:1015F000FF2008BC9846F0BD2020FFF72FFF041EF7
:10160000F6D03068104AC461A061E561346065704D
:10161000117843462170A5706560A3602561E7607D
:10162000002F06D16761094C25680020013525602F
:10163000DFE7381CFFF712FF60610028F3D1D7E71E
:10164000ACE50040A8E50040A8680040A4E50040E3
:10165000F0B557464E464546E0B44D4B884601210D
:101660008246197000200021161E05D04246545CA7
:1016700001310019B142F9D3464D2A6804E0576898
:10168000874200D175E09269002AF8D100272B68C3
:10169000D86900282ED0FF23FF2B00D175E03D4DE7
:1016A0002C68AA463C4DE7692B689946002F42D02A
:1016B000FF23FF2B69D0374A6369106801218170CD
:1016C00018600021002E0AD945466F5C42695754C4
:1016D0006B5C65680131EF186760B142F4D32C4E42
:1016E00000200121A1703070201C38BC9846A14612
:1016F000AA46F0BD2020FFF7B1FE041ECBD028681B
:10170000264AC461A061E7612C6067701178534676
:1017100004252170A7706760A3602761E56004203D
:10172000FFF79CFE60610028B5D01D4C27680023A0
:1017300001372760B0E72020FFF790FE051EB7D0E5
:1017400052461068C561A861EF6115606F70134A59
:1017500011784B462970AF706F60AB602F61EE60FF
:10176000002E0BD16E610E4F3D68002301353D60A8
:101770009FE7171E00D18AE7381CB6E7301CFFF739
:101780006DFE68610028EED192E70020ADE7000011
:10179000B0680040A8E50040ACE50040A868004003
:1017A000A4E50040F0B55F4656464D464446F0B4C9
:1017B00081B000904148424C0368424E914601225C
:1017C00022709A463368DD6988468F00002D49D023
:1017D000FF23FF2B44D03B48009907684446B9607B
:1017E0003C610026002C10DD834682460268D569E4
:1017F000002D15D0FF23FF2B32D0504679690368A6
:10180000B200013653504645F0DB2D4E00203070BB
:10181000381C01B078BC9846A146AA46B346F0BD34
:101820002020FFF71BFE041EE4D05A461368264909
:10183000DC61A361E561146065700878A5702070B3
:10184000009B4A466560A3602561E260002A26D1BC
:1018500062611E4D2C68002301342C60FF2BCCD11B
:101860000020D6E72020FFF7F9FD041EB0D0306835
:10187000154BC461A061E561346065701E78524605
:101880002670A5706560A2602561E760002F0DD10C
:1018900067610E4D2F68002301372F6099E7484696
:1018A000FFF7DCFD60610028D3D1A3E7381CFFF708
:1018B000D5FD60610028ECD18AE70000ACE500406E
:1018C000B0680040A8E50040A8680040A4E50040DA
:1018D00000B5064B1B6802E09B69002B03D09842C1
:1018E000FAD1012000BDFF20FCE70000A8E5004080
:1018F00010B58378041C012B14D0C068002812D1C5
:1019000000226261A269002A01D0E369D361E36920
:10191000002B0ED09A6108490A68013A0A60201C1F
:10192000FFF7DEFD10BD6069FFF7DAFD0021E16021
:10193000E6E702480260EEE7A4E50040A8E50040C3
:1019400070B54378061C002B2DD1012141708268AF
:10195000204803689A4226D03369002B24D1D368EB
:101960009168002B00D09C4600291CDD64460D1CAC
:1019700003E0013D0C34002D15D020780128F8D16A
:1019800063887169C85CC9184A78130218438A7859
:10199000CB7812041B061A431043013DFFF7D0FF1A
:1019A0000C34002DE9D170BD9D000024002DFADD1E
:1019B0007169085D09194A78130218438A78CB784F
:1019C00012041B061A4310430434FFF7B9FFAC425C
:1019D000EEDBE8E7ACE5004070B500214170061C85
:1019E0008268224803689A421DD03369002B1BD0BD
:1019F0009D000024002D03DC15E00434AC4212DA13
:101A000071690029F9D0085D09194A781302184351
:101A10008A78CB7812041B061A4310430434FFF76C
:101A2000DBFFAC42ECDB70BDD3689168002B1BD1AF
:101A30000029F8DD64460D1C03E0013D0C34002D47
:101A4000F1D020780128F8D163887169C85CC91881
:101A50004A78130218438A78CB78120419060A438D
:101A60001043FFF7B9FFE8E79C46E1E7ACE500402B
:101A700070B518480368DC69002C22D0164E04E0CB
:101A800000216170E469002C1BD06578002DF7D12E
:101A9000A278012AF6D0E368002B16D1A26965610D
:101AA000002A01D0E569D561E369002B0AD09A616B
:101AB00031680139201C3160FFF712FDE469002C08
:101AC000E3D170BD05480260F2E76069FFF708FDE9
:101AD000E560E3E7ACE50040A4E50040A8E5004090
:101AE00070B5224A1368DC69002C0FD0204D02E04B
:101AF000E469002C09D022782B789A42F8D8201C6F
:101B0000FFF71EFFE469002CF5D1184A1068C4697C
:101B1000002C22D0174E04E000216170E469002CF3
:101B20001BD06578002DF7D1A378012BF6D0E268A1
:101B3000002A16D1A2696561002A01D0E569D56144
:101B4000E369002B0AD09A6131680139201C3160A9
:101B5000FFF7C6FCE469002CE3D170BD06480260C3
:101B6000F2E76069FFF7BCFCE560E3E7ACE5004045
:101B7000A8680040A4E50040A8E5004070B5224AEE
:101B80001368DC69002C0FD0204D02E0E469002CC2
:101B900009D022782B789A42F8D8201CFFF7D0FE83
:101BA000E469002CF5D1184A1068C469002C22D0D1
:101BB000174E04E000216170E469002C1BD06578A9
:101BC000002DF7D1A378012BF6D0E268002A16D1B8
:101BD000A2696561002A01D0E569D561E369002B3E
:101BE0000AD09A6131680139201C3160FFF778FC16
:101BF000E469002CE3D170BD06480260F2E7606939
:101C0000FFF76EFCE560E3E7ACE50040A868004044
:101C1000A4E50040A8E5004070B5294B1B680D1CE9
:101C200002E09B69002B01D09D42FAD1A84203D06B
:101C300002782B789A4200D070BD22490868C469A6
:101C4000002C0CD0204E227833789A4204D8AC4233
:101C500002D0201CFFF774FEE469002CF3D1281C8D
:101C6000FFF7BAFE174C2568EC69002CE4D0174E3C
:101C700004E000206070E469002CDDD06578002D60
:101C8000F7D1A1780129F6D0E368002B13D1A2691E
:101C90006561002A01D0E569D561E369002B07D0B1
:101CA0009A613268013A3260201CFFF719FCE2E7C2
:101CB00003480260F5E76069FFF712FCE560E6E7BC
:101CC000A8E50040ACE50040A8680040A4E500405D
:101CD00070B5134E0324051C34700320012103F05A
:101CE0006FFE3078297903F06BFE3078A97803F025
:101CF00067FE6A883078110A03F062FE2988FF20A7
:101D0000090A0402307803F05BFE2988214200D0E2
:101D100070BD0B063078190E03F052FEF8E7000094
:101D20006400004070B5134E0224051C347002207C
:101D3000012103F045FE3078297903F041FE307827
:101D4000A97803F03DFE6A883078110A03F038FE66
:101D50002988FF20090A0402307803F031FE29881F
:101D6000214200D070BD0B063078190E03F028FE1A
:101D7000F8E700006400004000B5034B112118781B
:101D800003F01EFE00BD00006400004010B5054CCD
:101D90000321207803F014FE207803F057FE00069C
:101DA000000E10BD6400004030B5094C094D22788A
:101DB00003212A7021700320032103F001FE207803
:101DC00003F044FE2B780006000E237030BD0000A7
:101DD00064000040B468004030B5154C01060D0E9B
:101DE0002078032103F0ECFD207803F02FFE00069D
:101DF000000E052D05D80F4AAC00A3589F46830658
:101E000003D5002030BDC307FBD40120FAE78307C8
:101E1000F7D40120F6E74307F3D40120F2E70307E4
:101E2000EFD40120EEE7C306EBD40120EAE700007F
:101E300064000040D8FF000030B5194C19492278E1
:101E4000032300060A7023700321050E032003F00C
:101E5000B7FD207803F0FAFD0006000E052D05D829
:101E6000114BAC00E558AF46830607D500200D4D59
:101E70000B492A780A7030BDC307F7D40120F6E772
:101E80008307F3D40120F2E74307EFD40120EEE704
:101E90000307EBD40120EAE7C306E7D40120E6E715
:101EA00064000040B4680040F0FF000030B5064D0B
:101EB00001060C0E2878042103F082FD2878211CED
:101EC00003F07EFD30BD00006400004070B5094C99
:101ED000094E217802060320150E3170207004216E
:101EE000032003F06DFD291C207803F069FD337891
:101EF000237070BD64000040B468004070B5284C89
:101F0000090602060E0E20780321150E03F058FD77
:101F1000207803F09BFD0006000E052D13D8AC00C1
:101F2000204D63599F46002E27D1031C10221343D6
:101F30001E06350E1A4C0421207803F041FD20784E
:101F4000291C03F03DFD70BD002E25D0DF25054086
:101F5000F0E7002E1DD0FE250540EBE7002E15D042
:101F6000FD250540E6E7002E0DD0FB250540E1E705
:101F7000002E05D0F7250540DCE7EF250540D9E721
:101F8000031C0822D3E7031C0422D0E7031C02220F
:101F9000CDE7031C0122CAE7031C2022C7E700008B
:101FA000640000400800010000B50006000E00219A
:101FB000FFF7A4FF00BD000030B5074C074D2278A5
:101FC000032100062A702170000E0021FFF796FF02
:101FD0002B78237030BD000064000040B4680040DE
:101FE00000B50006000E0121FFF788FF00BD0000CC
:101FF00030B5074C074D2278032100062A70217066
:10200000000E0121FFF77AFF2B78237030BD00000E
:1020100064000040B468004030B50006040E032C94
:1020200005D9052C03D0042C16D0002030BD0E4D50
:102030000221287803F0C4FC052C0AD02878211C42
:1020400003F0BEFC084B187803F000FD0106080EF3
:10205000ECE728780421F3E7034C1021207803F003
:10206000AFFC2078F0E700006400004030B5074C7A
:10207000074D2378010603222B702270080EFFF70C
:10208000CBFF2B780006000E237030BD64000040AB
:10209000B468004010B5054C0A21207803F090FC8C
:1020A000207803F0D3FC0006000E10BD6400004051
:1020B00030B5094C094D227803212A702170032084
:1020C0000A2103F07DFC207803F0C0FC2B78000689
:1020D000000E237030BD000064000040B468004072
:1020E00030B5194C01060D0E20780A2103F068FC6A
:1020F000207803F0ABFC0006000E072D05D8134A2C
:10210000AC00A3589F46430608D5002030BD010609
:102110000816C543E80FF9E7C307F6D40120F5E731
:102120008307F2D40120F1E74307EED40120EDE765
:102130000307EAD40120E9E7C306E6D40120E5E776
:102140008306E2D40120E1E76400004020000100A2
:1021500030B51E4C1E492278032300060A702370F6
:102160000A21050E032003F02BFC207803F06EFCFF
:102170000006000E072D05D8164BAC00E558AF46FB
:1021800043060CD50020124B104C1978217030BD3D
:1021900005062A16D143C80FF5E7C307F2D401207C
:1021A000F1E78307EED40120EDE74307EAD40120ED
:1021B000E9E70307E6D40120E5E7C306E2D40120FE
:1021C000E1E78306DED40120DDE700006400004083
:1021D000B46800404000010030B5064D01060C0E09
:1021E00028780B2103F0ECFB2878211C03F0E8FB96
:1021F00030BD00006400004070B5094C094E2178E4
:1022000002060320150E317020700B21032003F00D
:10221000D7FB291C207803F0D3FB3378237070BDE3
:1022200064000040B468004070B5304C09060206F6
:102230000D0E20780A21160E03F0C2FB207803F061
:1022400005FC0006000E072E13D8B400284EA35933
:102250009F46002D31D1031C402213431806050E62
:10226000224C0B21207803F0ABFB2078291C03F0D3
:10227000A7FB70BD002D35D07F250540F0E7002D70
:102280002DD0FE250540EBE7002D25D0FD2505408E
:10229000E6E7002D1DD0FB250540E1E7002D15D018
:1022A000F7250540DCE7002D0DD0EF250540D7E7E9
:1022B000002D05D0DF250540D2E7BF250540CFE73B
:1022C000031C2022C9E7031C1022C6E7031C0822B6
:1022D000C3E7031C0422C0E7031C0222BDE7031C62
:1022E0000122BAE78025031C6A42B6E76400004079
:1022F0006000010000B50006000E0021FFF794FF0A
:1023000000BD000030B5074C074D227803210006C0
:102310002A702170000E0021FFF786FF2B782370B2
:1023200030BD000064000040B468004000B5000605
:10233000000E0121FFF778FF00BD000030B5074C0B
:10234000074D2278032100062A702170000E01211A
:10235000FFF76AFF2B78237030BD00006400004057
:10236000B468004010B5054C0521207803F028FB27
:10237000207803F06BFB0006000E10BD64000040E7
:1023800030B5094C094D227803212A7021700320B1
:10239000052103F015FB207803F058FB2B7800068D
:1023A000000E237030BD000064000040B46800409F
:1023B00030B5154C01060D0E2078052103F000FB09
:1023C000207803F043FB0006000E072D05D80F4AC6
:1023D000AC00A3589F46430608D5002030BD010637
:1023E0000816C543E80FF9E7C307F6D40120F5E75F
:1023F0008307F2D40120F1E74307EED40120EDE793
:102400000307EAD40120E9E76400004080000100EE
:1024100030B51A4C1A492278032300060A7023703B
:102420000521050E032003F0CBFA207803F00EFB04
:102430000006000E072D05D8124BAC00E558AF463C
:1024400043060CD500200E4B0C4C1978217030BD82
:1024500005062A16D143C80FF5E7C307F2D40120B9
:10246000F1E78307EED40120EDE74307EAD401202A
:10247000E9E70307E6D40120E5E700006400004037
:10248000B4680040A000010030B5064D01060C0EF6
:102490002878062103F094FA2878211C03F090FA9A
:1024A00030BD00006400004070B5094C094E217831
:1024B00002060320150E317020700621032003F060
:1024C0007FFA291C207803F07BFA3378237070BDE3
:1024D00064000040B468004030B5184C01060D0E91
:1024E0002078052103F06CFA207803F0AFFA00069B
:1024F000000E072D12D8124AAC00A3589F46802523
:10250000031C6A420D4C13431806050E0621207861
:1025100003F056FA2078291C03F052FA30BD031C50
:102520000122EFE7031C0222ECE7031C0422E9E787
:10253000031C0822E6E7031C4022E3E76400004096
:10254000C000010030B51D4C1D4922780323000650
:102550000A7023700521050E032003F031FA20785C
:1025600003F074FA0006000E072D12D8154BAC00CC
:10257000E558AF468021031C4A42104C13431A060B
:10258000150E2078062103F01BFA2078291C03F091
:1025900017FA0B4B09481978017030BD031C012252
:1025A000EBE7031C0222E8E7031C0422E5E7031C17
:1025B0000822E2E7031C4022DFE70000640000403D
:1025C000B4680040E000010030B5144C01060D0E67
:1025D0002078052103F0F4F9207803F037FA00069B
:1025E000000E072D0ED80E4AAC00A3589F467F253B
:1025F0000A4C05400621207803F0E2F92078291CD6
:1026000003F0DEF930BDFE25F2E7FD25F0E7FB25FE
:10261000EEE7F725ECE7BF25EAE70000640000409D
:102620000001010030B5184C184922780323000638
:102630000A7023700521050E032003F0C1F92078EC
:1026400003F004FA0006000E072D0ED8104BAC0064
:10265000E558AF467F250C4C05400621207803F055
:10266000AFF92078291C03F0ABF908480649027835
:102670000A7030BDFE25EEE7FD25ECE7FB25EAE715
:10268000F725E8E7BF25E6E764000040B4680040AE
:102690002001010070B500060906040E0D0E032C82
:1026A00004D9062C02D0072C00D070BD094E092198
:1026B000307803F085F9631C1A063078110E03F0A8
:1026C0007FF9002D00D101253078291C03F078F91D
:1026D000EBE7000064000040F0B5134D000609066A
:1026E000124A2B780E0E040E1370371C032C06D9D9
:1026F000062C04D0072C02D014782C70F0BD0321D6
:1027000029700320092103F05BF9631C1A0628785D
:10271000110E03F055F9002E00D101272878391C3D
:1027200003F04EF9014AE7E764000040B468004056
:1027300070B500060906040E0D0E032C07D9062CF1
:1027400005D0072C03D0082C01D0092C11D1094E3B
:102750000921307803F034F9631C1A063078110E21
:1027600003F02EF9002D00D101253078291C03F04B
:1027700027F970BD64000040F0B5154D000609064C
:10278000144A2B780E0E040E1370371C032C07D935
:10279000062C05D0072C03D0082C01D0092C13D10E
:1027A000032129700320092103F00AF9631C1A068A
:1027B0002878110E03F004F9002E00D101272878A3
:1027C000391C03F0FDF8034A14782C70F0BD0000AA
:1027D00064000040B468004000B5034B082118783D
:1027E00003F0EEF800BD00006400004030B5064C78
:1027F000064D21780320297020700821032003F062
:10280000DFF82B78237030BD64000040B4680040CE
:1028100000B5034B0721187803F0D2F800BD000083
:102820006400004030B5064C064D21780320297025
:1028300020700721032003F0C3F82B78237030BDEC
:1028400064000040B468004030B50006050E032D5A
:1028500004D9062D02D0072D00D030BD054C0E2125
:10286000207803F0ADF86A1C11062078090E03F0F9
:10287000A7F8F2E76400004030B50F4D00060F4A9C
:102880002B78040E1370032C06D9062C04D0072CC9
:1028900002D014782C7030BD03232B7003200E213E
:1028A00003F08EF8621C11062878090E03F088F8F0
:1028B000024A014DEDE7000064000040B4680040AA
:1028C00030B50006050E032D04D9062D02D0072DC4
:1028D00000D030BD054C0F21207803F071F86A1C40
:1028E00011062078090E03F06BF8F2E7640000404F
:1028F00030B50F4D00060F4A2B78040E1370032CD1
:1029000006D9062C04D0072C02D014782C7030BDC8
:1029100003232B7003200F2103F052F8621C1106D1
:102920002878090E03F04CF8024A014DEDE700004B
:1029300064000040B468004030B50006050E032D69
:1029400007D9062D05D0072D03D0082D01D0092D5C
:102950000AD1064C0E21207803F032F86A1C1106C9
:102960002078090E03F02CF830BD00006400004010
:1029700030B5104D0006104A2B78040E1370032C4E
:1029800007D9062C05D0072C03D0082C01D0092C20
:102990000DD103232B7003200E2103F011F8621CCC
:1029A00011062878090E03F00BF8034A014D14783C
:1029B0002C7030BD64000040B468004030B50006A3
:1029C000050E032D07D9062D05D0072D03D0082DA0
:1029D00001D0092D0AD1064C0F21207802F0F0FF1A
:1029E0006A1C11062078090E02F0EAFF30BD0000D3
:1029F0006400004030B5104D0006104A2B78040EDC
:102A00001370032C07D9062C05D0072C03D0082CF3
:102A100001D0092C0DD103232B7003200F2102F0CC
:102A2000CFFF621C11062878090E02F0C9FF034A85
:102A3000014D14782C7030BD64000040B468004033
:102A400030B5084D01060C0E28780D2102F0B8FFB4
:102A50002878211C02F0B4FF287802F0F7FF000666
:102A6000000E30BD6400004070B50406250E0B4C0E
:102A70000B4E227803213270217003200D2102F0C9
:102A80009FFF291C207802F09BFF207802F0DEFFD8
:102A900033780006000E237070BD00006400004013
:102AA000B468004030B5064D01060C0E287812219E
:102AB00002F086FF2878211C02F082FF30BD000062
:102AC000640000407847C046F07FA0E80000A0E323
:102AD00001001EE30EF0A0011EFF2FE17847C04663
:102AE000F07FB0E80100B0E10100A00301001EE3A7
:102AF0000EF0A0011EFF2FE100B546490B6805222C
:102B000013430B600B680A2293430B60424B07226E
:102B10007D211A704A42043300041A703F4A000CA7
:102B20000240082A16D0082A06DC022A00D16CE0EE
:102B3000022A64DC21220FE08021CB019A4266D078
:102B40009A4253DC102AF5D179235942344B0122A1
:102B5000197004E03D225242314B1A7000220433B6
:102B6000F0211A704A000240402A37D0402A17DC70
:102B7000202A48D003222B49C0230A70DA00802182
:102B80000240CB009A4217D0E022920102408020FE
:102B900043019A421CD080218B019A4220D000BD73
:102BA000802AE7D11F490222C0230A70DA0080215F
:102BB0000240CB009A42E7D11A4B1A7804210A430B
:102BC0001A70E02292010240802043019A42E2D131
:102BD000144B1A7808210A431A70E0E70122CAE769
:102BE000104B1A7818210A431A70D8E780210B027B
:102BF0009A429FD10A4B0E221A700322AFE7042A91
:102C000098D16222A8E70022B5E74122A4E710226A
:102C1000A2E7000000C002E008C000E01FC0000002
:102C200000C000E00CC000E000B500060449000E42
:102C300001220B785B091342FBD00249087000BDEA
:102C400014C000E000C000E070B5051C0022081EA2
:102C50000BD0064C064E012123785B090B42FBD0BA
:102C6000AB5C013233708242F6D370BD14C000E019
:102C700000C000E000B5054901220B781A42FCD0E3
:102C8000034A11780806000E00BD000014C000E0E1
:102C900000C000E000B505490B78DA0704D5044B05
:102CA0001A780270012000BD0020FCE714C000E08B
:102CB00000C000E070B5051C00220C1E0AD00648BA
:102CC000064E012103781942FCD03378AB5401320F
:102CD000A242F7D370BD000014C000E000C000E0C5
:102CE000F0B55F4656464D464446F0B4161C0022E9
:102CF00083B0051C904691460C1E7FD16B46302652
:102D00001E705A700C9C2023E8466F4600209C469B
:102D10000021002C0FDD6A46013214780131002CAD
:102D2000FAD10C9A914200DA2EE100240D998A071B
:102D300001D530239C460D9AD20720D4002C1EDDED
:102D40009B4BE246994609E0296862460A702E6864
:102D5000013C01362E600130002C0EDD002DF3D138
:102D60009449564601220B785B091342FBD04B462F
:102D7000013C1E700130002CF0DC42461678330610
:102D8000002B1FD08A4A90460AE029680A702E68F4
:102D900001362E6001373A7813060130002B11D02E
:102DA0001A0E002DF1D18349161C01220B785B0904
:102DB0001342FBD043461E7001373A7813060130A8
:102DC000002BEDD1002C00DCCDE0794FE0460AE08D
:102DD000296863460B702E6801362E60013C013075
:102DE000002C00DCBFE0002DF2D1724946460122E2
:102DF0000B785B091342FBD03E70EFE7002B00D04D
:102E0000B8E06F460B3700203870002C13D0201C20
:102E1000311C06F041FA092803DD0E9A1118081C2E
:102E20003A38031C013F3033201C3B70311C06F044
:102E3000ABF9041EEBD14346002B15D00C9C002CA3
:102E400000D1A7E00D9EB30700D4A3E0002D00D170
:102E5000A4E029682D220A702868013028600C99A6
:102E6000013901220C9191460C9920223E1C002030
:102E700090460024002911DD3B783A1C02E0013223
:102E800013780134002BFAD10C9B9C4200DA7EE0CF
:102E900000210D9CA30701D5302290460D9BDB0736
:102EA0001FD400291DDD424AC246934609E02B6823
:102EB00042461A702C68013901342C600130002917
:102EC0000FDD002DF3D13B4CD446012223785B0962
:102ED0001342FBD064465B4601391C700130002967
:102EE000EFDC3A781306002B1FD0314A94460AE0F3
:102EF0002B681A702F6801372F600136347823064B
:102F00000130002B11D01A0E002DF1D1294C171CC5
:102F1000012223785B091342FBD063461F70013600
:102F2000347823060130002BEDD100291ADD204F23
:102F3000C44609E02B6842461A702E6801390136F2
:102F40002E60013000290DDD002DF3D1194C6646AD
:102F5000012223785B091342FBD001393E70013016
:102F60000029F1DC484403B078BC9846A146AA4643
:102F7000B346F0BD0A2E00D043E7002C00DB40E74B
:102F80000123984664423CE70C9B5C1ACEE60C9AFF
:102F9000111B7EE7013F2D233B7065E705490122A8
:102FA0000C7863091342FBD0014E2D20307056E798
:102FB00000C000E014C000E0F0B55F4656464D4644
:102FC0004446F0B408C91C1C051C207800220306E6
:102FD00085B092468B46002B14D0190E25291ED0A1
:102FE00022781606320E002D00D198E02868027073
:102FF00029680131012229609244013420780306B6
:10300000002BEAD1002D02D02C68002525705046F7
:1030100005B078BC9846A146AA46B346F0BD013437
:103020002278002398460027002AEBD0252AD8D002
:103030002D2A00D111E11006060E302E7AD0101C78
:1030400030380606310E09290FD80A213B1C4B43A4
:103050001606370EFA180134171C2278101C303867
:103060000606330E303F092BF0D911060A0E732ADB
:1030700069D0642A00D1F7E0782A00D106E1582A05
:1030800000D111E1752A00D118E1632AB5D15B4660
:1030900004339B46043B1B68694600260B744E7440
:1030A0009946202104AB9C46002603910020391E3E
:1030B00011DD49461A1C0B0602E00132137801307B
:1030C000002BFAD1B84200DB06E1391A42469207DA
:1030D00001D5302703974246D20700D5FEE00029EC
:1030E00000DCFBE0039BA04A984691460BE06A4651
:1030F0002F68127B3A702868013028600139013648
:10310000002900DCEAE0002DF1D198484746012271
:1031100003785B091342FBD04B461F70EEE79348E0
:10312000012103785F090F42FBD08F4E32700122DC
:10313000924462E7022142460A43013490462278D3
:10314000302AF8D07BE75B4604339B46043B40CBF8
:10315000002E00D1864E202200219146381C8C463C
:103160000022002F0FDD3378311C02E001310B7893
:103170000132002BFAD1BA4274DAB81A43469B07DF
:1031800001D5302189464246D2071ED400281CDDD5
:10319000C8460AE02B68494619702F6801372F602E
:1031A00001380127BC4400280FDD002DF2D16F4902
:1031B000474601220B785B091342FBD06A4A01386B
:1031C00017700127BC440028EFDC31780B06002B78
:1031D00021D0654988460BE02F683A702B6801338F
:1031E0002B600136317801270B06BC44002B12D02E
:1031F0001A0E002DF0D15D49171C01220B785B09D6
:103200001342FBD0424617700136317801270B0676
:10321000BC44002BECD100281CDD534FC8460AE00B
:103220002B684A461A702E680121013601382E603B
:103230008C4400280EDD002DF2D14C494646012277
:103240000B785B091342FBD0012101383E708C449E
:103250000028F0DCE2440134D0E601340121227878
:103260008846E8E6002089E75B4604339B46043B3A
:1032700002CB424661200097019202900A22281C4C
:103280000123FFF72DFD01348244B7E65B4604338A
:103290009B464246043B02CB009701926123029376
:1032A000281C10220023ECE75B4604339B46043BBA
:1032B00002CB4246412300970192F0E75B4604337C
:1032C0009B46043B02CB4246009701926127281C93
:1032D0000A2200230297D4E70021F7E66A46107C11
:1032E0000306002B1CD0204A90460CE02B681A7075
:1032F0002F6801372F600127BC446246107803060F
:103300000136002B0CD01A0E002DEFD11748171CD8
:10331000012203785B091342FBD043461F70EAE7A2
:1033200000291EDD039B104A9C4690460AE06A462F
:103330002F68127B3A702868013901302860013605
:1033400000290EDD002DF2D10848674601220378DE
:103350005B091342FBD0434601391F700136002937
:10336000F0DCB244013449E600C000E014C000E0E3
:10337000440701000FB400B5002001A9FFF71CFEAF
:1033800008BC04B0184700000FB400B50C49012276
:10339000087843091342FBD00A4901220A70002031
:1033A00001A9FFF709FE06490122087843091342E3
:1033B000FBD0044901220A7008BC04B01847000081
:1033C00014C000E000C000E0F0B5474680B480467D
:1033D00009061C48090E0122047863091342FBD038
:1033E000194806220270174801220678750915420D
:1033F000FBD0154F3970134901220B781A42FCD0CB
:103400001149104E0A78002501240F1C43465A5DCD
:10341000317848092042FBD03A70FA22281C51002A
:1034200005F03AFF002805D0064901220B781A4220
:10343000FCD03B78054B01359D42E7D908BC984646
:10344000F0BD000014C000E000C000E03F29000013
:1034500070B52C4C051C00262868025DD100930134
:103460005B1891006A685B18115D97224A439B18AC
:10347000AA68125D11015B18D1005B1892009B18BD
:10348000190A0155601E03041C0C7618002CE3D1A8
:10349000002E2CDB301C06F0EBFD1B4906F0DAFE9B
:1034A00006F0E0FF1749012600240DE056542B6872
:1034B0006A685B5C53542B68AA685B5C53544B1E70
:1034C0001A04110C002911D02A68535C8342EDD3F1
:1034D00054542B686A685B5C53542B68AA685B5C25
:1034E00053544B1E1A04110C0029EDD170BD01205C
:1034F00030407408204306F0BBFD011C06F0D0FCF0
:10350000CBE700003F29000000807746F0B55F461A
:1035100056464D464446F0B488B007900568079C6F
:103520000798616882680023984602950695059180
:1035300004929BE01D1C049B4146CA5C69460A70CC
:10354000049F4446E35DAB4200D8AEE01D1C4946F3
:103550006E1A3004060C002E00D101265A461406BD
:10356000220E0027AA4200D1C1E069460979080667
:10357000010EA94200D1D5E0684600780406230E6A
:10358000AB4200D1D8E0039B1804001406F070FD94
:103590003204041C1014924606F06AFD011C201C23
:1035A00006F058FE041C381C06F062FD011C201CAD
:1035B00006F076FC674906F083FD06F053FF010430
:1035C0000C0C0F140394FF2F00DC8BE00F275446E4
:1035D000F3052614180CB40121180A04130C700109
:1035E000C41821040A0C3301981804044946FF2624
:1035F000200C6C187100251C8C425BD0FF2C5AD813
:10360000211C05F0C1FD631C6C46267901045A4655
:10361000080C3506590813061C0E9D425AD05C460C
:103620002306002B0AD16A4616793506002D05D1EE
:103630006C4624782306002B00D100215A4616063A
:10364000350EFF2D60D0029B44461F55079E7268C1
:103650004346105501331804B568030C3E4F984695
:103660002955B8456ED8079F3E680296059C42468C
:10367000069D115D40466B46465D19710598135CC9
:10368000351CB346B146AB4200D953E7AB4200D339
:1036900051E79946049B4146CA5C69460A70049FFB
:1036A0004446E35DAB4200D950E74B4500D34EE7BB
:1036B00099464CE7294D491B05F066FD631C6C4695
:1036C000267901045A46080C3506590813061C0EC3
:1036D0009D42A4D16A46167835062B0E9C429ED197
:1036E00000209CE7EF2F00DC71E7F03F6FE76C46AE
:1036F000684624790078230601061C0E0A0EA11ADA
:103700000804030C03933EE76C46247925062B0E30
:10371000FF2B98D16A46127813061E0EFF2E92D107
:10372000F02190E76C4621780806040EA31A1A04CB
:10373000170C0397022726E7531A1A04170C03974E
:10374000042720E708B078BC9846A146AA46B346AD
:10375000F0BD0000000020423F290000FF010000F2
:1037600070B5A526051C0024B6012868025DD100AD
:1037700093015B1891006A685B18115D97224A43B8
:103780009B18AA68125D11015B18D1005B189200AA
:103790009B18190A015568680155601CAA68030442
:1037A00011551C0CB442E0D370BD000010B5041CD0
:1037B00009040068090C425C4C23101C58436368E0
:1037C0005A5C97235343C018A3685A5C1C23534385
:1037D000C018000A10BD0000F0B55F4656464D46C1
:1037E0004446F0B44349051C0022002054195834C3
:1037F0004B19571C5055583B20703E044C1C4855E3
:10380000320C18702304190C572AEFD900245620C3
:10381000002200215719631C5155461979701F0465
:1038200041553C0C7170171C061C58365837330430
:103830003E04180C320C772CECD90022022393465C
:103840005A420126924658275C467C432004030CCA
:1038500099460023984612E0634633432370331C95
:103860003B4363700B784F7833430B70434602330E
:1038700037434F7019040B0C9846562B2DD24146F6
:10388000494409040F0C7C5DB022D0030B18A446F8
:10389000201C7C1967783A1C190C32403040801883
:1038A0004A5D49194B7832403340D2181218022A27
:1038B000D2D82078524653463B4010402070637067
:1038C0000B784C7813400B704346023314404C7015
:1038D00019040B0C9846562BD1D35B4602331F04B8
:1038E0003B0C9B46762BAED378BC9846A146AA46A5
:1038F000B346F0BDE8280000F0B55F4656464D4699
:103900004446F0B40E06310E58264E43904600222F
:1039100000069246514683B01F1C050EFF23404609
:10392000029201930093C1708170017041709146C1
:103930007219D35D01210B4200D1E6E0551C2A0427
:10394000150CEB5D1A06194214D00126910E314276
:1039500000D0DAE0281C582105F09EFC0304180C66
:10396000572800D9D1E0681C0204150CE95D0A064D
:103970000E42EBD1691E0B041D0CEE5D0022934636
:10398000700700D58EE0012633E08246281C5821BE
:1039900005F0FAFB0006000E002800D1B5E07728FC
:1039A00000D1B2E0029A824200D3B6E00290AD4B61
:1039B00023401804AB4A010C914200D1A5E04846CF
:1039C000012800D1AFE0012800DCE6E049460229E9
:1039D00000D1CBE0032900D1F6E05B4601331804A7
:1039E000030C9B46EB5D990831425BD19E4A93459F
:1039F00058D8E9190B1C081C593B58381A78037819
:103A000032403340B443580014430B1C0222944309
:103A1000573B044318780422304083009443481EE7
:103A20001C43037808223340D800944304430878A9
:103A3000031C102233401B0194431C434B7820226B
:103A4000944333400A1C5B0157321C4313784022D5
:103A5000944333400A1C9B0158321C431378802244
:103A6000944333400A1CDB0159321C4313787F4ACC
:103A7000144004221043334008701B02281C5821B4
:103A80001C4305F009FC0006000E00283DD0572815
:103A90003BD0824500D278E70199814200D875E792
:103AA000019073E7C826B400A3452ED80421E95538
:103AB000281C582105F0F0FB0706380E824500D37C
:103AC000B0E08246281C582105F05EFB029D0006EE
:103AD000000E854200D39FE00290029C009D42466A
:103AE000671BD770019B5046C21A40460370827014
:103AF000684601783E064046340E4170142C04D9C5
:103B000017063E0E0A2E00D992E0002003B078BCC2
:103B10009846A146AA46B346F0BD009B834200D812
:103B200045E7009043E73F21201C88430206110E21
:103B3000802966D07722211C91430B061A0E802A19
:103B40000DD05F21201C88430206110E202900D0D1
:103B500043E76B1C1A040321150C89463DE7281C1A
:103B60005830030402221D0C914636E709202040FC
:103B700008284DD00321214001295BD07723201C48
:103B800098430106080E802800D026E72A1C5832E8
:103B900011040D0C012189461FE7002800D01CE705
:103BA00006222240022A57D00A21214008292DD07E
:103BB00024202040042800D00FE7032399462B1C23
:103BC000573B1804050C08E79022510021400B04D4
:103BD000180C202835D0C0204300211C19400A04AD
:103BE0008020110C430099422FD022232340022B26
:103BF00000D0F2E62A1C583A10040023050C99461E
:103C0000EBE62B1C58331804050CE6E6022291461D
:103C10006B1E1804050CE0E6009A824200D85CE7AF
:103C200000905AE7019B834200D84BE7019049E797
:103C300001206BE72B1C593B1A04150C00229146FE
:103C4000CBE66B1C1804050CC7E6291C59310A0485
:103C5000150C01229146C0E62B1C583B1804050C9C
:103C6000BBE60000FF0100002B010000FFFEFFFF8C
:103C7000F0B55F4656464D464446F0B48B460A22A0
:103C80000021071C88469446582265465543B226B3
:103C900073199A46B02358004419A1460A2039687E
:103CA0004218545D002C63D0441966183379002BF8
:103CB0005ED05446135D002B5AD04C46165D002E44
:103CC00056D003195A181179002951D000261AE04C
:103CD0006378110C62469C1A23041A14002A25DB0F
:103CE0000C1C4C431B0C22041C1C5C432404110CB4
:103CF000230CCA1811040A14E02A27DD731C1906C4
:103D00000E0E464522D8B30059465C182278111A87
:103D10000A041314002BDBDA59420A046378110CED
:103D200062469C1A23041A14002AD9DA5442230446
:103D30000C1C4C431B0C22041C1C5C432404110C63
:103D4000230CCA1811040A14E02AD7DCE12A0CDD7E
:103D5000414643468C00013362465C44811C02327A
:103D60001E06330E2170627098464246272A0FD8ED
:103D7000431C1E06300E532891D34346272B07D8E9
:103D8000634601331D062B0E9C46732B00D27BE746
:103D9000404678BC9846A146AA46B346F0BD00000E
:103DA000F0B557464646C0B40022051C8A469046E8
:103DB0000A265827341C7C43B02148000319271CCD
:103DC000B2379C460A2029684218135D002B1ED08A
:103DD00003195B181B79002B19D0D35D002B16D06B
:103DE0006346D25C002A12D0C218531819790029F0
:103DF0000DD0424691005144831C0B704346013361
:103E0000B21C4A7019060B0E9846272B0CD8831D3E
:103E10001906080E4E28D6D34346272B04D8B01DCA
:103E20000406260E6E2EC4D3404618BC9846A24601
:103E3000F0BD0000F0B55F4656464D464446F0B42E
:103E400081B01D1C0A9B5824161C9846A446824229
:103E500039DB0127121ABB468D423ADB01276B1A68
:103E6000B9469A423BDB5D00AC1A52000092B04268
:103E70001AD008239A46002853D0572851D0002939
:103E80004FD077294DD062464A43424412181378E6
:103E900057463B431370002C02DB009B4944E41A55
:103EA00058446419B042E6D166464E43464435183C
:103EB000287808210843287001B078BC9846A146AC
:103EC000AA46B346F0BD01235C42821AA3468D4246
:103ED000C4DA012467424B1BB9469A42C3DA560042
:103EE0005F00F41A0097A942DED00822924600280B
:103EF00017D0572815D0002913D0772911D0624642
:103F00004A4342441218137857463B431370002C1F
:103F100002DB009B5844E41A4944A419A942E6D1A3
:103F2000C2E70020C8E70000F0B55F4656464D46A0
:103F30004446F0B48BB0051C48680A9200220490F5
:103F40000892059289680A9E894631780A9C4B003E
:103F50001F197A78B948504303061A0E0E1C002A1E
:103F600003D10B1C41331F063A0E802464422243C6
:103F700013061F0E0F2038401A0F0101101C029764
:103F8000084305D1391CAE4805F03CF90706380E48
:103F9000204303061A0E002101920691002E00D83C
:103FA0002EE1069A80214F025404E0190A9E010C6A
:103FB0008B5D002B00D103E1029FBB4200D1FFE0EB
:103FC0007B400A9C1B06180C0B195978002900D15C
:103FD000FEE0029CA14200D1FAE0221C4A401706F2
:103FE0003A0E029E013633060243180E02900A9ED4
:103FF0000198B75C47403C06210E0791541C315D87
:10400000002900D1EEE0031C4B40AA781F06390EB0
:10401000081C5043642105F0B7F882460A9A161925
:104020007178002900D1DAE0019848400106EF7864
:104030000B0E181C7843642105F0A6F88346A31CD8
:10404000079C0027002C3FD90A9E013C03949C1931
:1040500003998F4231DA2178002900D1BCE0019A1E
:104060004A401006AE78030E181C7043642105F018
:104070008BF880466178002900D1ABE00198484078
:104080000306EA78190E081C5043642105F07CF8F9
:10409000061C2A785346D01857280CD86B78191C60
:1040A00059448C46772906D84244572A03D89B198D
:1040B000772B00D899E0C246B346781C0604079ACD
:1040C000370C02349742C3D300230993E8789B4608
:1040D00000285CD9AF786E7858245E44664329780E
:1040E00000243A068919A446A0460026002A37D0A3
:1040F0000127BA46049FC8190EE0134222D1634635
:1041000001331A06130E9C46631C1F043C0CAF7847
:1041100001310130A74222D94F467B5C08229343EC
:104120007B5402785746D3083B4206D04378DB08DD
:104130003B4202D1731C1F063E0E01231E42DCD0FF
:104140001342DCD1434601331F063B0E9846631CE5
:104150001F043C0CAF7801310130A742DCD8E8786D
:10416000F10748D4099B63441E045B4601331A04DB
:10417000130C0406310C9B46260E09915E45AAD805
:10418000089F099CA74202D20894069C0594069CAD
:104190000499013426064A468946310E0691049256
:1041A0000A9B069F1A78BA422BD9069A80214F02A1
:1041B0005404E0190A9E010C8B5D002B00D0FBE635
:1041C0000A9C1E060B195978300E002900D000E712
:1041D0005A7806E700265CE7002290464AE700236B
:1041E0009B462CE700218A4618E704990091614616
:1041F000FFF720FE5FE76346099943445B18B3E786
:10420000E8780206AE78140E66435023301C5843FB
:10421000642104F0F7FF089D0704380C85420AD397
:10422000059801300106080E0BB078BC9846A146EF
:10423000AA46B346F0BD0020F6E70000BC07000028
:104240002E160000F0B55F4656464D464446F0B483
:10425000ACB0029101920021A52293010091046863
:104260008146984600270A255826281C7043B0210D
:104270004B00061C1A18B23694460A210A19135C20
:10428000002B1CD00B181B191B79002B17D0935D2A
:10429000002B14D06346D25C002A10D0CB181A1918
:1042A0001379002B0BD0BB0004AA9B188A1C1A7030
:1042B000AA1C5A707B1C1A06170E272F0BD88A1DB2
:1042C0001306190E4E29D9D3272F04D8A91D080685
:1042D000050E6E2DC8D3002FBB4607D100982CB019
:1042E00078BC9846A146AA46B346F0BD4B4618682E
:1042F0005C46FFF771FA0027002CEFD903A8B9003C
:1043000004AA8E1882464C4630787178524623684B
:10431000FFF7F2FA0506002D11D17D1C2B061F0EAA
:104320005F45DBD2B90004AA8E184C46307871780C
:1043300052462368FFF7E0FA0506002DEDD05046FF
:104340008378002BE9D0047845781919C37858226E
:104350005E195643741825042B0C4345DDD249469B
:10436000019AFFF7E1FD0006000E0028D5D0009C61
:10437000029EE1008C19207050468678301C05F0B2
:10438000AFF91A4B184A05F0EBF905F005FD524656
:10439000051C107805F06CFE011C281C05F080FD42
:1043A00006F060F860705346587805F061FE52469A
:1043B000051CD07805F094F90C4B0B4A05F0D0F9A8
:1043C00005F0EAFC011C281C05F06AFD06F04AF81D
:1043D000E670A0705346DB782371009A0132110613
:1043E0000E0E009699E700000000E03F000000007C
:1043F00000487047B868004000487047F891004096
:104400000048704738BB0040034A0449044B02602F
:104410004160836070470000B868004038BB0040CE
:10442000F8910040034A0449044B026041608360F4
:1044300070470000B868004038BB0040F891004069
:1044400070B502060806140E050EC02001F0B8F87B
:10445000201C01F047F9281C01F044F901F05EF935
:104460000449054A00260023935501368E42FBDDA0
:1044700070BD00003F290000B868004030B500065C
:10448000000E002800D175E0012800D186E06A4DB9
:104490006A4A296813686A4C0B4313602160694CAF
:1044A000694900230022CA540133A342FBD92C6876
:1044B000664D67492C60634C00230022CA540133C7
:1044C000A342FBD9022800D17CE0C02001F078F89B
:1044D000142001F007F9202001F004F901F01EF981
:1044E0005849594A00240023135501348C42FBDDFE
:1044F000C02001F065F8122001F0F4F8282001F046
:10450000F1F801F00BF94F494F4A002400231355ED
:1045100001348C42FBDDC02001F052F8112001F083
:10452000E1F8062001F0DEF801F0F8F84549464AC6
:1045300000240023135501348C42FBDDC02001F020
:104540003FF8132001F0CEF8212001F0CBF801F064
:10455000E5F83C493C4A00240023135501348C42C1
:10456000FBDD38483B4900230022CA540133834213
:10457000FBD930BD8021384C4D0180223749930151
:10458000256080250B602C0280212B4D344A4B0284
:104590002B60344B146004221A6079E780222E4D80
:1045A00011058024630529602C4A80212C4C8D0440
:1045B000136025608022204DD3042B60294B1122EB
:1045C0001A6065E7C02000F0FBFF142001F08AF8B4
:1045D000202001F087F801F0A1F81A491A4A0024B6
:1045E0000023135501348C42FBDDC02000F0E8FFAE
:1045F000122001F077F8082001F074F801F08EF82D
:104600001049114A00240023135501348C42FBDD6C
:10461000C02000F0D5FF112001F064F8062001F061
:1046200061F801F07BF80749074A0024002313557D
:1046300001348C42FBDD94E784E40040088002E012
:10464000048002E03F290000B86800400C8002E0CE
:10465000F891004038BB004078E400407CE4004022
:1046600080E4004088E40040F0B557464E46454699
:10467000E0B47820404B8046404841491A68471EC4
:104680000C681442FCD03F4989463D4948460D68B4
:1046900002681542F9D00E681642FCD13A49384AF0
:1046A0003A4E8C4692464B461A685046046814426D
:1046B000FBD00122554232493268A8440B681342AC
:1046C000FCD02F490C681442FCD12D4908681042D7
:1046D000FCD02B490D681542FCD129490B681342C7
:1046E000FCD027490C681442FCD1254908681042C7
:1046F000FCD023490D681542FCD121490B681342B7
:10470000FCD01F4932680C681442FCD11C4C58255F
:10471000326821681142FCD0194908681042FCD166
:10472000086817490B681342FCD015490B681342FF
:10473000FCD1134901370B681342FCD01049013DED
:104740000B681342FCD1624611683268C8400C49BC
:104750000B681342FCD0387009493268086810426F
:10476000FCD1002DD4D14346002B9CD138BC9846B7
:10477000A146AA46F0BD00007CE40040B8680040B5
:10478000008002E078E4004088E4004080E40040DB
:10479000F0B557464E464546E0B47820384B804643
:1047A000384839491A68471E0C681442FCD037490A
:1047B0008946354948460D6802681542F9D00E68A9
:1047C0001642FCD13249304A324E8C4692464B4614
:1047D0001A68504604681442FBD0012255422A4907
:1047E0003268A8440B681342FCD027490C68144275
:1047F000FCD1254908681042FCD023490D681542B8
:10480000FCD121490B681342FCD01F4932680C6867
:104810001442FCD11C4C5825326821681142FCD04E
:10482000194908681042FCD1086817490B681342FF
:10483000FCD015490B681342FCD1134901370B68B2
:104840001342FCD01049013D0B681342FCD1624673
:1048500011683268C8400C490B681342FCD03870AC
:104860000949326808681042FCD1002DD4D1434672
:10487000002BACD138BC9846A146AA46F0BD00003A
:104880007CE40040F8910040008002E078E40040C1
:1048900088E4004080E40040F0B557464E46454667
:1048A000E0B478203C4B82463C483D491A68471E9C
:1048B0000C681442FCD03B498946394948460D688A
:1048C00002681542F9D00E681642FCD13649344AC6
:1048D000364E884694464B461A6860460468144231
:1048E000FBD0012255422E493268AA440B6813427C
:1048F000FCD02B490C681442FCD1294908681042AD
:10490000FCD027490D681542FCD125490B6813429C
:10491000FCD023490C681442FCD121495825086871
:104920001042FCD01E4932680B681342FCD11C4C6B
:10493000326821681142FCD0194908681042FCD144
:10494000086817490B681342FCD015490B681342DD
:10495000FCD1134901370B681342FCD01049013DCB
:104960000B681342FCD1424611683268C8400C49BA
:104970000B681342FCD0387009493268086810424D
:10498000FCD1002DD4D15346002BA4D138BC98467D
:10499000A146AA46F0BD00007CE4004038BB0040C0
:1049A000008002E078E4004088E4004080E40040B9
:1049B000F0B55F4656464D464446F0B4644B013B65
:1049C0009846644B013B9A46634B013B83469C46A9
:1049D0006248634B02681B6881B000911A4204D19F
:1049E000021C1C1C10682042FCD05C485D49046815
:1049F0000A68144203D1041C25681542FCD05748AC
:104A0000584F06683A68164200D18DE0041C2368AE
:104A10001342FCD101267542534AAB4451494F4DD4
:104A2000914628680A68514C009E104200D189E0E6
:104A30004A4F256800203A682A4204D14749226833
:104A40000B681342FCD039682268114203D04349F5
:104A50000B681342FCD1411C0A06100E0428EAD947
:104A60003E48056822680127BC44B844BA44154250
:104A700003D13A490B681342FCD001682268114205
:104A800003D036490D681542FCD1494603680D68CC
:104A90006246EB40137007682268174203D12F4922
:104AA0000F681742FCD003682268134203D02B49D9
:104AB0000D681542FCD1494607680B684246DF4045
:104AC000177001682268114203D124490D6815420C
:104AD000FCD007682268174203D020490B681342B4
:104AE000FCD1494605680F685246FD4015700168C3
:104AF0002268114203D119490B681342FCD00568A2
:104B00002268154203D015490F681742FCD1013EB7
:104B1000002EA6D15B46002B09D101B078BC984687
:104B2000A146AA46B346F0BD0F4B104C994601264C
:104B30007542AB440B49094D0A682868009E104233
:104B400000D075E7291C0F681742FCD070E7000001
:104B500038BB0040F8910040B8680040008002E097
:104B60007CE4004078E4004088E4004080E40040B9
:104B7000F0B55F4656464D464446F0B45A4B013BAD
:104B800098465A4B013B9A46594B013B9C46594922
:104B9000594B0A681B68782083461A4204D10A1CC4
:104BA000191C14680C42FCD05249544D0B682A68F9
:104BB00000E00B681342FCD04E49504F0E683A6833
:104BC000164206D00B681342FCD14D494D4C894624
:104BD00002E04B4A4B4C91464649484801267542F3
:104BE0000B680268AB44582700E00B681342FCD006
:104BF000404E2568002033682B4204D13D4922688D
:104C00000B681342FCD031682268114203D0394945
:104C10000B681342FCD1411C0A06100E0428EAD985
:104C20003448056822680126B444B044B2441542B1
:104C300003D130490B681342FCD00168226811424D
:104C400003D02C490D681542FCD1494603680D6814
:104C50006246EB40137006682268164203D125496C
:104C60000E681642FCD003682268134203D0214923
:104C70000D681542FCD1494606680B684246DE4085
:104C8000167001682268114203D11A490D68154255
:104C9000FCD006682268164203D016490B681342FE
:104CA000FCD1494605680E685246F540157001680A
:104CB0002268114203D10F490B681342FCD00568EA
:104CC0002268154203D00B490E681642FCD1013F01
:104CD000002FA6D15B46002B00D07DE778BC98461C
:104CE000A146AA46B346F0BD38BB0040F89100404B
:104CF000B8680040008002E07CE4004078E40040B6
:104D000088E4004080E4004000B5054B011C1868B1
:104D1000002800D100BD0430FDF7E0FEFAE70000F6
:104D20008CE400400370009B8170427043607047C8
:104D300010B5427884785443037822040021140C7F
:104D4000002B0BD1D20C002A07D9002443685C54F5
:104D50004B1C1B04190C9142F8D310BD002CFCD93C
:104D6000002243685A544B1C1B04190CA142F8D36F
:104D7000F3E70000F0B500239C4613780004090413
:104D8000141C070C0E0C002B15D192780725110668
:104D9000154201D001239C46CB0E63447343C20CE1
:104DA000D218606811040E0C3D400124AC40855DB2
:104DB0002C43845508E092787243D11966680D043B
:104DC00001242F0C6042F055F0BD0000F0B54746BD
:104DD00080B400220B68071C081C1C4994461C4A1E
:104DE0000B40934203D0002008BC9846F0BD5823E6
:104DF000B0269846760062461401A31A0121950157
:104E0000DC1009E043680122EB1852425A544B1C53
:104E10001A06110E3F2910D80B1C734342466243F9
:104E20001B12D218BA5C002AECD14368EB185A5412
:104E30004B1C1A06110E3F29EED9634601331D069D
:104E40002B0E9C463F2BD6D90120CDE7FFFFFF005C
:104E500008404000F0B55F4656464D464446F0B423
:104E600086B00F9C0004A14612041C040904120C15
:104E7000230C000C090C05929B4682426BD3161A38
:104E8000350401222E0C04928B456CD35C46651AC6
:104E90002C04250C012203922F04320414143A141A
:104EA00080468C4694426CDB57043B0C9D1B2A04C5
:104EB0006704150C059C02049B4616143B0C0293D8
:104EC000A64200D1B0E009048A4631E0A378072465
:104ED00019061C4200D00127CB0EDB194343D20C2C
:104EE000D21849464868170434403A0C0126A640B7
:104EF000845C26438654280400280ADB0398029F1A
:104F000060440404230CEA1B160419049C46350C67
:104F10008A465A46A818049A42441604330C0704D9
:104F2000059C180401143D0C9846021CA1427ED039
:104F30004C4623785146160C080C0027002BC5D090
:104F40004A4694784443A3191F0456680121380C3B
:104F50004C423454CFE7059A831A5E4A1F043E0C34
:104F600004928B4592D25C460B1B1F04594A3D0CA0
:104F700003922F04320414143A1480468C4694424F
:104F800092DA6604330C5F1B56040A043C04019356
:104F90001714330C250C00935F456CD0070430E0E8
:104FA000A27807241106144201D001229246CB0EAA
:104FB00053444343FA0CD2184B465868110434400A
:104FC0000A0C0126A640845C264386542804002847
:104FD00009DB0498009C40442E1B01040B0C370491
:104FE0003D0C98461F04039C019E6444A8192204AA
:104FF000130C01040D0C19040E149C460A1C5E458A
:105000003BD04C46217800233E0C100C9A460029D8
:10501000C6D04C46A17841438B191A046668012119
:10502000100C4C423454D1E709048A4600044C4623
:1050300025785246060C110C0027002D42D1A3788A
:1050400007251C061D4200D00127E30EC20CD8190B
:105050004843494617183C04354001234868220C50
:10506000AB40855C2B43835406B078BC9846A14680
:10507000AA46B346F0BD090407044A4613783D0C1E
:10508000090C0026002B12D19378072418061C4225
:1050900000D00126C30E98194843FA0C12184B464B
:1050A00017042C40586801233A0CA340D9E74C461A
:1050B000A7784F437E1931040B0C616801204242EE
:1050C000CA54D1E74A4694784C43A5192E04516836
:1050D000330CF3E7FFFF000070B50D1C01062878C4
:1050E000420053195C7846340E0E21060C0E0F2038
:1050F0000A0F20400301111C194305D1211C0F4840
:1051000004F080F80306190E720056197278B07810
:10511000002A02D0A24200D06240002802D0A04261
:1051200000D06040160206433304180C441960781E
:10513000002802D0884200D0484070BDD204000050
:1051400070B50D1C01062878420053195C7846346E
:105150000E0E21060C0E0F200A0F20400301111C19
:10516000194305D1211C0F4804F04CF80306190E11
:10517000720056197278B078002A02D0A24200D08C
:105180006240002802D0A04200D0604016020643D0
:105190003304180C4419E078002802D0884200D06B
:1051A000484070BDD2040000F0B55F4656464D46FB
:1051B0004446F0B48DB00A9304060B06200E1E0E72
:1051C0000B960C90169F15062E0EBD7807212C0607
:1051D0008846E10E08910A9A107843009F187C785F
:1051E000463421060C0E0F2020400A0F0301101C2C
:1051F000184305D1C348211C04F004F80206100E20
:10520000011C50310F063B0E9B46002B04D1071C9E
:105210005A373A06130E9B460A9973005E18717846
:10522000B278002902D0A14200D06140002A02D009
:10523000A24200D062400E0216430A9C37043A0C88
:10524000135D14196178002B02D0834200D04340D3
:10525000002902D0814200D041401F020F4339048F
:105260000B0C9A46A378E178002B02D0834200D041
:105270004340002902D0814200D041401E020E432B
:105280003404200C51460390CB08504607210840B7
:1052900000D00133039F7B43171D1E043A04340CD6
:1052A000130C0194169A9C461378002B00D0B4E09E
:1052B0005678089F7E43013E3404039D220C002350
:1052C00009920293002D00D8A0E00C9D0C9A294071
:1052D000D30809060793069105900B9A029B089D37
:1052E000D7186F43079CE61930040999040C8C42C7
:1052F00000D98BE00A9E069D6346371C280E019953
:105300009D5D67447E5C002D03D05D4501D05B460A
:105310005D40002E03D05E4501D059464E405246B6
:105320000027002A5FD90123994619E0169A53688D
:105330000204121491400A1C195D0A431A5543468F
:10534000013B411C1B040A04190C100C8846002B5D
:1053500027DB082840D07B1C1A04170C574542D283
:1053600041460B041A142B1C134149460B42DDD154
:10537000331C134149460B42E1D0169A030451688D
:105380001A144B4693401A1C0B5D93430B5543462E
:10539000013B411C1B040A04190C100C8846002B0D
:1053A000D7DA634601330A9E1D042B0C07229C4664
:1053B0009D5D9046331C019A63449E5C002D03D092
:1053C0005D4501D05B465D40002EC2D05E45C0D039
:1053D00059464E400828BED1611C0B04099A1C0C8A
:1053E00000209442B7D90598002804D063460133C1
:1053F0001C04230C9C46029D01352E0403990724AE
:10540000370CA04602978F4200D266E70DB078BCF9
:105410009846A146AA46B346F0BD169C2A06667871
:10542000170E7743013F39040B0C039A994600236A
:105430000093002AEAD90490009F0B9B2906F818D4
:105440000C0E44430A9D0C9A6346161901995C5D43
:105450002B1C37046344380C5D5C002C03D05C4586
:1054600001D05B465C40002D03D05D4501D059461C
:105470004D4052460026002A2BD9012715E0169BE5
:1054800001215A684B421354431C1904080C484527
:105490001FD84346013B1A04110C8846002A33DB0F
:1054A000731C1A04160C564513D241460B041A14E9
:1054B000231C1341191C3940E1D12B1C13413B42E1
:1054C000E2D0169A53681954431C1904080C484535
:1054D000DFD9049E002E04D0634601331F043B0C29
:1054E0009C4607239846484500D98FE7009901312B
:1054F0000D04039C280C0090A04200D386E7169868
:10550000857899E7D2040000634601330A9D1C04A4
:10551000230C07229C465C5D90462B1C019A634439
:105520009D5C002C03D05C4501D05B465C40002DA7
:10553000B6D05D45B4D059464D40B1E701200A4987
:1055400043420B70094908685022104308600B68F9
:10555000A02083430B60064BA0301880043B1880CA
:105560004022103B1A70704718C001E000C002E0F2
:1055700014C001E000B501220D4953420B700D49E2
:105580000B68502213430B600B68A02293430B60FF
:10559000094B984208D9181C08490880043908802A
:1055A00040201039087000BD0F28F5D81020F3E70F
:1055B00018C001E000C002E07701000014C001E063
:1055C00010B50006000EC3071AD41F4B20221A7014
:1055D0001E4A13781C06210E0829FAD11C490870AE
:1055E0002820103108701948174901220478230631
:1055F0001C0E182C03D00C78E3081342F6D010BD13
:1056000011492024134B0C700822104C1A700122EF
:1056100023781B061B0E102B03D00B78DB081342DC
:10562000F6D00B4908702820103108700748064949
:105630000122047823061C0E402CE0D00C78E308ED
:105640001342F6D0DBE7000000C001E004C001E037
:1056500008C001E018C001E000B50A4B08220A4862
:105660000A491A70012203781B061B0E502B03D027
:105670000B78DB081342F6D0054A11780806000EB5
:1056800000BD000018C001E004C001E000C001E05E
:1056900008C001E000B50006002818D10D4B1A78AB
:1056A00004210A431A700C4B08220C4809491A704D
:1056B000012203781B061B0E502B03D00B78DB084E
:1056C0001342F6D0064A11780806000E00BD024BC0
:1056D0000422E7E700C001E018C001E004C001E0D7
:1056E00008C001E000B50106094B080E1870082239
:1056F0001033084808491A70012203781B061B0E54
:10570000282B03D00B78DB081342F6D000BD000035
:1057100008C001E004C001E000C001E000B5064897
:1057200008220270054A1023137001211078030922
:105730000B42FBD100BD000018C001E000C001E039
:1057400010B51C4B25221A7056201B4A44420121D9
:105750005520043B147010701970184914701070A3
:1057600001220B889C0A1442FBD0154803210170CA
:10577000562311495C4255220C700A70114C124993
:105780000020042308702370104B02220120104CCB
:105790000A7018703C210F482160002208342260F2
:1057A000016008300260FFF7C9FE0B48FDF7A4F95D
:1057B00010BD000084C01FE08CC01FE088C01FE047
:1057C00080C01FE004C01FE000C01FE000C11FE058
:1057D0000C4000E00C8000E0040B000010B51D4BF5
:1057E00025221A7056201C4A444201215520043BB0
:1057F00014701070197019491470107001220B8800
:105800009C0A1442FBD0164803210170562312490A
:105810005C4255220C700A70124C1349002004237C
:1058200008702370114B02220120114C0A7018706D
:105830003C211048216000220834226001600830B9
:105840000260FFF77BFE0C48FDF756F90120FEF7DA
:1058500015FE10BD84C01FE08CC01FE088C01FE093
:1058600080C01FE004C01FE000C01FE000C11FE0B7
:105870000C4000E00C8000E0040B000010B51D4B54
:1058800025221A7056201C4A444201215520043B0F
:1058900014701070197019491470107001220B885F
:1058A0009C0A1442FBD0164803210170562312496A
:1058B0005C4255220C700A70124C134900200423DC
:1058C00008702370114B02220120114C0A701870CD
:1058D0003C21104821600022083422600160083019
:1058E0000260FFF72BFE0C48FDF706F90020FEF7DB
:1058F000C5FD10BD84C01FE08CC01FE088C01FE044
:1059000080C01FE004C01FE000C01FE000C11FE016
:105910000C4000E00C8000E0040B000000B50749DB
:1059200002220A60064A0023136001230B601168FB
:105930008142FCD301480223036000BD044000E023
:10594000084000E00449022304480B6000220123C0
:1059500002600B6070470000048000E0088000E0F7
:10596000024B18680222043B1A607047088000E06E
:10597000014B186870470000088000E0014B4004AC
:1059800018607047088002E0014B1868400C7047AF
:10599000008002E0014B400418607047048002E080
:1059A000014B4004186070470C8002E0034B420436
:1059B000C1431A604804083318607047048002E04D
:1059C00030B504041B4B1C481C4A1860043B0906F4
:1059D0001A601E20250C0C0EFFF7A0FF18490122AB
:1059E0000868C30E1342FBD180218A048023E90298
:1059F000214310489C002143124D02604A04104983
:105A00002A6001220C68E50E1542FBD10C490122E7
:105A10000868C30E1342FBD0064A8025E9041160D2
:105A2000074901220B68DC0E1442FBD1064A0148EB
:105A3000026030BD0C8002E00000FEFF0000FEF7B7
:105A4000008002E0048002E00000FEF110B51C4975
:105A50001C4A03040A60F6201B4A1C0C0306136050
:105A60001E20FFF75BFF194901220B68D80E104278
:105A7000FBD1C023E0029A001043154C4104216081
:105A8000124901220868C40E1442FBD10F4C0122B6
:105A90002368D90E1142FBD06420FFF73FFF206836
:105AA0008021074ACC04C30108491460180E012262
:105AB0000B68DC0E1442FBD1064A01490A6010BD96
:105AC0000C8002E00000FEFF088002E0008002E09F
:105AD000048002E00000FEF300B50348FFF74EFF2C
