:100000007D0000EA960000EA950000EA940000EA0C
:10001000930000EA920000EA910000EA900000EAF2
:10002000F0B557464E464546E0B4394C394EA544E6
:1000300000F0D0FD00F0BEFE00F07CF802F0D2FF30
:1000400001AB802140229946181C6E440023009683
:1000500000F016F9484600F019F9484601F028FA70
:1000600000F078F82C4B6B449A462C4B2C4F6B4489
:10007000984639E0632C47DDC82D47DC632D41DC11
:10008000092000F0B5F8391C221C504604F04CF849
:10009000391C2A1C404604F047F801200221214A5D
:1000A000331C00F073F8022001211F4A331C00F0BA
:1000B0006DF8052003215246331C00F067F801203B
:1000C00008211A4A331C00F061F802200821184A5E
:1000D000331C00F05BF8052008214246331C00F079
:1000E00055F8484601F0E4F9002002F07FFB0106D4
:1000F00001200C0E02F07AFB0006050EC82CB9DDBB
:100100000520BEE70020BCE70A20BAE70620B8E7D2
:10011000DCF7FFFF0C040000180800000C080000CA
:100120007CA6000080A6000084A600008CA600002B
:1001300094A6000000B582B080226846510001807C
:10014000E0231021DA004B424280037102F0D4F91F
:1001500002B000BD10B583B00A4B01AC0093201C67
:1001600080214022002300F08BF8201C00F08EF844
:10017000002000210022044B009400F0C3FA03B0D9
:1001800010BD0000B00B00401C9A0000F0B54746BF
:1001900080B4151C12781206061C0C1C9C46002A02
:1001A00021D0124B0F279846130F100ED90138405B
:1001B0000B18F00142466044D118021907200B7851
:1001C0001031137010320138F9D5013401353C4239
:1001D00005D1013607220024164200D100262978D5
:1001E0000A06002AE0D108BC9846F0BDB00B0040DA
:1001F00000B50006000E02F0D9FB00BD78309FE587
:1002000003D0A0E102AC4DE20010A0E301B0A0E1F8
:100210000170A0E14C109FE54C309FE5013053E0A8
:100220000300000A0020A0E30120C1E4013053E2F2
:10023000FCFFFFCA34109FE534209FE534309FE572
:10024000013053E00300000A0140D2E40140C1E460
:10025000013053E2FBFFFFCA0000A0E30010A0E35F
:10026000342900EBFEFFFFEAA8070040848C004021
:100270000000004044A70000A8070040FCFF004029
:100280000370009B817042704360704710B54278E4
:1002900084785443037822040021140C002B0BD1E2
:1002A000D20C002A07D9002443685C544B1C1B0461
:1002B000190C9142F8D310BD002CFCD900224368E0
:1002C0005A544B1C1B04190CA142F8D3F3E700004D
:1002D000F0B500239C46137800040904141C070C95
:1002E0000E0C002B15D1927807251106154201D06E
:1002F00001239C46CB0E63447343C20CD218606842
:1003000011040E0C3D400124AC40855D2C43845506
:1003100008E092787243D11966680D0401242F0C0D
:100320006042F055F0BD0000F0B5474680B40022B1
:100330000B68071C081C1C4994461C4A0B4093423E
:1003400003D0002008BC9846F0BD5823B02698463C
:10035000760062461401A31A01219501DC1009E020
:1003600043680122EB1852425A544B1C1A06110ED4
:100370003F2910D80B1C7343424662431B12D2180C
:10038000BA5C002AECD14368EB185A544B1C1A068D
:10039000110E3F29EED9634601331D062B0E9C46F4
:1003A0003F2BD6D90120CDE7FFFFFF0008404000DA
:1003B000F0B55F4656464D464446F0B486B00F9CB5
:1003C0000004A14612041C040904120C230C000CA6
:1003D000090C05929B4682426BD3161A3504012202
:1003E0002E0C04928B456CD35C46651A2C04250CAC
:1003F000012203922F04320414143A1480468C46CE
:1004000094426CDB57043B0C9D1B2A046704150CBB
:10041000059C02049B4616143B0C0293A64200D195
:10042000B0E009048A4631E0A378072419061C428B
:1004300000D00127CB0EDB194343D20CD21849461A
:100440004868170434403A0C0126A640845C2643D1
:100450008654280400280ADB0398029F60440404A1
:10046000230CEA1B160419049C46350C8A465A468E
:10047000A818049A42441604330C0704059C180477
:1004800001143D0C9846021CA1427ED04C462378B4
:100490005146160C080C0027002BC5D04A4694780C
:1004A0004443A3191F0456680121380C4C423454AC
:1004B000CFE7059A831A5E4A1F043E0C04928B45CF
:1004C00092D25C460B1B1F04594A3D0C03922F0429
:1004D000320414143A1480468C46944292DA66042C
:1004E000330C5F1B56040A043C0401931714330CAD
:1004F000250C00935F456CD0070430E0A2780724F8
:100500001106144201D001229246CB0E53444343BC
:10051000FA0CD2184B465868110434400A0C0126D4
:10052000A640845C264386542804002809DB0498EE
:10053000009C40442E1B01040B0C37043D0C9846D4
:100540001F04039C019E6444A8192204130C010497
:100550000D0C19040E149C460A1C5E453BD04C46FB
:10056000217800233E0C100C9A460029C6D04C4638
:10057000A17841438B191A0466680121100C4C4282
:100580003454D1E709048A4600044C462578524683
:10059000060C110C0027002D42D1A37807251C065C
:1005A0001D4200D00127E30EC20CD819484349462A
:1005B00017183C04354001234868220CAB40855C89
:1005C0002B43835406B078BC9846A146AA46B3464E
:1005D000F0BD090407044A4613783D0C090C0026B7
:1005E000002B12D19378072418061C4200D0012654
:1005F000C30E98194843FA0C12184B4617042C40A6
:10060000586801233A0CA340D9E74C46A7784F43DA
:100610007E1931040B0C616801204242CA54D1E7B3
:100620004A4694784C43A5192E045168330CF3E7DD
:10063000FFFF000070B50D1C010628784200531919
:100640005C7846340E0E21060C0E0F200A0F204057
:100650000301111C194305D1211C0F4803F096FC1E
:100660000306190E720056197278B078002A02D06B
:10067000A24200D06240002802D0A04200D06040D8
:10068000160206433304180C44196078002802D07F
:10069000884200D0484070BDD204000070B50D1CE7
:1006A00001062878420053195C7846340E0E210664
:1006B0000C0E0F200A0F20400301111C194305D115
:1006C000211C0F4803F062FC0306190E7200561934
:1006D0007278B078002A02D0A24200D0624000288E
:1006E00002D0A04200D06040160206433304180C2A
:1006F0004419E078002802D0884200D0484070BDFC
:10070000D2040000F0B55F4656464D464446F0B46C
:100710008DB00A9304060B06200E1E0E0B960C904D
:10072000169F15062E0EBD7807212C068846E10E71
:1007300008910A9A107843009F187C784634210665
:100740000C0E0F2020400A0F0301101C184305D186
:10075000C348211C03F01AFC0206100E011C503184
:100760000F063B0E9B46002B04D1071C5A373A0656
:10077000130E9B460A9973005E187178B2780029AF
:1007800002D0A14200D06140002A02D0A24200D093
:1007900062400E0216430A9C37043A0C135D14198A
:1007A0006178002B02D0834200D04340002902D060
:1007B000814200D041401F020F4339040B0C9A467E
:1007C000A378E178002B02D0834200D04340002977
:1007D00002D0814200D041401E020E433404200C5E
:1007E00051460390CB0850460721084000D0013302
:1007F000039F7B43171D1E043A04340C130C019411
:10080000169A9C461378002B00D0B4E05678089FC7
:100810007E43013E3404039D220C0023099202937F
:10082000002D00D8A0E00C9D0C9A2940D3080906A1
:100830000793069105900B9A029B089DD7186F436A
:10084000079CE61930040999040C8C4200D98BE00E
:100850000A9E069D6346371C280E01999D5D6744DC
:100860007E5C002D03D05D4501D05B465D40002ECF
:1008700003D05E4501D059464E4052460027002A1B
:100880005FD90123994619E0169A5368020412149D
:1008900091400A1C195D0A431A554346013B411C0D
:1008A0001B040A04190C100C8846002B27DB0828AF
:1008B00040D07B1C1A04170C574542D241460B040A
:1008C0001A142B1C134149460B42DDD1331C134132
:1008D00049460B42E1D0169A030451681A144B465C
:1008E00093401A1C0B5D93430B554346013B411C3F
:1008F0001B040A04190C100C8846002BD7DA634637
:1009000001330A9E1D042B0C07229C469D5D9046D8
:10091000331C019A63449E5C002D03D05D4501D0D9
:100920005B465D40002EC2D05E45C0D059464E4069
:100930000828BED1611C0B04099A1C0C00209442AB
:10094000B7D90598002804D0634601331C04230C52
:100950009C46029D01352E0403990724370CA046BE
:1009600002978F4200D266E70DB078BC9846A14648
:10097000AA46B346F0BD169C2A066678170E774342
:10098000013F39040B0C039A994600230093002A77
:10099000EAD90490009F0B9B2906F8180C0E4443DB
:1009A0000A9D0C9A6346161901995C5D2B1C37044D
:1009B0006344380C5D5C002C03D05C4501D05B4681
:1009C0005C40002D03D05D4501D059464D40524654
:1009D0000026002A2BD9012715E0169B01215A6811
:1009E0004B421354431C1904080C48451FD8434676
:1009F000013B1A04110C8846002A33DB731C1A04CD
:100A0000160C564513D241460B041A14231C1341ED
:100A1000191C3940E1D12B1C13413B42E2D0169AFC
:100A200053681954431C1904080C4845DFD9049E27
:100A3000002E04D0634601331F043B0C9C46072361
:100A40009846484500D98FE7009901310D04039C71
:100A5000280C0090A04200D386E71698857899E785
:100A6000D2040000634601330A9D1C04230C0722B4
:100A70009C465C5D90462B1C019A63449D5C002C57
:100A800003D05C4501D05B465C40002DB6D05D458F
:100A9000B4D059464D40B1E710B51C4B25221A7011
:100AA00056201B4A444201215520043B147010700B
:100AB000197018491470107001220B889C0A144296
:100AC000FBD0154803210170562311495C42552281
:100AD0000C700A70114C1249002004230870237016
:100AE000104B02220120104C0A7018703C210F4854
:100AF000216000220834226001600830026003F0A7
:100B000057F80B4801F022F810BD000084C01FE028
:100B10008CC01FE088C01FE080C01FE004C01FE041
:100B200000C01FE000C11FE00C4000E00C8000E0AE
:100B3000040B000010B51D4B25221A7056201C4ACC
:100B4000444201215520043B14701070197019495A
:100B50001470107001220B889C0A1442FBD01648B6
:100B600003210170562312495C4255220C700A7011
:100B7000124C13490020042308702370114B0222E9
:100B80000120114C0A7018703C211048216000228D
:100B90000834226001600830026003F009F80C4854
:100BA00000F0D4FF012002F0BDFB10BD84C01FE0A7
:100BB0008CC01FE088C01FE080C01FE004C01FE0A1
:100BC00000C01FE000C11FE00C4000E00C8000E00E
:100BD000040B000010B51D4B25221A7056201C4A2C
:100BE000444201215520043B1470107019701949BA
:100BF0001470107001220B889C0A1442FBD0164816
:100C000003210170562312495C4255220C700A7070
:100C1000124C13490020042308702370114B022248
:100C20000120114C0A7018703C21104821600022EC
:100C30000834226001600830026002F0B9FF0C48FD
:100C400000F084FF002002F06DFB10BD84C01FE0A7
:100C50008CC01FE088C01FE080C01FE004C01FE000
:100C600000C01FE000C11FE00C4000E00C8000E06D
:100C7000040B000000B5074902220A60064A00235F
:100C8000136001230B6011688142FCD301480223E9
:100C9000036000BD044000E0084000E00449022376
:100CA00004480B600022012302600B6070470000C3
:100CB000048000E0088000E0024B18680222043B38
:100CC0001A607047088000E0014B18687047000008
:100CD000088000E000B5034803F06CF8024803F018
:100CE0007BF800BDFF7F0000FF07000010B58020EB
:100CF0008400201C03F06AF8201C03F067F8201C15
:100D000003F06AF8201C03F067F810BD30B5000648
:100D1000050E072403E003F059F8013C09D48021B3
:100D20004B04A340180E0542F5D103F055F8013CE1
:100D3000F5D530BD30B51E4803F04EF8B825072470
:100D400003E003F043F8013C09D480204304A340AE
:100D5000180E0542F5D103F03FF8013CF5D5FFF739
:100D6000C5FF4025072403E003F030F8013C09D417
:100D700080225104A140080E0542F5D103F02CF861
:100D8000013CF5D5FFF7B2FFC025072403E003F0CF
:100D90001DF8013C09D480204304A340180E0542ED
:100DA000F5D103F019F8013CF5D5FFF79FFF30BDF1
:100DB000FF06000030B5564802F0FCFF554803F02E
:100DC0000BF85548FFF756FF3F25072403E002F0D4
:100DD000FDFF013C09D480204304A340180E0542C6
:100DE000F5D102F0F9FF013CF5D5FFF77FFF4B4845
:100DF00002F0F2FFB825072403E002F0E7FF013C10
:100E000009D480225104A140080E0542F5D102F018
:100E1000E3FF013CF5D5FFF769FF4025072403E018
:100E200002F0D4FF013C09D480204304A340180EF3
:100E30000542F5D102F0D0FF013CF5D5FFF756FF92
:100E4000C025072403E002F0C1FF013C09D4802241
:100E50005104A140080E0542F5D102F0BDFF013C4E
:100E6000F5D58024FFF742FF200102F0AFFF3F25B8
:100E7000072403E002F0AAFF013C09D480204304C8
:100E8000A340180E0542F5D102F0A6FF013CF5D5AE
:100E9000FFF72CFF214802F09FFFB825072403E04D
:100EA00002F094FF013C09D480225104A140080EB5
:100EB0000542F5D102F090FF013CF5D5FFF716FF92
:100EC0004025072403E002F081FF013C09D4802083
:100ED0004304A340180E0542F5D102F07DFF013C0A
:100EE000F5D5FFF703FFC025072403E002F06EFFEE
:100EF000013C09D480225104A140080E0542F5D1DD
:100F000002F06AFF013CF5D5FFF7F0FE30BD0000AE
:100F1000FF7F0000FF07000010270000FF06000011
:100F2000F0B55F4656464D464446F0B481B00021C8
:100F30008246A948009102F03DFFA84802F04CFF0C
:100F4000F020C00102F048FFA54802F045FFB82597
:100F5000072403E002F03AFF013C09D48022530445
:100F6000A340180E0542F5D102F036FF013CF5D53D
:100F7000FFF7BCFE4025072403E002F027FF013CF9
:100F800009D480277E04A640300E0542F5D102F038
:100F900023FF013CF5D5FFF7A9FEC025072403E098
:100FA00002F014FF013C09D480204104A140080E46
:100FB0000542F5D102F010FF013CF5D5FFF796FE92
:100FC00051460C78002C00D17EE00022914680270B
:100FD000F80002F001FF0120FFF74CFE48267542A1
:100FE000484605432B061D0E072403E002F0EEFEE3
:100FF000013C09D480225104A140080E0542F5D1DC
:1010000002F0EAFE013CF5D5FFF770FE402507240B
:1010100003E002F0DBFE013C09D480204304A3403E
:10102000180E0542F5D102F0D7FE013CF5D580251A
:10103000FFF75CFEE80002F0C9FE0120FFF71AFE90
:1010400049464C060022260C90460127504643682C
:10105000404600250022C11893019C192004030C6E
:10106000CC5C002C04D03C1C94402C432006050E84
:10107000501C03041A0C072AEED9072403E002F0DF
:10108000A5FE013C09D4391CA1400A06100E0542F8
:10109000F5D102F0A1FE013CF5D5FFF727FE43464E
:1010A00001331D042B0C98463F2BCFD94B460133FF
:1010B0001E04330C9946072B89D901B078BC984699
:1010C000A146AA46B346F0BD00218B468025E80024
:1010D00002F082FE0120FFF7CDFD482044425A462F
:1010E000144327063D0E072403E002F06FFE013C87
:1010F00009D480235E04A640300E0542F5D102F0EB
:101100006BFE013CF5D5FFF7F1FD4025072403E018
:1011100002F05CFE013C09D480277904A140080E4E
:101120000542F5D102F058FE013CF5D5FFF7DEFD92
:101130008022D00002F04AFE0120FFF79BFD009FB5
:101140003B1C083399464F4537DA01260021884673
:101150005346596800250022D300D8190404230CF3
:10116000CC5C40460441344204D0301C90402843BB
:101170000406250E541C23041A0C072AECD9072454
:1011800003E002F023FE013C09D4311CA1400A0611
:10119000100E0542F5D102F01FFE013CF5D5FFF718
:1011A000A5FD434601331D042B0C9846072BCFD9D0
:1011B0007C1C2004070C4F45C8DB00995B460133BB
:1011C00040310A041E04170C330C00979B46072B72
:1011D00000D87BE771E70000FF7F0000FF070000F9
:1011E000FF060000F0B55F4656464D464446F0B453
:1011F00081B000228246AB48009202F0DBFDAA4893
:1012000002F0EAFDF021C80102F0E6FD80200001B5
:1012100002F0DCFDA54802F0DFFDB825072403E05D
:1012200002F0D4FD013C09D480267304A340180EBB
:101230000542F5D102F0D0FD013CF5D5FFF756FD92
:101240004025072403E002F0C1FD013C09D48020C1
:101250004704A740380E0542F5D102F0BDFD013C20
:10126000F5D5FFF743FDC025072403E002F0AEFDEE
:10127000013C09D480225104A140080E0542F5D159
:1012800002F0AAFD013CF5D5FFF730FD51460C7880
:10129000002C00D08CE0002293468027F80002F05A
:1012A0009BFD0120FFF7E6FC4826754258460543A2
:1012B0002B061D0E072403E002F088FD013C09D433
:1012C00080225104A140080E0542F5D102F084FDB0
:1012D000013CF5D5FFF70AFD4025072403E002F0A5
:1012E00075FD013C09D480204304A340180E05423B
:1012F000F5D102F071FD013CF5D58025FFF7F6FC34
:10130000E80002F063FD0120FFF7B4FC009F391CE8
:10131000083189464F4537DA012600239846504662
:10132000416800250022D300D8190404230CCC5CAA
:1013300040460441344204D0301C90402843040607
:10134000250E541C23041A0C072AECD9072403E0A9
:1013500002F03CFD013C09D4311CA1400A06100EEC
:101360000542F5D102F038FD013CF5D5FFF7BEFC92
:10137000434601331D042B0C9846072BCFD97C1C08
:101380002004070C4F45C8DB00995B460133403110
:101390000A041E04170C330C00979B46072B00D839
:1013A0007BE701B078BC9846A146AA46B346F0BD9B
:1013B000002189468026F00002F00EFD0120FFF793
:1013C00059FC482465424A4615432806050E072461
:1013D00003E002F0FBFC013C09D480277B04A3401E
:1013E000180E0542F5D102F0F7FC013CF5D5FFF7E8
:1013F0007DFC4025072403E002F0E8FC013C09D411
:1014000080204104A140080E0542F5D102F0E4FC21
:10141000013CF5D5FFF76AFC8022D00002F0D6FC33
:101420000120FFF727FC4846450600212E0C884680
:1014300001275046446840460025002201199401C6
:10144000A3191804040C0B5D002B04D03B1C934023
:101450002B431806050E501C0404220C072AEED953
:10146000072403E002F0B2FC013C09D43A1CA2407C
:101470001106080E0542F5D102F0AEFC013CF5D58F
:10148000FFF734FC434601331D042B0C98463F2BD9
:10149000CFD94B4601331E04330C9946072B89D90B
:1014A0007FE70000FF7F0000FF070000FF0600004D
:1014B000F0B55F4656464D464446F0B482B082468B
:1014C00000200190B84802F075FCB84802F084FC96
:1014D00051460B78002B00D192E1F022D00102F0AE
:1014E0007BFCB34802F078FCB825072403E002F047
:1014F0006DFC013C09D480277E04A640300E0542D5
:10150000F5D102F069FC013CF5D5FFF7EFFB402572
:10151000072403E002F05AFC013C09D480214B046B
:10152000A340180E0542F5D102F056FC013CF5D55A
:10153000FFF7DCFBC025072403E002F047FC013C79
:1015400009D480204204A240100E0542F5D102F0D9
:1015500043FC013CF5D5FFF7C9FB002291468021F1
:10156000C80002F039FC8023D800802702F034FC48
:10157000F80002F031FC48267542484605432C0627
:10158000250E072403E002F021FC013C09D4802051
:101590004204A240100E0542F5D102F01DFC013CB0
:1015A000F5D5FFF7A3FB4025072403E002F00EFC6E
:1015B000013C09D480277E04A640300E0542F5D1B7
:1015C00002F00AFC013CF5D5FFF790FB8020C0003B
:1015D00002F0FCFB8023D800802502F0F7FBE80036
:1015E00002F0F4FB49468C060022260C90460127A7
:1015F000504644684046002500220119D401A31931
:101600001804040C0B5D002B04D03B1C93402B43AF
:101610001806050E501C0404220C072AEED90724D4
:1016200003E002F0D3FB013C09D4391CA1400A06B7
:10163000100E0542F5D102F0CFFB013CF5D5FFF7C6
:1016400055FB434601331D042B0C98463F2BCFD945
:101650004B4601331E04330C9946072B00D87EE716
:101660008027380102F0B2FB514802F0B5FBB825E3
:10167000072403E002F0AAFB013C09D480204204C5
:10168000A240100E0542F5D102F0A6FB013CF5D5B3
:10169000FFF72CFB4025072403E002F097FB013CF9
:1016A00009D480267104A140080E0542F5D102F04C
:1016B00093FB013CF5D5FFF719FBC025072403E098
:1016C00002F084FB013C09D480277B04A340180E60
:1016D0000542F5D102F080FB013CF5D5FFF706FB92
:1016E000002189468027F80002F076FB8023D8008D
:1016F000802602F071FBF00002F06EFB48204542AC
:101700004A4615432C06250E072403E002F05EFB33
:10171000013C09D480225104A140080E0542F5D1B4
:1017200002F05AFB013CF5D5FFF7E0FA402507240B
:1017300003E002F04BFB013C09D480204604A640A4
:10174000300E0542F5D102F047FB013CF5D580276C
:10175000FFF7CCFAF80002F039FB8023D80080258F
:1017600002F034FBE80002F031FB484684064021D9
:10177000260C884601275046446840460025002232
:101780000119D401A3191804040C0B5D002B04D01B
:101790003B1C93402B431806050E501C0404220CDE
:1017A000072AEED9072409E0FF7F0000FF070000A9
:1017B000FF06000002F00AFB013C09D4391CA140DD
:1017C0000A06100E0542F5D102F006FB013CF5D5E4
:1017D000FFF78CFA434601331D042B0C98467F2BF0
:1017E000C9D94B4601331E04330C9946072B00D848
:1017F00078E702B078BC9846A146AA46B346F0BD49
:10180000F027F80102F0E8FABA4802F0E5FAB82544
:10181000072403E002F0DAFA013C09D480204204F4
:10182000A240100E0542F5D102F0D6FA013CF5D5E2
:10183000FFF75CFA4025072403E002F0C7FA013CF9
:1018400009D480267104A140080E0542F5D102F0AA
:10185000C3FA013CF5D5FFF749FAC025072403E098
:1018600002F0B4FA013C09D480277B04A340180E8F
:101870000542F5D102F0B0FA013CF5D5FFF736FA92
:1018800000218B468027F80002F0A6FA8023D800BA
:10189000802602F0A1FAF00002F09EFA48204542AC
:1018A0005A4615432C06250E072403E002F08EFA53
:1018B000013C09D480225104A140080E0542F5D113
:1018C00002F08AFA013CF5D5FFF710FA402507240B
:1018D00003E002F07BFA013C09D480204604A640D4
:1018E000300E0542F5D102F077FA013CF5D5FFF74D
:1018F000FDF98021C800802702F068FA8025F800F1
:1019000002F064FAE80002F061FA019F3B1C083320
:1019100099464F4537DA01260021884653465968D3
:10192000002500221301D8190404230CCC5C404686
:101930000441344204D0301C904028430406250E54
:10194000541C23041A0C072AECD9072403E002F0E4
:101950003DFA013C09D4311CA1400A06100E054293
:10196000F5D102F039FA013CF5D5FFF7BFF943464E
:1019700001331D042B0C9846072BCFD97C1C200467
:10198000070C4F45C8DB01995B46013380310A04DF
:101990001E04170C330C01979B46072B00D871E7E8
:1019A0008025280102F012FA524802F015FAB825F3
:1019B000072403E002F00AFA013C09D4802046041F
:1019C000A640300E0542F5D102F006FA013CF5D5ED
:1019D000FFF78CF94025072403E002F0F7F9013CFA
:1019E00009D480277B04A340180E0542F5D102F0EC
:1019F000F3F9013CF5D5FFF779F9C025072403E099
:101A000002F0E4F9013C09D480214A04A240100EFE
:101A10000542F5D102F0E0F9013CF5D5FFF766F992
:101A2000002100918B468022D000802702F0D4F95B
:101A3000F80002F0D1F98023D80002F0CDF9482057
:101A4000009E454235432C06250E072403E002F094
:101A5000BDF9013C09D480267104A140080E05425D
:101A6000F5D102F0B9F9013CF5D5FFF73FF9402572
:101A7000072403E002F0AAF9013C09D480204304C2
:101A8000A340180E0542F5D102F0A6F9013CF5D5A8
:101A90008027FFF72BF98025F80002F097F98024C2
:101AA000E80002F093F9E00002F090F908235B44AB
:101AB0005F4699469B453BDA012600208046534607
:101AC0005968002500221301D81908300404230C9A
:101AD000CC5C40460441344204D0301C9040284342
:101AE0000406250E541C23041A0C072AEBD90724DC
:101AF00006E00000FF06000002F068F9013C09D48E
:101B0000311CA1400A06100E0542F5D102F064F91D
:101B1000013CF5D5FFF7EAF8434601331D042B0CD1
:101B20009846072BCBD97C1C2004070C4F45C4DBFF
:101B3000009A5B4680330132190417040B0C3E0CEB
:101B40009B460096072E00D86DE752E600B5464941
:101B50000B68052213430B600B680A2293430B604A
:101B6000424B07227D211A704A42043300041A7046
:101B70003F4A000C0240082A16D0082A06DC022A36
:101B800000D16CE0022A64DC21220FE08021CB012D
:101B90009A4266D09A4253DC102AF5D179235942F1
:101BA000344B0122197004E03D225242314B1A702D
:101BB00000220433F0211A704A000240402A37D034
:101BC000402A17DC202A48D003222B49C0230A7060
:101BD000DA0080210240CB009A4217D0E022920125
:101BE0000240802043019A421CD080218B019A42FE
:101BF00020D000BD802AE7D11F490222C0230A70ED
:101C0000DA0080210240CB009A42E7D11A4B1A78C1
:101C100004210A431A70E02292010240802043010D
:101C20009A42E2D1144B1A7808210A431A70E0E76D
:101C30000122CAE7104B1A7818210A431A70D8E714
:101C400080210B029A429FD10A4B0E221A70032266
:101C5000AFE7042A98D16222A8E70022B5E7412223
:101C6000A4E71022A2E7000000C002E008C000E0E4
:101C70001FC0000000C000E00CC000E000B500067E
:101C80000449000E01220B785B091342FBD0024984
:101C9000087000BD14C000E000C000E070B5051C75
:101CA0000022081E0BD0064C064E012123785B094A
:101CB0000B42FBD0AB5C013233708242F6D370BD75
:101CC00014C000E000C000E000B5054901220B7817
:101CD0001A42FCD0034A11780806000E00BD00002D
:101CE00014C000E000C000E000B505490B78DA0739
:101CF00004D5044B1A780270012000BD0020FCE7D7
:101D000014C000E000C000E070B5051C00220C1EED
:101D10000AD00648064E012103781942FCD03378D8
:101D2000AB540132A242F7D370BD000014C000E0F2
:101D300000C000E0F0B55F4656464D464446F0B45C
:101D4000161C002283B0051C904691460C1E7FD1C4
:101D50006B4630261E705A700C9C2023E8466F4656
:101D600000209C460021002C0FDD6A4601321478C9
:101D70000131002CFAD10C9A914200DA2EE10024B4
:101D80000D998A0701D530239C460D9AD20720D49D
:101D9000002C1EDD9B4BE246994609E0296862460D
:101DA0000A702E68013C01362E600130002C0EDDD9
:101DB000002DF3D19449564601220B785B0913425A
:101DC000FBD04B46013C1E700130002CF0DC42463B
:101DD00016783306002B1FD08A4A90460AE02968FD
:101DE0000A702E6801362E6001373A7813060130EA
:101DF000002B11D01A0E002DF1D18349161C01229F
:101E00000B785B091342FBD043461E7001373A78CA
:101E100013060130002BEDD1002C00DCCDE0794F12
:101E2000E0460AE0296863460B702E6801362E6092
:101E3000013C0130002C00DCBFE0002DF2D17249E2
:101E4000464601220B785B091342FBD03E70EFE758
:101E5000002B00D0B8E06F460B3700203870002C04
:101E600013D0201C311C02F0DBF8092803DD0E9A88
:101E70001118081C3A38031C013F3033201C3B70FA
:101E8000311C02F045F8041EEBD14346002B15D05F
:101E90000C9C002C00D1A7E00D9EB30700D4A3E05A
:101EA000002D00D1A4E029682D220A702868013095
:101EB00028600C99013901220C9191460C9920223D
:101EC0003E1C002090460024002911DD3B783A1C7E
:101ED00002E0013213780134002BFAD10C9B9C42B2
:101EE00000DA7EE000210D9CA30701D53022904648
:101EF0000D9BDB071FD400291DDD424AC2469346D5
:101F000009E02B6842461A702C68013901342C60B4
:101F1000013000290FDD002DF3D13B4CD4460122C6
:101F200023785B091342FBD064465B4601391C7081
:101F300001300029EFDC3A781306002B1FD0314A1C
:101F400094460AE02B681A702F6801372F6001361B
:101F5000347823060130002B11D01A0E002DF1D158
:101F6000294C171C012223785B091342FBD06346DE
:101F70001F700136347823060130002BEDD1002983
:101F80001ADD204FC44609E02B6842461A702E68BD
:101F9000013901362E60013000290DDD002DF3D10D
:101FA000194C6646012223785B091342FBD00139A4
:101FB0003E7001300029F1DC484403B078BC9846FB
:101FC000A146AA46B346F0BD0A2E00D043E7002C36
:101FD00000DB40E70123984664423CE70C9B5C1A17
:101FE000CEE60C9A111B7EE7013F2D233B7065E77F
:101FF000054901220C7863091342FBD0014E2D20C4
:10200000307056E700C000E014C000E0F0B55F4655
:1020100056464D464446F0B408C91C1C051C2078A1
:102020000022030685B092468B46002B14D0190E71
:1020300025291ED022781606320E002D00D198E0F8
:102040002868027029680131012229609244013414
:1020500020780306002BEAD1002D02D02C68002541
:102060002570504605B078BC9846A146AA46B346AE
:10207000F0BD01342278002398460027002AEBD0D7
:10208000252AD8D02D2A00D111E11006060E302EB7
:102090007AD0101C30380606310E09290FD80A21D3
:1020A0003B1C4B431606370EFA180134171C2278D6
:1020B000101C30380606330E303F092BF0D91106BC
:1020C0000A0E732A69D0642A00D1F7E0782A00D179
:1020D00006E1582A00D111E1752A00D118E1632ADE
:1020E000B5D15B4604339B46043B1B68694600261A
:1020F0000B744E749946202104AB9C460026039134
:102100000020391E11DD49461A1C0B0602E001327F
:1021100013780130002BFAD1B84200DB06E1391AFE
:102120004246920701D5302703974246D20700D591
:10213000FEE0002900DCFBE0039BA04A98469146A4
:102140000BE06A462F68127B3A70286801302860DD
:1021500001390136002900DCEAE0002DF1D1984870
:102160004746012203785B091342FBD04B461F70A0
:10217000EEE79348012103785F090F42FBD08F4EB1
:1021800032700122924462E7022142460A4301343E
:1021900090462278302AF8D07BE75B4604339B4692
:1021A000043B40CB002E00D1864E202200219146D8
:1021B000381C8C460022002F0FDD3378311C02E0E2
:1021C00001310B780132002BFAD1BA4274DAB81A15
:1021D00043469B0701D5302189464246D2071ED48B
:1021E00000281CDDC8460AE02B68494619702F6894
:1021F00001372F6001380127BC4400280FDD002D76
:10220000F2D16F49474601220B785B091342FBD09C
:102210006A4A013817700127BC440028EFDC317886
:102220000B06002B21D0654988460BE02F683A70D9
:102230002B6801332B600136317801270B06BC4433
:10224000002B12D01A0E002DF0D15D49171C01226F
:102250000B785B091342FBD0424617700136317888
:1022600001270B06BC44002BECD100281CDD534F8A
:10227000C8460AE02B684A461A702E6801210136CA
:1022800001382E608C4400280EDD002DF2D14C491F
:10229000464601220B785B091342FBD0012101382D
:1022A0003E708C440028F0DCE2440134D0E6013476
:1022B000012122788846E8E6002089E75B4604335E
:1022C0009B46043B02CB424661200097019202905C
:1022D0000A22281C0123FFF72DFD01348244B7E6B2
:1022E0005B4604339B464246043B02CB0097019277
:1022F00061230293281C10220023ECE75B46043381
:102300009B46043B02CB4246412300970192F0E7F3
:102310005B4604339B46043B02CB42460097019246
:102320006127281C0A2200230297D4E70021F7E640
:102330006A46107C0306002B1CD0204A90460CE015
:102340002B681A702F6801372F600127BC44624642
:10235000107803060136002B0CD01A0E002DEFD199
:102360001748171C012203785B091342FBD0434630
:102370001F70EAE700291EDD039B104A9C46904629
:102380000AE06A462F68127B3A70286801390130EA
:102390002860013600290EDD002DF2D1084867467D
:1023A000012203785B091342FBD0434601391F70B9
:1023B00001360029F0DCB244013449E600C000E0F7
:1023C00014C000E09CA600000FB400B5002001A9D5
:1023D000FFF71CFE08BC04B0184700000FB400B59E
:1023E0000C490122087843091342FBD00A49012213
:1023F0000A70002001A9FFF709FE064901220878AA
:1024000043091342FBD0044901220A7008BC04B0FE
:102410001847000014C000E000C000E0F0B54746D7
:1024200080B4804609061C48090E0122047863091D
:102430001342FBD019480622027017480122067881
:1024400075091542FBD0154F3970134901220B78DD
:102450001A42FCD01149104E0A78002501240F1CA5
:1024600043465A5D317848092042FBD03A70FA223F
:10247000281C510001F0D4FD002805D00649012296
:102480000B781A42FCD03B78054B01359D42E7D9C9
:1024900008BC9846F0BD000014C000E000C000E099
:1024A0003F29000070B5134E0324051C347003202F
:1024B000012101F0A1FC3078297901F09DFC3078F0
:1024C000A97801F099FC6A883078110A01F094FC2F
:1024D0002988FF20090A0402307801F08DFC298840
:1024E000214200D070BD0B063078190E01F084FC3B
:1024F000F8E700000000004070B5134E0224051CF0
:1025000034700220012101F077FC3078297901F044
:1025100073FC3078A97801F06FFC6A883078110A72
:1025200001F06AFC2988FF20090A0402307801F0D2
:1025300063FC2988214200D070BD0B063078190E4B
:1025400001F05AFCF8E700000000004000B5034B22
:102550001121187801F050FC00BD0000000000407F
:1025600010B5054C0321207801F046FC207801F0DD
:1025700089FC0006000E10BD0000004030B5094C7B
:10258000094D227803212A7021700320032101F0D4
:1025900033FC207801F076FC2B780006000E2370C7
:1025A00030BD000000000040B00F004030B5154CB9
:1025B00001060D0E2078032101F01EFC207801F0A9
:1025C00061FC0006000E052D05D80F4AAC00A3588B
:1025D0009F46830603D5002030BDC307FBD40120EE
:1025E000FAE78307F7D40120F6E74307F3D4012085
:1025F000F2E70307EFD40120EEE7C306EBD4012096
:10260000EAE700000000004024A2000030B5194CA9
:1026100019492278032300060A7023700321050E4E
:10262000032001F0E9FB207801F02CFC0006000EED
:10263000052D05D8114BAC00E558AF46830607D5EC
:1026400000200D4D0B492A780A7030BDC307F7D41E
:102650000120F6E78307F3D40120F2E74307EFD424
:102660000120EEE70307EBD40120EAE7C306E7D435
:102670000120E6E700000040B00F00403CA200004F
:1026800030B5064D01060C0E2878042101F0B4FB8C
:102690002878211C01F0B0FB30BD00000000004094
:1026A00070B5094C094E217802060320150E3170D1
:1026B00020700421032001F09FFB291C207801F0E9
:1026C0009BFB3378237070BD00000040B00F0040CA
:1026D00070B5284C090602060E0E20780321150E4F
:1026E00001F08AFB207801F0CDFB0006000E052DDD
:1026F00013D8AC00204D63599F46002E27D1031CF0
:10270000102213431E06350E1A4C0421207801F0C6
:1027100073FB2078291C01F06FFB70BD002E25D0C3
:10272000DF250540F0E7002E1DD0FE250540EBE734
:10273000002E15D0FD250540E6E7002E0DD0FB2527
:102740000540E1E7002E05D0F7250540DCE7EF2541
:102750000540D9E7031C0822D3E7031C0422D0E775
:10276000031C0222CDE7031C0122CAE7031C20221E
:10277000C7E700000000004054A2000000B50006BA
:10278000000E0021FFF7A4FF00BD000030B5074C8C
:10279000074D2278032100062A702170000E0021C7
:1027A000FFF796FF2B78237030BD0000000000403B
:1027B000B00F004000B50006000E0121FFF788FFB2
:1027C00000BD000030B5074C074D227803210006FC
:1027D0002A702170000E0121FFF77AFF2B782370F9
:1027E00030BD000000000040B00F004030B50006D2
:1027F000040E032C05D9052C03D0042C16D0002080
:1028000030BD0E4D0221287801F0F6FA052C0AD0D1
:102810002878211C01F0F0FA084B187801F032FBFF
:102820000106080EECE728780421F3E7034C102199
:10283000207801F0E1FA2078F0E700000000004085
:1028400030B5074C074D2378010603222B70227008
:10285000080EFFF7CBFF2B780006000E237030BD6B
:1028600000000040B00F004010B5054C0A21207850
:1028700001F0C2FA207801F005FB0006000E10BD41
:102880000000004030B5094C094D227803212A7020
:10289000217003200A2101F0AFFA207801F0F2FA4A
:1028A0002B780006000E237030BD000000000040B1
:1028B000B00F004030B5194C01060D0E20780A21EA
:1028C00001F09AFA207801F0DDFA0006000E072DDB
:1028D00005D8134AAC00A3589F46430608D50020EC
:1028E00030BD01060816C543E80FF9E7C307F6D463
:1028F0000120F5E78307F2D40120F1E74307EED486
:102900000120EDE70307EAD40120E9E7C306E6D496
:102910000120E5E78306E2D40120E1E70000004062
:102920006CA2000030B51E4C1E492278032300061D
:102930000A7023700A21050E032001F05DFA207849
:1029400001F0A0FA0006000E072D05D8164BAC00CA
:10295000E558AF4643060CD50020124B104C1978B1
:10296000217030BD05062A16D143C80FF5E7C3070D
:10297000F2D40120F1E78307EED40120EDE743070D
:10298000EAD40120E9E70307E6D40120E5E7C3061E
:10299000E2D40120E1E78306DED40120DDE7000078
:1029A00000000040B00F00408CA2000030B5064D82
:1029B00001060C0E28780B2101F01EFA2878211C44
:1029C00001F01AFA30BD00000000004070B5094C5B
:1029D000094E217802060320150E317020700B215C
:1029E000032001F009FA291C207801F005FA337858
:1029F000237070BD00000040B00F004070B5304C37
:102A0000090602060D0E20780A21160E01F0F4F9CF
:102A1000207801F037FA0006000E072E13D8B40014
:102A2000284EA3599F46002D31D1031C4022134349
:102A30001806050E224C0B21207801F0DDF92078D4
:102A4000291C01F0D9F970BD002D35D07F25054036
:102A5000F0E7002D2DD0FE250540EBE7002D25D019
:102A6000FD250540E6E7002D1DD0FB250540E1E7EB
:102A7000002D15D0F7250540DCE7002D0DD0EF2502
:102A80000540D7E7002D05D0DF250540D2E7BF255B
:102A90000540CFE7031C2022C9E7031C1022C6E72C
:102AA000031C0822C3E7031C0422C0E7031C022204
:102AB000BDE7031C0122BAE78025031C6A42B6E782
:102AC00000000040ACA2000000B50006000E00218E
:102AD000FFF794FF00BD000030B5074C074D22788A
:102AE000032100062A702170000E0021FFF786FFE7
:102AF0002B78237030BD000000000040B00F004074
:102B000000B50006000E0121FFF778FF00BD0000B0
:102B100030B5074C074D2278032100062A7021703A
:102B2000000E0121FFF76AFF2B78237030BD0000F3
:102B300000000040B00F004010B5054C0521207882
:102B400001F05AF9207801F09DF90006000E10BD41
:102B50000000004030B5094C094D227803212A704D
:102B600021700320052101F047F9207801F08AF94E
:102B70002B780006000E237030BD000000000040DE
:102B8000B00F004030B5154C01060D0E2078052120
:102B900001F032F9207801F075F90006000E072DDA
:102BA00005D80F4AAC00A3589F46430608D500201D
:102BB00030BD01060816C543E80FF9E7C307F6D490
:102BC0000120F5E78307F2D40120F1E74307EED4B3
:102BD0000120EDE70307EAD40120E9E70000004007
:102BE000CCA2000030B51A4C1A4922780323000603
:102BF0000A7023700521050E032001F0FDF82078EE
:102C000001F040F90006000E072D05D8124BAC006C
:102C1000E558AF4643060CD500200E4B0C4C1978F6
:102C2000217030BD05062A16D143C80FF5E7C3074A
:102C3000F2D40120F1E78307EED40120EDE743074A
:102C4000EAD40120E9E70307E6D40120E5E7000024
:102C500000000040B00F0040ECA2000030B5064D6F
:102C600001060C0E2878062101F0C6F82878211CF0
:102C700001F0C2F830BD00000000004070B5094C02
:102C8000094E217802060320150E317020700621AE
:102C9000032001F0B1F8291C207801F0ADF8337859
:102CA000237070BD00000040B00F004030B5184CDC
:102CB00001060D0E2078052101F09EF8207801F024
:102CC000E1F80006000E072D12D8124AAC00A358F6
:102CD0009F468025031C6A420D4C13431806050EBF
:102CE0000621207801F088F82078291C01F084F86A
:102CF00030BD031C0122EFE7031C0222ECE7031C9A
:102D00000422E9E7031C0822E6E7031C4022E3E76C
:102D1000000000400CA3000030B51D4C1D49227876
:102D2000032300060A7023700521050E032001F01D
:102D300063F8207801F0A6F80006000E072D12D8DF
:102D4000154BAC00E558AF468021031C4A42104C9D
:102D500013431A06150E2078062101F04DF820784D
:102D6000291C01F049F80B4B09481978017030BD56
:102D7000031C0122EBE7031C0222E8E7031C0422E8
:102D8000E5E7031C0822E2E7031C4022DFE700001E
:102D900000000040B00F00402CA3000030B5144CE0
:102DA00001060D0E2078052101F026F8207801F0AB
:102DB00069F80006000E072D0ED80E4AAC00A35885
:102DC0009F467F250A4C05400621207801F014F823
:102DD0002078291C01F010F830BDFE25F2E7FD2512
:102DE000F0E7FB25EEE7F725ECE7BF25EAE7000073
:102DF000000000404CA3000030B5184C1849227860
:102E0000032300060A7023700521050E032000F03D
:102E1000F3FF207801F036F80006000E072D0ED8DB
:102E2000104BAC00E558AF467F250C4C0540062101
:102E3000207800F0E1FF2078291C00F0DDFF084831
:102E4000064902780A7030BDFE25EEE7FD25ECE765
:102E5000FB25EAE7F725E8E7BF25E6E700000040A5
:102E6000B00F00406CA3000070B500060906040E08
:102E70000D0E032C04D9062C02D0072C00D070BDF7
:102E8000094E0921307800F0B7FF631C1A0630782C
:102E9000110E00F0B1FF002D00D101253078291C62
:102EA00000F0AAFFEBE7000000000040F0B5134D72
:102EB00000060906124A2B780E0E040E1370371CFA
:102EC000032C06D9062C04D0072C02D014782C70C1
:102ED000F0BD032129700320092100F08DFF631C40
:102EE0001A062878110E00F087FF002E00D1012766
:102EF0002878391C00F080FF014AE7E70000004015
:102F0000B00F004070B500060906040E0D0E032C2C
:102F100007D9062C05D0072C03D0082C01D0092C8A
:102F200011D1094E0921307800F066FF631C1A06A2
:102F30003078110E00F060FF002D00D101253078AF
:102F4000291C00F059FF70BD00000040F0B5154D80
:102F500000060906144A2B780E0E040E1370371C57
:102F6000032C07D9062C05D0072C03D0082C01D040
:102F7000092C13D1032129700320092100F03CFF03
:102F8000631C1A062878110E00F036FF002E00D1BF
:102F900001272878391C00F02FFF034A14782C7081
:102FA000F0BD000000000040B00F004000B5034B32
:102FB0000821187800F020FF00BD0000000000404C
:102FC00030B5064C064D2178032029702070082169
:102FD000032000F011FF2B78237030BD000000406B
:102FE000B00F004000B5034B0721187800F004FF34
:102FF00000BD00000000004030B5064C064D2178B1
:103000000320297020700721032000F0F5FE2B78A3
:10301000237030BD00000040B00F004030B5000606
:10302000050E032D04D9062D02D0072D00D030BD8A
:10303000054C0E21207800F0DFFE6A1C1106207876
:10304000090E00F0D9FEF2E70000004030B50F4D48
:1030500000060F4A2B78040E1370032C06D9062C99
:1030600004D0072C02D014782C7030BD03232B70B1
:1030700003200E2100F0C0FE621C11062878090E04
:1030800000F0BAFE024A014DEDE7000000000040EA
:10309000B00F004030B50006050E032D04D9062DF3
:1030A00002D0072D00D030BD054C0F21207800F054
:1030B000A3FE6A1C11062078090E00F09DFEF2E7BF
:1030C0000000004030B50F4D00060F4A2B78040E6B
:1030D0001370032C06D9062C04D0072C02D01478C8
:1030E0002C7030BD03232B7003200F2100F084FED1
:1030F000621C11062878090E00F07EFE024A014D7E
:10310000EDE7000000000040B00F004030B50006C1
:10311000050E032D07D9062D05D0072D03D0082D48
:1031200001D0092D0AD1064C0E21207800F064FE52
:103130006A1C11062078090E00F05EFE30BD00000A
:103140000000004030B5104D0006104A2B78040EE8
:103150001370032C07D9062C05D0072C03D0082C9C
:1031600001D0092C0DD103232B7003200E2100F078
:1031700043FE621C11062878090E00F03DFE034A4A
:10318000014D14782C7030BD00000040B00F00409D
:1031900030B50006050E032D07D9062D05D0072DE5
:1031A00003D0082D01D0092D0AD1064C0F2120781B
:1031B00000F022FE6A1C11062078090E00F01CFEA9
:1031C00030BD00000000004030B5104D0006104A30
:1031D0002B78040E1370032C07D9062C05D0072C6E
:1031E00003D0082C01D0092C0DD103232B70032010
:1031F0000F2100F001FE621C11062878090E00F074
:10320000FBFD034A014D14782C7030BD00000040D6
:10321000B00F004030B5084D01060C0E28780D2186
:1032200000F0EAFD2878211C00F0E6FD287800F087
:1032300029FE0006000E30BD0000004070B50406F7
:10324000250E0B4C0B4E2278032132702170032087
:103250000D2100F0D1FD291C207800F0CDFD207853
:1032600000F010FE33780006000E237070BD0000E1
:1032700000000040B00F004030B5064D01060C0EB6
:103280002878122100F0B8FD2878211C00F0B4FD48
:1032900030BD00000000004000487047B40F0040FF
:1032A00000487047F43800400048704734620040DE
:1032B000034A0449044B0260416083607047000088
:1032C000B40F004034620040F4380040034A04491F
:1032D000044B02604160836070470000B40F0040FF
:1032E00034620040F438004070B502060806140E3F
:1032F000050EC02000F09EFC201C00F02DFD281CB7
:1033000000F02AFD00F044FD0449054A0026002390
:10331000935501368E42FBDD70BD00003F29000051
:10332000B40F004030B50006000E002800D175E053
:10333000012800D186E06A4D6A4A296813686A4C00
:103340000B4313602160694C694900230022CA5471
:103350000133A342FBD92C68664D67492C60634C4E
:1033600000230022CA540133A342FBD9022800D112
:103370007CE0C02000F05EFC142000F0EDFC20207A
:1033800000F0EAFC00F004FD5849594A00240023EB
:10339000135501348C42FBDDC02000F04BFC1220A1
:1033A00000F0DAFC282000F0D7FC00F0F1FC4F49D7
:1033B0004F4A00240023135501348C42FBDDC0200A
:1033C00000F038FC112000F0C7FC062000F0C4FC1F
:1033D00000F0DEFC4549464A002400231355013421
:1033E0008C42FBDDC02000F025FC132000F0B4FC73
:1033F000212000F0B1FC00F0CBFC3C493C4A002409
:103400000023135501348C42FBDD38483B4900232F
:103410000022CA5401338342FBD930BD8021384C8D
:103420004D01802237499301256080250B602C02D5
:1034300080212B4D344A4B022B60344B1460042204
:103440001A6079E780222E4D1105802463052960DA
:103450002C4A80212C4C8D04136025608022204D45
:10346000D3042B60294B11221A6065E7C02000F0BD
:10347000E1FB142000F070FC202000F06DFC00F057
:1034800087FC1A491A4A00240023135501348C4240
:10349000FBDDC02000F0CEFB122000F05DFC082018
:1034A00000F05AFC00F074FC1049114A002400237B
:1034B000135501348C42FBDDC02000F0BBFB112012
:1034C00000F04AFC062000F047FC00F061FC0749D0
:1034D000074A00240023135501348C42FBDD94E796
:1034E000808B0040088002E0048002E03F29000059
:1034F000B40F00400C8002E0F43800403462004019
:10350000748B0040788B00407C8B0040848B0040A3
:10351000F0B557464E464546E0B47820404B8046CD
:10352000404841491A68471E0C681442FCD03F4984
:1035300089463D4948460D6802681542F9D00E6833
:103540001642FCD13A49384A3A4E8C4692464B468E
:103550001A68504604681442FBD001225542324991
:103560003268A8440B681342FCD02F490C681442FF
:10357000FCD12D4908681042FCD02B490D6815423A
:10358000FCD129490B681342FCD027490C6814422E
:10359000FCD1254908681042FCD023490D6815422A
:1035A000FCD121490B681342FCD01F4932680C68DA
:1035B0001442FCD11C4C5825326821681142FCD0C1
:1035C000194908681042FCD1086817490B68134272
:1035D000FCD015490B681342FCD1134901370B6825
:1035E0001342FCD01049013D0B681342FCD16246E6
:1035F00011683268C8400C490B681342FCD038701F
:103600000949326808681042FCD1002DD4D14346E4
:10361000002B9CD138BC9846A146AA46F0BD0000BC
:10362000788B0040B40F0040008002E0748B0040B3
:10363000848B00407C8B0040F0B557464E46454693
:10364000E0B47820384B8046384839491A68471E1C
:103650000C681442FCD037498946354948460D6804
:1036600002681542F9D00E681642FCD13249304A40
:10367000324E8C4692464B461A68504604681442B5
:10368000FBD0012255422A493268A8440B681342F4
:10369000FCD027490C681442FCD125490868104227
:1036A000FCD023490D681542FCD121490B68134217
:1036B000FCD01F4932680C681442FCD11C4C5825C0
:1036C000326821681142FCD0194908681042FCD1C7
:1036D000086817490B681342FCD015490B68134260
:1036E000FCD1134901370B681342FCD01049013D4E
:1036F0000B681342FCD1624611683268C8400C491D
:103700000B681342FCD038700949326808681042CF
:10371000FCD1002DD4D14346002BACD138BC984607
:10372000A146AA46F0BD0000788B0040F438004066
:10373000008002E0748B0040848B00407C8B004052
:10374000F0B557464E464546E0B478203C4B82469D
:103750003C483D491A68471E0C681442FCD03B495E
:103760008946394948460D6802681542F9D00E6805
:103770001642FCD13649344A364E884694464B466A
:103780001A68604604681442FBD0012255422E4953
:103790003268AA440B681342FCD02B490C681442CF
:1037A000FCD1294908681042FCD027490D68154210
:1037B000FCD125490B681342FCD023490C68144204
:1037C000FCD12149582508681042FCD01E493268B6
:1037D0000B681342FCD11C4C326821681142FCD0AA
:1037E000194908681042FCD1086817490B68134250
:1037F000FCD015490B681342FCD1134901370B6803
:103800001342FCD01049013D0B681342FCD14246E3
:1038100011683268C8400C490B681342FCD03870FC
:103820000949326808681042FCD1002DD4D15346B2
:10383000002BA4D138BC9846A146AA46F0BD000092
:10384000788B004034620040008002E0748B0040BE
:10385000848B00407C8B0040F0B55F4656464D4659
:103860004446F0B4644B013B9846644B013B9A4696
:10387000634B013B83469C466248634B02681B686E
:1038800081B000911A4204D1021C1C1C1068204215
:10389000FCD05C485D4904680A68144203D1041CEA
:1038A00025681542FCD05748584F06683A681642BA
:1038B00000D18DE0041C23681342FCD1012675421F
:1038C000534AAB4451494F4D914628680A68514CC0
:1038D000009E104200D189E04A4F256800203A68D6
:1038E0002A4204D1474922680B681342FCD0396848
:1038F0002268114203D043490B681342FCD1411C9A
:103900000A06100E0428EAD93E48056822680127F5
:10391000BC44B844BA44154203D13A490B68134237
:10392000FCD001682268114203D036490D68154267
:10393000FCD1494603680D686246EB401370076886
:103940002268174203D12F490F681742FCD0036841
:103950002268134203D02B490D681542FCD1494619
:1039600007680B684246DF40177001682268114201
:1039700003D124490D681542FCD00768226817421C
:1039800003D020490B681342FCD1494605680F68F3
:103990005246FD40157001682268114203D1194951
:1039A0000B681342FCD005682268154203D0154904
:1039B0000F681742FCD1013E002EA6D15B46002BBA
:1039C00009D101B078BC9846A146AA46B346F0BDDD
:1039D0000F4B104C994601267542AB440B49094DDB
:1039E0000A682868009E104200D075E7291C0F68FD
:1039F0001742FCD070E7000034620040F438004009
:103A0000B40F0040008002E0788B0040748B0040CF
:103A1000848B00407C8B0040F0B55F4656464D4697
:103A20004446F0B45A4B013B98465A4B013B9A46E8
:103A3000594B013B9C465949594B0A681B687820F1
:103A400083461A4204D10A1C191C14680C42FCD08B
:103A50005249544D0B682A6800E00B681342FCD0B1
:103A60004E49504F0E683A68164206D00B68134212
:103A7000FCD14D494D4C894602E04B4A4B4C914696
:103A800046494848012675420B680268AB445827EE
:103A900000E00B681342FCD0404E256800203368DC
:103AA0002B4204D13D4922680B681342FCD0316897
:103AB0002268114203D039490B681342FCD1411CE2
:103AC0000A06100E0428EAD934480568226801263F
:103AD000B444B044B244154203D130490B68134298
:103AE000FCD001682268114203D02C490D681542B0
:103AF000FCD1494603680D686246EB4013700668C6
:103B00002268164203D125490E681642FCD003688C
:103B10002268134203D021490D681542FCD1494661
:103B200006680B684246DE40167001682268114242
:103B300003D11A490D681542FCD006682268164266
:103B400003D016490B681342FCD1494605680E683C
:103B50005246F540157001682268114203D10F49A1
:103B60000B681342FCD005682268154203D00B494C
:103B70000E681642FCD1013F002FA6D15B46002BF8
:103B800000D07DE778BC9846A146AA46B346F0BD72
:103B900034620040F4380040B40F0040008002E07E
:103BA000788B0040748B0040848B00407C8B0040FD
:103BB00001200A4943420B7009490868502210430A
:103BC00008600B68A02083430B60064BA030188070
:103BD000043B18804022103B1A70704718C001E067
:103BE00000C002E014C001E000B501220D495342BB
:103BF0000B700D490B68502213430B600B68A02219
:103C000093430B60094B984208D9181C0849088057
:103C10000439088040201039087000BD0F28F5D8FD
:103C20001020F3E718C001E000C002E077010000B7
:103C300014C001E010B50006000EC3071AD41F4BD4
:103C400020221A701E4A13781C06210E0829FAD168
:103C50001C490870282010310870194817490122A2
:103C6000047823061C0E182C03D00C78E3081342AA
:103C7000F6D010BD11492024134B0C700822104CB3
:103C80001A70012223781B061B0E102B03D00B7811
:103C9000DB081342F6D00B49087028201031087059
:103CA000074806490122047823061C0E402CE0D068
:103CB0000C78E3081342F6D0DBE7000000C001E017
:103CC00004C001E008C001E018C001E000B50A4BE3
:103CD00008220A480A491A70012203781B061B0EA3
:103CE000502B03D00B78DB081342F6D0054A11782D
:103CF0000806000E00BD000018C001E004C001E08D
:103D000000C001E008C001E000B50006002818D19D
:103D10000D4B1A7804210A431A700C4B08220C48E8
:103D200009491A70012203781B061B0E502B03D081
:103D30000B78DB081342F6D0064A11780806000E0D
:103D400000BD024B0422E7E700C001E018C001E01B
:103D500004C001E008C001E000B50106094B080EEF
:103D6000187008221033084808491A700122037895
:103D70001B061B0E282B03D00B78DB081342F6D052
:103D800000BD000008C001E004C001E000C001E087
:103D900000B5064808220270054A1023137001215D
:103DA000107803090B42FBD100BD000018C001E0F0
:103DB00000C001E0014B400418607047088002E039
:103DC000014B1868400C7047008002E0014B400432
:103DD00018607047048002E0014B4004186070478F
:103DE0000C8002E0034B4204C1431A6048040833CC
:103DF00018607047048002E030B504041B4B1C4877
:103E00001C4A1860043B09061A601E20250C0C0E83
:103E1000FCF730FF184901220868C30E1342FBD19A
:103E200080218A048023E902214310489C00214319
:103E3000124D02604A0410492A6001220C68E50E06
:103E40001542FBD10C4901220868C30E1342FBD076
:103E5000064A8025E9041160074901220B68DC0E3F
:103E60001442FBD1064A0148026030BD0C8002E0DA
:103E70000000FEFF0000FEF7008002E0048002E088
:103E80000000FEF110B51C491C4A03040A60F6202C
:103E90001B4A1C0C030613601E20FCF7EBFE19499D
:103EA00001220B68D80E1042FBD1C023E0029A0019
:103EB0001043154C41042160124901220868C40EC8
:103EC0001442FBD10F4C01222368D90E1142FBD0C2
:103ED0006420FCF7CFFE20688021074ACC04C30190
:103EE00008491460180E01220B68DC0E1442FBD145
:103EF000064A01490A6010BD0C8002E00000FEFF86
:103F0000088002E0008002E0048002E00000FEF38E
:103F1000002934D00123002210B488422CD301247C
:103F20002407A14204D2814202D209011B01F8E711
:103F3000E400A14204D2814202D249005B00F8E7CA
:103F4000884201D3401A1A434C08A04202D3001BF6
:103F50005C0822438C08A04202D3001B9C08224329
:103F6000CC08A04202D3001BDC082243002803D067
:103F70001B0901D00909E3E7101C10BC704700B50C
:103F800000F0B2F8002002BC0847C046002941D02A
:103F900010B4041C4C40A44601230022002900D583
:103FA0004942002800D5404288422CD301242407EE
:103FB000A14204D2814202D209011B01F8E7E400C8
:103FC000A14204D2814202D249005B00F8E7884254
:103FD00001D3401A1A434C08A04202D3001B5C08CC
:103FE00022438C08A04202D3001B9C082243CC0829
:103FF000A04202D3001BDC082243002803D01B0987
:1040000001D00909E3E7101C6446002C00D54042AA
:1040100010BC704700B500F067F8002002BC0847EC
:1040200000295AD00123884200D2704710B40124DD
:104030002407A14204D2814202D209011B01F8E700
:10404000E400A14204D2814202D249005B00F8E7B9
:104050000022884200D3401A4C08A04205D3001B1E
:104060009C460124E3411A4363468C08A04205D3D1
:10407000001B9C460224E3411A436346CC08A0423D
:1040800005D3001B9C460324E3411A4363469C4628
:10409000002803D01B0901D00909D9E70E24240701
:1040A000224018D063460724234214D063460324D9
:1040B000E3411A4201D0CC08001963460224E341CF
:1040C0001A4201D08C08001963460124E3411A42C8
:1040D00001D04C08001910BC704700B500F004F87E
:1040E000002002BC0847C0467047C0460CB430B53B
:1040F00097B0009104910B490291059101216D4601
:104100001AAB49428224E98104CB6946A400AC8100
:1041100000F03AF8009B002217B01A7030BC08BCBF
:1041200002B01847FFFFFF7F0EB410B597B00090A4
:1041300004900C4802900590012069464042C881D5
:104140008224094819ABA40004CB8C81006800F0DC
:104150001BF8009B002217B01A7010BC08BC03B0FB
:1041600018470000FFFFFF7F0400004010B58B6878
:104170000C1C002B02D14B60002010BD02F010FF80
:104180000023A3606360F8E7F0B55F4656464D46EE
:104190004446F0B4B94CA5441191141C10931290EC
:1041A00003F0BAF800680B900020002109900A91F2
:1041B0000021089105910491119B9A89150765D5F5
:1041C0001B69002B62D01A2313400A2B69D0AC4D17
:1041D000AC4AAD4BD3206D440027C0006A446B4409
:1041E0002F60684400251A6005600D95A146904631
:1041F00049460A78CA46131C002A08D0252B06D047
:10420000012291444B461A78131C002AF6D14D46E0
:1042100050462E1A002E1AD0994A6A441368D325A4
:10422000ED0041469F196D44082308609844D3204F
:104230002B68C0005D1C68444E6017600560072D48
:1042400000DD78E00D9A92190D924B461A7813060C
:10425000002B01D101F09EFA8C4900206944012510
:104260000E9007900C900870A9446D424B461A7846
:1042700013061B0E01200F9381440F9B203B582BEC
:1042800000D9C7E2824A9B009B589F46119801F0D3
:1042900013FD00285CD1119882891A2313400A2B40
:1042A00095D1119BD9890E255B5F002B8FDB932560
:1042B000ED006D44E98111990223101C754A984361
:1042C000CB696A44A881744813604B6A952268449C
:1042D000D20003606A4426AB9420704913602B60BF
:1042E000C00080239622DB0068446944D20003604A
:1042F0000B606A4400231360211C281C109A01F0F3
:10430000D1FA041E06DB281C02F030FC002801D084
:1043100001246442AB895D0604D51198838940224B
:1043200013438381201C5E4B9D4478BC9846A14674
:10433000AA46B346F0BD544911986944FFF716FFE9
:10434000002801D000F025FD4E496944884679E7F0
:1043500001204042E7E70E9A10231A430E920E9B6B
:10436000DB0601D500F0BDFD0E9901238A091A4232
:1043700001D100F0B6FD109B1A1C04321C8810926B
:104380000122AAE20E99102319430E910E9AD20629
:1043900001D500F09FFD0E9901238A091A4201D12F
:1043A00000F098FD109B1A1C04321C881092002209
:1043B00093E20E98102318430E900E99C90601D56A
:1043C00000F096FD0E9B9A0901231A4201D100F0DC
:1043D0008FFD109B181C0430109000215C5E002C97
:1043E00000DA97E30122002D079503DB0E99802365
:1043F00099430E91234B6B449A46002C04D1079DA0
:10440000002D01D100F028FD012A00D1D3E1012ABD
:1044100001DC00F08BFE022A00D1DCE1214882465B
:1044200004F0BAF98346079A59460691914200DA98
:104430000692164D6D442B78002B01D100F095FCAF
:104440000698013006900E9D84231D4200D067E33C
:104450000C980699441A002C01DC00F002FE102C86
:1044600001DC00F027FD064AD3236A44DB0017680D
:104470006B440D4A1D68161C1BE0000054F9FFFF39
:104480009C0600005406000094060000AB060000E5
:10449000ACA30000B4040000BC040000AC040000A5
:1044A000AC060000A4A600008CA30000103C102C59
:1044B00027DD404610230821013502604360103794
:1044C0008844072DF2DDDC4AD323DB00DB496A4454
:1044D0006B4417601D6011986944FFF747FE002880
:1044E00001D000F056FCD64DD348D321C9006D440D
:1044F00068446944103CA84607680D68321C102CBB
:10450000D7DCCD49D3234046DB0002603F19694424
:10451000082201356B4444600F6090441D60072DF4
:1045200000DC04E3C54911986944FFF71FFE002829
:1045300001D000F02EFCC24DD321C9006D44694466
:10454000A8460D68BF49BC4869440B7868440768B1
:10455000002B00D0F1E20E99890700D4FFE2BA4B9C
:1045600030226B441A700FAA127840465A700360CA
:1045700002234360B049D323DB0002376944082299
:1045800001356B440F6090441D60072D00DCE6E2AE
:10459000AA4911986944FFF7E9FD002801D000F00D
:1045A000F8FBA74DA448D3210E9AC90084236D447B
:1045B000684469441340A84607680D68802B00D002
:1045C000D3E20C9B06981C1A002C00DCCDE2102CC8
:1045D00001DC00F0A8FD9D4A161C02E0103C102CE6
:1045E00026DD414610234B60013508230A60103751
:1045F0009844072DF2DDD321C90069448E480D602F
:104600008E496844076069441198FFF7AFFD0028A0
:1046100000D0BEE38A4A884BD320C0006A446B4472
:104620006844103C90461F680568321C102CD8DC8A
:1046300041460A60D320804AC0003F196A440823DB
:10464000013568444C60176098440560072D00DC14
:104650008BE27A4911986944FFF788FD002800D061
:1046600097E37749744A6944D32307988846DB0067
:1046700059466A446B44441A17681D68002C00DDD3
:1046800079E20E990124C90500D5DEE2434652467F
:1046900058461A6058605F446749D323DB00694479
:1046A000082201356B440F6090441D60072D00DD2A
:1046B000DFE30E9D6D0753D50C980699441A002C24
:1046C0004EDD102C01DC00F0FFFBD322D2006A4447
:1046D00015685F4A924602E0103C102C27DD4346E5
:1046E00040461A6008211023013543601037884482
:1046F000072DF1DD504AD323DB0050496A446B4457
:1047000017601D6011986944FFF730FD002800D044
:104710003FE34B4D4848D321C9006D446844694488
:10472000103CA84607680D685246102CD7DC42485A
:10473000D321C90043463F196844013569441A60D2
:104740005C6007600D60072D0ADD3C4911986944E3
:10475000FFF70CFD002800D01BE3374A6A441768B6
:10476000069B0C9DAB4200DA2B1C0D98C0180D90D7
:10477000002F00D005E3D321314AC900049B002556
:1047800069446A440D609046002B00D130E5181C46
:1047900002F03CFE04952BE50120404282440A21B0
:1047A000201CFFF73DFC514630300870201C0A21C8
:1047B000FFF7AEFB041C092CEED801225242231C49
:1047C0009244303355462B70224D50466D442B1A7F
:1047D000583B9B4627E60F22231C059901204042A7
:1047E000134082445B5C554624092B70002CF3D1A6
:1047F000EAE7109B1A1C1B68043210920C93002BE2
:1048000005DA5B420C9304230E9818430E90494638
:104810000A782DE50F99002901D100F0BBFF9F22F6
:10482000D2006A44012511709246AB460023054828
:1048300068440370F7E500009C0600009406000041
:1048400054060000AB060000F40400009CA3000026
:104850008CA30000AC0600004D462D7801200F957A
:1048600081442A2D01D100F0FAFF0F9B303B002438
:10487000092B01D900F048FD0A22231C53430F9D48
:10488000484600785B191C1C031C0121303B303C5E
:104890000F908944092BF0D9251C013400DBECE48E
:1048A00001256D42E9E4B74A0E9B0592DB0600D56F
:1048B0002AE10E9901238A091A4200D124E1109BB2
:1048C0001A1C043210921C880E990222C90704D5C2
:1048D000002C02D00E9B13430E93AB480023684478
:1048E000037080E5A84A2B236A441370BEE40123B9
:1048F0008AE7A54969440B78002B01D000F0A2FC9F
:1049000020230B70B2E400240A22231C53430F9887
:1049100049461B1809781C1C012399440B1C303B89
:10492000303C0F91092BF0D90C94A6E440230E9A49
:104930001A430E929AE4691C01D100F071FD0F9A9E
:10494000672A01D100F0E3FC472A01D100F0DFFC27
:104950000E9B1B0701D400F079FC109B19685A6864
:10496000181C083009910A92109009980A9903F0CE
:1049700045FE002801D100F079FC09980A99834A84
:10498000834B04F0AFFF002801DA00F098FE814A63
:10499000032392469B4646E59F25ED000F986D4404
:1049A000AA46432804D00E99C90601D400F079FC28
:1049B0001AAC00210822201C03F026F8109B1A1CB8
:1049C0000432109212981A685146231C00F080FF9E
:1049D000031C8346013300D1DBE16B4A00236A44A8
:1049E000137020E508230FE78023A0E70E9910231A
:1049F00019430E913AE4109B0E98191C04311C685F
:104A00000222604B10911043782105930E900F9174
:104A100063E75D4A00236A441370109B181C1B68EF
:104A2000043010909A46002B01D100F03AFD0F9B04
:104A3000532B04D00E98C00601D400F06FFC5146F1
:104A400014AF13910026381C00210822B34602F04F
:104A5000DBFF002D01DA00F089FE139BB200D25873
:104A6000002A11D09F21C900129869443B1C00F014
:104A70002FFF421C00D18CE15B46C018A84203DC2A
:104A800083460136AB45E8D15946002900D1CAE436
:104A90001298013102F0C4FC0028049000D17EE19C
:104AA00000210822381C02F0AFFF1298049913AAC3
:104AB0005B46009700F032FF584500D069E1049A48
:104AC00000235D4692465355ADE40E99C90600D4C5
:104AD000A8E3109B0D9D1A1C1B68043210921D60E8
:104AE000FFF786FB484602786C2A01D100F09BFC58
:104AF0000E98102318430E90FFF7BAFB26490E9B21
:104B00000591DB0600D4D4E6109B181C1C68043009
:104B10001090D9E61C482D2368446442037061E478
:104B20001E4AD323DB006A446B4417681D6816498C
:104B300069440B78002B00D10DE54246012311603A
:104B40005360D321154BC90001376B440820013550
:104B500069441F6080440D60072D00DD97E10E9AC7
:104B600084231340802B00D12BE507985946441A23
:104B7000002C00DC85E5102C00DC00E1084A161C46
:104B800013E00000C0A60000AB060000000000001B
:104B900000000000D4A60000D8A600009C0600007B
:104BA0009CA30000103C102C27DD434640461A60B1
:104BB000082110230135436010378844072DF1DDAB
:104BC000CF4AD323DB00CF496A446B4417601D6092
:104BD00011986944FFF7CAFA002800D0D9E0CA4DFD
:104BE000C748D321C9006D4468446944103CA846B5
:104BF00007680D68321C102CD7DC43461A60C04889
:104C0000D322D2003F196844082101356A445C6010
:104C1000076088441560072D00DC32E5B94911981A
:104C20006944FFF7A3FA002800D0B2E0B64BB44DB8
:104C3000D320C0000E996D446B4468442F68984699
:104C400005680124C90500D420E50F99652900DC19
:104C5000AEE009980A99AD4AAD4B04F049FE002830
:104C600000D061E1AB4B42461360D321A44BC90095
:104C700001376B4408200135694454601F6080444B
:104C80000D60072D00DDFDE21898199B834203DBC0
:104C90000E9D254200D10CE50B9942461160984BC0
:104CA000D321C9006B44694401371F600B68082594
:104CB000A8445D1C54600D60072D00DD42E3441ED6
:104CC000002C00DCF5E4102C00DC4BE3D320C0000A
:104CD0006844914A0568924602E0103C102C25DD9C
:104CE000414610234B60013508230A601037984471
:104CF000072DF2DDD321C900694481480D60814947
:104D00006844076069441198FFF730FA002840D1E1
:104D10007D4A7B4BD320C0006A446B446844103CFE
:104D200090461F6805685246102CD9DC43461A602D
:104D30007348D322D2003F196844082101356A44E0
:104D40005C60076088441560072D00DCB1E46D49A4
:104D500011986944FFF70AFA00281AD1684D6A4B86
:104D60006D446B442F689846A3E40E99890701D4DB
:104D7000FFF769FB069A02320692FFF764FB664A68
:104D80003BE7604911986944FFF7F0F9002800D12A
:104D9000F1E40499002902D0081C02F037FB119AB3
:104DA00093895D0601D5FFF7D3FA0D98FFF7BBFA9B
:104DB000189B012B00DCF0E15046584A03786A4406
:104DC00013702E2353700121434640468A441A60D3
:104DD000082102230135436002378844072D00DD96
:104DE000C1E109980A99494A494B04F081FD00281C
:104DF00000D13EE1434652461A60189B40465A1E77
:104E00000821FB18013542605F1E8844072D00DD34
:104E10005EE2D423089ADB0041466B440B604A6093
:104E2000374BD321C900BF186B44082001356944B2
:104E30001F6080440D60072D00DC3AE43149119871
:104E40006944FFF793F90028A3D12D4B2E4A6B44F8
:104E50006A441F6890462CE4002A00D0B4E40E99FE
:104E6000C90700D4B0E42E4A6A4430239246137036
:104E7000AAE4244911986944FFF778F9002888D1F9
:104E80001F48214D68446D440768A84611E41D4938
:104E900011986944FFF76AF9002800D079E7184BA8
:104EA000D320194AC0006B4468446A441F680568EF
:104EB000904654E6124AD323DB006A446B441768D9
:104EC0001D68184AFFF71DFBD322D2006A441568FB
:104ED000144A2CE4109B181C1C680430002210900B
:104EE000FBE4109B181C1C68043001221090F4E4B1
:104EF000109B1A1C1C6804321092FFF770FA000015
:104F00009C0600009406000054060000000000000B
:104F100000000000ECA600009CA30000F4040000C8
:104F2000530600008CA30000199A002A00DC1FE23F
:104F30001898824200DA55E1414653460B60DE4B39
:104F40003F186B441F60D323DB0048600135082104
:104F50006B4488441D60072D00DDDEE2141A002C2E
:104F600052DD102C00DCE9E2D321C9006944D34AA8
:104F70000D68924602E0103C102C27DD4346404667
:104F80001A60082110230135436010378844072D2B
:104F9000F1DDC94AD323DB00C9496A446B44176079
:104FA0001D6011986944FFF7E1F8002800D0F0E691
:104FB000C44DC148D321C9006D4468446944103CC4
:104FC000A84607680D685246102CD7DC43461A6085
:104FD000B948D322D2003F196844082101356A44F8
:104FE0005C60076088441560072D0DDDB449119899
:104FF0006944FFF7BBF8002800D0CAE6AE4DB14BBC
:105000006D446B442F6898460E980122104201D1DE
:10501000FFF74FFB4146AC4BD3254A60ED00A64A53
:105020006D440B60082301376A4498442B6817606D
:105030005D1CD320C00068440560072D01DCFFF72C
:1050400038FB9F4911986944FFF790F8002800D079
:105050009FE6994A9B496A44694417688846FFF766
:1050600028FB954DD320C0006D4468442F68056827
:105070005DE5189B5C1E002C00DCCAE6102C00DCF1
:1050800040E18E4A924602E0103C102C27DD434658
:1050900040461A60082110230135436010378844C8
:1050A000072DF1DD844AD323DB0085496A446B4434
:1050B00017601D6011986944FFF758F8002800D068
:1050C00067E6804D7C48D321C9006D44684469443B
:1050D000103CA84607680D685246102CD7DC4346A2
:1050E000082001351A605C603F198044072D00DC00
:1050F0008FE67149D32269440F60D20070496A4437
:10510000156011986944FFF731F8002800D040E697
:10511000694D6C4B6D446B442F689846D320C0009A
:105120006844056875E6654AFFF782FA002A01D0EF
:10513000FFF774F907220120231C404282441340E8
:1051400030335146E4080B70002CF4D10E9AD2078C
:1051500001D4FFF739FB302B01D1FFF735FB824437
:105160003023FFF72FFB544AD323DB0054496A4412
:105170006B4417601D6011986944FEF7F7FF002823
:1051800000D006E64F4D4C48D321C9006D44684419
:105190006944A84607680D6823E60E99214200D0AD
:1051A0000AE6424651460823013511605460013732
:1051B0009844072D00DC2CE6D321C90069443E4801
:1051C0000D603F496844076069441198FEF7CEFFBF
:1051D000002800D0DDE5384B3A4A6B446A441F682A
:1051E00090469BE7404653460821013503604260E4
:1051F000BF188844072D00DD74E1334B4046082179
:10520000013592440360446001378844072D00DD76
:105210004DE1534640460360189B9B1AFF184360BC
:10522000FFF73AFA0E98012382091A4200D1FFE0F3
:10523000109B6A46191C928E1B68043110911A80CB
:10524000FEF7D6FF48460278FFF712F8109B186861
:1052500059681A1C09900A91083209980A99109203
:1052600003F0CCF9002801D0FFF787FB09980A99D1
:1052700003F0DAF9002800D166E1144D0320AA46B4
:10528000FFF7D0F80E4911986944FEF76FFF002828
:1052900000D07EE5084B0B4A6B446A441F68904679
:1052A000F2E4109B01211D1C1B68043550468B46FF
:1052B00010950370FFF791FB9C0600009CA3000073
:1052C0009406000054060000F0A60000F4A60000BA
:1052D000DF4AD323DB00DF496A446B4417601D605B
:1052E00011986944FEF742FF002800D051E5DA4DDD
:1052F000D748D321C9006D4468446944A84607686B
:105300000D6886E5D54AEAE60025FEF7B6FF002DD2
:1053100001D0FFF71DFB0125FFF71AFB002D00DA76
:10532000F7E1504600212A1C02F0CEFA002806D0F0
:105330005146411A8B46AB4501DCFFF774F8AB468A
:10534000FFF771F8C34911986944FEF70FFF002871
:1053500000D01EE5BE4BC04A6B446A441F681898D3
:105360009046ACE4D321C90069440D68BB4ADDE432
:10537000BB4B404603604460B549D320C0000137B1
:1053800069440823013568440F6098440560072D7F
:1053900000DD9AE1002A04D1189B002B01D1FFF710
:1053A00088F9D3210B9BC900454669442B600B68E3
:1053B0006C6008205D1C01378044072D00DDADE1E5
:1053C0005442002C60DD102C3BDDA44A934602E0E1
:1053D000103C102C36DD414610234B60013508236C
:1053E0000A6010379844072DF2DDD321C9006944C3
:1053F00097480D6097496844076069441198FEF723
:10540000B5FE002800D0C4E4914BD320924AC000DE
:105410006B4468446A441F68056890465A46D7E75B
:105420000625FFF795FA012189441023FFF77FFA3B
:10543000109B0D981D1C1B68043510951860FEF715
:10544000D7FE864A41460A60013508224C603F1962
:105450009044072D18DD7E4BD320C0007D49684461
:105460006B4405601F6011986944FEF77FFE0028B9
:1054700000D08EE4764AD3237749DB006A446B443C
:10548000694417681D688846189B4146704AFF1892
:105490004B60082350466A44984401350860176001
:1054A000C7E5704906228A469346FEF7BCFF684A64
:1054B000D323DB0067496A446B4417601D60119871
:1054C0006944FEF753FE002800D062E4624D604854
:1054D000D321C9006D4468446944A84607680D6833
:1054E000199A96E65A4AD323DB005A496A446B4418
:1054F00017601D6011986944FEF738FE002800D03F
:1055000047E4554D5248D321C9006D44684469446D
:10551000A84607680D68199A6FE64E4911986944C4
:10552000FEF724FE002800D033E449484A4D684481
:105530006D440768199A1898A8460FE5D322D2003F
:105540006A441568454A41E50E9980235B000F9A2D
:1055500019430E91099E0A9FAB46662A00D116E1B7
:105560000F98652800D1A3E0452800D1A0E00222D1
:105570009446002E00DA19E13B49002369440B7080
:1055800019AB019317AB5A46029316AB00920393E3
:1055900012983A1C311C634600F08EFC82460F982C
:1055A000672800D1A2E0472800D19FE00F9A544617
:1055B0005C44662A00D10AE1391C301C2B4A2C4B72
:1055C00004F096F9002800D0CEE01694231CA342E4
:1055D00005D230221A7001331693A342FAD35246F1
:1055E0009B1A18930F9B672B00D185E0472B00D1A6
:1055F00082E0199A0F98652800DDA8E0D421C9003F
:105600001C4E013A694419928B46141C08706E4472
:10561000002A00DA08E12B233370174E26AF6E44C0
:105620003D1C092C00DCE7E0201C0A2103F070FC83
:10563000013D303028700A21201CFEF7A7FC041C15
:105640000928F1DC031C013D30332B701AE0000007
:105650009C06000094060000540600009CA3000075
:10566000ECA600009CA60000AA06000000000000B6
:1056700000000000A1060000A20600002B78013502
:1056800033700136AF42F9D85D46189B751B0895FB
:10569000ED18AB46012B0EDD01218B44784D6D4496
:1056A0002B78002B01D1FEF7BEFE2D23FFF7BFF8AC
:1056B000691C8B465BE70E98C007EFD5ECE7714994
:1056C0002D2369440B70FFF762F96F491198694403
:1056D000FEF74CFD002801D0FFF75BFB6B4A6C49DD
:1056E0006A4469441768199A884653E60E99C907AF
:1056F00000D55BE7169B72E7199A101D02DDAA42DE
:1057000000DC8EE00F99672900D190E045200F90D2
:1057100070E7504603F040F8FEF784FE5B4A0D60E8
:1057200059496A44176011986944FEF71FFD002823
:1057300001D0FFF72EFB554DD320554BC0006D44D3
:1057400068446B442F68199A0568984638E60F9BA1
:10575000662B59D01898824234DB0E9B9346DB07A8
:105760009CD50132934699E7169B30E712980021A9
:1057700013AA0023009700F0D1F8051C83460135D9
:1057800001D1FFF706FB50461390FFF77DF9032385
:105790009C46EEE63D4D6D442B68002B4AD1D3204C
:1057A000C000002368440360FFF7F3FA39493A4A1E
:1057B000331C33484B403C1C271C1E1C68442D23C3
:1057C0000370DDE6002A3EDD0130834666E7504681
:1057D0000378302B02D0199BE418EDE6391C301CFD
:1057E0002E4A2F4B04F084F80028F4D001235946A8
:1057F0005B1AE4181993DFE630233370231C01365B
:105800003033337001363FE7002A20DD9346002D08
:1058100003D10E98C00700D440E7AB1801339B4674
:105820003CE767230F9395E754422D23F4E6652068
:105830000F90DFE6144911986944FEF797FC0028A1
:10584000ADD0FFF7A6FA831A02339B4626E7002D58
:1058500002D10E99C9070FD50235AB461EE7109B42
:10586000191C1D6804311091002D01DBFEF7FEFCB0
:1058700001256D42FEF7FAFC012293460EE7000077
:10588000AA060000AB060000940600009C0600007B
:10589000540600000000008000000000000000002E
:1058A00000000000F0B5094F041C3868836B0D1C24
:1058B000161C002B05D02A1C331C211CFEF764FC8F
:1058C000F0BD01F0C5F93868F5E7000004000040BC
:1058D00030B583B0051C1C1C002906D0231C00F029
:1058E00093F8431C04D003B030BD69460022F5E7AD
:1058F00000230120236040428A232B60F3E700004D
:1059000030B5131C044A0D1C041C211C10682A1CF1
:10591000FFF7DEFF30BD000004000040F0B55F4639
:1059200056464D464446F0B486B091460F9A0C1C3C
:1059300002908B461D1C9046002C37D000234A460F
:105940009A461668002D29D903AF43461B68019378
:1059500042465268434600920298391C3268FFF76B
:10596000B7FF431C2BD02B1A534522D3A84220D279
:105970005B468244002B0CD00022002805DDBB5C76
:105980000132237001348242F9DB4A461368043342
:10599000136008CE002B1BD0AA45D6D3504606B0C4
:1059A00078BC9846A146AA46B346F0BD01256D4293
:1059B000C4E7019B42461360009B5360EEE7029AE6
:1059C0008A23012013604042002342461360E6E729
:1059D0005A46002A01D04A461360504642460138D2
:1059E0001360DCE770B5161C064A0D1C81B0041C60
:1059F000211C106800932A1C331CFFF78FFF01B095
:105A000070BD000004000040F0B59C4C201C0E1C32
:105A1000151C1F1C02F0C0FE012804D8002E48D01F
:105A200035700120F0BD201C954902F085FE00284C
:105A300041D1002EF6D07F2DF2DD2A1C914B803A09
:105A40009A4200D8C7E0904BEA18904B9A425CD932
:105A50008F4BEA188F4B9A4200D8C9E08E4BEA1858
:105A60008E4B9A4200D8DBE08D4B9D4265DD6B008A
:105A700004225242DB0F134333708022AB005242A8
:105A80009B0E0136134333702B029B0E01361343DA
:105A90003370AB039B0E0136134333702B059B0E03
:105AA0000136134333703F231D40154306207570A4
:105AB000B8E70020B6E7201C7A4902F03DFE002836
:105AC0003ED12B06190E2B041A0E002EAAD0002A46
:105AD000A4D0131C7F331B061B0E1E2B05D9131CD1
