:100000001A0000EA330000EA320000EA310000EA98
:10001000300000EA2F0000EA2E0000EA2D0000EA7E
:1000200000B582B08022684651000180FC23102177
:100030009A014B424280037100F050FE02B000BDB5
:1000400000B582B000F0F4F8084800F071F98022A1
:10005000684651000180FC2310219A014B424280E6
:10006000037100F03BFE002002B000BD010B000058
:1000700078309FE503D0A0E102AC4DE20010A0E390
:1000800001B0A0E10170A0E14C109FE54C309FE56C
:10009000013053E00300000A0020A0E30120C1E486
:1000A000013053E2FCFFFFCA34109FE534209FE586
:1000B00034309FE5013053E00300000A0140D2E4F0
:1000C0000140C1E4013053E2FBFFFFCA0000A0E39E
:1000D0000010A0E3340A00EBFEFFFFEA040000403A
:1000E000DC7B004000000040B82900000100004017
:1000F000FCFF004010B51C4B25221A7056201B4AED
:10010000444201215520043B1470107019701849A5
:100110001470107001220B889C0A1442FBD0154801
:1001200003210170562311495C4255220C700A705C
:10013000114C12490020042308702370104B022236
:100140000120104C0A7018703C210F4821600022D9
:100150000834226001600830026002F01BF90B488D
:1001600000F0E6F810BD000084C01FE08CC01FE066
:1001700088C01FE080C01FE004C01FE000C01FE077
:1001800000C11FE00C4000E00C8000E0040B000008
:1001900010B51D4B25221A7056201C4A44420121DD
:1001A0005520043B147010701970194914701070A8
:1001B00001220B889C0A1442FBD0164803210170CF
:1001C000562312495C4255220C700A70124C134996
:1001D0000020042308702370114B02220120114CCF
:1001E0000A7018703C2110482160002208342260F7
:1001F00001600830026002F0CDF80C4800F098F879
:10020000012001F081FC10BD84C01FE08CC01FE004
:1002100088C01FE080C01FE004C01FE000C01FE0D6
:1002200000C11FE00C4000E00C8000E0040B000067
:1002300010B51D4B25221A7056201C4A444201213C
:100240005520043B14701070197019491470107007
:1002500001220B889C0A1442FBD01648032101702E
:10026000562312495C4255220C700A70124C1349F5
:100270000020042308702370114B02220120114C2E
:100280000A7018703C211048216000220834226056
:1002900001600830026002F07DF80C4800F048F878
:1002A000002001F031FC10BD84C01FE08CC01FE0B5
:1002B00088C01FE080C01FE004C01FE000C01FE036
:1002C00000C11FE00C4000E00C8000E0040B0000C7
:1002D00000B5074902220A60064A00231360012381
:1002E0000B6011688142FCD301480223036000BD0A
:1002F000044000E0084000E00449022304480B6089
:100300000022012302600B6070470000048000E0BF
:10031000088000E0024B18680222043B1A60704714
:10032000088000E0014B186870470000088000E07A
:1003300000B546490B68052213430B600B680A227F
:1003400093430B60424B07227D211A704A420433CB
:1003500000041A703F4A000C0240082A16D0082AEE
:1003600006DC022A00D16CE0022A64DC21220FE0C4
:100370008021CB019A4266D09A4253DC102AF5D1F3
:1003800079235942344B0122197004E03D22524234
:10039000314B1A7000220433F0211A704A000240D7
:1003A000402A37D0402A17DC202A48D003222B4984
:1003B000C0230A70DA0080210240CB009A4217D095
:1003C000E02292010240802043019A421CD0802109
:1003D0008B019A4220D000BD802AE7D11F4902221A
:1003E000C0230A70DA0080210240CB009A42E7D194
:1003F0001A4B1A7804210A431A70E0229201024033
:10040000802043019A42E2D1144B1A7808210A4312
:100410001A70E0E70122CAE7104B1A7818210A4344
:100420001A70D8E780210B029A429FD10A4B0E2204
:100430001A700322AFE7042A98D16222A8E70022AB
:10044000B5E74122A4E71022A2E7000000C002E0C5
:1004500008C000E01FC0000000C000E00CC000E0C9
:1004600000B500060449000E01220B785B09134217
:10047000FBD00249087000BD14C000E000C000E0DD
:1004800070B5051C0022081E0BD0064C064E01213B
:1004900023785B090B42FBD0AB5C013233708242A4
:1004A000F6D370BD14C000E000C000E000B50549FF
:1004B00001220B781A42FCD0034A11780806000E7C
:1004C00000BD000014C000E000C000E000B5054918
:1004D0000B78DA0704D5044B1A780270012000BDAE
:1004E0000020FCE714C000E000C000E070B5051C6F
:1004F00000220C1E0AD00648064E0121037819423C
:10050000FCD03378AB540132A242F7D370BD000067
:1005100014C000E000C000E0F0B55F4656464D460E
:100520004446F0B4161C002283B0051C9046914648
:100530000C1E7FD16B4630261E705A700C9C2023F7
:10054000E8466F4600209C460021002C0FDD6A46DD
:10055000013214780131002CFAD10C9A914200DA60
:100560002EE100240D998A0701D530239C460D9A6F
:10057000D20720D4002C1EDD9B4BE246994609E0B1
:10058000296862460A702E68013C01362E600130EF
:10059000002C0EDD002DF3D19449564601220B7834
:1005A0005B091342FBD04B46013C1E700130002C0E
:1005B000F0DC424616783306002B1FD08A4A90465C
:1005C0000AE029680A702E6801362E6001373A78F1
:1005D00013060130002B11D01A0E002DF1D18349E2
:1005E000161C01220B785B091342FBD043461E7098
:1005F00001373A7813060130002BEDD1002C00DCD6
:10060000CDE0794FE0460AE0296863460B702E681A
:1006100001362E60013C0130002C00DCBFE0002DD3
:10062000F2D17249464601220B785B091342FBD096
:100630003E70EFE7002B00D0B8E06F460B3700208C
:100640003870002C13D0201C311C02F091F80928BE
:1006500003DD0E9A1118081C3A38031C013F303391
:10066000201C3B70311C02F045F8041EEBD14346C0
:10067000002B15D00C9C002C00D1A7E00D9EB307D9
:1006800000D4A3E0002D00D1A4E029682D220A7037
:100690002868013028600C99013901220C9191469B
:1006A0000C9920223E1C002090460024002911DDD8
:1006B0003B783A1C02E0013213780134002BFAD166
:1006C0000C9B9C4200DA7EE000210D9CA30701D523
:1006D000302290460D9BDB071FD400291DDD424AC6
:1006E000C246934609E02B6842461A702C680139CD
:1006F00001342C60013000290FDD002DF3D13B4C7B
:10070000D446012223785B091342FBD064465B4642
:1007100001391C7001300029EFDC3A781306002BF8
:100720001FD0314A94460AE02B681A702F680137AF
:100730002F600136347823060130002B11D01A0EB9
:10074000002DF1D1294C171C012223785B0913429B
:10075000FBD063461F700136347823060130002B2E
:10076000EDD100291ADD204FC44609E02B6842462E
:100770001A702E68013901362E60013000290DDD16
:10078000002DF3D1194C6646012223785B091342F0
:10079000FBD001393E7001300029F1DC484403B040
:1007A00078BC9846A146AA46B346F0BD0A2E00D0B2
:1007B00043E7002C00DB40E70123984664423CE716
:1007C0000C9B5C1ACEE60C9A111B7EE7013F2D2391
:1007D0003B7065E7054901220C7863091342FBD0A1
:1007E000014E2D20307056E700C000E014C000E03C
:1007F000F0B55F4656464D464446F0B408C91C1C49
:10080000051C20780022030685B092468B46002BFB
:1008100014D0190E25291ED022781606320E002D6E
:1008200000D198E02868027029680131012229600E
:100830009244013420780306002BEAD1002D02D027
:100840002C6800252570504605B078BC9846A14616
:10085000AA46B346F0BD013422780023984600270B
:10086000002AEBD0252AD8D02D2A00D111E110067C
:10087000060E302E7AD0101C30380606310E0929AB
:100880000FD80A213B1C4B431606370EFA180134C9
:10089000171C2278101C30380606330E303F092B07
:1008A000F0D911060A0E732A69D0642A00D1F7E044
:1008B000782A00D106E1582A00D111E1752A00D129
:1008C00018E1632AB5D15B4604339B46043B1B68A1
:1008D000694600260B744E749946202104AB9C4651
:1008E000002603910020391E11DD49461A1C0B0613
:1008F00002E0013213780130002BFAD1B84200DB5C
:1009000006E1391A4246920701D53027039742463D
:10091000D20700D5FEE0002900DCFBE0039BA04AE3
:10092000984691460BE06A462F68127B3A70286819
:100930000130286001390136002900DCEAE0002D91
:10094000F1D198484746012203785B091342FBD056
:100950004B461F70EEE79348012103785F090F4271
:10096000FBD08F4E32700122924462E70221424650
:100970000A43013490462278302AF8D07BE75B4660
:1009800004339B46043B40CB002E00D1864E2022F0
:1009900000219146381C8C460022002F0FDD337851
:1009A000311C02E001310B780132002BFAD1BA423E
:1009B00074DAB81A43469B0701D53021894642466E
:1009C000D2071ED400281CDDC8460AE02B68494621
:1009D00019702F6801372F6001380127BC440028A7
:1009E0000FDD002DF2D16F49474601220B785B09DC
:1009F0001342FBD06A4A013817700127BC44002813
:100A0000EFDC31780B06002B21D0654988460BE0DE
:100A10002F683A702B6801332B600136317801273B
:100A20000B06BC44002B12D01A0E002DF0D15D49EC
:100A3000171C01220B785B091342FBD0424617704A
:100A40000136317801270B06BC44002BECD100287D
:100A50001CDD534FC8460AE02B684A461A702E68C0
:100A60000121013601382E608C4400280EDD002D56
:100A7000F2D14C49464601220B785B091342FBD068
:100A8000012101383E708C440028F0DCE24401343E
:100A9000D0E60134012122788846E8E6002089E783
:100AA0005B4604339B46043B02CB424661200097E1
:100AB000019202900A22281C0123FFF72DFD013428
:100AC0008244B7E65B4604339B464246043B02CB76
:100AD0000097019261230293281C10220023ECE767
:100AE0005B4604339B46043B02CB424641230097BE
:100AF0000192F0E75B4604339B46043B02CB42463F
:100B0000009701926127281C0A2200230297D4E74C
:100B10000021F7E66A46107C0306002B1CD0204A11
:100B200090460CE02B681A702F6801372F60012760
:100B3000BC446246107803060136002B0CD01A0E16
:100B4000002DEFD11748171C012203785B091342CF
:100B5000FBD043461F70EAE700291EDD039B104AC5
:100B60009C4690460AE06A462F68127B3A702868D5
:100B7000013901302860013600290EDD002DF2D147
:100B800008486746012203785B091342FBD04346BD
:100B900001391F7001360029F0DCB244013449E606
:100BA00000C000E014C000E0A42900000FB400B5AC
:100BB000002001A9FFF71CFE08BC04B01847000084
:100BC0000FB400B50C490122087843091342FBD049
:100BD0000A4901220A70002001A9FFF709FE06490F
:100BE0000122087843091342FBD0044901220A700C
:100BF00008BC04B01847000014C000E000C000E0CA
:100C0000F0B5474680B4804609061C48090E01220B
:100C1000047863091342FBD0194806220270174872
:100C20000122067875091542FBD0154F397013491A
:100C300001220B781A42FCD01149104E0A78002587
:100C400001240F1C43465A5D317848092042FBD0ED
:100C50003A70FA22281C510001F08AFD002805D0C4
:100C6000064901220B781A42FCD03B78054B01352E
:100C70009D42E7D908BC9846F0BD000014C000E0D2
:100C800000C000E03F29000070B5134E0324051C8E
:100C900034700320012101F0A1FC3078297901F0A2
:100CA0009DFC3078A97801F099FC6A883078110AA7
:100CB00001F094FC2988FF20090A0402307801F031
:100CC0008DFC2988214200D070BD0B063078190EAA
:100CD00001F084FCF8E700000000004070B5134EFE
:100CE0000224051C34700220012101F077FC3078C9
:100CF000297901F073FC3078A97801F06FFC6A88DB
:100D00003078110A01F06AFC2988FF20090A0402E0
:100D1000307801F063FC2988214200D070BD0B06B9
:100D20003078190E01F05AFCF8E70000000000408E
:100D300000B5034B1121187801F050FC00BD0000F4
:100D40000000004010B5054C0321207801F046FC5E
:100D5000207801F089FC0006000E10BD0000004064
:100D600030B5094C094D227803212A7021700320E7
:100D7000032101F033FC207801F076FC2B7800068B
:100D8000000E237030BD0000000000400400004051
:100D900030B5154C01060D0E2078032101F01EFC24
:100DA000207801F061FC0006000E052D05D80F4AE1
:100DB000AC00A3589F46830603D5002030BDC3076F
:100DC000FBD40120FAE78307F7D40120F6E74307B5
:100DD000F3D40120F2E70307EFD40120EEE7C306C6
:100DE000EBD40120EAE70000000000403C280000AE
:100DF00030B5194C19492278032300060A70237074
:100E00000321050E032001F0E9FB207801F02CFC02
:100E10000006000E052D05D8114BAC00E558AF4675
:100E2000830607D500200D4D0B492A780A7030BD86
:100E3000C307F7D40120F6E78307F3D40120F2E7D4
:100E40004307EFD40120EEE70307EBD40120EAE7E4
:100E5000C306E7D40120E6E700000040040000409C
:100E60005428000030B5064D01060C0E28780421E8
:100E700001F0B4FB2878211C01F0B0FB30BD00006C
:100E80000000004070B5094C094E2178020603208D
:100E9000150E317020700421032001F09FFB291CE6
:100EA000207801F09BFB3378237070BD0000004078
:100EB0000400004070B5284C090602060E0E20788A
:100EC0000321150E01F08AFB207801F0CDFB00060E
:100ED000000E052D13D8AC00204D63599F46002EFF
:100EE00027D1031C102213431E06350E1A4C042171
:100EF000207801F073FB2078291C01F06FFB70BD96
:100F0000002E25D0DF250540F0E7002E1DD0FE2560
:100F10000540EBE7002E15D0FD250540E6E7002E45
:100F20000DD0FB250540E1E7002E05D0F725054053
:100F3000DCE7EF250540D9E7031C0822D3E7031CB3
:100F40000422D0E7031C0222CDE7031C0122CAE7DA
:100F5000031C2022C7E70000000000406C280000AE
:100F600000B50006000E0021FFF7A4FF00BD000041
:100F700030B5074C074D2278032100062A702170F6
:100F8000000E0021FFF796FF2B78237030BD000084
:100F9000000000400400004000B50006000E0121E2
:100FA000FFF788FF00BD000030B5074C074D2278E1
:100FB000032100062A702170000E0121FFF77AFF3D
:100FC0002B78237030BD000000000040040000407A
:100FD00030B50006040E032C05D9052C03D0042CD3
:100FE00016D0002030BD0E4D0221287801F0F6FA0F
:100FF000052C0AD02878211C01F0F0FA084B18784B
:1010000001F032FB0106080EECE728780421F3E733
:10101000034C1021207801F0E1FA2078F0E700007D
:101020000000004030B5074C074D2378010603222D
:101030002B702270080EFFF7CBFF2B780006000EF6
:10104000237030BD000000400400004010B5054C86
:101050000A21207801F0C2FA207801F005FB000691
:10106000000E10BD0000004030B5094C094D22783B
:1010700003212A70217003200A2101F0AFFA2078A1
:1010800001F0F2FA2B780006000E237030BD00004C
:10109000000000400400004030B5194C01060D0E60
:1010A00020780A2101F09AFA207801F0DDFA000692
:1010B000000E072D05D8134AAC00A3589F464306DF
:1010C00008D5002030BD01060816C543E80FF9E732
:1010D000C307F6D40120F5E78307F2D40120F1E736
:1010E0004307EED40120EDE70307EAD40120E9E746
:1010F000C306E6D40120E5E78306E2D40120E1E758
:10110000000000408428000030B51E4C1E492278A3
:10111000032300060A7023700A21050E032001F044
:101120005DFA207801F0A0FA0006000E072D05D820
:10113000164BAC00E558AF4643060CD50020124BC9
:10114000104C1978217030BD05062A16D143C80FFE
:10115000F5E7C307F2D40120F1E78307EED40120BD
:10116000EDE74307EAD40120E9E70307E6D40120CD
:10117000E5E7C306E2D40120E1E78306DED40120DF
:10118000DDE700000000004004000040A42800004B
:1011900030B5064D01060C0E28780B2101F01EFA21
:1011A0002878211C01F01AFA30BD00000000004030
:1011B00070B5094C094E217802060320150E3170D6
:1011C00020700B21032001F009FA291C207801F07E
:1011D00005FA3378237070BD000000400400004021
:1011E00070B5304C090602060D0E20780A21160E45
:1011F00001F0F4F9207801F037FA0006000E072E0E
:1012000013D8B400284EA3599F46002D31D1031C9A
:10121000402213431806050E224C0B21207801F0C2
:10122000DDF92078291C01F0D9F970BD002D35D0E9
:101230007F250540F0E7002D2DD0FE250540EBE78A
:10124000002D25D0FD250540E6E7002D1DD0FB250E
:101250000540E1E7002D15D0F7250540DCE7002D1E
:101260000DD0EF250540D7E7002D05D0DF2505403F
:10127000D2E7BF250540CFE7031C2022C9E7031CA6
:101280001022C6E7031C0822C3E7031C0422C0E7A0
:10129000031C0222BDE7031C0122BAE78025031CC0
:1012A0006A42B6E700000040C428000000B500060E
:1012B000000E0021FFF794FF00BD000030B5074C81
:1012C000074D2278032100062A702170000E0021AC
:1012D000FFF786FF2B78237030BD00000000004030
:1012E0000400004000B50006000E0121FFF778FF62
:1012F00000BD000030B5074C074D227803210006E1
:101300002A702170000E0121FFF76AFF2B782370ED
:1013100030BD0000000000400400004010B5054C46
:101320000521207801F05AF9207801F09DF9000696
:10133000000E10BD0000004030B5094C094D227868
:1013400003212A7021700320052101F047F920783C
:1013500001F08AF92B780006000E237030BD0000E2
:10136000000000400400004030B5154C01060D0E91
:101370002078052101F032F9207801F075F9000696
:10138000000E072D05D80F4AAC00A3589F46430610
:1013900008D5002030BD01060816C543E80FF9E75F
:1013A000C307F6D40120F5E78307F2D40120F1E763
:1013B0004307EED40120EDE70307EAD40120E9E773
:1013C00000000040E428000030B51A4C1A49227889
:1013D000032300060A7023700521050E032001F087
:1013E000FDF8207801F040F90006000E072D05D821
:1013F000124BAC00E558AF4643060CD500200E4B0F
:101400000C4C1978217030BD05062A16D143C80F3F
:10141000F5E7C307F2D40120F1E78307EED40120FA
:10142000EDE74307EAD40120E9E70307E6D401200A
:10143000E5E700000000004004000040042900002F
:1014400030B5064D01060C0E2878062101F0C6F8CD
:101450002878211C01F0C2F830BD000000000040D7
:1014600070B5094C094E217802060320150E317023
:1014700020700621032001F0B1F8291C207801F02A
:10148000ADF83378237070BD0000004004000040C8
:1014900030B5184C01060D0E2078052101F09EF89C
:1014A000207801F0E1F80006000E072D12D8124A4C
:1014B000AC00A3589F468025031C6A420D4C134381
:1014C0001806050E0621207801F088F82078291CDE
:1014D00001F084F830BD031C0122EFE7031C022257
:1014E000ECE7031C0422E9E7031C0822E6E7031CDF
:1014F0004022E3E7000000402429000030B51D4CE5
:101500001D492278032300060A7023700521050E69
:10151000032001F063F8207801F0A6F80006000E21
:10152000072D12D8154BAC00E558AF468021031C9F
:101530004A42104C13431A06150E2078062101F07A
:101540004DF82078291C01F049F80B4B094819780F
:10155000017030BD031C0122EBE7031C0222E8E707
:10156000031C0422E5E7031C0822E2E7031C4022D7
:10157000DFE70000000000400400004044290000B4
:1015800030B5144C01060D0E2078052101F026F827
:10159000207801F069F80006000E072D0ED80E4ADB
:1015A000AC00A3589F467F250A4C054006212078B1
:1015B00001F014F82078291C01F010F830BDFE2548
:1015C000F2E7FD25F0E7FB25EEE7F725ECE7BF2581
:1015D000EAE70000000000406429000030B5184C24
:1015E00018492278032300060A7023700521050E8E
:1015F000032000F0F3FF207801F036F80006000E1B
:10160000072D0ED8104BAC00E558AF467F250C4C8B
:1016100005400621207800F0E1FF2078291C00F029
:10162000DDFF0848064902780A7030BDFE25EEE766
:10163000FD25ECE7FB25EAE7F725E8E7BF25E6E728
:1016400000000040040000408429000070B500063E
:101650000906040E0D0E032C04D9062C02D0072C0B
:1016600000D070BD094E0921307800F0B7FF631C2F
:101670001A063078110E00F0B1FF002D00D10125BF
:101680003078291C00F0AAFFEBE7000000000040C2
:10169000F0B5134D00060906124A2B780E0E040E03
:1016A0001370371C032C06D9062C04D0072C02D04B
:1016B00014782C70F0BD032129700320092100F05B
:1016C0008DFF631C1A062878110E00F087FF002E8C
:1016D00000D101272878391C00F080FF014AE7E794
:1016E000000000400400004070B500060906040E2A
:1016F0000D0E032C07D9062C05D0072C03D0082C7F
:1017000001D0092C11D1094E0921307800F066FF73
:10171000631C1A063078110E00F060FF002D00D116
:1017200001253078291C00F059FF70BD00000040F1
:10173000F0B5154D00060906144A2B780E0E040E5E
:101740001370371C032C07D9062C05D0072C03D0A7
:10175000082C01D0092C13D1032129700320092161
:1017600000F03CFF631C1A062878110E00F036FFCB
:10177000002E00D101272878391C00F02FFF034AE2
:1017800014782C70F0BD0000000000400400004000
:1017900000B5034B0821187800F020FF00BD0000C1
:1017A0000000004030B5064C064D2178032029701A
:1017B00020700821032000F011FF2B78237030BD2A
:1017C000000000400400004000B5034B07211878DA
:1017D00000F004FF00BD00000000004030B5064CE2
:1017E000064D21780320297020700721032000F086
:1017F000F5FE2B78237030BD00000040040000404F
:1018000030B50006050E032D04D9062D02D0072D94
:1018100000D030BD054C0E21207800F0DFFE6A1CA0
:1018200011062078090E00F0D9FEF2E70000004012
:1018300030B50F4D00060F4A2B78040E1370032CA1
:1018400006D9062C04D0072C02D014782C7030BD99
:1018500003232B7003200E2100F0C0FE621C110632
:101860002878090E00F0BAFE024A014DEDE70000AB
:10187000000000400400004030B50006050E032DB6
:1018800004D9062D02D0072D00D030BD054C0F2104
:10189000207800F0A3FE6A1C11062078090E00F0E3
:1018A0009DFEF2E70000004030B50F4D00060F4AE4
:1018B0002B78040E1370032C06D9062C04D0072CA9
:1018C00002D014782C7030BD03232B7003200F211D
:1018D00000F084FE621C11062878090E00F07EFEDE
:1018E000024A014DEDE70000000000400400004006
:1018F00030B50006050E032D07D9062D05D0072D9E
:1019000003D0082D01D0092D0AD1064C0E212078D4
:1019100000F064FE6A1C11062078090E00F05EFEDD
:1019200030BD00000000004030B5104D0006104AE8
:101930002B78040E1370032C07D9062C05D0072C26
:1019400003D0082C01D0092C0DD103232B700320C8
:101950000E2100F043FE621C11062878090E00F0EB
:101960003DFE034A014D14782C7030BD000000404C
:101970000400004030B50006050E032D07D9062DE2
:1019800005D0072D03D0082D01D0092D0AD1064C12
:101990000F21207800F022FE6A1C11062078090E23
:1019A00000F01CFE30BD00000000004030B5104DBE
:1019B0000006104A2B78040E1370032C07D9062C4E
:1019C00005D0072C03D0082C01D0092C0DD10323FE
:1019D0002B7003200F2100F001FE621C11062878F5
:1019E000090E00F0FBFD034A014D14782C7030BD48
:1019F000000000400400004030B5084D01060C0E08
:101A000028780D2100F0EAFD2878211C00F0E6FD81
:101A1000287800F029FE0006000E30BD00000040CE
:101A200070B50406250E0B4C0B4E22780321327044
:101A3000217003200D2100F0D1FD291C207800F039
:101A4000CDFD207800F010FE33780006000E2370E4
:101A500070BD0000000000400400004030B5064D9D
:101A600001060C0E2878122100F0B8FD2878211C00
:101A700000F0B4FD30BD0000000000400048704799
:101A8000080000400048704748290040004870475F
:101A900088520040034A0449044B0260416083605D
:101AA000704700000800004088520040482900406C
:101AB000034A0449044B02604160836070470000A0
:101AC00008000040885200404829004070B50206D6
:101AD0000806140E050EC02000F09EFC201C00F02D
:101AE0002DFD281C00F02AFD00F044FD0449054AA4
:101AF00000260023935501368E42FBDD70BD0000A9
:101B00003F2900000800004030B50006000E002804
:101B100000D175E0012800D186E06A4D6A4A296843
:101B200013686A4C0B4313602160694C69490023B8
:101B30000022CA540133A342FBD92C68664D674981
:101B40002C60634C00230022CA540133A342FBD90A
:101B5000022800D17CE0C02000F05EFC142000F0E0
:101B6000EDFC202000F0EAFC00F004FD5849594A41
:101B700000240023135501348C42FBDDC02000F00B
:101B80004BFC122000F0DAFC282000F0D7FC00F01B
:101B9000F1FC4F494F4A00240023135501348C4275
:101BA000FBDDC02000F038FC112000F0C7FC06204F
:101BB00000F0C4FC00F0DEFC4549464A0024002346
:101BC000135501348C42FBDDC02000F025FC1320AE
:101BD00000F0B4FC212000F0B1FC00F0CBFC3C494B
:101BE0003C4A00240023135501348C42FBDD384865
:101BF0003B4900230022CA5401338342FBD930BD44
:101C00008021384C4D018022374993012560802581
:101C10000B602C0280212B4D344A4B022B60344B3D
:101C2000146004221A6079E780222E4D1105802469
:101C3000630529602C4A80212C4C8D04136025609B
:101C40008022204DD3042B60294B11221A6065E7B6
:101C5000C02000F0E1FB142000F070FC202000F018
:101C60006DFC00F087FC1A491A4A00240023135522
:101C700001348C42FBDDC02000F0CEFB122000F0CE
:101C80005DFC082000F05AFC00F074FC1049114A79
:101C900000240023135501348C42FBDDC02000F0EA
:101CA000BBFB112000F04AFC062000F047FC00F0CE
:101CB00061FC0749074A00240023135501348C4274
:101CC000FBDD94E7D47B0040088002E0048002E062
:101CD0003F290000080000400C8002E04829004035
:101CE00088520040C87B0040CC7B0040D07B004045
:101CF000D87B0040F0B557464E464546E0B47820C4
:101D0000404B8046404841491A68471E0C681442BF
:101D1000FCD03F4989463D4948460D680268154256
:101D2000F9D00E681642FCD13A49384A3A4E8C46F0
:101D300092464B461A68504604681442FBD0012272
:101D4000554232493268A8440B681342FCD02F49EF
:101D50000C681442FCD12D4908681042FCD02B4974
:101D60000D681542FCD129490B681342FCD0274964
:101D70000C681442FCD1254908681042FCD0234964
:101D80000D681542FCD121490B681342FCD01F4954
:101D900032680C681442FCD11C4C5825326821680A
:101DA0001142FCD0194908681042FCD10868174953
:101DB0000B681342FCD015490B681342FCD1134940
:101DC00001370B681342FCD01049013D0B681342E8
:101DD000FCD1624611683268C8400C490B68134256
:101DE000FCD038700949326808681042FCD1002DD7
:101DF000D4D14346002B9CD138BC9846A146AA4674
:101E0000F0BD0000CC7B004008000040008002E0F4
:101E1000C87B0040D87B0040D07B0040F0B55746DF
:101E20004E464546E0B47820384B8046384839491C
:101E30001A68471E0C681442FCD037498946354958
:101E400048460D6802681542F9D00E681642FCD16A
:101E50003249304A324E8C4692464B461A685046BA
:101E600004681442FBD0012255422A493268A84432
:101E70000B681342FCD027490C681442FCD1254959
:101E800008681042FCD023490D681542FCD1214955
:101E90000B681342FCD01F4932680C681442FCD115
:101EA0001C4C5825326821681142FCD01949086839
:101EB0001042FCD1086817490B681342FCD0154941
:101EC0000B681342FCD1134901370B681342FCD055
:101ED0001049013D0B681342FCD16246116832681B
:101EE000C8400C490B681342FCD03870094932686D
:101EF00008681042FCD1002DD4D14346002BACD150
:101F000038BC9846A146AA46F0BD0000CC7B0040F4
:101F100048290040008002E0C87B0040D87B004098
:101F2000D07B0040F0B557464E464546E0B4782099
:101F30003C4B82463C483D491A68471E0C68144297
:101F4000FCD03B498946394948460D68026815422C
:101F5000F9D00E681642FCD13649344A364E8846CE
:101F600094464B461A68604604681442FBD001222E
:101F700055422E493268AA440B681342FCD02B49C3
:101F80000C681442FCD1294908681042FCD027494A
:101F90000D681542FCD125490B681342FCD023493A
:101FA0000C681442FCD12149582508681042FCD025
:101FB0001E4932680B681342FCD11C4C3268216800
:101FC0001142FCD0194908681042FCD10868174931
:101FD0000B681342FCD015490B681342FCD113491E
:101FE00001370B681342FCD01049013D0B681342C6
:101FF000FCD1424611683268C8400C490B68134254
:10200000FCD038700949326808681042FCD1002DB4
:10201000D4D15346002BA4D138BC9846A146AA4639
:10202000F0BD0000CC7B004088520040008002E000
:10203000C87B0040D87B0040D07B0040F0B55F46B5
:1020400056464D464446F0B4644B013B9846644BBB
:10205000013B9A46634B013B83469C466248634B77
:1020600002681B6881B000911A4204D1021C1C1C3A
:1020700010682042FCD05C485D4904680A6814423C
:1020800003D1041C25681542FCD05748584F0668F8
:102090003A68164200D18DE0041C23681342FCD13B
:1020A00001267542534AAB4451494F4D9146286829
:1020B0000A68514C009E104200D189E04A4F2568C1
:1020C00000203A682A4204D1474922680B6813422B
:1020D000FCD039682268114203D043490B6813428F
:1020E000FCD1411C0A06100E0428EAD93E480568B6
:1020F00022680127BC44B844BA44154203D13A4986
:102100000B681342FCD001682268114203D03649A3
:102110000D681542FCD1494603680D686246EB40E4
:10212000137007682268174203D12F490F681742BE
:10213000FCD003682268134203D02B490D68154276
:10214000FCD1494607680B684246DF4017700168BA
:102150002268114203D124490D681542FCD007685A
:102160002268174203D020490B681342FCD149462C
:1021700005680F685246FD401570016822681142DB
:1021800003D119490B681342FCD005682268154237
:1021900003D015490F681742FCD1013E002EA6D18D
:1021A0005B46002B09D101B078BC9846A146AA46EF
:1021B000B346F0BD0F4B104C994601267542AB4417
:1021C0000B49094D0A682868009E104200D075E747
:1021D000291C0F681742FCD070E7000088520040AD
:1021E0004829004008000040008002E0CC7B00400D
:1021F000C87B0040D87B0040D07B0040F0B55F46F4
:1022000056464D464446F0B45A4B013B98465A4B0D
:10221000013B9A46594B013B9C465949594B0A6828
:102220001B68782083461A4204D10A1C191C1468C2
:102230000C42FCD05249544D0B682A6800E00B68F0
:102240001342FCD04E49504F0E683A68164206D0F1
:102250000B681342FCD14D494D4C894602E04B4A74
:102260004B4C914646494848012675420B68026826
:10227000AB44582700E00B681342FCD0404E256861
:10228000002033682B4204D13D4922680B68134279
:10229000FCD031682268114203D039490B681342DF
:1022A000FCD1411C0A06100E0428EAD934480568FE
:1022B00022680126B444B044B244154203D13049E7
:1022C0000B681342FCD001682268114203D02C49EC
:1022D0000D681542FCD1494603680D686246EB4023
:1022E000137006682268164203D125490E6816420B
:1022F000FCD003682268134203D021490D681542BF
:10230000FCD1494606680B684246DE4016700168FB
:102310002268114203D11A490D681542FCD00668A3
:102320002268164203D016490B681342FCD1494675
:1023300005680E685246F540157001682268114222
:1023400003D10F490B681342FCD00568226815427F
:1023500003D00B490E681642FCD1013F002FA6D1D5
:102360005B46002B00D07DE778BC9846A146AA4684
:10237000B346F0BD885200404829004008000040A4
:10238000008002E0CC7B0040C87B0040D87B00404E
:10239000D07B004001200A4943420B70094908687C
:1023A0005022104308600B68A02083430B60064B4B
:1023B000A0301880043B18804022103B1A707047F0
:1023C00018C001E000C002E014C001E000B5012225
:1023D0000D4953420B700D490B68502213430B609B
:1023E0000B68A02293430B60094B984208D9181C34
:1023F000084908800439088040201039087000BD61
:102400000F28F5D81020F3E718C001E000C002E063
:102410007701000014C001E010B50006000EC307EC
:102420001AD41F4B20221A701E4A13781C06210E44
:102430000829FAD11C490870282010310870194861
:1024400017490122047823061C0E182C03D00C789F
:10245000E3081342F6D010BD11492024134B0C7031
:102460000822104C1A70012223781B061B0E102B19
:1024700003D00B78DB081342F6D00B4908702820F4
:1024800010310870074806490122047823061C0E03
:10249000402CE0D00C78E3081342F6D0DBE70000D4
:1024A00000C001E004C001E008C001E018C001E084
:1024B00000B50A4B08220A480A491A70012203781B
:1024C0001B061B0E502B03D00B78DB081342F6D0F3
:1024D000054A11780806000E00BD000018C001E092
:1024E00004C001E000C001E008C001E000B5000642
:1024F000002818D10D4B1A7804210A431A700C4B8E
:1025000008220C4809491A70012203781B061B0E89
:10251000502B03D00B78DB081342F6D0064A117813
:102520000806000E00BD024B0422E7E700C001E0F0
:1025300018C001E004C001E008C001E000B50106D8
:10254000094B080E187008221033084808491A7001
:10255000012203781B061B0E282B03D00B78DB0807
:102560001342F6D000BD000008C001E004C001E045
:1025700000C001E000B5064808220270054A102399
:1025800013700121107803090B42FBD100BD00003C
:1025900018C001E000C001E0014B40041860704722
:1025A000088002E0014B1868400C7047008002E090
:1025B000014B400418607047048002E0014B400466
:1025C000186070470C8002E0034B4204C1431A605C
:1025D0004804083318607047048002E030B50404F2
:1025E0001B4B1C481C4A1860043B09061A601E203D
:1025F000250C0C0EFDF76CFE184901220868C30E6D
:102600001342FBD180218A048023E9022143104830
:102610009C002143124D02604A0410492A600122A5
:102620000C68E50E1542FBD10C4901220868C30E67
:102630001342FBD0064A8025E904116007490122B4
:102640000B68DC0E1442FBD1064A0148026030BD23
:102650000C8002E00000FEFF0000FEF7008002E0B8
:10266000048002E00000FEF110B51C491C4A03047E
:102670000A60F6201B4A1C0C030613601E20FDF79F
:1026800027FE194901220B68D80E1042FBD1C02346
:10269000E0029A001043154C4104216012490122C6
:1026A0000868C40E1442FBD10F4C01222368D90ED6
:1026B0001142FBD06420FDF70BFE20688021074A01
:1026C000CC04C30108491460180E01220B68DC0E0B
:1026D0001442FBD1064A01490A6010BD0C8002E099
:1026E0000000FEFF088002E0008002E0048002E0BB
:1026F0000000FEF3002934D00123002210B48842E8
:102700002CD301242407A14204D2814202D2090120
:102710001B01F8E7E400A14204D2814202D2490041
:102720005B00F8E7884201D3401A1A434C08A042E4
:1027300002D3001B5C0822438C08A04202D3001B7A
:102740009C082243CC08A04202D3001BDC08224391
:10275000002803D01B0901D00909E3E7101C10BCB5
:10276000704700B500F068F8002002BC0847C0467A
:1027700000295AD00123884200D2704710B40124A6
:102780002407A14204D2814202D209011B01F8E7C9
:10279000E400A14204D2814202D249005B00F8E782
:1027A0000022884200D3401A4C08A04205D3001BE7
:1027B0009C460124E3411A4363468C08A04205D39A
:1027C000001B9C460224E3411A436346CC08A04206
:1027D00005D3001B9C460324E3411A4363469C46F1
:1027E000002803D01B0901D00909D9E70E242407CA
:1027F000224018D063460724234214D063460324A2
:10280000E3411A4201D0CC08001963460224E34197
:102810001A4201D08C08001963460124E3411A4290
:1028200001D04C08001910BC704700B500F004F846
:10283000002002BC0847C0467047C046BE0D0000DD
:10284000C60D0000CE0D0000D60D0000DE0D00000C
:10285000B60D0000300E0000380E0000400E0000E3
:10286000480E0000500E0000200E00000A0F00006D
:10287000140F00001E0F0000280F0000DE0E0000E5
:10288000000F0000D0100000D8100000E010000081
:10289000E8100000F0100000F8100000BE1000006A
:1028A000C6100000521100005A1100006211000011
:1028B0006A110000721100007A1100003811000046
:1028C0004811000036120000401200004A120000B9
:1028D000541200005E120000681200000A1200008C
:1028E0002C120000A0130000A8130000B013000079
:1028F000B813000092130000921300008E13000022
:1029000096130000121400001A1400002214000094
:102910002A140000FC130000FC130000F813000050
:1029200008140000D6140000DC140000E2140000BB
:10293000E8140000D4140000D4140000EE140000C9
:10294000B6140000541500005A1500006015000070
:10295000661500004A1500004A1500006C150000BD
:102960002C150000BE150000C2150000C6150000A1
:10297000CA150000BC150000BC150000CE150000F3
:10298000A61500002C1600003016000034160000BA
:102990003816000022160000221600003C16000027
:1029A0000C160000286E756C6C29000000C09FE5B5
:0829B0001CFF2FE141000000B3
:0129B800021C
:040000030000007089
:00000001FF
