:10000000200000EA390000EA380000EA370000EA80
:10001000360000EA350000EA340000EA330000EA66
:1000200010B581B000F08AFA164C40212278802069
:1000300000F06EF9041C00F0B3F9201C1E210A2206
:10004000002300F0C9F9201C2D210A22012300F011
:10005000C3F9201C41210A22022300F0BDF91E230E
:100060000093201C19230A210A2200F0FBF9201C0E
:1000700014210A2200F0E4F9201C00F063FA01B018
:1000800010BD0000818B000078309FE503D0A0E117
:1000900002AC4DE20010A0E301B0A0E10170A0E1CC
:1000A0004C109FE54C309FE5013053E00300000AFF
:1000B0000020A0E30120C1E4013053E2FCFFFFCAAD
:1000C00034109FE534209FE534309FE5013053E044
:1000D0000300000A0140D2E40140C1E4013053E2D0
:1000E000FBFFFFCA0000A0E30010A0E3A42300EB85
:1000F000FEFFFFEA84030040A4BF00400000004070
:10010000908F000084030040FCFF004000B501F028
:10011000B1FDFFF785FF002000BDC04600B507F028
:1001200061FE05F0C3FB08F0A1F900BD00B507F0C2
:1001300059FE05F0BBFB08F099F900BD00B507F0CA
:1001400051FE05F0B3FB08F091F900BD00B507F0D2
:1001500049FE05F011FC08F089F900BD00B507F073
:1001600041FE05F063FC08F081F900BD00B507F021
:1001700039FE05F0F1F908F079F900BD00B507F096
:1001800031FE05F0ADFC08F071F900BD00B5024884
:1001900000F044FB00BD00009403004000B502489D
:1001A00004F078F900BD00009403004000B500F0B1
:1001B000E9FE00BD00B500F061FC00BD00B500F037
:1001C00075FD00BD00B500F0EDFC00BD00B50248B6
:1001D00004F0E8FA00BD00009403004000B50104FB
:1001E000090C034804F004FB0004001400BD0000E7
:1001F0009403004000B5A5218B01984201DD002049
:1002000000BD024B1A68105CFAE70000940300403E
:1002100000B5A5218B01984201DD002000BD024BF5
:100220009A68105CFAE700009403004000B5A5212D
:100230008B01984201DD002000BD024B5A68105C22
:10024000FAE7000094030040014A1368195470470C
:1002500094030040014A9368195470479403004086
:10026000014A5368195470479403004000B5044B89
:10027000011C1A68034805F007F80006000E00BDCF
:10028000840300409403004000B500060906000EF8
:10029000090E00F0DFFA00BD00B5024800F0CCFA0C
:1002A00000BD000094BF004000B500F06BFE0248A6
:1002B00004F04EF900BD000094BF004000B5A52138
:1002C0008B01984201DD002000BD024B1A68105CD2
:1002D000FAE7000094BF004000B5A5218B019842C9
:1002E00001DD002000BD024B5A68105CFAE70000F7
:1002F00094BF004000B5A5218B01984201DD00208C
:1003000000BD024B9A68105CFAE7000094BF004001
:10031000F0B557464646C0B41606320E1E4E0F06BE
:10032000000690463278050E380E1C4FD100CB19CE
:100330009D7034789246E200D11943464870002BF4
:100340001DD168433478E300DC19002822DBC008A3
:1003500005F094F8606035784246EB00DA550E49B6
:100360000878421C17063E0E012E06D900250D7096
:10037000504618BC9846A246F0BD0A70F8E733789C
:100380006843DA00D41905F079F860603178082202
:10039000CB00E3E70730DAE792030040A003004018
:1003A00000B5012800DD00BDC3000248181800F0A8
:1003B000BBFEF8E7A003004010B512060C1C110E9E
:1003C000012800DD10BD034AC30098184368195581
:1003D000F8E70000A003004070B5090612061B06EE
:1003E00081B00E0E150E1C0E012801DD01B070BD8E
:1003F0000549C200054B50181B68291C0090221C9F
:10040000301C01F0CDF8F1E7A00300408803004064
:1004100000B5044B0106080E196801F059F80006F2
:10042000000E00BD8803004000B5044B0106080E15
:10043000196801F081F80006000E00BD8803004035
:1004400010B5090612060C0E110E012800DD10BDB4
:10045000C300201C024C1A1900F088FEF7E70000C8
:10046000A003004070B581B01506059A1C06090668
:1004700013060E0E290E250E1C0E012801DD01B0FB
:1004800070BD054AC300981800902A1C301C231C1C
:1004900000F0DCFEF3E70000A003004000B50128F7
:1004A00000DD00BD034A044BC100C918106800F00C
:1004B00089FEF6E794030040A003004000B501F078
:1004C00055FA00BD00B50006000E01F075FA00BD3A
:1004D00000B501F0BDFA0006000E00BD00B5000633
:1004E000000E01F0FBFA00BD00B501F013FB00BDEA
:1004F00000B501F03FFC00BD00B501F041FC000477
:10050000001400BD00B501F041FC00BD00B501F0D4
:1005100043FC00BD00B501F045FC00BD00B5000680
:100520000906000E090E01F047FC00BD00B50106EA
:10053000080E01F087FC0006000E00BD00B501F0BA
:1005400037FD00BD00B5012800DD00BDC300024835
:10055000181802F0ABF8F8E7A003004000B5012836
:1005600000DD00BDC3000248181801F0D7FDF8E710
:10057000A003004000B5012800DD00BDC300024813
:10058000181801F02DFFF8E7A003004000B501F0B6
:10059000C1FB00BD00B50004000C03F0CFFA00BDA4
:1005A00000B50006000E03F061FB00BD00B503F0CE
:1005B0006DFB00BD00B503F07FFB0006000E00BD23
:1005C00000B503F099FB00BD00B503F0FFFE00BDD0
:1005D0000204100C034A09041388090C81401943D2
:1005E00011807047900300408020024B42001A8027
:1005F00070470000900300400204100C034A0904F5
:100600001388090C81401943118070478C03004006
:1006100010B50C040304220C1C0C831F012B0DD8F5
:100620008022530099420DD0012906D1062815D009
:100630000C4B1A8880210A431A8010BD094B198877
:10064000A240F8E7062804D0064B80201A888101D2
:10065000F1E7044B80211A884901ECE7014B1A8825
:100660004021E8E78E03004070B5094E82B034881F
:1006700068460480074D2A88074C42802188017112
:1006800002F08CFB002302B033802B80238070BDEE
:10069000900300408E0300408C03004070B5094E6B
:1006A00082B0348868460480074D2A88074C42800F
:1006B0002188017102F048FB002302B033802B80B7
:1006C000238070BD900300408E0300408C030040E7
:1006D00000B502F097FB0006000E00BD00B5010654
:1006E000080E02F0B5FB0006000E00BD00B50006C6
:1006F000000E02F017FC00BD00B50006000E02F06F
:100700008FFC00BD00B50006000E02F0A5FC00BD88
:1007100000B50006000E02F0BBFC00BD00B502F003
:10072000F5FC0006000E00BD00B50106080E02F043
:1007300013FD0006000E00BD00B50006000E02F01D
:1007400087FD00BD00B50006000E02F00FFE00BDE3
:1007500000B50006000E02F025FE00BD00B502F057
:100760003DFE0006000E00BD00B50106080E02F0B9
:100770005BFE0006000E00BD00B50006000E02F094
:10078000BFFE00BD00B50006000E02F0E1FE00BD98
:1007900000B50006000E02F053FF00BD00B50006D4
:1007A0000906000E090E02F0B1FF00BD00B503F00E
:1007B0004FF800BD00B503F067F800BD00B50006B6
:1007C000000E03F0B9F800BD00B50006000E03F0FE
:1007D00077F800BD00B50106080E03F06DF90006BC
:1007E000000E00BD00B50006000E03F097F900BD35
:1007F00070470000704700000020704770470000FD
:100800007047C04600487047B0030040004870473A
:10081000F02C00400048704730560040034A04491D
:10082000044B02604160836070470000B0030040E9
:1008300030560040F02C0040034A0449044B02604B
:100840004160836070470000B003004030560040B4
:10085000F02C004070B502060806140E050EC020EC
:1008600001F0AAF8201C01F039F9281C01F036F932
:1008700001F050F90449054A00260023935501363A
:100880008E42FBDD70BD00003F290000B003004038
:1008900030B50006000E002800D175E0012800D117
:1008A00086E06A4D6A4A296813686A4C0B431360F4
:1008B0002160694C694900230022CA540133A342D4
:1008C000FBD92C68664D67492C60634C00230022DD
:1008D000CA540133A342FBD9022800D17CE0C020D6
:1008E00001F06AF8142001F0F9F8202001F0F6F880
:1008F00001F010F95849594A0024002313550134D6
:100900008C42FBDDC02001F057F8122001F0E6F820
:10091000282001F0E3F801F0FDF84F494F4A002488
:100920000023135501348C42FBDDC02001F044F854
:10093000112001F0D3F8062001F0D0F801F0EAF818
:100940004549464A00240023135501348C42FBDDFF
:10095000C02001F031F8132001F0C0F8212001F08F
:10096000BDF801F0D7F83C493C4A00240023135558
:1009700001348C42FBDD38483B4900230022CA5435
:1009800001338342FBD930BD8021384C4D01802298
:1009900037499301256080250B602C0280212B4D67
:1009A000344A4B022B60344B146004221A6079E7FE
:1009B00080222E4D11058024630529602C4A802158
:1009C0002C4C8D04136025608022204DD3042B60B5
:1009D000294B11221A6065E7C02000F0EDFF1420BA
:1009E00001F07CF8202001F079F801F093F81A4921
:1009F0001A4A00240023135501348C42FBDDC02029
:100A000000F0DAFF122001F069F8082001F066F822
:100A100001F080F81049114A0024002313550134D5
:100A20008C42FBDDC02000F0C7FF112001F056F81A
:100A3000062001F053F801F06DF80749074A002439
:100A40000023135501348C42FBDD94E77C7F00408A
:100A5000088002E0048002E03F290000B00300406B
:100A60000C8002E0F02C004030560040707F0040C7
:100A7000747F0040787F0040807F0040F0B557468B
:100A80004E464546E0B47820404B804640484149B8
:100A90001A68471E0C681442FCD03F4989463D49FC
:100AA00048460D6802681542F9D00E681642FCD11E
:100AB0003A49384A3A4E8C4692464B461A68504656
:100AC00004681442FBD00122554232493268A844DE
:100AD0000B681342FCD02F490C681442FCD12D49FD
:100AE00008681042FCD02B490D681542FCD12949F9
:100AF0000B681342FCD027490C681442FCD12549ED
:100B000008681042FCD023490D681542FCD12149E8
:100B10000B681342FCD01F4932680C681442FCD1A8
:100B20001C4C5825326821681142FCD019490868CC
:100B30001042FCD1086817490B681342FCD01549D4
:100B40000B681342FCD1134901370B681342FCD0E8
:100B50001049013D0B681342FCD1624611683268AE
:100B6000C8400C490B681342FCD038700949326800
:100B700008681042FCD1002DD4D14346002B9CD1F3
:100B800038BC9846A146AA46F0BD0000747F0040DC
:100B9000B0030040008002E0707F0040807F004092
:100BA000787F0040F0B557464E464546E0B4782081
:100BB000384B8046384839491A68471E0C68144239
:100BC000FCD037498946354948460D6802681542C8
:100BD000F9D00E681642FCD13249304A324E8C466A
:100BE00092464B461A68504604681442FBD00122D4
:100BF00055422A493268A8440B681342FCD0274961
:100C00000C681442FCD1254908681042FCD02349E5
:100C10000D681542FCD121490B681342FCD01F49D5
:100C200032680C681442FCD11C4C5825326821688B
:100C30001142FCD0194908681042FCD108681749D4
:100C40000B681342FCD015490B681342FCD11349C1
:100C500001370B681342FCD01049013D0B68134269
:100C6000FCD1624611683268C8400C490B681342D7
:100C7000FCD038700949326808681042FCD1002D58
:100C8000D4D14346002BACD138BC9846A146AA46E5
:100C9000F0BD0000747F0040F02C0040008002E0B6
:100CA000707F0040807F0040787F0040F0B557465D
:100CB0004E464546E0B478203C4B82463C483D4990
:100CC0001A68471E0C681442FCD03B4989463949D2
:100CD00048460D6802681542F9D00E681642FCD1EC
:100CE0003649344A364E884694464B461A68604622
:100CF00004681442FBD0012255422E493268AA44AE
:100D00000B681342FCD02B490C681442FCD12949D2
:100D100008681042FCD027490D681542FCD12549CE
:100D20000B681342FCD023490C681442FCD12149C2
:100D3000582508681042FCD01E4932680B681342DF
:100D4000FCD11C4C326821681142FCD0194908685A
:100D50001042FCD1086817490B681342FCD01549B2
:100D60000B681342FCD1134901370B681342FCD0C6
:100D70001049013D0B681342FCD1424611683268AC
:100D8000C8400C490B681342FCD0387009493268DE
:100D900008681042FCD1002DD4D15346002BA4D1B9
:100DA00038BC9846A146AA46F0BD0000747F0040BA
:100DB00030560040008002E0707F0040807F00409D
:100DC000787F0040F0B55F4656464D464446F0B445
:100DD000644B013B9846644B013B9A46634B013B95
:100DE00083469C466248634B02681B6881B0009151
:100DF0001A4204D1021C1C1C10682042FCD05C4822
:100E00005D4904680A68144203D1041C2568154230
:100E1000FCD05748584F06683A68164200D18DE01A
:100E2000041C23681342FCD101267542534AAB448B
:100E300051494F4D914628680A68514C009E104216
:100E400000D189E04A4F256800203A682A4204D13F
:100E5000474922680B681342FCD039682268114266
:100E600003D043490B681342FCD1411C0A06100E03
:100E70000428EAD93E48056822680127BC44B844E2
:100E8000BA44154203D13A490B681342FCD00168B9
:100E90002268114203D036490D681542FCD14946FB
:100EA00003680D686246EB401370076822681742BA
:100EB00003D12F490F681742FCD003682268134200
:100EC00003D02B490D681542FCD1494607680B68D1
:100ED0004246DF40177001682268114203D124495D
:100EE0000D681542FCD007682268174203D02049DC
:100EF0000B681342FCD1494605680F685246FD4015
:100F0000157001682268114203D119490B68134218
:100F1000FCD005682268154203D015490F681742B6
:100F2000FCD1013E002EA6D15B46002B09D101B0B9
:100F300078BC9846A146AA46B346F0BD0F4B104C6C
:100F4000994601267542AB440B49094D0A68286849
:100F5000009E104200D075E7291C0F681742FCD094
:100F600070E7000030560040F02C0040B003004015
:100F7000008002E0747F0040707F0040807F00406E
:100F8000787F0040F0B55F4656464D464446F0B483
:100F90005A4B013B98465A4B013B9A46594B013BF1
:100FA0009C465949594B0A681B68782083461A4267
:100FB00004D10A1C191C14680C42FCD05249544D2F
:100FC0000B682A6800E00B681342FCD04E49504F72
:100FD0000E683A68164206D00B681342FCD14D49A0
:100FE0004D4C894602E04B4A4B4C91464649484895
:100FF000012675420B680268AB44582700E00B6875
:101000001342FCD0404E2568002033682B4204D1A7
:101010003D4922680B681342FCD0316822681142B6
:1010200003D039490B681342FCD1411C0A06100E4B
:101030000428EAD93448056822680126B444B0443B
:10104000B244154203D130490B681342FCD0016809
:101050002268114203D02C490D681542FCD1494643
:1010600003680D686246EB401370066822681642FA
:1010700003D125490E681642FCD00368226813424A
:1010800003D021490D681542FCD1494606680B681A
:101090004246DE40167001682268114203D11A49A7
:1010A0000D681542FCD006682268164203D0164926
:1010B0000B681342FCD1494605680E685246F5405C
:1010C000157001682268114203D10F490B68134261
:1010D000FCD005682268154203D00B490E68164201
:1010E000FCD1013F002FA6D15B46002B00D07DE74D
:1010F00078BC9846A146AA46B346F0BD305600409B
:10110000F02C0040B0030040008002E0747F0040FB
:10111000707F0040807F0040787F00400370009B1C
:10112000817042704360704710B5427884785443B0
:10113000037822040021140C002B0BD1D20C002ABE
:1011400007D9002443685C544B1C1B04190C9142C2
:10115000F8D310BD002CFCD9002243685A544B1C14
:101160001B04190CA142F8D3F3E70000F0B50023EB
:101170009C46137800040904141C070C0E0C002B69
:1011800015D1927807251106154201D001239C46FE
:10119000CB0E63447343C20CD218606811040E0C6A
:1011A0003D400124AC40855D2C43845508E0927895
:1011B0007243D11966680D0401242F0C6042F0556A
:1011C000F0BD0000F0B5474680B400220B68071C54
:1011D000081C1C4994461C4A0B40934203D0002033
:1011E00008BC9846F0BD5823B02698467600624663
:1011F0001401A31A01219501DC1009E043680122C2
:10120000EB1852425A544B1C1A06110E3F2910D8A3
:101210000B1C7343424662431B12D218BA5C002A6D
:10122000ECD14368EB185A544B1C1A06110E3F2997
:10123000EED9634601331D062B0E9C463F2BD6D9B3
:101240000120CDE7FFFFFF0008404000F0B55F46FA
:1012500056464D464446F0B486B00F9C0004A14665
:1012600012041C040904120C230C000C090C059236
:101270009B4682426BD3161A350401222E0C04922F
:101280008B456CD35C46651A2C04250C0122039215
:101290002F04320414143A1480468C4694426CDBBA
:1012A00057043B0C9D1B2A046704150C059C020483
:1012B0009B4616143B0C0293A64200D1B0E00904F1
:1012C0008A4631E0A378072419061C4200D0012782
:1012D000CB0EDB194343D20CD21849464868170499
:1012E00034403A0C0126A640845C264386542804E8
:1012F00000280ADB0398029F60440404230CEA1BC5
:10130000160419049C46350C8A465A46A818049AB5
:1013100042441604330C0704059C180401143D0CC8
:101320009846021CA1427ED04C4623785146160CAA
:10133000080C0027002BC5D04A4694784443A319D3
:101340001F0456680121380C4C423454CFE7059AEB
:10135000831A5E4A1F043E0C04928B4592D25C466F
:101360000B1B1F04594A3D0C03922F043204141422
:101370003A1480468C46944292DA6604330C5F1B22
:1013800056040A043C0401931714330C250C0093F3
:101390005F456CD0070430E0A278072411061442A0
:1013A00001D001229246CB0E53444343FA0CD2188B
:1013B0004B465868110434400A0C0126A640845C50
:1013C000264386542804002809DB0498009C4044E6
:1013D0002E1B01040B0C37043D0C98461F04039C84
:1013E000019E6444A8192204130C01040D0C190475
:1013F0000E149C460A1C5E453BD04C4621780023C7
:101400003E0C100C9A460029C6D04C46A1784143A8
:101410008B191A0466680121100C4C423454D1E730
:1014200009048A4600044C4625785246060C110CE5
:101430000027002D42D1A37807251C061D4200D0AD
:101440000127E30EC20CD8194843494617183C043B
:10145000354001234868220CAB40855C2B43835404
:1014600006B078BC9846A146AA46B346F0BD09042A
:1014700007044A4613783D0C090C0026002B12D1B4
:101480009378072418061C4200D00126C30E981931
:101490004843FA0C12184B4617042C405868012395
:1014A0003A0CA340D9E74C46A7784F437E19310444
:1014B0000B0C616801204242CA54D1E74A46947835
:1014C0004C43A5192E045168330CF3E7FFFF0000CD
:1014D00070B50D1C01062878420053195C7846341B
:1014E0000E0E21060C0E0F200A0F20400301111CC6
:1014F000194305D1211C0F4806F00CFA0306190EFA
:10150000720056197278B078002A02D0A24200D038
:101510006240002802D0A04200D06040160206437C
:101520003304180C44196078002802D0884200D097
:10153000484070BDD204000070B50D1C010628782B
:10154000420053195C7846340E0E21060C0E0F2013
:101550000A0F20400301111C194305D1211C0F481B
:1015600006F0D8F90306190E720056197278B07891
:10157000002A02D0A24200D06240002802D0A0423D
:1015800000D06040160206433304180C4419E0787A
:10159000002802D0884200D0484070BDD20400002C
:1015A000F0B55F4656464D464446F0B48DB00A93BA
:1015B00004060B06200E1E0E0B960C90169F1506A9
:1015C0002E0EBD7807212C068846E10E08910A9A56
:1015D000107843009F187C78463421060C0E0F20AB
:1015E00020400A0F0301101C184305D1C348211CD9
:1015F00006F090F90206100E011C50310F063B0E4A
:101600009B46002B04D1071C5A373A06130E9B4603
:101610000A9973005E187178B278002902D0A1424D
:1016200000D06140002A02D0A24200D062400E02E7
:1016300016430A9C37043A0C135D14196178002B89
:1016400002D0834200D04340002902D0814200D022
:1016500041401F020F4339040B0C9A46A378E178EE
:10166000002B02D0834200D04340002902D08142A7
:1016700000D041401E020E433404200C514603901A
:10168000CB0850460721084000D00133039F7B431D
:10169000171D1E043A04340C130C0194169A9C4630
:1016A0001378002B00D0B4E05678089F7E43013EAB
:1016B0003404039D220C002309920293002D00D8CC
:1016C000A0E00C9D0C9A2940D308090607930691C7
:1016D00005900B9A029B089DD7186F43079CE6194B
:1016E00030040999040C8C4200D98BE00A9E069DB7
:1016F0006346371C280E01999D5D67447E5C002D72
:1017000003D05D4501D05B465D40002E03D05E45B1
:1017100001D059464E4052460027002A5FD9012386
:10172000994619E0169A53680204121491400A1C53
:10173000195D0A431A554346013B411C1B040A0428
:10174000190C100C8846002B27DB082840D07B1C86
:101750001A04170C574542D241460B041A142B1C8D
:10176000134149460B42DDD1331C134149460B421C
:10177000E1D0169A030451681A144B4693401A1C80
:101780000B5D93430B554346013B411C1B040A046C
:10179000190C100C8846002BD7DA634601330A9ED9
:1017A0001D042B0C07229C469D5D9046331C019A1C
:1017B00063449E5C002D03D05D4501D05B465D40D7
:1017C000002EC2D05E45C0D059464E400828BED13A
:1017D000611C0B04099A1C0C00209442B7D905988F
:1017E000002804D0634601331C04230C9C46029D50
:1017F00001352E0403990724370CA04602978F4227
:1018000000D266E70DB078BC9846A146AA46B3461A
:10181000F0BD169C2A066678170E7743013F3904FF
:101820000B0C039A994600230093002AEAD90490EE
:10183000009F0B9B2906F8180C0E44430A9D0C9A36
:101840006346161901995C5D2B1C37046344380C00
:101850005D5C002C03D05C4501D05B465C40002DF4
:1018600003D05D4501D059464D4052460026002A1E
:101870002BD9012715E0169B01215A684B421354BE
:10188000431C1904080C48451FD84346013B1A0461
:10189000110C8846002A33DB731C1A04160C5645BB
:1018A00013D241460B041A14231C1341191C39404E
:1018B000E1D12B1C13413B42E2D0169A53681954D4
:1018C000431C1904080C4845DFD9049E002E04D09F
:1018D000634601331F043B0C9C460723984648454A
:1018E00000D98FE7009901310D04039C280C00906A
:1018F000A04200D386E71698857899E7D2040000C5
:10190000634601330A9D1C04230C07229C465C5D40
:1019100090462B1C019A63449D5C002C03D05C45CF
:1019200001D05B465C40002DB6D05D45B4D0594631
:101930004D40B1E701200A4943420B70094908684C
:101940005022104308600B68A02083430B60064BB5
:10195000A0301880043B18804022103B1A7070475A
:1019600018C001E000C002E014C001E000B501228F
:101970000D4953420B700D490B68502213430B6005
:101980000B68A02293430B60094B984208D9181C9E
:10199000084908800439088040201039087000BDCB
:1019A0000F28F5D81020F3E718C001E000C002E0CE
:1019B0007701000014C001E010B50006000EC30757
:1019C0001AD41F4B20221A701E4A13781C06210EAF
:1019D0000829FAD11C4908702820103108701948CC
:1019E00017490122047823061C0E182C03D00C780A
:1019F000E3081342F6D010BD11492024134B0C709C
:101A00000822104C1A70012223781B061B0E102B83
:101A100003D00B78DB081342F6D00B49087028205E
:101A200010310870074806490122047823061C0E6D
:101A3000402CE0D00C78E3081342F6D0DBE700003E
:101A400000C001E004C001E008C001E018C001E0EE
:101A500000B50A4B08220A480A491A700122037885
:101A60001B061B0E502B03D00B78DB081342F6D05D
:101A7000054A11780806000E00BD000018C001E0FC
:101A800004C001E000C001E008C001E000B50006AC
:101A9000002818D10D4B1A7804210A431A700C4BF8
:101AA00008220C4809491A70012203781B061B0EF4
:101AB000502B03D00B78DB081342F6D0064A11787E
:101AC0000806000E00BD024B0422E7E700C001E05B
:101AD00018C001E004C001E008C001E000B5010643
:101AE000094B080E187008221033084808491A706C
:101AF000012203781B061B0E282B03D00B78DB0872
:101B00001342F6D000BD000008C001E004C001E0AF
:101B100000C001E000B5064808220270054A102303
:101B200013700121107803090B42FBD100BD0000A6
:101B300018C001E000C001E010B51C4B25221A704E
:101B400056201B4A444201215520043B147010705A
:101B5000197018491470107001220B889C0A1442E5
:101B6000FBD0154803210170562311495C425522D0
:101B70000C700A70114C1249002004230870237065
:101B8000104B02220120104C0A7018703C210F48A3
:101B90002160002208342260016008300260FFF7F3
:101BA000C9FE0B4801F0CAFF10BD000084C01FE051
:101BB0008CC01FE088C01FE080C01FE004C01FE091
:101BC00000C01FE000C11FE00C4000E00C8000E0FE
:101BD000040B000010B51D4B25221A7056201C4A1C
:101BE000444201215520043B1470107019701949AA
:101BF0001470107001220B889C0A1442FBD0164806
:101C000003210170562312495C4255220C700A7060
:101C1000124C13490020042308702370114B022238
:101C20000120114C0A7018703C21104821600022DC
:101C300008342260016008300260FFF77BFE0C4828
:101C400001F07CFF0120FEF723FE10BD84C01FE0E1
:101C50008CC01FE088C01FE080C01FE004C01FE0F0
:101C600000C01FE000C11FE00C4000E00C8000E05D
:101C7000040B000010B51D4B25221A7056201C4A7B
:101C8000444201215520043B147010701970194909
:101C90001470107001220B889C0A1442FBD0164865
:101CA00003210170562312495C4255220C700A70C0
:101CB000124C13490020042308702370114B022298
:101CC0000120114C0A7018703C211048216000223C
:101CD00008342260016008300260FFF72BFE0C48D8
:101CE00001F02CFF0020FEF7D3FD10BD84C01FE0E3
:101CF0008CC01FE088C01FE080C01FE004C01FE050
:101D000000C01FE000C11FE00C4000E00C8000E0BC
:101D1000040B000000B5074902220A60064A0023AE
:101D2000136001230B6011688142FCD30148022338
:101D3000036000BD044000E0084000E004490223C5
:101D400004480B600022012302600B607047000012
:101D5000048000E0088000E0024B18680222043B87
:101D60001A607047088000E0014B18687047000057
:101D7000088000E0014B400418607047088002E0D2
:101D8000014B1868400C7047008002E0014B400492
:101D900018607047048002E0014B400418607047EF
:101DA0000C8002E0034B4204C1431A60480408332C
:101DB00018607047048002E030B504041B4B1C48D7
:101DC0001C4A1860043B09061A601E20250C0C0EE4
:101DD000FFF7A0FF184901220868C30E1342FBD188
:101DE00080218A048023E902214310489C0021437A
:101DF000124D02604A0410492A6001220C68E50E67
:101E00001542FBD10C4901220868C30E1342FBD0D6
:101E1000064A8025E9041160074901220B68DC0E9F
:101E20001442FBD1064A0148026030BD0C8002E03A
:101E30000000FEFF0000FEF7008002E0048002E0E8
:101E40000000FEF110B51C491C4A03040A60F6208C
:101E50001B4A1C0C030613601E20FFF75BFF194989
:101E600001220B68D80E1042FBD1C023E0029A0079
:101E70001043154C41042160124901220868C40E28
:101E80001442FBD10F4C01222368D90E1142FBD022
:101E90006420FFF73FFF20688021074ACC04C3017C
:101EA00008491460180E01220B68DC0E1442FBD1A5
:101EB000064A01490A6010BD0C8002E00000FEFFE6
:101EC000088002E0008002E0048002E00000FEF3EF
:101ED00000B50348FFF74EFF0248FFF75DFF00BD66
:101EE000FF7F0000FF07000010B580208400201C49
:101EF000FFF74CFF201CFFF749FF201CFFF74CFFAA
:101F0000201CFFF749FF10BD30B50006050E072461
:101F100003E0FFF73BFF013C09D480214B04A340C1
:101F2000180E0542F5D1FFF737FF013CF5D530BD5E
:101F300030B51E48FFF730FFB825072403E0FFF750
:101F400025FF013C09D480204304A340180E05421C
:101F5000F5D1FFF721FF013CF5D5FFF7C5FF40257F
:101F6000072403E0FFF712FF013C09D4802251044B
:101F7000A140080E0542F5D1FFF70EFF013CF5D553
:101F8000FFF7B2FFC025072403E0FFF7FFFE013C87
:101F900009D480204304A340180E0542F5D1FFF771
:101FA000FBFE013CF5D5FFF79FFF30BDFF060000AB
:101FB00030B55648FFF7DEFE5548FFF7EDFE5548B1
:101FC000FFF7A8FE3F25072403E0FFF7DFFE013CF3
:101FD00009D480204304A340180E0542F5D1FFF731
:101FE000DBFE013CF5D5FFF77FFF4B48FFF7D4FE42
:101FF000B825072403E0FFF7C9FE013C09D480227D
:102000005104A140080E0542F5D1FFF7C5FE013C81
:10201000F5D5FFF769FF4025072403E0FFF7B6FE7B
:10202000013C09D480204304A340180E0542F5D199
:10203000FFF7B2FE013CF5D5FFF756FFC025072498
:1020400003E0FFF7A3FE013C09D480225104A14024
:10205000080E0542F5D1FFF79FFE013CF5D580241F
:10206000FFF742FF2001FFF791FE3F25072403E021
:10207000FFF78CFE013C09D480204304A340180ED6
:102080000542F5D1FFF788FE013CF5D5FFF72CFF9F
:102090002148FFF781FEB825072403E0FFF776FE0D
:1020A000013C09D480225104A140080E0542F5D11B
:1020B000FFF772FE013CF5D5FFF716FF4025072418
:1020C00003E0FFF763FE013C09D480204304A340F2
:1020D000180E0542F5D1FFF75FFE013CF5D5FFF77D
:1020E00003FFC025072403E0FFF750FE013C09D49D
:1020F00080225104A140080E0542F5D1FFF74CFEA5
:10210000013CF5D5FFF7F0FE30BD0000FF7F000079
:10211000FF07000010270000FF060000F0B55F4633
:1021200056464D464446F0B481B000218246A94847
:102130000091FFF71FFEA848FFF72EFEF020C00118
:10214000FFF72AFEA548FFF727FEB825072403E07E
:10215000FFF71CFE013C09D480225304A340180E53
:102160000542F5D1FFF718FE013CF5D5FFF7BCFE9F
:102170004025072403E0FFF709FE013C09D480272E
:102180007E04A640300E0542F5D1FFF705FE013C66
:10219000F5D5FFF7A9FEC025072403E0FFF7F6FDFC
:1021A000013C09D480204104A140080E0542F5D12C
:1021B000FFF7F2FD013CF5D5FFF796FE51460C788E
:1021C000002C00D17EE0002291468027F800FFF726
:1021D000E3FD0120FFF79EFD482675424846054372
:1021E0002B061D0E072403E0FFF7D0FD013C09D4A8
:1021F00080225104A140080E0542F5D1FFF7CCFD25
:10220000013CF5D5FFF770FE4025072403E0FFF7FA
:10221000BDFD013C09D480204304A340180E0542B3
:10222000F5D1FFF7B9FD013CF5D58025FFF75CFE40
:10223000E800FFF7ABFD0120FFF76CFD49464C06B7
:102240000022260C90460127504643684046002550
:102250000022C11893019C192004030CCC5C002CB3
:1022600004D03C1C94402C432006050E501C030453
:102270001A0C072AEED9072403E0FFF787FD013C7B
:1022800009D4391CA1400A06100E0542F5D1FFF70A
:1022900083FD013CF5D5FFF727FE434601331D04BE
:1022A0002B0C98463F2BCFD94B4601331E04330CE1
:1022B0009946072B89D901B078BC9846A146AA4611
:1022C000B346F0BD00218B468025E800FFF764FD92
:1022D0000120FFF71FFD482044425A4614432706B9
:1022E0003D0E072403E0FFF751FD013C09D4802394
:1022F0005E04A640300E0542F5D1FFF74DFD013CCE
:10230000F5D5FFF7F1FD4025072403E0FFF73EFD7B
:10231000013C09D480277904A140080E0542F5D17B
:10232000FFF73AFD013CF5D5FFF7DEFD8022D00036
:10233000FFF72CFD0120FFF7EDFC009F3B1C08334D
:1023400099464F4537DA0126002188465346596899
:1023500000250022D300D8190404230CCC5C40468D
:102360000441344204D0301C904028430406250E1A
:10237000541C23041A0C072AECD9072403E0FFF7A6
:1023800005FD013C09D4311CA1400A06100E05428E
:10239000F5D1FFF701FD013CF5D5FFF7A5FD43465B
:1023A00001331D042B0C9846072BCFD97C1C20042D
:1023B000070C4F45C8DB00995B46013340310A04E6
:1023C0001E04170C330C00979B46072B00D87BE7A5
:1023D00071E70000FF7F0000FF070000FF0600001C
:1023E000F0B55F4656464D464446F0B481B00022F3
:1023F0008246AB480092FFF7BDFCAA48FFF7CCFC31
:10240000F021C801FFF7C8FC80200001FFF7BEFCE7
:10241000A548FFF7C1FCB825072403E0FFF7B6FC89
:10242000013C09D480267304A340180E0542F5D15F
:10243000FFF7B2FC013CF5D5FFF756FD4025072418
:1024400003E0FFF7A3FC013C09D480204704A74028
:10245000380E0542F5D1FFF79FFC013CF5D5FFF79B
:1024600043FDC025072403E0FFF790FC013C09D49D
:1024700080225104A140080E0542F5D1FFF78CFCE3
:10248000013CF5D5FFF730FD51460C78002C00D00B
:102490008CE0002293468027F800FFF77DFC0120A6
:1024A000FFF738FC48267542584605432B061D0E9B
:1024B000072403E0FFF76AFC013C09D480225104A1
:1024C000A140080E0542F5D1FFF766FC013CF5D5A9
:1024D000FFF70AFD4025072403E0FFF757FC013C06
:1024E00009D480204304A340180E0542F5D1FFF71C
:1024F00053FC013CF5D58025FFF7F6FCE800FFF71B
:1025000045FC0120FFF706FC009F391C0831894675
:102510004F4537DA0126002398465046416800258A
:102520000022D300D8190404230CCC5C404604419B
:10253000344204D0301C904028430406250E541C1D
:1025400023041A0C072AECD9072403E0FFF71EFC2A
:10255000013C09D4311CA1400A06100E0542F5D1F8
:10256000FFF71AFC013CF5D5FFF7BEFC43460133EB
:102570001D042B0C9846072BCFD97C1C2004070C7C
:102580004F45C8DB00995B46013340310A041E0405
:10259000170C330C00979B46072B00D87BE701B044
:1025A00078BC9846A146AA46B346F0BD00218946AC
:1025B0008026F000FFF7F0FB0120FFF7ABFB48247B
:1025C00065424A4615432806050E072403E0FFF737
:1025D000DDFB013C09D480277B04A340180E054293
:1025E000F5D1FFF7D9FB013CF5D5FFF77DFC402580
:1025F000072403E0FFF7CAFB013C09D48020410413
:10260000A140080E0542F5D1FFF7C6FB013CF5D508
:10261000FFF76AFC8022D000FFF7B8FB0120FFF72C
:1026200079FB4846450600212E0C88460127504676
:10263000446840460025002201199401A31918049A
:10264000040C0B5D002B04D03B1C93402B4318065D
:10265000050E501C0404220C072AEED9072403E0BF
:10266000FFF794FB013C09D43A1CA2401106080E66
:102670000542F5D1FFF790FB013CF5D5FFF734FC9F
:10268000434601331D042B0C98463F2BCFD94B46B4
:1026900001331E04330C9946072B89D97FE70000CC
:1026A000FF7F0000FF070000FF060000F0B55F4657
:1026B00056464D464446F0B482B082460020019012
:1026C000B848FFF757FBB848FFF766FB51460B7851
:1026D000002B00D192E1F022D001FFF75DFBB3485F
:1026E000FFF75AFBB825072403E0FFF74FFB013C37
:1026F00009D480277E04A640300E0542F5D1FFF7AD
:102700004BFB013CF5D5FFF7EFFB4025072403E029
:10271000FFF73CFB013C09D480214B04A340180E79
:102720000542F5D1FFF738FB013CF5D5FFF7DCFB9F
:10273000C025072403E0FFF729FB013C09D48020D2
:102740004204A240100E0542F5D1FFF725FB013CE3
:10275000F5D5FFF7C9FB002291468021C800FFF79D
:102760001BFB8023D8008027FFF716FBF800FFF73C
:1027700013FB48267542484605432C06250E0724C0
:1027800003E0FFF703FB013C09D480204204A24090
:10279000100E0542F5D1FFF7FFFA013CF5D5FFF722
:1027A000A3FB4025072403E0FFF7F0FA013C09D41E
:1027B00080277E04A640300E0542F5D1FFF7ECFAE3
:1027C000013CF5D5FFF790FB8020C000FFF7DEFA53
:1027D0008023D8008025FFF7D9FAE800FFF7D6FA62
:1027E00049468C060022260C904601275046446834
:1027F0004046002500220119D401A3191804040C35
:102800000B5D002B04D03B1C93402B431806050E98
:10281000501C0404220C072AEED9072403E0FFF71A
:10282000B5FA013C09D4391CA1400A06100E054234
:10283000F5D1FFF7B1FA013CF5D5FFF755FB43465B
:1028400001331D042B0C98463F2BCFD94B46013347
:102850001E04330C9946072B00D87EE780273801E9
:10286000FFF794FA5148FFF797FAB825072403E0D9
:10287000FFF78CFA013C09D480204204A240100EDC
:102880000542F5D1FFF788FA013CF5D5FFF72CFB9F
:102890004025072403E0FFF779FA013C09D480269C
:1028A0007104A140080E0542F5D1FFF775FA013C0D
:1028B000F5D5FFF719FBC025072403E0FFF766FAFB
:1028C000013C09D480277B04A340180E0542F5D1B2
:1028D000FFF762FA013CF5D5FFF706FB00218946B8
:1028E0008027F800FFF758FA8023D8008026FFF7EA
:1028F00053FAF000FFF750FA482045424A46154384
:102900002C06250E072403E0FFF740FA013C09D40A
:1029100080225104A140080E0542F5D1FFF73CFA90
:10292000013CF5D5FFF7E0FA4025072403E0FFF767
:102930002DFA013C09D480204604A640300E054201
:10294000F5D1FFF729FA013CF5D58027FFF7CCFA3E
:10295000F800FFF71BFA8023D8008025FFF716FA4E
:10296000E800FFF713FA484684064021260C884603
:102970000127504644684046002500220119D40131
:10298000A3191804040C0B5D002B04D03B1C9340CE
:102990002B431806050E501C0404220C072AEED9FE
:1029A000072409E0FF7F0000FF070000FF0600008A
:1029B000FFF7ECF9013C09D4391CA1400A06100EBE
:1029C0000542F5D1FFF7E8F9013CF5D5FFF78CFAA0
:1029D000434601331D042B0C98467F2BC9D94B4627
:1029E00001331E04330C9946072B00D878E702B058
:1029F00078BC9846A146AA46B346F0BDF027F80138
:102A0000FFF7CAF9BA48FFF7C7F9B825072403E06A
:102A1000FFF7BCF9013C09D480204204A240100E0B
:102A20000542F5D1FFF7B8F9013CF5D5FFF75CFA9F
:102A30004025072403E0FFF7A9F9013C09D48026CB
:102A40007104A140080E0542F5D1FFF7A5F9013C3C
:102A5000F5D5FFF749FAC025072403E0FFF796F9FB
:102A6000013C09D480277B04A340180E0542F5D110
:102A7000FFF792F9013CF5D5FFF736FA00218B46B6
:102A80008027F800FFF788F98023D8008026FFF719
:102A900083F9F000FFF780F9482045425A46154374
:102AA0002C06250E072403E0FFF770F9013C09D43A
:102AB00080225104A140080E0542F5D1FFF76CF9C0
:102AC000013CF5D5FFF710FA4025072403E0FFF796
:102AD0005DF9013C09D480204604A640300E054231
:102AE000F5D1FFF759F9013CF5D5FFF7FDF9802144
:102AF000C8008027FFF74AF98025F800FFF746F95C
:102B0000E800FFF743F9019F3B1C083399464F4506
:102B100037DA0126002188465346596800250022ED
:102B20001301D8190404230CCC5C40460441344200
:102B300004D0301C904028430406250E541C230466
:102B40001A0C072AECD9072403E0FFF71FF9013C10
:102B500009D4311CA1400A06100E0542F5D1FFF739
:102B60001BF9013CF5D5FFF7BFF9434601331D04BE
:102B70002B0C9846072BCFD97C1C2004070C4F4503
:102B8000C8DB01995B46013380310A041E04170C2F
:102B9000330C01979B46072B00D871E7802528014D
:102BA000FFF7F4F85248FFF7F7F8B825072403E0D9
:102BB000FFF7ECF8013C09D480204604A640300E13
:102BC0000542F5D1FFF7E8F8013CF5D5FFF78CF9A0
:102BD0004025072403E0FFF7D9F8013C09D48027FA
:102BE0007B04A340180E0542F5D1FFF7D5F8013C50
:102BF000F5D5FFF779F9C025072403E0FFF7C6F8FC
:102C0000013C09D480214A04A240100E0542F5D1AE
:102C1000FFF7C2F8013CF5D5FFF766F900210091F6
:102C20008B468022D0008027FFF7B6F8F800FFF728
:102C3000B3F88023D800FFF7AFF84820009E454244
:102C400035432C06250E072403E0FFF79FF8013CCF
:102C500009D480267104A140080E0542F5D1FFF782
:102C60009BF8013CF5D5FFF73FF94025072403E029
:102C7000FFF78CF8013C09D480204304A340180ED0
:102C80000542F5D1FFF788F8013CF5D58027FFF71D
:102C90002BF98025F800FFF779F88024E800FFF78A
:102CA00075F8E000FFF772F808235B445F46994629
:102CB0009B453BDA01260020804653465968002593
:102CC00000221301D81908300404230CCC5C4046C0
:102CD0000441344204D0301C904028430406250EA1
:102CE000541C23041A0C072AEBD9072406E0000021
:102CF000FF060000FFF74AF8013C09D4311CA1404F
:102D00000A06100E0542F5D1FFF746F8013CF5D54D
:102D1000FFF7EAF8434601331D042B0C9846072BB6
:102D2000CBD97C1C2004070C4F45C4DB009A5B46C2
:102D300080330132190417040B0C3E0C9B4600969D
:102D4000072E00D86DE752E670B5134E0324051C1C
:102D5000347003200121FFF72FF830782979FFF72D
:102D60002BF83078A978FFF727F86A883078110AAD
:102D7000FFF722F82988FF20090A04023078FFF7BC
:102D80001BF82988214200D070BD0B063078190E3F
:102D9000FFF712F8F8E700000000004070B5134E8E
:102DA0000224051C347002200121FFF705F8307859
:102DB0002979FFF701F83078A978FEF7FDFF6A88D6
:102DC0003078110AFEF7F8FF2988FF20090A04026B
:102DD0003078FEF7F1FF2988214200D070BD0B0644
:102DE0003078190EFEF7E8FFF8E700000000004019
:102DF00000B5034B11211878FEF7DEFF00BD00007F
:102E00000000004010B5054C03212078FEF7D4FFE8
:102E10002078FFF717F80006000E10BD00000040F4
:102E200030B5094C094D227803212A702170032006
:102E30000321FEF7C1FF2078FFF704F82B78000686
:102E4000000E237030BD000000000040847F004071
:102E500030B5154C01060D0E20780321FEF7ACFFAE
:102E60002078FEF7EFFF0006000E052D05D80F4A6B
:102E7000AC00A3589F46830603D5002030BDC3078E
:102E8000FBD40120FAE78307F7D40120F6E74307D4
:102E9000F3D40120F2E70307EFD40120EEE7C306E5
:102EA000EBD40120EAE7000000000040848B000022
:102EB00030B5194C19492278032300060A70237093
:102EC0000321050E0320FEF777FF2078FEF7BAFFF7
:102ED0000006000E052D05D8114BAC00E558AF4695
:102EE000830607D500200D4D0B492A780A7030BDA6
:102EF000C307F7D40120F6E78307F3D40120F2E7F4
:102F00004307EFD40120EEE70307EBD40120EAE703
:102F1000C306E7D40120E6E700000040847F0040BC
:102F20009C8B000030B5064D01060C0E287804215C
:102F3000FEF742FF2878211CFEF73EFF30BD00005F
:102F40000000004070B5094C094E217802060320AC
:102F5000150E3170207004210320FEF72DFF291C6F
:102F60002078FEF729FF3378237070BD0000004001
:102F7000847F004070B5284C090602060E0E2078AA
:102F80000321150EFEF718FF2078FEF75BFF000601
:102F9000000E052D13D8AC00204D63599F46002E1E
:102FA00027D1031C102213431E06350E1A4C042190
:102FB0002078FEF701FF2078291CFEF7FDFE70BD8A
:102FC000002E25D0DF250540F0E7002E1DD0FE2580
:102FD0000540EBE7002E15D0FD250540E6E7002E65
:102FE0000DD0FB250540E1E7002E05D0F725054073
:102FF000DCE7EF250540D9E7031C0822D3E7031CD3
:103000000422D0E7031C0222CDE7031C0122CAE7F9
:10301000031C2022C7E7000000000040B48B000022
:1030200000B50006000E0021FFF7A4FF00BD000060
:1030300030B5074C074D2278032100062A70217015
:10304000000E0021FFF796FF2B78237030BD0000A3
:1030500000000040847F004000B50006000E012102
:10306000FFF788FF00BD000030B5074C074D227800
:10307000032100062A702170000E0121FFF77AFF5C
:103080002B78237030BD000000000040847F00409A
:1030900030B50006040E032C05D9052C03D0042CF2
:1030A00016D0002030BD0E4D02212878FEF784FE98
:1030B000052C0AD02878211CFEF77EFE084B1878D4
:1030C000FEF7C0FE0106080EECE728780421F3E7BE
:1030D000034C10212078FEF76FFE2078F0E7000007
:1030E0000000004030B5074C074D2378010603224D
:1030F0002B702270080EFFF7CBFF2B780006000E16
:10310000237030BD00000040847F004010B5054CA6
:103110000A212078FEF750FE2078FEF793FE000685
:10312000000E10BD0000004030B5094C094D22785A
:1031300003212A70217003200A21FEF73DFE20782A
:10314000FEF780FE2B780006000E237030BD0000D5
:1031500000000040847F004030B5194C01060D0E80
:1031600020780A21FEF728FE2078FEF76BFE000685
:10317000000E072D05D8134AAC00A3589F464306FE
:1031800008D5002030BD01060816C543E80FF9E751
:10319000C307F6D40120F5E78307F2D40120F1E755
:1031A0004307EED40120EDE70307EAD40120E9E765
:1031B000C306E6D40120E5E78306E2D40120E1E777
:1031C00000000040CC8B000030B51E4C1E49227818
:1031D000032300060A7023700A21050E0320FEF760
:1031E000EBFD2078FEF72EFE0006000E072D05D819
:1031F000164BAC00E558AF4643060CD50020124BE9
:10320000104C1978217030BD05062A16D143C80F1D
:10321000F5E7C307F2D40120F1E78307EED40120DC
:10322000EDE74307EAD40120E9E70307E6D40120EC
:10323000E5E7C306E2D40120E1E78306DED40120FE
:10324000DDE7000000000040847F0040EC8B0000C0
:1032500030B5064D01060C0E28780B21FEF7ACFDAB
:103260002878211CFEF7A8FD30BD000000000040BA
:1032700070B5094C094E217802060320150E3170F5
:1032800020700B210320FEF797FD291C2078FEF704
:1032900093FD3378237070BD00000040847F0040B0
:1032A00070B5304C090602060D0E20780A21160E64
:1032B000FEF782FD2078FEF7C5FD0006000E072E02
:1032C00013D8B400284EA3599F46002D31D1031CBA
:1032D000402213431806050E224C0B212078FEF7DE
:1032E0006BFD2078291CFEF767FD70BD002D35D0E1
:1032F0007F250540F0E7002D2DD0FE250540EBE7AA
:10330000002D25D0FD250540E6E7002D1DD0FB252D
:103310000540E1E7002D15D0F7250540DCE7002D3D
:103320000DD0EF250540D7E7002D05D0DF2505405E
:10333000D2E7BF250540CFE7031C2022C9E7031CC5
:103340001022C6E7031C0822C3E7031C0422C0E7BF
:10335000031C0222BDE7031C0122BAE78025031CDF
:103360006A42B6E7000000400C8C000000B5000681
:10337000000E0021FFF794FF00BD000030B5074CA0
:10338000074D2278032100062A702170000E0021CB
:10339000FFF786FF2B78237030BD0000000000404F
:1033A000847F004000B50006000E0121FFF778FF82
:1033B00000BD000030B5074C074D22780321000600
:1033C0002A702170000E0121FFF76AFF2B7823700D
:1033D00030BD000000000040847F004010B5054C67
:1033E00005212078FEF7E8FC2078FEF72BFD00068B
:1033F000000E10BD0000004030B5094C094D227888
:1034000003212A70217003200521FEF7D5FC2078C6
:10341000FEF718FD2B780006000E237030BD00006B
:1034200000000040847F004030B5154C01060D0EB1
:1034300020780521FEF7C0FC2078FEF703FD00068A
:10344000000E072D05D80F4AAC00A3589F4643062F
:1034500008D5002030BD01060816C543E80FF9E77E
:10346000C307F6D40120F5E78307F2D40120F1E782
:103470004307EED40120EDE70307EAD40120E9E792
:10348000000000402C8C000030B51A4C1A492278FC
:10349000032300060A7023700521050E0320FEF7A2
:1034A0008BFC2078FEF7CEFC0006000E072D05D819
:1034B000124BAC00E558AF4643060CD500200E4B2E
:1034C0000C4C1978217030BD05062A16D143C80F5F
:1034D000F5E7C307F2D40120F1E78307EED401201A
:1034E000EDE74307EAD40120E9E70307E6D401202A
:1034F000E5E7000000000040847F00404C8C0000A5
:1035000030B5064D01060C0E28780621FEF754FC56
:103510002878211CFEF750FC30BD00000000004060
:1035200070B5094C094E217802060320150E317042
:10353000207006210320FEF73FFC291C2078FEF7AF
:103540003BFC3378237070BD00000040847F004056
:1035500030B5184C01060D0E20780521FEF72CFC25
:103560002078FEF76FFC0006000E072D12D8124AD5
:10357000AC00A3589F468025031C6A420D4C1343A0
:103580001806050E06212078FEF716FC2078291C67
:10359000FEF712FC30BD031C0122EFE7031C0222E0
:1035A000ECE7031C0422E9E7031C0822E6E7031CFE
:1035B0004022E3E7000000406C8C000030B51D4C59
:1035C0001D492278032300060A7023700521050E89
:1035D0000320FEF7F1FB2078FEF734FC0006000E16
:1035E000072D12D8154BAC00E558AF468021031CBF
:1035F0004A42104C13431A06150E20780621FEF796
:10360000DBFB2078291CFEF7D7FB0B4B0948197808
:10361000017030BD031C0122EBE7031C0222E8E726
:10362000031C0422E5E7031C0822E2E7031C4022F6
:10363000DFE7000000000040847F00408C8C000029
:1036400030B5144C01060D0E20780521FEF7B4FBB1
:103650002078FEF7F7FB0006000E072D0ED80E4A65
:10366000AC00A3589F467F250A4C054006212078D0
:10367000FEF7A2FB2078291CFEF79EFB30BDFE253D
:10368000F2E7FD25F0E7FB25EEE7F725ECE7BF25A0
:10369000EAE7000000000040AC8C000030B5184C98
:1036A00018492278032300060A7023700521050EAD
:1036B0000320FEF781FB2078FEF7C4FB0006000E16
:1036C000072D0ED8104BAC00E558AF467F250C4CAB
:1036D000054006212078FEF76FFB2078291CFEF7B5
:1036E0006BFB0848064902780A7030BDFE25EEE7FC
:1036F000FD25ECE7FB25EAE7F725E8E7BF25E6E748
:1037000000000040847F0040CC8C000070B50006B3
:103710000906040E0D0E032C04D9062C02D0072C2A
:1037200000D070BD094E09213078FEF745FB631CBF
:103730001A063078110EFEF73FFB002D00D101254F
:103740003078291CFEF738FBEBE700000000004052
:10375000F0B5134D00060906124A2B780E0E040E22
:103760001370371C032C06D9062C04D0072C02D06A
:1037700014782C70F0BD0321297003200921FEF775
:103780001BFB631C1A062878110EFEF715FB002E92
:1037900000D101272878391CFEF70EFB014AE7E724
:1037A00000000040847F004070B500060906040E4A
:1037B0000D0E032C07D9062C05D0072C03D0082C9E
:1037C00001D0092C11D1094E09213078FEF7F4FA05
:1037D000631C1A063078110EFEF7EEFA002D00D1A8
:1037E00001253078291CFEF7E7FA70BD0000004083
:1037F000F0B5154D00060906144A2B780E0E040E7E
:103800001370371C032C07D9062C05D0072C03D0C6
:10381000082C01D0092C13D1032129700320092180
:10382000FEF7CAFA631C1A062878110EFEF7C4FACE
:10383000002E00D101272878391CFEF7BDFA034A73
:1038400014782C70F0BD000000000040847F004020
:1038500000B5034B08211878FEF7AEFA00BD000052
:103860000000004030B5064C064D21780320297039
:10387000207008210320FEF79FFA2B78237030BDBB
:1038800000000040847F004000B5034B07211878FA
:10389000FEF792FA00BD00000000004030B5064C73
:1038A000064D217803202970207007210320FEF7A0
:1038B00083FA2B78237030BD00000040847F0040E5
:1038C00030B50006050E032D04D9062D02D0072DB4
:1038D00000D030BD054C0E212078FEF76DFA6A1C31
:1038E00011062078090EFEF767FAF2E700000040A3
:1038F00030B50F4D00060F4A2B78040E1370032CC1
:1039000006D9062C04D0072C02D014782C7030BDB8
:1039100003232B7003200E21FEF74EFA621C1106C2
:103920002878090EFEF748FA024A014DEDE700003B
:1039300000000040847F004030B50006050E032DD6
:1039400004D9062D02D0072D00D030BD054C0F2123
:103950002078FEF731FA6A1C11062078090EFEF76E
:103960002BFAF2E70000004030B50F4D00060F4A79
:103970002B78040E1370032C06D9062C04D0072CC8
:1039800002D014782C7030BD03232B7003200F213C
:10399000FEF712FA621C11062878090EFEF70CFADF
:1039A000024A014DEDE7000000000040847F004026
:1039B00030B50006050E032D07D9062D05D0072DBD
:1039C00003D0082D01D0092D0AD1064C0E212078F4
:1039D000FEF7F2F96A1C11062078090EFEF7ECF9E1
:1039E00030BD00000000004030B5104D0006104A08
:1039F0002B78040E1370032C07D9062C05D0072C46
:103A000003D0082C01D0092C0DD103232B700320E7
:103A10000E21FEF7D1F9621C11062878090EFEF777
:103A2000CBF9034A014D14782C7030BD00000040E2
:103A3000847F004030B50006050E032D07D9062D02
:103A400005D0072D03D0082D01D0092D0AD1064C31
:103A50000F212078FEF7B0F96A1C11062078090EB4
:103A6000FEF7AAF930BD00000000004030B5104D4F
:103A70000006104A2B78040E1370032C07D9062C6D
:103A800005D0072C03D0082C01D0092C0DD103231D
:103A90002B7003200F21FEF78FF9621C1106287886
:103AA000090EFEF789F9034A014D14782C7030BDD8
:103AB00000000040847F004030B5084D01060C0E28
:103AC00028780D21FEF778F92878211CFEF774F983
:103AD0002878FEF7B7F90006000E30BD0000004060
:103AE00070B50406250E0B4C0B4E22780321327064
:103AF000217003200D21FEF75FF9291C2078FEF7C5
:103B00005BF92078FEF79EF933780006000E2370EB
:103B100070BD000000000040847F004030B5064DBD
:103B200001060C0E28781221FEF746F92878211C90
:103B3000FEF742F930BD00000000004000B54649E4
:103B40000B68052213430B600B680A2293430B603A
:103B5000424B07227D211A704A42043300041A7036
:103B60003F4A000C0240082A16D0082A06DC022A26
:103B700000D16CE0022A64DC21220FE08021CB011D
:103B80009A4266D09A4253DC102AF5D179235942E1
:103B9000344B0122197004E03D225242314B1A701D
:103BA00000220433F0211A704A000240402A37D024
:103BB000402A17DC202A48D003222B49C0230A7050
:103BC000DA0080210240CB009A4217D0E022920115
:103BD0000240802043019A421CD080218B019A42EE
:103BE00020D000BD802AE7D11F490222C0230A70DD
:103BF000DA0080210240CB009A42E7D11A4B1A78B2
:103C000004210A431A70E0229201024080204301FD
:103C10009A42E2D1144B1A7808210A431A70E0E75D
:103C20000122CAE7104B1A7818210A431A70D8E704
:103C300080210B029A429FD10A4B0E221A70032256
:103C4000AFE7042A98D16222A8E70022B5E7412213
:103C5000A4E71022A2E7000000C002E008C000E0D4
:103C60001FC0000000C000E00CC000E000B500066E
:103C70000449000E01220B785B091342FBD0024974
:103C8000087000BD14C000E000C000E070B5051C65
:103C90000022081E0BD0064C064E012123785B093A
:103CA0000B42FBD0AB5C013233708242F6D370BD65
:103CB00014C000E000C000E000B5054901220B7807
:103CC0001A42FCD0034A11780806000E00BD00001D
:103CD00014C000E000C000E000B505490B78DA0729
:103CE00004D5044B1A780270012000BD0020FCE7C7
:103CF00014C000E000C000E070B5051C00220C1EDE
:103D00000AD00648064E012103781942FCD03378C8
:103D1000AB540132A242F7D370BD000014C000E0E2
:103D200000C000E0F0B55F4656464D464446F0B44C
:103D3000161C002283B0051C904691460C1E7FD1B4
:103D40006B4630261E705A700C9C2023E8466F4646
:103D500000209C460021002C0FDD6A4601321478B9
:103D60000131002CFAD10C9A914200DA2EE10024A4
:103D70000D998A0701D530239C460D9AD20720D48D
:103D8000002C1EDD9B4BE246994609E029686246FD
:103D90000A702E68013C01362E600130002C0EDDC9
:103DA000002DF3D19449564601220B785B0913424A
:103DB000FBD04B46013C1E700130002CF0DC42462B
:103DC00016783306002B1FD08A4A90460AE02968ED
:103DD0000A702E6801362E6001373A7813060130DA
:103DE000002B11D01A0E002DF1D18349161C01228F
:103DF0000B785B091342FBD043461E7001373A78BB
:103E000013060130002BEDD1002C00DCCDE0794F02
:103E1000E0460AE0296863460B702E6801362E6082
:103E2000013C0130002C00DCBFE0002DF2D17249D2
:103E3000464601220B785B091342FBD03E70EFE748
:103E4000002B00D0B8E06F460B3700203870002CF4
:103E500013D0201C311C03F0A7FD092803DD0E9AA6
:103E60001118081C3A38031C013F3033201C3B70EA
:103E7000311C03F011FD041EEBD14346002B15D07D
:103E80000C9C002C00D1A7E00D9EB30700D4A3E04A
:103E9000002D00D1A4E029682D220A702868013085
:103EA00028600C99013901220C9191460C9920222D
:103EB0003E1C002090460024002911DD3B783A1C6E
:103EC00002E0013213780134002BFAD10C9B9C42A2
:103ED00000DA7EE000210D9CA30701D53022904638
:103EE0000D9BDB071FD400291DDD424AC2469346C5
:103EF00009E02B6842461A702C68013901342C60A5
:103F0000013000290FDD002DF3D13B4CD4460122B6
:103F100023785B091342FBD064465B4601391C7071
:103F200001300029EFDC3A781306002B1FD0314A0C
:103F300094460AE02B681A702F6801372F6001360B
:103F4000347823060130002B11D01A0E002DF1D148
:103F5000294C171C012223785B091342FBD06346CE
:103F60001F700136347823060130002BEDD1002973
:103F70001ADD204FC44609E02B6842461A702E68AD
:103F8000013901362E60013000290DDD002DF3D1FD
:103F9000194C6646012223785B091342FBD0013994
:103FA0003E7001300029F1DC484403B078BC9846EB
:103FB000A146AA46B346F0BD0A2E00D043E7002C26
:103FC00000DB40E70123984664423CE70C9B5C1A07
:103FD000CEE60C9A111B7EE7013F2D233B7065E76F
:103FE000054901220C7863091342FBD0014E2D20B4
:103FF000307056E700C000E014C000E0F0B55F4646
:1040000056464D464446F0B408C91C1C051C207891
:104010000022030685B092468B46002B14D0190E61
:1040200025291ED022781606320E002D00D198E0E8
:104030002868027029680131012229609244013404
:1040400020780306002BEAD1002D02D02C68002531
:104050002570504605B078BC9846A146AA46B3469E
:10406000F0BD01342278002398460027002AEBD0C7
:10407000252AD8D02D2A00D111E11006060E302EA7
:104080007AD0101C30380606310E09290FD80A21C3
:104090003B1C4B431606370EFA180134171C2278C6
:1040A000101C30380606330E303F092BF0D91106AC
:1040B0000A0E732A69D0642A00D1F7E0782A00D169
:1040C00006E1582A00D111E1752A00D118E1632ACE
:1040D000B5D15B4604339B46043B1B68694600260A
:1040E0000B744E749946202104AB9C460026039124
:1040F0000020391E11DD49461A1C0B0602E0013270
:1041000013780130002BFAD1B84200DB06E1391AEE
:104110004246920701D5302703974246D20700D581
:10412000FEE0002900DCFBE0039BA04A9846914694
:104130000BE06A462F68127B3A70286801302860CD
:1041400001390136002900DCEAE0002DF1D1984860
:104150004746012203785B091342FBD04B461F7090
:10416000EEE79348012103785F090F42FBD08F4EA1
:1041700032700122924462E7022142460A4301342E
:1041800090462278302AF8D07BE75B4604339B4682
:10419000043B40CB002E00D1864E202200219146C8
:1041A000381C8C460022002F0FDD3378311C02E0D2
:1041B00001310B780132002BFAD1BA4274DAB81A05
:1041C00043469B0701D5302189464246D2071ED47B
:1041D00000281CDDC8460AE02B68494619702F6884
:1041E00001372F6001380127BC4400280FDD002D66
:1041F000F2D16F49474601220B785B091342FBD08D
:104200006A4A013817700127BC440028EFDC317876
:104210000B06002B21D0654988460BE02F683A70C9
:104220002B6801332B600136317801270B06BC4423
:10423000002B12D01A0E002DF0D15D49171C01225F
:104240000B785B091342FBD0424617700136317878
:1042500001270B06BC44002BECD100281CDD534F7A
:10426000C8460AE02B684A461A702E6801210136BA
:1042700001382E608C4400280EDD002DF2D14C490F
:10428000464601220B785B091342FBD0012101381D
:104290003E708C440028F0DCE2440134D0E6013466
:1042A000012122788846E8E6002089E75B4604334E
:1042B0009B46043B02CB424661200097019202904C
:1042C0000A22281C0123FFF72DFD01348244B7E6A2
:1042D0005B4604339B464246043B02CB0097019267
:1042E00061230293281C10220023ECE75B46043371
:1042F0009B46043B02CB4246412300970192F0E7E4
:104300005B4604339B46043B02CB42460097019236
:104310006127281C0A2200230297D4E70021F7E630
:104320006A46107C0306002B1CD0204A90460CE005
:104330002B681A702F6801372F600127BC44624632
:10434000107803060136002B0CD01A0E002DEFD189
:104350001748171C012203785B091342FBD0434620
:104360001F70EAE700291EDD039B104A9C46904619
:104370000AE06A462F68127B3A70286801390130DA
:104380002860013600290EDD002DF2D1084867466D
:10439000012203785B091342FBD0434601391F70A9
:1043A00001360029F0DCB244013449E600C000E0E7
:1043B00014C000E0608F00000FB400B5002001A918
:1043C000FFF71CFE08BC04B0184700000FB400B58E
:1043D0000C490122087843091342FBD00A49012203
:1043E0000A70002001A9FFF709FE0649012208789A
:1043F00043091342FBD0044901220A7008BC04B0EF
:104400001847000014C000E000C000E0F0B54746C7
:1044100080B4804609061C48090E0122047863090D
:104420001342FBD019480622027017480122067871
:1044300075091542FBD0154F3970134901220B78CD
:104440001A42FCD01149104E0A78002501240F1C95
:1044500043465A5D317848092042FBD03A70FA222F
:10446000281C510003F0A0FA002805D006490122BB
:104470000B781A42FCD03B78054B01359D42E7D9B9
:1044800008BC9846F0BD000014C000E000C000E089
:104490003F29000070B52C4C051C00262868025DE1
:1044A000D10093015B1891006A685B18115D972237
:1044B0004A439B18AA68125D11015B18D1005B1872
:1044C00092009B18190A0155601E03041C0C7618F3
:1044D000002CE3D1002E2CDB301C04F033F91B49F7
:1044E00004F022FA04F0F2FA1749012600240DE044
:1044F00056542B686A685B5C53542B68AA685B5CF3
:1045000053544B1E1A04110C002911D02A68535C15
:104510008342EDD354542B686A685B5C53542B6818
:10452000AA685B5C53544B1E1A04110C0029EDD190
:1045300070BD012030407408204304F003F9011CD1
:1045400004F018F8CBE700003F2900000080774610
:10455000F0B55F4656464D464446F0B488B00790E5
:104560000568079C07986168826800239846029551
:104570000695059104929BE01D1C049B4146CA5C74
:1045800069460A70049F4446E35DAB4200D8AEE042
:104590001D1C49466E1A3004060C002E00D101265F
:1045A0005A461406220E0027AA4200D1C1E06946ED
:1045B00009790806010EA94200D1D5E068460078C5
:1045C0000406230EAB4200D1D8E0039B180400146C
:1045D00004F0B8F83204041C1014924604F0B2F847
:1045E000011C201C04F0A0F9041C381C04F0AAF8DB
:1045F000011C201C03F0BEFF674904F0CBF804F057
:1046000065FA01040C0C0F140394FF2F00DC8BE0FF
:104610000F275446F3052614180CB40121180A0478
:10462000130C7001C41821040A0C330198180404F7
:104630004946FF26200C6C187100251C8C425BD06B
:10464000FF2C5AD8211C03F027F9631C6C462679ED
:1046500001045A46080C3506590813061C0E9D42E3
:104660005AD05C462306002B0AD16A4616793506D5
:10467000002D05D16C4624782306002B00D10021A3
:104680005A461606350EFF2D60D0029B44461F5534
:10469000079E72684346105501331804B568030C31
:1046A0003E4F98462955B8456ED8079F3E680296FA
:1046B000059C4246069D115D40466B46465D19715C
:1046C0000598135C351CB346B146AB4200D953E79D
:1046D000AB4200D351E79946049B4146CA5C694608
:1046E0000A70049F4446E35DAB4200D950E74B4556
:1046F00000D34EE799464CE7294D491B03F0CCF80F
:10470000631C6C46267901045A46080C3506590884
:1047100013061C0E9D42A4D16A46167835062B0E50
:104720009C429ED100209CE7EF2F00DC71E7F03F18
:104730006FE76C46684624790078230601061C0E54
:104740000A0EA11A0804030C03933EE76C46247971
:1047500025062B0EFF2B98D16A46127813061E0EE3
:10476000FF2E92D1F02190E76C4621780806040EC6
:10477000A31A1A04170C0397022726E7531A1A04E0
:10478000170C0397042720E708B078BC9846A14689
:10479000AA46B346F0BD0000000020423F290000B9
:1047A000FF01000070B5A526051C0024B60128688D
:1047B000025DD10093015B1891006A685B18115D7E
:1047C00097224A439B18AA68125D11015B18D10019
:1047D0005B1892009B18190A015568680155601C06
:1047E000AA68030411551C0CB442E0D370BD00004C
:1047F00010B5041C09040068090C425C4C23101C11
:10480000584363685A5C97235343C018A3685A5CA3
:104810001C235343C018000A10BD0000F0B55F46CA
:1048200056464D464446F0B44349051C002200203C
:10483000541958344B19571C5055583B20703E049E
:104840004C1C4855320C18702304190C572AEFD908
:1048500000245620002200215719631C5155461987
:1048600079701F0441553C0C7170171C061C58369A
:10487000583733043E04180C320C772CECD9002244
:10488000022393465A420126924658275C467C43AF
:104890002004030C99460023984612E063463343F4
:1048A0002370331C3B4363700B784F7833430B709A
:1048B0004346023337434F7019040B0C9846562B6E
:1048C0002DD24146494409040F0C7C5DB022D0032F
:1048D0000B18A446201C7C1967783A1C190C32402E
:1048E000304080184A5D49194B7832403340D21825
:1048F0001218022AD2D82078524653463B40104024
:10490000207063700B784C7813400B704346023371
:1049100014404C7019040B0C9846562BD1D35B46AF
:1049200002331F043B0C9B46762BAED378BC9846D3
:10493000A146AA46B346F0BDE8280000F0B55F46A0
:1049400056464D464446F0B40E06310E58264E43A8
:104950009046002200069246514683B01F1C050E69
:10496000FF234046029201930093C1708170017051
:10497000417091467219D35D01210B4200D1E6E0EE
:10498000551C2A04150CEB5D1A06194214D0012699
:10499000910E314200D0DAE0281C582103F004F8CF
:1049A0000304180C572800D9D1E0681C0204150C28
:1049B000E95D0A060E42EBD1691E0B041D0CEE5D8B
:1049C00000229346700700D58EE0012633E0824630
:1049D000281C582102F060FF0006000E002800D1BC
:1049E000B5E0772800D1B2E0029A824200D3B6E067
:1049F0000290AD4B23401804AB4A010C914200D108
:104A0000A5E04846012800D1AFE0012800DCE6E03F
:104A10004946022900D1CBE0032900D1F6E05B46EC
:104A200001331804030C9B46EB5D990831425BD1BE
:104A30009E4A934558D8E9190B1C081C593B583815
:104A40001A78037832403340B443580014430B1CA7
:104A500002229443573B04431878042230408300D9
:104A60009443481E1C43037808223340D8009443E3
:104A700004430878031C102233401B0194431C4359
:104A80004B782022944333400A1C5B0157321C436D
:104A900013784022944333400A1C9B0158321C4334
:104AA00013788022944333400A1CDB0159321C43A3
:104AB00013787F4A144004221043334008701B02CD
:104AC000281C58211C4302F06FFF0006000E00282E
:104AD0003DD057283BD0824500D278E701998142EA
:104AE00000D875E7019073E7C826B400A3452ED817
:104AF0000421E955281C582102F056FF0706380EFC
:104B0000824500D3B0E08246281C582102F0C4FE42
:104B1000029D0006000E854200D39FE00290029C99
:104B2000009D4246671BD770019B5046C21A404603
:104B300003708270684601783E064046340E41702C
:104B4000142C04D917063E0E0A2E00D992E000203C
:104B500003B078BC9846A146AA46B346F0BD009B78
:104B6000834200D845E7009043E73F21201C88435B
:104B70000206110E802966D07722211C91430B0674
:104B80001A0E802A0DD05F21201C88430206110EC8
:104B9000202900D043E76B1C1A040321150C894619
:104BA0003DE7281C5830030402221D0C914636E7CD
:104BB0000920204008284DD00321214001295BD045
:104BC0007723201C98430106080E802800D026E792
:104BD0002A1C583211040D0C012189461FE70028B8
:104BE00000D01CE706222240022A57D00A21214089
:104BF00008292DD024202040042800D00FE70323CB
:104C000099462B1C573B1804050C08E790225100CD
:104C100021400B04180C202835D0C0204300211C53
:104C200019400A048020110C430099422FD02223FE
:104C30002340022B00D0F2E62A1C583A100400232D
:104C4000050C9946EBE62B1C58331804050CE6E6D8
:104C5000022291466B1E1804050CE0E6009A82427F
:104C600000D85CE700905AE7019B834200D84BE7ED
:104C7000019049E701206BE72B1C593B1A04150CE6
:104C800000229146CBE66B1C1804050CC7E6291CD4
:104C900059310A04150C01229146C0E62B1C583BE1
:104CA0001804050CBBE60000FF0100002B0100000A
:104CB000FFFEFFFFF0B55F4656464D464446F0B452
:104CC0008B460A220021071C8846944658226546D6
:104CD0005543B22673199A46B02358004419A14689
:104CE0000A2039684218545D002C63D044196618B4
:104CF0003379002B5ED05446135D002B5AD04C46BE
:104D0000165D002E56D003195A181179002951D07A
:104D100000261AE06378110C62469C1A23041A14C8
:104D2000002A25DB0C1C4C431B0C22041C1C5C437E
:104D30002404110C230CCA1811040A14E02A27DDDC
:104D4000731C19060E0E464522D8B30059465C184E
:104D50002278111A0A041314002BDBDA59420A04D0
:104D60006378110C62469C1A23041A14002AD9DABB
:104D7000544223040C1C4C431B0C22041C1C5C439B
:104D80002404110C230CCA1811040A14E02AD7DCDD
:104D9000E12A0CDD414643468C00013362465C4407
:104DA000811C02321E06330E217062709846424604
:104DB000272A0FD8431C1E06300E532891D3434692
:104DC000272B07D8634601331D062B0E9C46732BF9
:104DD00000D27BE7404678BC9846A146AA46B34637
:104DE000F0BD0000F0B557464646C0B40022051C91
:104DF0008A4690460A265827341C7C43B021480036
:104E00000319271CB2379C460A2029684218135DF3
:104E1000002B1ED003195B181B79002B19D0D35D12
:104E2000002B16D06346D25C002A12D0C218531849
:104E3000197900290DD0424691005144831C0B7012
:104E400043460133B21C4A7019060B0E9846272BB5
:104E50000CD8831D1906080E4E28D6D34346272B9F
:104E600004D8B01D0406260E6E2EC4D3404618BCCE
:104E70009846A246F0BD0000F0B55F4656464D4646
:104E80004446F0B481B01D1C0A9B5824161C984659
:104E9000A446824239DB0127121ABB468D423ADB17
:104EA00001276B1AB9469A423BDB5D00AC1A5200EF
:104EB0000092B0421AD008239A46002853D05728AF
:104EC00051D000294FD077294DD062464A43424401
:104ED0001218137857463B431370002C02DB009BDB
:104EE0004944E41A58446419B042E6D166464E4338
:104EF00046443518287808210843287001B078BC4A
:104F00009846A146AA46B346F0BD01235C42821AE8
:104F1000A3468D42C4DA012467424B1BB9469A422C
:104F2000C3DA56005F00F41A0097A942DED00822C7
:104F30009246002817D0572815D0002913D077297A
:104F400011D062464A4342441218137857463B43F5
:104F50001370002C02DB009B5844E41A4944A41946
:104F6000A942E6D1C2E70020C8E70000F0B55F46DD
:104F700056464D464446F0B48BB0051C48680A922C
:104F8000002204900892059289680A9E8946317829
:104F90000A9C4B001F197A78B948504303061A0E31
:104FA0000E1C002A03D10B1C41331F063A0E80242D
:104FB0006442224313061F0E0F2038401A0F0101CE
:104FC000101C0297084305D1391CAE4802F0A2FC20
:104FD0000706380E204303061A0E0021019206919F
:104FE000002E00D82EE1069A80214F025404E019C9
:104FF0000A9E010C8B5D002B00D103E1029FBB4296
:1050000000D1FFE07B400A9C1B06180C0B19597855
:10501000002900D1FEE0029CA14200D1FAE0221C4E
:105020004A4017063A0E029E013633060243180E16
:1050300002900A9E0198B75C47403C06210E0791FA
:10504000541C315D002900D1EEE0031C4B40AA78CE
:105050001F06390E081C5043642102F01DFC8246D5
:105060000A9A16197178002900D1DAE001984840AF
:105070000106EF780B0E181C7843642102F00CFC3B
:105080008346A31C079C0027002C3FD90A9E013CA5
:1050900003949C1903998F4231DA2178002900D1B9
:1050A000BCE0019A4A401006AE78030E181C70430B
:1050B000642102F0F1FB80466178002900D1ABE069
:1050C000019848400306EA78190E081C50436421F1
:1050D00002F0E2FB061C2A785346D01857280CD859
:1050E0006B78191C59448C46772906D84244572AB4
:1050F00003D89B19772B00D899E0C246B346781C99
:105100000604079A370C02349742C3D3002309934D
:10511000E8789B4600285CD9AF786E7858245E44C6
:105120006643297800243A068919A446A046002639
:10513000002A37D00127BA46049FC8190EE013424F
:1051400022D1634601331A06130E9C46631C1F04CA
:105150003C0CAF7801310130A74222D94F467B5C2D
:10516000082293437B5402785746D3083B4206D02B
:105170004378DB083B4202D1731C1F063E0E01231D
:105180001E42DCD01342DCD1434601331F063B0EE6
:105190009846631C1F043C0CAF7801310130A742D4
:1051A000DCD8E878F10748D4099B63441E045B46C9
:1051B00001331A04130C0406310C9B46260E099188
:1051C0005E45AAD8089F099CA74202D20894069C73
:1051D0000594069C0499013426064A468946310EF8
:1051E000069104920A9B069F1A78BA422BD9069A16
:1051F00080214F025404E0190A9E010C8B5D002BA4
:1052000000D0FBE60A9C1E060B195978300E0029C7
:1052100000D000E75A7806E700265CE700229046B7
:105220004AE700239B462CE700218A4618E70499A9
:1052300000916146FFF720FE5FE76346099943440A
:105240005B18B3E7E8780206AE78140E6643502385
:10525000301C5843642102F05DFB089D0704380CA4
:1052600085420AD3059801300106080E0BB078BCC0
:105270009846A146AA46B346F0BD0020F6E70000D6
:10528000BC0700002E160000F0B55F4656464D469E
:105290004446F0B4ACB0029101920021A5229301E2
:1052A000009104688146984600270A255826281C44
:1052B0007043B0214B00061C1A18B23694460A21DE
:1052C0000A19135C002B1CD00B181B191B79002B1F
:1052D00017D0935D002B14D06346D25C002A10D007
:1052E000CB181A191379002B0BD0BB0004AA9B18FA
:1052F0008A1C1A70AA1C5A707B1C1A06170E272FBC
:105300000BD88A1D1306190E4E29D9D3272F04D87E
:10531000A91D0806050E6E2DC8D3002FBB4607D168
:1053200000982CB078BC9846A146AA46B346F0BD7A
:105330004B4618685C46FFF771FA0027002CEFD93E
:1053400003A8B90004AA8E1882464C4630787178BA
:1053500052462368FFF7F2FA0506002D11D17D1C95
:105360002B061F0E5F45DBD2B90004AA8E184C46EF
:105370003078717852462368FFF7E0FA0506002D71
:10538000EDD050468378002BE9D004784578191980
:10539000C37858225E195643741825042B0C4345D4
:1053A000DDD24946019AFFF7E1FD0006000E002814
:1053B000D5D0009C029EE1008C1920705046867862
:1053C000301C02F0F7FC1A4B184A02F033FD03F0D0
:1053D0004DF85246051C107803F0B4F9011C281C46
:1053E00003F0C8F803F072FB60705346587803F07E
:1053F000A9F95246051CD07802F0DCFC0C4B0B4A94
:1054000002F018FD03F032F8011C281C03F0B2F87A
:1054100003F05CFBE670A0705346DB782371009AC2
:10542000013211060E0E009699E700000000E03FE1
:105430000000000000B5031C013A03D319700133CA
:10544000013AFBD200BD000000B5074B07491A68BE
:105450000B780020002B06D0111C53681268DB006B
:10546000C0188A42F9D100BD887F00408C7F00407F
:10547000014B186870470000A0BF004030B50730EE
:10548000C008441C17480278002A24D1164B174D37
:10549000191C08315A602B60154A19609B60154B26
:1054A0004A601A60144A154B012101701A602A687B
:1054B000106804E02B6898420FD0021C0068436813
:1054C000A342F7D3A3420AD01A1BD5004260401969
:1054D0004460083030BD054DE9E70020FAE7046874
:1054E0001460F6E78C7F0040947F0040887F004086
:1054F000FF070000907F0040F83F0000A0BF004081
:1055000030B5002819D0134C21680A680838824247
:1055100004D8111C236812689A42F8D14568EB0040
:105520001B1802600860934208D02368994204D097
:105530004A68D3005C18844207D030BD03685A68BB
:10554000AD181A6845600260EFE7541905684C60B1
:105550000D60F2E7887F0040F0B557464646C0B47C
:10556000A24DA34B054084B00F1C061C80469D42F3
:1055700010DDA04A0C1C031C954200DCB2E0391C73
:10558000301C3B1C321C02F07BFA04B018BC98465D
:10559000A246F0BD984B9D4200DDBAE0974B9D427C
:1055A00000DCA8E0012359428A463B1C321C391C0E
:1055B000301C02F03FFC0B1C021C0090019102F019
:1055C00039FC8F4A8F4B0D1C041C02F033FC0B1C62
:1055D000021C8D488D4902F053FA2B1C221C02F04C
:1055E00029FC0B1C021C8A488A4902F049FA2B1C30
:1055F000221C02F01FFC0B1C021C8748874902F08A
:105600003FFA2B1C221C02F015FC0B1C021C8448C8
:10561000844902F035FA2B1C221C02F00BFC0B1CF7
:10562000021C8148814902F02BFA009A019B02F08A
:1056300001FC7F4A7F4B02900391291C201C02F041
:10564000F9FB0B1C021C7C487C4902F019FA2B1C4C
:10565000221C02F0EFFB0B1C021C7948794902F076
:105660000FFA2B1C221C02F0E5FB0B1C021C7648D7
:10567000764902F005FA2B1C221C02F0DBFB0B1C06
:10568000021C7348734902F0FBF92B1C221C02F028
:10569000D1FB0B1C021C5146002962DB5146CC0099
:1056A0000298039902F0ECF93B1C321C02F0C2FB99
:1056B000694D6A4B6519E4182268636802F0DAF9EB
:1056C0003B1C321C02F0D6F90B1C021C28686968CE
:1056D00002F0D0F943460E1C051C002B37DB311CB1
:1056E000281C52E795422FD04146002900DC79E082
:1056F0005B485C4949E75C4A5C4B02F0C1F95C4A93
:105700005C4B02F011FE002800DC4BE7391C301C1A
:105710003BE700F023F9584B0F1C061C9D422FDC81
:10572000564B9D4251DC00239A463B1C321C02F032
:10573000A7F94F4A4F4B02F09DF9514A514B0D1CAE
:10574000041C391C301C2EE0002CCDD017E74E492C
:105750004E4A2B1C4B40341C261C1D1C311C281C83
:1057600013E70298039902F08BF93B1C321C02F0FC
:1057700061FB0B1C021C391C301C02F07BF904E796
:10578000434B9D4216DC02239A46424A424B02F0AA
:1057900071F9404A404B0D1C041C391C301C02F0AE
:1057A00049FB334A334B02F06BF90B1C021C291CDA
:1057B000201C05E003218A46384839493B1C321C2D
:1057C00002F076FC0F1C061CEFE601218A46284AEF
:1057D000284B391C301C02F04DF90D1C041C391CDF
:1057E000301CDEE72F483049CFE60000FFFFFF7F87
:1057F000FFFF0F440000F07FFFFFDB3FFFFF1F3E76
:105800003AAD903F11DA22E34B7BA93FEB0D7624B2
:10581000660DB13F513DD0A0CD45B73F6E204CC580
:105820002449C23FFF8300925555D53F0D5555552C
:1058300044B4A2BF2F6C6A2C2DDEADBF9AFDDE52A0
:10584000F2B0B3BF6D9A74AFC671BCBF711623FEC0
:105850009999C9BFC4EB9899648D0000448D0000EC
:10586000FB21F93F182D44543CE4377E9C75008899
:105870000000F03F00000000FFFFF23FFFFFE53FA8
:105880000000004000000000000000800000000058
:10589000FF7F03400000F83F000000000000F0BF61
:1058A00000000000FB21F9BF182D445470B5244AB4
:1058B000244B024085B00E1C051C9A421CDD224B75
:1058C0009A4205DD331C2A1C02F0D4F805B070BDE5
:1058D00001AA00F0C1FD03230340012B11D0012BCD
:1058E0001EDD022B25D00123009301980299039A13
:1058F000049B01F0D7FDE9E7144A154B01F0ECF8E1
:10590000E4E7009301980299039A049B01F0CAFD11
:10591000104D114E031C6B400C1C211C181CD5E7AC
:10592000002BE0D101980299039A049B01F0D4F86E
:10593000CCE701980299039A049B01F0CDF8E7E7C0
:10594000FFFFFF7FFB21E93FFFFFEF7F000000002B
:1059500000000000000000800000000010B50C1CDA
:10596000031C0A1C011C0348011C1940081C111CC3
:1059700010BD0000FFFFFF7FF0B557464646C0B49C
:1059800089B00D1C041C00F00DF9224B1B680F1C84
:10599000061C9846013306D0291C201C01F0CEFEBF
:1059A0000028824606D0391C301C09B018BC984625
:1059B000A246F0BD291C201CFFF7D0FF164A174B4A
:1059C00002F0B2FC0028EEDD01230093144B01939A
:1059D000534608930494059502940395114B124C79
:1059E000069307944346022B0AD0684601F0B8FE9E
:1059F000002805D0089B002B07D106980799D4E70B
:105A000003F094F821230360F4E703F08FF8089B78
:105A10000360F2E75C8F00000000F03F0000000030
:105A2000688F00000000000000000000F0B557463D
:105A30004646C0B489B00D1C041C00F003FB224B89
:105A40001B680F1C061C9846013306D0291C201C1D
:105A500001F074FE0028824606D0391C301C09B0C3
:105A600018BC9846A246F0BD291C201CFFF776FF03
:105A7000164A174B02F058FC0028EEDD0123009374
:105A8000144B01935346089304940595029403958F
:105A9000114B124C069307944346022B0AD06846DA
:105AA00001F05EFE002805D0089B002B07D1069868
:105AB0000799D4E703F03AF821230360F4E703F0F1
:105AC00035F8089B0360F2E75C8F00000000F03FB0
:105AD00000000000708F00000000000000000000C7
