:10000000721200EA8B1200EA8A1200EA891200EAF0
:10001000881200EA871200EA861200EA851200EAD6
:100020007047000030B58168C2680D1C146804C5B3
:1000300085605460151D054A1478631C1370C560F3
:100040000B68C3608160147030BD000028690040F7
:10005000F0B55F4656464D464446F0B48668C568DE
:10006000311C2A6820C1041C81606A60281DC04DB3
:100070002B7801332B70E060201C04F05FFE3068A9
:10008000A660E0602F78013F2F70BA4F01681422FC
:10009000804693468946381CB749062205F0CCFBBA
:1000A000B64E3060A6684146321C02C24B46A26082
:1000B00042464B600432594651600523002193604B
:1000C000D1601061287801302870E260201C04F0B3
:1000D00049FE3268A660E2602878461E2E70A66847
:1000E000331C116804C3A360131D51602870E360C2
:1000F000201C04F0ABFE3268A660E26029784E1E38
:100100002E70A668331C04C39D48A360131D506065
:100110002970201CE36005F08FF83168A660E1606B
:100120002878013828700A688A469146381C924916
:10013000062205F081FB914E3060A6685146321CC4
:1001400002C24B46A26052464B600432594651608F
:100150002F2301219360D16010612878013028702D
:10016000E260201C04F0FEFD3268A660E2602878A0
:10017000461E2E70A668331C116804C3A360131DAD
:1001800051602870E360201C04F060FE3268A660B5
:10019000E26029784E1E2E707A4BA6689B46331C6F
:1001A00004C35846A360131D50602970201CE360EF
:1001B00005F042F83268A660E2602878461E2E708C
:1001C000A668331C116804C3A360131D5160287016
:1001D000E360201C04F0B2FD3168A660E16028787D
:1001E000013828700822914688460E68381C6249FA
:1001F000062205F021FBA168604A0B1C10604246F4
:1002000004C38A46A3600432494643465E60516097
:10021000052300219360D16010612E7801362E7085
:10022000201CE26004F09EFD52461668A260E66063
:100230002878013828703368381C4F4906229A46BE
:1002400005F0FAFAA2684D49131C086040C34946FC
:10025000A36090465346321D736051602F260121E2
:100260009660D1601061287801302870E260201C0F
:1002700004F078FD43461A68A360E2602878461EC1
:100280002E70A668331C116804C3A360131D51604F
:100290002870E360201C04F0D9FD3268A660E2609B
:1002A00029784E1E2E70A668331C04C35846A360DE
:1002B000131D50602970201CE36004F0BDFF3168FD
:1002C000A660E1602878013828700A68884692465E
:1002D000381C2949062205F0AFFA284E3060A6687E
:1002E0004146321C02C25346A26042464B60043271
:1002F00005215D230A279760D160106153602B7838
:1003000001332B70201CE26004F02CFD3268A660E3
:10031000E2602878471E2F70A7683E1C116804C64B
:10032000131DA66051602870E360201C04F08EFD50
:100330003A68A760E26029784E1E2E70A668301CCD
:1003400004C00F4B171DA0605360201C2970E7608C
:1003500004F072FF3068A660E0602B78013B2B70E0
:1003600005F000FD78BC9846A146AA46B346F0BD0C
:10037000286900408C080040004F010034E600402E
:1003800040420F0020A1070000B50448044B64213F
:10039000202201601A6005F0E5FC00BD8CE60040FB
:1003A00094E6004070B5041CA668C068311C05685E
:1003B00001C10023A160011D43604D60084D2A78F2
:1003C00001322A70201CE16005F022F83068A66036
:1003D000E0602B78013B2B7005F0C4FC70BD000081
:1003E00028690040F0B55F4656464D464446F0B495
:1003F000C5680021A96087683B1C8846696820C3DE
:100400005E4A8360E9601478061C281C0C300134B5
:10041000147081B0F060301C934604F08FFC3C688F
:10042000B760F46059460D78013D0D70626854491B
:1004300092465448062205F0FFF9B368524F994698
:10044000386010C3251C5146B3600C35E16043464B
:1004500003246B60AB60EC6028615946087801307A
:100460000870F560301C04F07DFC4A461768B260E5
:10047000F76059460B78013B0B70002133E07A6836
:100480003868914642698B009D58686941683E4CC6
:100490008846816825608B460568394906223948B7
:1004A00005F0CAF9B2682060141C009280C43A1C9E
:1004B0004B46B4600C32FB6041465B465160D560F0
:1004C000106193602D4C277801372770301CF26043
:1004D00004F048FC009D2F68B560F7602278013A6F
:1004E0002270B868411CB9600329C8DB274C7A68C0
:1004F00027482368904605682149062221489B46E3
:1005000005F09AF9B368204A9A46106080C33A1CF5
:10051000B3600C3241465B460224F9609560D460BA
:100520001061164C5360237801332370301CF26045
:1005300004F018FC51460A68B160F2602078471E4A
:100540002770B7683D1C5168131C04C50C33B56097
:10055000D1602070F360301C04F078FC3D68B76017
:10056000F5602678013E267005F0FCFB01B078BCF2
:100570009846A146AA46B346F0BD0000286900404F
:10058000004F01008C08004034E600408CE600403B
:1005900094E60040F0B5474680B4224AC56800237F
:1005A000804694460020AB60EB60686027E061699C
:1005B000800043585F697A68FE689719AF60616987
:1005C00043585A696646916833601369CE18EE60E5
:1005D00062698058144B426919685368994208DD72
:1005E000B94206DA114F93683C689C4201DDB4427F
:1005F00013DB624610606C6801346C60201C2C6850
:1006000023699842D3DB63461C60002346460125DC
:100610003575B36108BC9846F0BD63461860136831
:10062000F4E7000034E600408CE6004094E6004029
:10063000F0B5C668071C00220020F0607060402AF8
:1006400051DA0121012012E03268344D2A605369E9
:100650007468DA68B068A1010918012350695C4226
:100660002A604454B46872680134211C201C40295B
:1006700034DAF0256B005343B022B06050001C12F6
:1006800048435825654301126C18F460BD682B1C63
:1006900040C3BB603461224C2278301C10300132E0
:1006A0002270F860381C04F0E1F92E68BD60FE602D
:1006B000217801392170BB69002038751C1C002B82
:1006C000C2D1316815484B690160D9687568B26854
:1006D000AB01016048699D184455C3E7551C2A1CAD
:1006E0007560402AADDBB060BC68231C356840C330
:1006F000311CBB6035610A4E3278103101323270E4
:10070000381CF96004F0AAFB2068BC60F8603778F8
:10071000013F377005F026FBF0BD000034E60040D5
:1007200028690040F0B557464646C0B48168C268A3
:100730000D1C8046106804C54446A5601061704DCC
:100740002E78141C43461034771C2F70DC600F6821
:100750009960DF602E703A68FC686A4D53692A60C0
:100760001C60201C05F0A8F90106080E012800D124
:1007700086E03E687C68634D73692E609C60201C37
:1007800005F09AF90006010E012900D18EE03B68C0
:10079000BC685C4D5E692B607460201C05F08CF9B0
:1007A0000006010E012900D196E03D68554C6969AB
:1007B000A24625600C682E1C002C3CD17E68B868CF
:1007C000041C7443201C04F0FBFF4F4952460E6882
:1007D00015606A693461301CD66005F06DF9030656
:1007E000180E012800D180E03968464A4D69116031
:1007F0004246A8686C682E68E96895682B1C80C31F
:1008000093603A1C103238613D4F5460D16096605D
:100810003E78434601363E704046DA6004F058FAAE
:10082000296842469560D1603A78013A3A7018BC1E
:100830009846A246F0BDB9687D68081C68430DF073
:1008400077FD32490DF09CFD0DF036FF041C04F0DD
:10085000B7FF2D4B70691D6852462C611660C5604C
:10086000281C05F029F90606310E0129BCD1544691
:10087000206801782E780B1C9E42B5D32970B3E70F
:100880002A68117826780B1C9E4200D271E72170ED
:100890003E687C681B4D73692E609C60201C05F0CF
:1008A0000BF90006010E012900D070E72A681178C3
:1008B00025780B1C9D4200D269E721703B68BC681B
:1008C000104D5E692B607460201C05F0F5F8000681
:1008D000010E012900D068E72A68117825780B1CE1
:1008E0009D4200D261E721705FE75446226811788B
:1008F00035780B1C9D4200D276E7317074E700001A
:100900002869004034E60040B0E600400000003EA8
:1009100030B58168C2680D1C146804C585605460D8
:10092000151D054A1478631C1370C5600B68C360FD
:100930008160147030BD00002869004030B58168C6
:10094000C2680D1C146804C585605460151D054AF5
:100950001478631C1370C5600B68C36081601470E9
:1009600030BD00002869004030B58168C2680D1CA8
:10097000146804C585605460151D054A1478631C0D
:100980001370C5600B68C3608160147030BD0000D7
:100990002869004030B58168C2680D1C146804C520
:1009A00085609460151C114A14780835631C137017
:1009B000C5600D688160C56014706C682A686069E4
:1009C0000B4D046853692A601C60201C05F074F804
:1009D0000106080E012800D030BD2A681178207861
:1009E0000B1C9842F8D32170F6E7000028690040FC
:1009F00034E60040F0B55F4656464D464446F0B4F6
:100A00008668C568331C296820C32C1D8360696013
:100A1000394D071C2878421C2A70FC603468BE607F
:100A2000FC602870216835488B46042104F078FE6C
:100A300033490B68002233493348984604F0FCFEE2
:100A4000BB68324A106010C39246BB60221D9946B3
:100A5000434663605060297801312970B868FA60B4
:100A6000031C666804C30C34BB604B1C96602B707F
:100A7000FC600668B860FE60297074683268656959
:100A800053692C6851460A601C60201C05F014F85C
:100A90000106080E01281BD04A46043A1668164C77
:100AA000FE60BA60207801382070184C5B462360E5
:100AB0005B6941461960404604F0FEFF05062F0EB3
:100AC000012F0ED078BC9846A146AA46B346F0BD89
:100AD00052461668317820780B1C9842DCD321707E
:100AE000DAE7256841460F7829780B1C9F42E9D345
:100AF00042461170E6E70000286900401C000040F3
:100B0000B0E60040AC4F01008C08004034E60040E5
:100B100000B58020024A4300136005F023F900BDB0
:100B20007CE6004010B5C368054C59681B681F225D
:100B30002068134099400843206005F013F910BD68
:100B400070E6004010B5C3681C68042C0ADA174828
:100B50005B681F2201681440A3401943016005F03F
:100B600001F910BD586880225300984207D0062C26
:100B700015D00E4B1A6880210A431A60EFE7062C45
:100B800006D00A4980230A689B011A430A60E6E7F7
:100B9000064980240A6863011A430A60DFE7034BB1
:100BA0001A6840210A431A60D9E7000020E6004095
:100BB00070B58668C268331C156804C383605560CD
:100BC000094D2978041C0131101D2970E060201C9A
:100BD00004F0E4FB3068A660E0602B78013B2B70EA
:100BE00005F0C0F870BD00002869004030B581688C
:100BF000C2680D1C146804C585605460151D054A43
:100C00001478631C1370C5600B68C3608160147036
:100C100030BD000028690040F0B5474680B4C26886
:100C20000026166085682C1C04C401238460D360F0
:100C3000324C071C2078111C0C3101302070F960F7
:100C4000381C984604F088FB2968BD60F960237859
:100C5000013B2370BB693E754B60C82B40DD284AC1
:100C600013680233136043460B60BD682A1C02C23E
:100C70000026224CBA60CE60081C21780C3001316D
:100C80002170F860381C04F067FB2868BD60F860CC
:100C90002578013D2570BB693E758360C82B25DD35
:100CA000184C2368023B23600123036023683C2B1C
:100CB00001DD3C23236012490A687D2A01DD7D2283
:100CC0000A60002B01DA00262660002A01DA0024DF
:100CD0000C60016801253D75B96108BC9846F0BDFE
:100CE000322BC2DA064A1368023BBBE7322B03DA27
:100CF000044C23680233D6E7024CD7E7286900404A
:100D00008CE6004094E6004070B58568C268061C19
:100D1000281C04C00424B06014600C4C23780133F8
:100D20002370301CF26004F017FB2968B560F16095
:100D3000207801382070B369642B03DA0123B36192
:100D4000337570BD00250123B561F9E728690040BE
:100D500030B58168C2680D1C146804C58560546094
:100D6000151D054A1478631C1370C5600B68C360B9
:100D70008160147030BD00002869004010B5C36860
:100D8000054C59681B681F2220681340994008438E
:100D9000206004F0E7FF10BD7CE6004070B5866877
:100DA000C268041C0E490F480F4B05680868196893
:100DB000331C04C3A360156050600C4D916029780A
:100DC00001312970201CE26004F03EFB3068A6600F
:100DD000E0602B78013B2B7004F0C4FF70BD000075
:100DE00020E600407CE6004070E6004028690040B4
:100DF000F0B557464E464546E0B48668C268341C96
:100E000004C48460EC4C23780133071C2370C26057
:100E100080204100E9480160894604F0A3FF316861
:100E2000BE60F9602678751E2570BD682A1C02C256
:100E30000023BA604B600B602670F960E04E984664
:100E40000B684A681F2130680B409A40104330609D
:100E50008A4604F087FF2968BD60F9602078451E46
:100E60002570BD682B1C02C30122BB6043460A608B
:100E70004B602070F9600B684A68514630680B403F
:100E80009A401043306004F06DFF2968BD60F9603E
:100E90002078451E2570BD682B1C02C30222BB6052
:100EA00043460A604B602070F9600B684A685146FF
:100EB00030680B409A401043306004F053FF2968BB
:100EC000BD60F9602078451E2570BD682B1C02C3EB
:100ED0000322BB6043460A604B602070F9600B68D8
:100EE0004A68514630680B409A401043306004F025
:100EF00039FF2968BD60F9602078451E2570BD68FE
:100F00002B1C02C30422BB6043460A604B60207066
:100F1000F9600B684A68514630680B409A401043AC
:100F2000306004F01FFF2968BD60F9602078451E1D
:100F30002570BD682B1C02C30522BB6043460A60B6
:100F40004B602070F9600B684A68514630680B406E
:100F50009A401043306004F005FF2968BD60F960D5
:100F60002078451E2570BD682B1C02C30622BB607D
:100F700043460A604B602070F9600B684A6851462E
:100F800030680B409A401043306004F0EBFE296853
:100F9000BD60F9602078451E2570BD682B1C02C31A
:100FA0000722BB6043460A604B602070F9600B6803
:100FB0004A68514630680B409A401043306004F054
:100FC000D1FE2868BD60F8602278551E2570BE6885
:100FD00001C643464946BE60036041602270F86026
:100FE0000468351C042C00DBEEE07649436850466B
:100FF00004400A68A3401A430A6004F0B3FE291FA4
:101000000C686D4DB960FC6029784E1E2E70BB686F
:10101000802010C340000122BB6022606060297004
:10102000FC6025681E1C042D00DB08E16548636830
:101030001F2401682540AB401943016004F092FE73
:10104000321F1468BA60FC605B4A1178481E107049
:10105000BD68802610C570000223BD6023606060FB
:101060001170FC602E1C2568042D00DBDCE0554867
:1010700063681F2401682540AB401943016004F0F8
:1010800071FE321F1468BA60FC604B4A1178481E2A
:101090001070BD68802610C570000323BD602360FA
:1010A00060601170FC602E1C2568042D00DBAFE031
:1010B000444863681F2401682540AB401943016020
:1010C00004F050FE321F1468BA60FC603A4A11788E
:1010D000481E1070BD68802610C570000623BD60D4
:1010E000236060601170FC602E1C2568042D00DBFD
:1010F00082E0344863681F2401682540AB401943EF
:10110000016004F02FFE321F1468BA60FC602A4AA6
:101110001178481E1070BD68802610C57000072326
:10112000BD60236060601170FC602E1C2568042D7A
:1011300056DA244863681F2401682540AB401943F0
:101140000160341F04F00EFE2268BC60FA601A4C85
:1011500021784D1E2570BB689A4604C3174EBB60AC
:101160002170FA603368BD689C461648144B0668C7
:1011700018682B1C04C30131BB60634613605660C2
:1011800090602170381CFA6004F05EF92B68BD6035
:10119000FB602278013A227004F0E4FD50460668B4
:1011A000B860FE602778013F277004F0DBFD38BC93
:1011B0009846A146AA46F0BD286900407CE600405A
:1011C00070E6004020E6004046684E454BD0062CB5
:1011D00000D1B3E05F4B1A6880210A431A600CE724
:1011E0006168814236D0062D00D1ADE0594B1A68B6
:1011F00080210A431A60A4E76168814243D0062D2A
:1012000000D18FE0534B1A6880210A431A6078E7B7
:10121000616881422ED0062D00D189E04D4B1A68BD
:1012200080210A431A604BE7616881423DD0062D58
:101230006CD0484B1A6880210A431A601FE7616826
:10124000814229D0062D67D0424B1A6880210A437B
:101250001A60F3E6062D36D03E4980200A688301E5
:101260001A430A606DE7062C28D03A4980240A68A0
:10127000A301C0E6062D34D0364980200A688301D8
:101280001A430A601CE7062D24D0324980200A68E0
:1012900083011A430A6034E7062D30D02D4980209F
:1012A0000A6883011A430A60C8E6062D20D029493E
:1012B00080200A6883011A430A60E0E625498023FA
:1012C0000A685B0197E6234980250A686B011A4387
:1012D0000A6036E71F4980250A686B011A430A60D5
:1012E0000FE71C4980250A686B011A430A60E7E68C
:1012F000184980250A686B011A430A60BFE6154940
:1013000080250A686B011A430A6097E6114B1A6838
:1013100040210A431A60B2E60E4B1A6840210A4384
:101320001A608BE60B4B1A6840210A431A60E8E604
:10133000084B1A6840210A431A60C1E6054B1A6837
:1013400040210A431A6058E6024B1A6840210A43BA
:101350001A60F6E620E6004070B58668C268041C94
:101360000E490F480F4B056808681968331C04C301
:10137000A360156050600C4D91602978013129708F
:10138000201CE26004F06EF83068A660E0602B7804
:10139000013B2B7004F0E6FC70BD000020E600402D
:1013A0007CE6004070E600402869004030B5816866
:1013B000C2680D1C146804C585605460151D054A7B
:1013C0001478631C1370C5600B68C360816014706F
:1013D00030BD00002869004000B505490548064BAE
:1013E00000220A6002601A6004F0BCFC00BD00002C
:1013F0007CE6004020E6004070E6004030B58168A1
:10140000C2680D1C146804C585605460151D054A2A
:101410001478631C1370C5600B68C360816014701E
:1014200030BD000028690040F0B55F4656464D4685
:101430004446F0B4C7688346002088B0B8600C28E2
:1014400000DB8EE13B685D698200022154590BF09C
:10145000CDFF0D21051C4D43FC4E6369281C0F3048
:101460003460586004F028FB0206110E012901D1F6
:1014700000F08DFF3A68B96850698C002658F34D2A
:10148000736905242E609C60052004F015FB02069C
:10149000110E012901D100F06FFF3968B8684E695B
:1014A0008400A359E94D5A6909242B60146009206E
:1014B00004F002FB0106080E012801D100F051FFE3
:1014C0003A68B868546983001D59E04E0795326048
:1014D00079686869884604683560DD490622DD4818
:1014E00004F0AAF95A469568291C306080C19160C1
:1014F0003A1C0C324346FB6054609060D64C27780F
:101500005946013727705846CA6003F049FC2F68D6
:101510005A46D760956020780138207000241475F1
:101520009469079A53693260DC60201C04F0C4FAA5
:101530000106080E012801D100F008FF3C68BD68D3
:101540006069AB001E58C14906960C60069C7A681B
:1015500060698A460C6091460468BD490622BD4810
:1015600004F06AF95B469D6852462E1C106080C6E6
:101570003A1C0C3259464B468E60FB60B64E5460A6
:1015800090603778013737705846CA6003F018FC0E
:101590002F685946CF608D6035780024013D357045
:1015A0000C75069A53468C691A605369201C1C619D
:1015B00004F082FA0006010E012901D100F0BAFE02
:1015C0003C68B8686569431C99004C5902210BF0CE
:1015D0000DFF0D22051C554363699C4E281C0F30DE
:1015E0003460586004F068FA0406200E012801D126
:1015F00000F095FE3D68B868696982005558441C42
:10160000A30068695C580569904E6369681D346081
:10161000986004F051FA01060A0E012A01D100F087
:1016200073FE3868B968426901318C00A658874D4D
:1016300073690A242E601C600A2004F03DFA00063B
:10164000010E012901D100F054FE3C68BD686069BB
:101650000135AB001E587D4905960C60059C7A68E3
:1016600060698A460C609046046879490622794888
:1016700004F0E2F85B469D6852462E1C106080C65E
:101680003A1C0C32594643468E60FB60724E5460E1
:1016900090603778013737705846CA6003F080FB96
:1016A0002F6859468D60CF6032780024013A32703D
:1016B0000C75059D8C6968695346C4601D60201CCB
:1016C00004F0FAF901060A0E012A01D100F005FE24
:1016D0003C68BD6860690135AB001E585B490496E3
:1016E0000C60049C7A6860698A460C6091460468C4
:1016F00057490622574804F09FF85B469D685246BA
:101700002E1C106080C63A1C0C3259464B468E6027
:10171000FB60514E546090603778013737705846FF
:10172000CA6003F04DFB2F6859468D60CF6030785A
:101730000024013830700C75049A53468C691A6085
:101740005369201C1C6104F0B7F90506280E012816
:1017500001D100F0B4FDBD68A81CB8600C2800DA07
:1017600070E639684C69266B384D72695F242E60CB
:1017700054605F2004F0A0F90306180E012801D17F
:1017800000F010FE38684469236B304D59692024FD
:101790002B608C60202004F08FF90606320E012A9F
:1017A00001D100F038FF3A685469236B274D58691E
:1017B0000E2404602B600E2004F07EF901060E0E4C
:1017C000012E01D100F01CFF3C6865692B6B1F4A9C
:1017D0009A465146146048697B68046891461160D6
:1017E0001C481B490622984604F026F85B469D6873
:1017F0004A462E1C106080C63A1C0C32594643469D
:101800008E60FB60144E54609060377801373770FB
:101810005846CA6003F0C4FA2F685946CF608D60FD
:1018200035780024013D35700C7552464B468C6965
:101830001A605369201CDC6004F03EF90006010EBA
:10184000012901D100F0D0FE08E0000034E600409C
:10185000004F01008C080040286900403C68656921
:101860002B6BFE4A9A465146146048697B680468AF
:1018700091461160FA48FB490622984603F0DCFFC6
:101880005B469D684A462E1C106080C63A1C0C328E
:10189000594643468E60FB60F34E54609060377843
:1018A000013737705846CA6003F07AFA2F685946F4
:1018B0008D60CF6030780024013830700C7552464E
:1018C0004B468C691A605369201C1C6104F0F4F8C3
:1018D00005062A0E012A01D100F07AFE39684C690A
:1018E000606BDE4D46691E24286074601E2004F083
:1018F000E3F803061A0E012A01D100F05EFE3A68F1
:101900005469636BD54D596920242B608C6020206D
:1019100004F0D2F80006060E012E01D100F042FEBE
:101920003E687469636BCD4D5A690B242B6014605B
:101930000B2004F0C1F80106080E012801D100F0C7
:1019400026FE3C6865696B6BC44A9A465146146032
:1019500048697B68046891461160C148C149062204
:10196000984603F069FF5B469D684A462E1C10604E
:1019700080C63A1C0C32594643468E60FB60BA4E14
:10198000546090603778013737705846CA6003F06A
:1019900007FA2F685946CF608D6035780024013DE5
:1019A00035700C7552468C6956694B461A60F46066
:1019B000201C04F081F80206110E012901D100F06B
:1019C000DAFD3C6865696B6BA44A9A46514614601F
:1019D00048697B68046891461160A148A1490622C4
:1019E000984603F029FF5B469D684A462E1C10600E
:1019F00080C63A1C0C32594643468E60FB609A4EB4
:101A0000546090603778013737705846CA6003F0E9
:101A1000D7F929685A46D16095603078002401389A
:101A200030701475534694695D69884649460B6069
:101A30002C61201C04F040F80206170E012F01D182
:101A400000F08DFD41460E687469A76B834D7B697C
:101A50001E242F605C601E2004F02EF80106080E84
:101A6000012801D100F070FD4246166874697B4977
:101A7000A06B0E6003907B4957687948062203F0FB
:101A8000DBFE764D5B4628609D6841462B1C02C3F9
:101A90005A46936042460C320D26CF6056609060E5
:101AA000714E34785B46013434705846DA6003F086
:101AB00087F92C685946CC608D603778013F3770C4
:101AC00000250D758B6962689846202092468044F7
:101AD00064490622624803F0AFFE604F5946386001
:101AE0008F683A1C10C28A60221C0C325346A946E9
:101AF0000C25E360556090603378013333705846AD
:101B0000CA6003F05DF939685A46D1609760307851
:101B1000013830704C46956914758A4641464C1B15
:101B200003994E4B4E691960B460201C03F0C4FF4A
:101B30000706380E012801D100F0FAFC524617685A
:101B40007C69A36B454D59690C242B600C600C20FB
:101B500003F0B2FF0606300E012801D100F0DDFCD3
:101B600051460A6854693D4FA36B3A6099464B68E9
:101B700049464869396004683A4906223848984617
:101B800003F05AFE354D5B4628609D6851462E1C79
:101B900002C65A46966052460C324346CB60324EDD
:101BA0005460906037785946013737705846CA609C
:101BB00003F0F6F82F685A469560D7603078002415
:101BC0000138307014754B469469244D5A692B6066
:101BD000D460201C03F070FF01060E0E012E01D10F
:101BE00000F08FFC3C681D4960690C60836B7A686B
:101BF0005D69894690460B6006221A4918482C6890
:101C00009A4603F019FE59468D684B462E1C186003
:101C10003A1C80C60C3243468E60FB60124E546004
:101C20009060307801303070CA60584603F0C8F8D0
:101C300029685A46D160956035780024013D357099
:101C40001475534694695A69884649460B60146175
:101C5000201C03F031FF01060F0E07E034E60040C0
:101C60008C080040004F010028690040012F01D17D
:101C700000F03BFC41460E687269FA4BD06B1E6067
:101C8000029006224D68F848F84903F0D5FDF54F5B
:101C9000594638608F6842463C1C04C443460C32A7
:101CA0000D268C60DD6056609060F14E3478013412
:101CB00034705846CA6003F073F83C685946CC60EB
:101CC0008F603578013D3570002008758B6962683A
:101CD00098461E219246814688440622E349E248FE
:101CE00003F0AAFDDF4F594638608F683D1C10C5D0
:101CF0005346221C8D600C32E3600B2353609060CE
:101D0000307801303070CA60584603F049F83968BD
:101D10005A46D160976035784C46013D3570147550
:101D2000029F96697869CF4B8A4641468C1B446076
:101D30001F60201C03F0C0FE01060D0E012D00D116
:101D4000C9E3524617687C69E36BC64D5E6920247F
:101D50002B60B460202003F0AFFE0206100E0128B5
:101D600000D1AFE351460B685C69E26BBD4D57692A
:101D70000B242A603C600B2003F09EFE0606310E09
:101D8000012900D195E352461168B64F4C6939607C
:101D9000E36B526858693B6004689046B349062279
:101DA000B148994603F048FDAE4D594628608D680C
:101DB00052462E1C04C643468E600C325146CB6000
:101DC000AB4E5460906037785B46013737705846A9
:101DD000DA6002F0E5FF2F685946CF608D603578F4
:101DE0000024013D35700C754A468C699D4B516944
:101DF0001A60CC60201C03F05FFE0206160E012E56
:101E000000D14CE33C686069C36B964A9A46146003
:101E100051467B684D69914611609348934906226B
:101E200098462C6803F008FD5B469D684A462E1CC8
:101E3000106080C63A1C0C32594643468E60FB60E7
:101E40008B4E54609060307801303070CA605846D4
:101E500002F0B6FF29685A46D160956035780024B3
:101E6000013D3570147553468846494694690B60A8
:101E70005969201C0C6103F01FFE0206170E012F8A
:101E800000D102E341460E687269764B106C1E6009
:101E9000019006224F687448744903F0CDFC714DDF
:101EA000594628608D6842462C1C04C443460C32B7
:101EB0000D268C60DF60566090606D4E3478013482
:101EC00034705846CA6002F06BFF2C685946CC60EB
:101ED0008D603778013F377000250D758B6962681A
:101EE00098461E2080449246604906225E4803F0D0
:101EF000A3FC5C4F594638608F683A1C10C25346A9
:101F00008A60221CE3600C320B2353609060A94668
:101F10003578013535705846CA6002F041FF3D689A
:101F200059468F60CD6030784C46013830700C7562
:101F3000019F8A694B4E41467B698C1A37605C6011
:101F4000201C03F0B9FD0006010E012900D192E228
:101F50002E687169434A086C166000904349062256
:101F600041486C6803F068FC3E4F594638608F6802
:101F70003B1C20C32A1C0C320D268B60EC60566083
:101F800090603B4E3578013535705846CA6002F096
:101F900017FF3D685A46D56097603778013F377024
:101FA0000020107591696B688146884606222F498A
:101FB0002D489A4603F040FC2A4F5A4638609768ED
:101FC000391C20C120245346A0442C1C91600C34A1
:101FD000EB600C256560A0603078594601303070A8
:101FE000CC60584602F0ECFE3A685B46DA609F60CF
:101FF00035785946013D4C4635700C75009F88690F
:10200000184B41467E690C1A1F60B460201C924632
:1020100003F052FD0206150E012D00D121E25246B9
:1020200017687C69236C0F4D5A690C242B6014606F
:102030000C2003F041FD0606310E012900D107E214
:1020400051460A685469074F236C3A6099464B68B9
:10205000494648693960046804490622024898469E
:1020600008E0000034E600408C080040004F01000A
:102070002869004003F0E0FBE74D5B4628609D685F
:1020800051462E1C02C65A46966052460C324346B2
:10209000CB60E24E54609060377859460137377014
:1020A0005846CA6002F07CFE2F685A469560D76099
:1020B000307800240138307014754B469469D64D41
:1020C0005A692B60D460201C03F0F6FC0606310E22
:1020D000012900D1B2E13C686569CF492B6C0C60E5
:1020E0007A685869894604680B609046CC49062294
:1020F000CC489A4603F0A0FB59468D684B462E1CEF
:1021000018603A1C80C60C3243468E60FB60C34E9A
:10211000546090603778013737705846CA6002F0D3
:102120004FFE2F685946CF608D6035780024013D01
:1021300035700C7552464B468C691A605369201CE9
:102140001C6103F0B9FC0206110E012900D16BE1FC
:1021500039684C69606CB04D46691E242860746013
:102160001E2003F0A9FC03061A0E012A00D14AE141
:102170003A685469636CA84D596920242B608C60BF
:10218000202003F099FC0006060E012E00D131E15B
:102190003E687469636CA04D5A690D242B6014600D
:1021A0000D2003F089FC0106080E012800D118E17A
:1021B0003C6865696B6C984A9A4651461460486958
:1021C0007B680468914611609648954906229846B6
:1021D00003F032FB5B469D684A462E1C106080C6A9
:1021E0003A1C0C32594643468E60FB608B4E54605D
:1021F00090603778013737705846CA6002F0D0FDDA
:102200002F685946CF608D6035780024013D3570C8
:102210000C7552468C6956694B461A60F460201C56
:1022200003F04AFC0206110E012900D1CFE03C6800
:1022300065696B6C784A9A465146146048697B68B8
:10224000046891461160774875490622984603F064
:10225000F3FA5B469D684A462E1C106080C63A1C05
:102260000C32594643468E60FB606C4E5460906061
:102270003378013333705846CA6002F0A1FD2F68ED
:102280005946CF608D6030780024013830700C756D
:1022900052468C6955694B461A602C61201C03F02C
:1022A0000BFC0206170E012F00D186E003F05AFD49
:1022B00008B078BC9846A146AA46B346F0BD514640
:1022C0000E68317822780B1C9A4201D2FFF743FA4C
:1022D0002170BD68A81CFFF740FA51460E6831789E
:1022E00022780B1C9A4201D2FFF7F2F92170FFF716
:1022F000EFF92E68317825780B1C9D4201D2FFF74B
:10230000A4F92170FFF7A1F9326811786E790B1CDE
:102310009E4201D2FFF785F96971FFF782F93068B3
:102320000178EE7B0B1C9E4201D2FFF763F9E97343
:10233000FFF760F951460E68317822780B1C9A42FB
:1023400001D2FFF73DF92170FFF73AF93568297896
:1023500026780B1C9E4201D2FFF7F0F82170FFF7A0
:10236000EDF82A68117825780B1C9D4201D2FFF701
:10237000A7F82170FFF7A4F82E68317825780B1C98
:102380009D4201D2FFF789F82170FFF786F8306887
:102390000178EE7B0B1C9E4201D2FFF76BF8E973CC
:1023A000FFF768F82868017825780B1C9D4201D258
:1023B000FFF7E8F92170FFF7E5F949460E68317833
:1023C00027780B1C9F4200D270E721706EE74946C8
:1023D0000868017826780B1C9E4200D227E72170FE
:1023E00025E72868017825780B1C9D4200D2DFE69E
:1023F0002170DDE62E68317825780B1C9D4200D2D5
:10240000C6E62170C4E62A68117825780B1C9D4227
:1024100000D2ADE62170ABE634E60040286900400A
:10242000004F01008C080040494608680178267872
:102430000B1C9E4200D28BE6217089E67B48056822
:10244000297826780B1C9E4200D244E6217042E691
:102450002868017825780B1C9D4200D2F0E5217098
:10246000EEE572480768397825780B1C9D4200D24A
:10247000D5E52170D3E56D490868017827780B1CF4
:102480009F4200D264E5217062E54A4616683178C1
:1024900027780B1C9F4200D2F4E42170F2E46348D9
:1024A0000568297826780B1C9E4200D2AAE4217088
:1024B000A8E42868017825780B1C9D4200D262E4CC
:1024C000217060E42868017825780B1C9D4200D2B9
:1024D00048E4217046E455490F68397825780B1C8B
:1024E0009D4200D22DE421702BE44A4616683178D3
:1024F00027780B1C9F4201D2FFF7BCFB2170FFF72E
:10250000B9FB4A480568297826780B1C9E4201D2FF
:10251000FFF768FB2170FFF765FB286801782578D5
:102520000B1C9D4201D2FFF71BFB2170FFF718FB2C
:102530003E4A1568297827780B1C9F4201D2FFF785
:10254000FDFA2170FFF7FAFA2A68117825780B1C3A
:102550009D4201D2FFF788FA2170FFF785FA4A46BB
:102560001668317827780B1C9F4201D2FFF76AFA70
:102570002170FFF767FA49460868017826780B1C36
:102580009E4201D2FFF71DFA2170FFF71AFA286860
:10259000017825780B1C9D4201D2FFF7D2F92170FA
:1025A000FFF7CFF92E68317825780B1C9D4201D2B8
:1025B000FFF7B6F92170FFF7B3F92A68117825788B
:1025C0000B1C9D4201D2FFF79AF92170FFF797F992
:1025D00049460868017826780B1C9E4201D2FFF715
:1025E0007DF92170FFF77AF9494608680178267865
:1025F0000B1C9E4201D2FFF731F92170FFF72EF933
:102600002E68317825780B1C9D4201D2FFF7DCF84B
:102610002170FFF7D9F82A68117825780B1C9D42A4
:1026200001D2FFF7C0F82170FFF7BDF834E6004093
:10263000F0B55F4656464D464446F0B4C1680E6854
:1026400074692268F74D53690A24071C2A605C608C
:102650000A208A4603F030FA0106080E012800D14C
:102660000AE25246106844692368EE4D5969142401
:102670002B608C60142003F01FFA0606320E012A2C
:1026800000D17BE251460E6874692368E54D5A69B2
:1026900006242B601460062003F00EFA0006010EDB
:1026A000012900D161E252461668DE4975690E6063
:1026B0002B68526858698B4604680B609046DA496B
:1026C0000622DA48994603F0B7F8BD6851462A1C3D
:1026D0005B46186002C2BA605246083243468B60BD
:1026E00054609060D24C267801362670381CFA600F
:1026F00002F056FB2E68BD60FE602578013D257016
:1027000000243C754946BC694B695A461160DC603F
:10271000201C03F0D1F901060A0E012A00D11AE2A9
:10272000346865692B68BF4A994614604946486910
:102730007368046893461160BC48BB4906229A46F8
:1027400003F07AF8BD685A46291C106040C1321C5B
:1027500008325346B960B36054609060B44E337829
:1027600001333370381CFA6002F02AFB2968BD601F
:10277000F96030780024013830703C754A465B4679
:10278000BC691A605369201C1C618A4603F094F9E5
:102790000606350E012D00D1D3E1524611684C6971
:1027A0006068A04D4669342428607460342003F0CA
:1027B00083F903061A0E012A00D1B9E151460E68C9
:1027C00074696368974D5A6914242B6094601420CF
:1027D00003F072F90106080E012800D19FE152466C
:1027E0001068446963688F4D596907242B600C6039
:1027F000072003F061F90606320E012A00D185E1B7
:1028000051460C686069874A4368146099464B6872
:1028100049464D69934611608448834906222C68D5
:10282000984603F009F8BD6851462E1C5A461060C0
:1028300002C6524608324346BE608B607C4E5460EE
:102840009060307801303070FA60381C02F0A8FADD
:102850002968BD60F96035780024013D35703C750C
:102860004A465B46BC691A605369201CDC608A4694
:1028700003F022F90006010E012900D13CE1524685
:102880001468684960690C60436852685D698B46EA
:102890000B6090466449062264482C68994602F011
:1028A000CBFFBD6851462E1C5B461860524602C6DF
:1028B00008324346BE608B605D4E54609060307855
:1028C00001303070FA60381C02F07AFA2968BD6075
:1028D000F96035780024013D35703C754A465B4609
:1028E000BC691A605369201C1C618A4603F0E4F835
:1028F0000006020E012A00D1F4E0524611684C692C
:10290000A668484D73695A242E605C605A2003F013
:10291000D3F80006020E012A00D1DAE05146086819
:102920004469A3683F4D5A6916242B6094601620B1
:1029300003F0C2F801060E0E012E00D1C0E052468F
:1029400016687469A368374D596908242B600C60B8
:10295000082003F0B1F80006020E012A00D1A6E01B
:1029600051460C6860692F4A8368146099464B6829
:1029700049464D69934611602C482B4906222C6824
:10298000984602F059FFBD6851462E1C5A46106009
:1029900002C6524608324346BE608B60244E5460E5
:1029A0009060307801303070FA60381C02F0F8F92D
:1029B0002968BD60F96035780024013D35703C75AB
:1029C0004A465B46BC691A605369201CDC608A4633
:1029D00003F072F80606310E01295FD052461468E2
:1029E000104960690C60836852685D698B460B60B2
:1029F00090460D4906220D482C68994602F01CFFAE
:102A0000BD6851462E1C5B461860524602C608320D
:102A10004346BE608B60064E546090603178013151
:102A200008E0000034E60040004F01008C08004040
:102A3000286900403170381CFA6002F0C1F928683A
:102A4000BD60F86033780024013B33703C75494623
:102A5000BC6948695A4611600461201C03F02CF8D7
:102A60000206170E012F10D003F07CF978BC9846AF
:102A7000A146AA46B346F0BD2868017825780B1C0C
:102A80009D4200D2EDE52170EBE559460E683178A4
:102A900027780B1C9F42E7D32170E5E759460D6864
:102AA000297826780B1C9E4298D3217096E72868D7
:102AB000017825780B1C9D4200D251E721704FE729
:102AC0002E68317825780B1C9D4200D237E72170A3
:102AD00035E72868017825780B1C9D4200D21DE758
:102AE00021701BE759460D68297826780B1C9E42F9
:102AF00000D202E7217000E759460D682978267850
:102B00000B1C9E4200D2BAE62170B8E62E683178DE
:102B100025780B1C9D4200D272E6217070E6286871
:102B2000017825780B1C9D4200D258E6217056E6AC
:102B30002E68317825780B1C9D4200D23EE621702C
:102B40003CE659460868017826780B1C9E4200D264
:102B500023E6217021E659460A68117820780B1C7B
:102B6000984200D2DCE52170DAE528680178257802
:102B70000B1C9D4200D296E5217094E52E683178B9
:102B800025780B1C9D4200D27CE521707AE500007F
:102B9000F0B557464E464546E0B4C5680024AC60E3
:102BA00083686F68984620C3494C8360EF60227841
:102BB000061C281C0C300132227081B0F060301CE1
:102BC00002F0BCF841460F68B160F760237800213D
:102BD000013B237032E038687B68426999468B007C
:102BE0009D58686941683B4C8846816825608A46E3
:102BF000056839490622394802F01EFEB268206095
:102C0000009280C23C1C4946B2600C34F9604346D5
:102C10005146A160E56020612D4D63602F7801373A
:102C20002F70301CF46002F09DF8009A1768B260B3
:102C3000F760297801392970B868411CB9601229F8
:102C4000C9DB274C796827482368884605682249EC
:102C500006222248994602F0EFFDB3681D4A9A46C3
:102C6000106080C33A1CB3600C3241464B460224CC
:102C7000F9609560D4601061154C5360237801337E
:102C80002370301CF26002F06DF851460A68B160A2
:102C9000F2602078471E2770B7683D1C5168131CEE
:102CA00004C50C33B560D1602070F360301C02F0B5
:102CB000CDF83D68B760F5602678013E267003F0D8
:102CC00051F801B038BC9846A146AA46F0BD0000B4
:102CD0002869004034E60040004F01008C080040A5
:102CE0008CE6004094E6004030B58168C2680D1C57
:102CF000146804C585605460151D054A1478631C6A
:102D00001370C5600B68C3608160147030BD000033
:102D100028690040F0B557464646C0B4274A00230C
:102D2000C56882469C469046AB60EB606B600CE0E9
:102D3000234E43461A60346883689C4201DDBC42DE
:102D400035DB6B6801336B609C462C6821698C45D0
:102D500021DA61696746B80043585E697268F768AE
:102D6000D619AE60616943585A69474691683B601D
:102D70001369CF18EF60134A63691168C25850692C
:102D80004368994204DDB142D2DB47463A60D8E756
:102D900043461A60D5E7012157464246484201257D
:102DA0001460B8613D7518BC9846A246F0BD524605
:102DB0006746012497611475F5E7000034E600408A
:102DC00094E600408CE60040F0B5474680B4C46805
:102DD0000025A560071C182002F0F2FCDA4ADB4946
:102DE0001568DB4E0B68062028613560281C9D4263
:102DF0000AD0D84B19782A780B1C9A4201D3297033
:102E00003068216902F0FCFF0020256109E0226999
:102E1000CF4B51698500802068501A60A669013641
:102E2000301CA0610628F2DBBD682B1C10C3211CDE
:102E30001C3180200022BB60E261C64C48608046A5
:102E4000207801302070F960381C02F0E1FA2A681D
:102E5000BD60FA602078461E2670BE68351C04C529
:102E60000123111CBD601C31D36142464A602070B1
:102E7000F960381C02F0CCFA3268BE60FA60207843
:102E8000451E2570BD682E1C04C6BE60161C434638
:102E90001C360221D16173602070FE60381C02F084
:102EA000B7FA2E68BD60FE602078451E2570BD68AB
:102EB000291C40C1B960311C1C3142460323F36117
:102EC0004A602070F960381C02F0A2FA2A68BD60DE
:102ED000FA602078461E2670BE68311C04C1B960B5
:102EE000111C1C3143460625D5614B602070F960EA
:102EF000381C02F08DFA3168BE60F9602078451EFA
:102F00002570BD682E1C02C6BE600E1C1C364246D3
:102F10000723CB6172602070FE60381C02F078FAE3
:102F20002E68BD60FE60217801392170A046BC6822
:102F3000231C40C3BB6040460278351C1C3501325F
:102F40000270FD60381CFDF767FE2568BC60FD60FF
:102F50004146087801380870BC6900263E75012C8E
:102F600000D1D1E0BC6820C4BC6043461A7801326D
:102F70001A70261CBC68291C1C31201C02C001329E
:102F8000B86004234046EB610270F960381C02F01F
:102F9000E3F92068BC60F86041460A78013A0A709B
:102FA000BC69642C00DBABE00123BB613B75331FC4
:102FB0001E68684AFE60BB60107801381070B969FD
:102FC000002590463D7501293AD0B368012BAED15A
:102FD00011E00123BB613B752B1F1E685D4AFE603B
:102FE000BB60107801381070BD69002190463975BA
:102FF000012D00D0A2E0BC6840C4BC6043461A78F2
:1030000001321A70251CBC68311C1C31201C02C006
:103010000423B86001324046F3610270F960381C45
:1030200002F09AF92068BC60F86041460B78013BD9
:103030000B70BE69642ECCDB00260123BE61CAE79B
:10304000BC68231C316840C3BB60F1614046321C40
:1030500006781C3201360670FA60381CFFF75AFEFB
:103060002668BC60FE6041460C78013C0C70BC696F
:103070003D75F460621C00D197E0002C00DA6BE033
:103080000B2C00DD68E00221201C0AF0AFF90221C0
:10309000051C7061201C0AF057FA002800D06DE072
:1030A000316948692A4BAC0022189C4613680433E6
:1030B0006046016013607469002C01DB032C66DD3F
:1030C00031694D696246A30011605959BD68A01C61
:1030D0002C1C40C4321CBC60F0611C321D4C516081
:1030E000267801362670381CFA6002F091F92E68B5
:1030F000BD60FE60207801382070B368A04665E7A7
:1031000000250123BD6151E7BC68231C29686E6856
:103110002A1C20C31C32BB60E9615660404605781A
:1031200001350570FA60381CFFF732FD2568BC6078
:10313000FD6041460E78013E0E7013E702F012FE6C
:1031400008BC9846F0BD0000B0E60040B4E6004080
:1031500034E60040286900400D2C2ED00E2C00D102
:10316000CDE00F2C00D13FE1102C00D1B8E10C2CA8
:103170001FD1D84801238046B36027E73169D64A7A
:103180004C69AD0094462A191368043B90E73069F6
:1031900045696146A20008605159BD682B1C40C3B7
:1031A000321C1C32BB60F46198E7CA49B368884698
:1031B0000CE7C84AB368904608E7BB68984640C326
:1031C0000424BB60F461C34C227801322270311CAC
:1031D000BD681C31F9602B1CF06902C3BB60331C55
:1031E0002033013248602270381CFB6002F0D6F8B0
:1031F0002A68BD60FA6021780139217002F0B2FDC1
:1032000040460268B860FA602078451E2570BD68A7
:103210002E1C04C6111CB14B1C31BE60D361207042
:10322000F960381C02F008F82E68BD60FE60257851
:10323000A046013D257010E00123BB613B752A1FAC
:103240001668BA60FE60A34A107801381070BD6934
:10325000002190463975012D24D1BC6840C4BC6062
:1032600043461A7801321A70251CBC68311C1C3187
:10327000201C02C00132B86004234046F361027092
:10328000F960381C02F068F82068BC60F8604146BC
:103290000A78013A0A70BE69642ECDDB002601234C
:1032A000BE61CBE7BD68291C40C10024B960F46150
:1032B0001278434601321A70311CBC681C31F96027
:1032C000231CF06902C3BB60331C48602033013209
:1032D00040460270FB60381C02F060F82668BC6053
:1032E000FE6041460C78013C0C7002F03BFD2E68FC
:1032F000BD60FE6042461378013B137065E6BB6813
:10330000984640C30824BB60F461724C22780132B5
:103310002270311CBD681C31F9602B1CF06902C39E
:10332000BB60331C2033013248602270381CFB60C4
:1033300002F034F82968BD60F9602678013E2670F5
:1033400002F010FD40460268B860FA6021784D1E18
:103350002570BD682B1C04C3161C60481C36BB605E
:10336000D0612170381CFE6001F066FF2E68BD60E0
:10337000FE602378A046013B237010E00123BB616F
:103380003B752A1F1668BA60FE60524A10780138F1
:103390001070BD69002190463975012D82D1BC683D
:1033A00040C4BC6043461A7801321A70251CBC68C0
:1033B000311C1C31201C02C00132B860042340467D
:1033C000F3610270F960381C01F0C6FF2068BC6030
:1033D000F86041460A78013A0A70BE69642ECDDB76
:1033E00000260123BE61CBE7BB68984640C3012499
:1033F000BB60F461374C227801322270311CBD6809
:103400001C31F9602B1CF06902C3BB60331C2033F4
:10341000013248602270381CFB6001F0BFFF296850
:10342000BD60F9602678013E267002F09BFC4046A4
:103430000268B860FA6021784D1E2570BD682B1CAB
:1034400004C3161C25481C36BB60D0612170381C93
:10345000FE6001F0F1FE2E68BD60FE602378A0469C
:10346000013B237011E00123BB613B752A1F1668E5
:10347000BA60FE60174A107801381070BD690021EB
:1034800090463975012D00D00CE7BC6840C4BC6083
:1034900043461A7801321A70251CBC68311C1C3155
:1034A000201C02C00132B86004234046F361027060
:1034B000F960381C01F050FF2068BC60F86041469C
:1034C0000A78013A0A70BE69642ECCDB002601231B
:1034D000BE61CAE72869004034E60040A0860100CA
:1034E000BB68984640C30224BB60F461374C227825
:1034F00001322270311CBD681C31F9602B1CF0694F
:1035000002C3BB60331C2033013248602270381C78
:10351000FB6001F043FF2968BD60F9602678013E39
:10352000267002F01FFC40460268B860FA602178FD
:103530004D1E2570BD682B1C04C3161C24481C3668
:10354000BB60D0612170381CFE6001F075FE2E68F2
:10355000BD60FE602378A046013B237011E001238B
:10356000BB613B752A1F1668BA60FE60174A107867
:1035700001381070BD69002190463975012D00D0C9
:1035800090E6BC6840C4BC6043461A7801321A70A9
:10359000251CBC68311C1C31201C02C00132B860E3
:1035A00004234046F3610270F960381C01F0D4FE38
:1035B0002068BC60F86041460A78013A0A70BE692A
:1035C000642ECCDB00260123BE61CAE728690040D7
:1035D000A086010030B58168C2680D1C146804C55E
:1035E00085605460151D054A1478631C1370C5600E
:1035F0000B68C3608160147030BD00002869004012
:1036000070B58668C268351C04C58560084D297888
:1036100001312970C260041C01F002FB3068A66011
:10362000E0602B78013B2B7002F09CFB70BD00002A
:1036300028690040F0B557464E464546E0B4C1689B
:10364000071C00200861E14CE14B80462068802285
:10365000002618604861CE618A61BD6802C5DD4CF4
:10366000BD60227801322270BC682E1C0D1C231C08
:1036700081B02435009420C3BB60D64B01320420B6
:1036800048621A70381CFD6001F066FE2168D14A5C
:10369000F960BC60107801381070BB69642B00DBE6
:1036A00055E10123BB613B75301F0668C94CFE60C4
:1036B000B8602278013A2270B9690025A0463D75AC
:1036C000012907D002F04EFB01B038BC9846A14654
:1036D000AA46F0BDC04B1B68002BF3D0072B00D1CE
:1036E000AEE2072B00DD36E1062BEBD1012434627C
:1036F000BB68B2689A4640C3BB6072624446237896
:10370000351C013324352370381CFD6001F016FB95
:10371000504600685146F860B9602678013E267030
:1037200081468568AD490622AD4802F085F8BA6841
:10373000A749131C4C46086010C392464A46BB601A
:103740002432656246230A26042553609660D560BC
:1037500010614046047801340470FA60381C01F0AE
:1037600001FB51460A68B960FA604346197844463D
:103770004E1E2670BE68331C9068151C04C3243589
:10378000BB6050622170381CFD6001F05FFB316846
:10379000BE60F96025786A1E2270B868031C02C3F7
:1037A000BB602570BE682431331C02C30135BB6089
:1037B00081462570381CF96001F032FA3068BE602D
:1037C000F8602278013A227002F0CCFA49460A6881
:1037D000B960FA602078411E2170BB68994604C325
:1037E0008725BB6055622070BC68161C2436FE60BD
:1037F000A2465346546A40C32832BB604146002368
:103800000130736054600870381CFA6001F000FEEB
:1038100052461568BA60FD6044462678013E26701F
:1038200002F0A0FA48460668B860FE60227869494E
:10383000013A22708A46BD682C1C40C4BC605446C4
:10384000301C2678243001362670F860381C01F0D0
:1038500045F92868BD60F8602278531E2370BE6861
:10386000311C01C12430B9602270F860381C01F0AD
:1038700045F93268BE60FA602078451E2570BD6843
:103880002B1CD168161C04C32436BB605162207007
:10389000FE60381CFCF7CCFE2868BD60F8608046EE
:1038A0002078013820704F4907224D4801F0C4FFAD
:1038B000BE684749424608608946311C04C14346F8
:1038C000B96058622378243201332370381CFA60BF
:1038D00001F034F93468BE60FC605046057800267B
:1038E000013D05703E75394EBD6933684946281C57
:1038F0000D609D420AD053462A781B789A4202D323
:103900002B704B461868616902F07AFA00206561F5
:10391000E06133682A1C9D4268D020612C4D002153
:103920001369994260DA50698B0019582960486917
:10393000236A06689E4204D14268372A3FDD062387
:10394000E36122690132111C22616269E8E74346A2
:10395000BB610123A7E6082B00D0B3E6BD682B1C92
:103960007168B468321C40C32432BB607162546019
:103970004446207801302070FA60381CFFF708F9BF
:103980002A68BD60FA602678331C013B2370B0467C
:10399000BE68331C5168956804C3BB60131C243394
:1039A000404651625D602070FB60381CFFF70CFAE6
:1039B0003568BE60FD602778013F277082E6296088
:1039C000232A00DBEAE00923BAE70000B4E600405E
:1039D00034E600402869004048E60040004F0100FE
:1039E0008C080040084F01002A60E069092802D0D5
:1039F000062800D0EEE0BE68321C10C2BA606062D9
:103A00008D480578211C013505702431F960BB68AB
:103A100081469846606A02C3BB60231C28334C462B
:103A2000013548602570381CFB6001F0B7FC40464A
:103A30000268B860FA6021780139217002F092F9C9
:103A40003268BE60FA6021784D1E2570BD68281C62
:103A500004C0161C794B2436B8605362381C2170A0
:103A6000FE6001F0E9FB2A68BD60FA602578681EF7
:103A70002070B9680B1C04C388460026111CBB606B
:103A8000243156622570BB68F9609A46506A02C3B9
:103A900028320135BB6048602570381CFA605446F6
:103AA00001F07CFC2668BC60FE6048460478013C5E
:103AB000047002F057F941460868B960F8604A4658
:103AC0001578013D1570BB6801C35B4ABB60157872
:103AD00001351570BE68011C2431341C02C4013547
:103AE0009A460423BC6043621570381CF960141CAC
:103AF00001F032FC3268BE60FA602578013D257025
:103B0000BC69642C00DB93E00123BB613B75534629
:103B1000043B1E684848FE60BB600478013C0470AA
:103B2000B969002582463D75002900D183E611E080
:103B30000123BB613B754346043B1E683E48FE6063
:103B4000BB600278013A0270BD6900218246397576
:103B5000012D25D1BB6840C3BB60984653461A78F7
:103B600001321A70BD68301C24302C1C01C4013293
:103B7000BC600423544673622270F860381C01F064
:103B8000EBFB2968BD60F9602278013A2270BE69BA
:103B9000642ECDDB00260123BE61CBE70523CFE6F3
:103BA000BC68231C3168B268351C40C32435BB6037
:103BB00071626A605146087801300870FD60381CF7
:103BC000FCF710FC2668BC60FE6052461778013F87
:103BD000177077E5BD682E1C10C6174BBE6060627B
:103BE0001A7801321A70B868211C2431F9608246B3
:103BF00099465346606A02C3261CBB600132486086
:103C0000283649460A70381CFE6001F0C7FB524650
:103C10001368BA60FB604C4621780139217002F0CC
:103C2000A1F82868BD60F8602678013E26704AE752
:103C300000200123B86169E728690040204E000098
:103C400003243462B868031CB26840C3BB6072626C
:103C500041460D78341C2434013582460D70381CE1
:103C6000FC6001F06BF8524612685346FA60BB6084
:103C7000444620780138207091469668EC49062227
:103C8000EC4801F0D9FDB968EB4A0B1C10604A46BC
:103C900004C3BB604B465E6224328A46462304213D
:103CA0000A2553609560D160106126780136267030
:103CB000381C5446FA6001F055F82568BC60FD6078
:103CC000404601784C1E0470BC68231CA8682E1C5A
:103CD00020C342462436BB6068621170381CFE6007
:103CE00001F0B4F82168BC60F96043461E78444690
:103CF000751E2570B868031C02C3BB602670BD68C2
:103D000024318246281C02C00136B8602670381C57
:103D1000F96000F085FF2A68BD60FA602678013EF0
:103D2000267002F01FF851460E68B960FE602178D7
:103D300001392170C246BD682C1C40C4BC60544689
:103D4000301C2678243001362670F860381C00F0CC
:103D5000C5FE2868BD60F8602278531E2370BD68D8
:103D6000291C01C12430B9602270F860381C00F0B1
:103D7000C5FE2A68BD60FA602078461E2670BE68BF
:103D8000331CD168151C04C32435BB6051622070FC
:103D9000FD60381CFCF74CFC3068BE60F860804663
:103DA000207801382070A5490722A24801F044FD7F
:103DB000BE68A149424608608946311C04C1434699
:103DC000B96058622578243201352570381CFA60B4
:103DD00000F0B4FE3568BE60FD6022780026013A2E
:103DE00022703E75964EBC6933684946201C0C60B3
:103DF0009C420AD0534622781B789A4202D3237001
:103E00004B461868696901F0FBFF00206C61E861AE
:103E10003368221C9C4232D02861874C00211369F0
:103E200099422ADA50698B001958216048692B6A37
:103E300006689E4211D18268412A18DDAB690233BF
:103E4000AB616B6928695A698600B25851694B6841
:103E50002260372B06DD0623EB612A69511C6A6953
:103E60002961DCE72260232BF7DA0923F4E72160DC
:103E7000372AE6DAAB69023BE2E72260E869802490
:103E8000AA6963009A4200D017E1FF22AA610928BB
:103E900001D0062868D1BE68341C20C4BC60694CBF
:103EA0006862227801322270B868291C2431F960D6
:103EB00080464346686A02C3BB602B1C283301322C
:103EC00048602270381CFB6001F068FA41460868BF
:103ED000B960F8602578013D257001F043FF326834
:103EE000BE60FA602078461E2670BE68311C04C190
:103EF000151C554B2435B96053622070FD60381C89
:103F000001F09AF93568BE60FD602078411E21708D
:103F1000BB68984620C30026BB606E622070A14635
:103F20002A1CBC682432FA60A24653466C6A04C359
:103F3000494628350130BB6054600870381CFD606C
:103F400001F02CFA52461668BA60FE604C4625789D
:103F5000013D257001F006FF40460568B860FD6030
:103F6000217801392170AA69BE68311C20C1B9606D
:103F70006A62344A92461278534601321A70291CFA
:103F8000BC682431F960231C00208146686A02C3A2
:103F9000BB602B1C2833A0464C464C600132586055
:103FA00050460270FB60381C01F032FA4146086846
:103FB000B960F86052461478013C147001F0D2FEEA
:103FC0003168BE60F96053461D7854466E1E2670F7
:103FD000BB6802C3BB602570BE68081C321C24305D
:103FE00001C2013598460423BA604B622570F8601F
:103FF000381C01F0B1F93268BE60FA602578013DE5
:104000002570BE69642E5DDA0123BB613B754346B2
:10401000043B1E680B49FE60BB600B78013B0B70D4
:10402000BD6900248A463C75002D00D183E620E05E
:10403000004F01008C08004034E60040084F0100AA
:10404000B4E6004028690040204E00000123BB6117
:104050003B754346043B1E681C48FE60BB6001780C
:1040600001390170BD69824600203875012D00D0EC
:1040700096E5BB6840C3BB60984653461A78013248
:104080001A70BD68311C24312C1C02C40132BC6082
:10409000042354467362381C2270F96001F05CF905
:1040A0002868BD60F8602278013A2270BE69642EEB
:1040B000CCDB00260123BE61CAE7002A00DBE6E66E
:1040C0000022E3E648460123B8619FE728690040E3
:1040D000F0B55F4656464D464446F0B4051CC668EA
:1040E00090B01021F64801F01BFBAA68F54C9046F1
:1040F000276840C2341CAA60143480220121402069
:104100007761F14B6260A060E1601E7801361E703D
:10411000281CEC609946FCF705FB424612684346B2
:10412000EA60AB60E9494B4618789246E84C0A6869
:10413000461E1E70381C276097420AD032063B7814
:10414000110E8B4201D33E7020685246516801F037
:1041500057FE53465F601021D94801F0E1FAD94E6D
:104160003768AE685346321C08C2AA605246143201
:10417000402000215F6150609060D160D24B1C787C
:1041800001341C70281CEA609A46FCF7CBFA3268AE
:10419000AE60EA605346CD4918789046CC4C0A6828
:1041A000461E1E70381C276097420AD033063A78A4
:1041B000190E8A4201D33E7020684246916801F090
:1041C0001FFE43469F60AE68301C08C0BE4BA8600F
:1041D0001C784246143201341C70281CEA609A464E
:1041E00000F030FE3268AE60EA6053461C78671E0D
:1041F0001F70AF68391C5068161C04C11436A960C2
:1042000050611C70281CEE60FBF722FF3A68AF601B
:10421000EA6053461F78791E1970AE68341C04C4D6
:104220001432AC60281C1F70EA60FCF7E1FD3268B4
:10423000AE60EA6053461E78701E1870AB68191C99
:1042400004C19B4687245346A96054611E70101C0C
:10425000AB681430E8609946002398464F4653698E
:1042600001C79C464346AF601832436063465360C3
:10427000013653461E70281CEA6001F0C9F84B460F
:104280001F68AB60EF60534619780139197001F06F
:1042900069FD5B461E68AB60EE6053461A78541E9B
:1042A0001C70AC68201C40C08A49A8608A481A70FB
:1042B000143620226427EE600F60026001F052FD88
:1042C0002168AC60E96053461C78661E1E70AE68BB
:1042D000371C02C780239B46081C4346AF6014303E
:1042E0004B615A46534642601C70E860281C01F03E
:1042F0008FF83468AE60EC6053461878471E1F7024
:10430000AF68391C10C1A960211C14315A4601261E
:1043100066614A601870E960281C01F079F83A6813
:10432000AF60EA6053461878441E1C70AC68271CC6
:1043300004C7111C0226AF60143156615A464A6008
:104340001870E960281C01F063F82268AC60EA602C
:1043500053461878471E1F70AF68391C04C1141CDF
:104360000326A960143456615A4662601870EC60E6
:10437000281C01F04DF83C68AF60EC60534618789B
:10438000471E1F70AF68391C10C1A960211C143171
:104390005A46062666614A601870E960281C01F0DA
:1043A00037F83A68AF60EA6053461878441E1C70CC
:1043B000AC68271C04C7111C0726AF601431566176
:1043C0005A464A601870E960281C01F021F82368F9
:1043D000AC60EB60984653461F78013F1F70142273
:1043E0003E48032101F0D2FA394F041C061C386004
:1043F0003648026894420CD0534619782278081C3B
:10440000824201D321703E684246301CD16801F0DF
:10441000F7FC4346DC6012211422304801F0B6FA62
:104420002A492B4F0A68041C3C6094420BD0264B4F
:104430001E782278311C8A4201D3267038684246A1
:10444000116901F0DDFC43461C6125490F22254816
:1044500001F0F2F9AC681E4E271C4346306008C7D5
:10446000AF605861184B1978424614320131197007
:10447000281CEA60994600F09BFD2268AC60EA6067
:104480004B4619784E1E1E7053689846AB681F1C29
:10449000D06804C7141CAF609A4650611434424679
:1044A0004B466260281C1970EC60FEF7C1F8534659
:1044B0001C68AB60EC604B4619784E1E1E7013E012
:1044C000BC000040B0E6004028690040B4E600406F
:1044D00034E600408CE6004094E60040AC0000402A
:1044E000104F01008C08004063689C46AB681F1C9D
:1044F000E068261C10C762469B4614364B46AF60E8
:1045000060617260281C1970EE60FBF76BFF5B4600
:104510001E68AB60EE604B4619784C1E1C707368C9
:104520009846AB681F1C3069341C40C742469A4607
:1045300014344B46AF6070616260281C1970EC60E7
:10454000FCF772FF53461C68AB60EC604B461E786C
:10455000311C01394B46197063689B46A3689C4621
:10456000AB681F1CE1682069B04610C7261C1436D2
:104570005A46AF609A4661616346B26044464A4615
:104580007060F360281C1470EE60FFF753F8534618
:104590001A68AB60EA604B461F78013F1F70AE6837
:1045A000089604C6AE60324E377814320137377041
:1045B000281CEA60FCF730FB08990F68A960EF60DF
:1045C0003278013A3270A8690024A0462C75002880
:1045D00030D0AB68F9687A683C1C069380C3143409
:1045E000AB6079616260307801303070EC60281C1B
:1045F000FBF7F8FE069F3C68AF60EC603078411E28
:104600003170AB68E268271C049310C31437AB60A9
:1046100062613070EF60281CFBF7BCFF04990F68E3
:10462000A960EF603278013A3270124BA8694446B3
:104630002C751860AA68F96838697C68BB680192B3
:1046400080C2AA603A1C1432796194605060D360D1
:10465000307801303070EA60281CFEF7EBFF019CD7
:104660002268AC60EA603778013F377097E7000056
:104670002869004048E6004070B58168C5680C1C98
:104680002A6820C484606A60124A14782E1D631C54
:104690001370C6600D688160C560147000202C68BE
:1046A00001F08EF80C4E636935680C4E00222A61C9
:1046B00034601D60281C01F0FFF90106080E012876
:1046C00000D070BD3268117828780B1C9842F8D35E
:1046D0002970F6E728690040B0E6004034E6004063
:1046E000F0B58168C6680A1C376840C28260B7624C
:1046F000434A1478351C2835631C1370C5600D6857
:104700008160C560002114700024EC602C610CE015
:104710006F687E69880083595A6916683069394F15
:10472000241801313E60EC602961AB689942EFDBEF
:10473000600001F045F834490F683C61334C314E5C
:104740002368381C37609F420AD02D4C21783A7874
:104750000B1C9A4201D339703068296901F050FB73
:10476000AB68002000212F616861A961994232DAAB
:104770006B685F698800C4596269116831600A69B1
:104780006C690027EA612C626F6218E06A68AB69A5
:1047900051699F007B585A692869336011686F6AB4
:1047A0004A697B00995A476930606000C1532A6AA0
:1047B000696A01320131141C2A626962EA69944211
:1047C000E4DBAC696F690134AB68B818211C68611F
:1047D000A9619942CCDB2A682C69536932601C605C
:1047E000201C01F069F901060D0E012D00D0F0BD6D
:1047F0003068017826780B1C9E42F8D32170F6E7CA
:104800002869004034E60040B0E60040B4E60040CD
:10481000F0B5474680B48668C168321C0C6802C295
:104820002C4B8260CC611A780D1C571C1C351F70F4
:10483000C56035688660C5601A70EC68600098468F
:1048400000F0BEFF244825490668254F0B683461F7
:10485000301C3E609E4208D04346197834780B1CC9
:104860009C422BD2296901F0CBFAA9680020341CA4
:104870002E616861A96110E06A6856694B00995B16
:1048800062693C604400A1526E69A869013601303A
:104890006E612C69011CA861301CEB689942EBDB4E
:1048A0002E6871693E600C60201C01F005F900065D
:1048B000050E012D05D008BC9846F0BD3170386852
:1048C000D0E73A68117827780B1C9F42F3D3217008
:1048D000F1E7000028690040B0E60040B4E600407F
:1048E00034E6004070B5C2688668041C0E49506802
:1048F00015680860311C036904C1A160111C956032
:104900000831002548608D60CB60084D2A7801325F
:104910002A70201CE160FFF77BFF3068A660E06032
:104920002B78013B2B7070BD34E6004028690040B5
:10493000C3681A6851690A68034B11691A60012338
:10494000816103757047000034E6004010B5C4680B
:104950002268064953690A601A6863680A605269E6
:104960005C00A15A01238161037510BD34E600404B
:10497000024A11680123816103757047B4E6004063
:1049800030B58168C2680D1C146804C58560546028
:10499000151D054A1478631C1370C5600B68C3604D
:1049A0008160147030BD00002869004000B50549E1
:1049B0000548064B00220A6002601A6001F0D2F935
:1049C00000BD00007CE6004020E6004070E60040AC
:1049D00078309FE503D0A0E102AC4DE20010A0E3E7
:1049E00001B0A0E10170A0E14C109FE54C309FE5C3
:1049F000013053E00300000A0020A0E30120C1E4DD
:104A0000013053E2FCFFFFCA34109FE534209FE5DC
:104A100034309FE5013053E00300000A0140D2E446
:104A20000140C1E4013053E2FBFFFFCA0000A0E3F4
:104A30000010A0E36F4100EBFEFFFFEA8C0800408E
:104A4000BCE6004000000040045001008C0800401B
:104A5000FCFF00400120704700B5002201E001305A
:104A600001320378002BFAD1101C00BD00B5C368D9
:104A70001A68064B00219A4204DC054913040A68AF
:104A80001B0CD15C01220275816100BD3F29000031
:104A9000A008004000B5C3681A68054B00219A427F
:104AA00002DC04494B68995C01220275816100BDFA
:104AB0003F290000A008004000B5C168054B0A6806
:104AC00000219A4202DC04498B68995C012202753C
:104AD000816100BD3F290000A008004000B504F03E
:104AE0003BF900BD00B503F0B3FE00BD00B503F017
:104AF00043FF00BD00B503F0C3FF00BD00B5024891
:104B000002F09AFD00BD0000A008004000B5024878
:104B100002F01AFF00BD0000A008004010B5C268F6
:104B2000041C1188044802F035FF0104080C01231D
:104B30002375A06110BD0000A0080040F0B54746F5
:104B400080B4314C314B8046211C31481A6803F047
:104B50006DFC0006050E002D01D0092D08DD2D4F3E
:104B60003E68424601201075966108BC9846F0BD2B
:104B7000294914220868291C00F008FF061E38D0B5
:104B80000027002DEDDD201C17E013061A0E8A60A9
:104B9000C2783F2A02D90022C270616913061A0E38
:104BA000CA600423C3560279002B1EDB13061C0EB9
:104BB00001370C610830AF42D3DA7169BB005C5831
:104BC000027861690A6042783F2A02D93F22427026
:104BD000616913061A0E4A600223C3568278002BBD
:104BE000D3DA7F2282706169CFE7002202716169A6
:104BF000DCE70A4802F0BCFC012642461675054D6A
:104C00002C689461B1E70000AC080040DC00004073
:104C1000A0080040B4E6004008000040204F01001A
:104C200000B5024803F0E4FC00BD0000A00800400D
:104C300000B5C3681878197903F0F6FC00BD0000D0
:104C400000B5024803F0E2FC00BD0000FC08004093
:104C500000B504F081F8024802F04CFD00BD0000F0
:104C6000FC08004000B5C168054B0A6800219A4263
:104C700002DC04490B68995C01220275816100BD68
:104C80003F290000FC08004000B5C168054B0A68D8
:104C900000219A4202DC04494B68995C01220275AA
:104CA000816100BD3F290000FC08004000B5C168DB
:104CB000054B0A6800219A4202DC04498B68995C22
:104CC00001220275816100BD3F290000FC080040FF
:104CD00030B5174CC2682178164D1268CB005919AF
:104CE0008A702278C168D3004A685B195A70C1681B
:104CF0008B68012B17D023780822DB005A55C26835
:104D00002078D168C20053194D6901305D60CA68CE
:104D1000094B01060D0E1A60012D02D900202070EA
:104D200030BD2070FCE72278D3000022E6E70000C7
:104D30009C080040080900401809004010B5C268EE
:104D400013685969C868064942694B6801249A4248
:104D500004D0E000401804F0DFF810BD0024F8E7AC
:104D60000809004070B5C468256869690A4DC868BB
:104D70006B68426981B001269A420BD0074B2079BB
:104D8000217A227BF4001B686419009404F000FB74
:104D900001B070BD0026F1E708090040E0000040C6
:104DA00010B5C368054A041C1168187904F088FA24
:104DB0000106080E01232375A06110BDE00000402C
:104DC00010B5C368054A041C1168187904F0ACFAE0
:104DD0000106080E01232375A06110BDE00000400C
:104DE00030B5C1680B685C69E068074C426963686C
:104DF00001259A4206D0EA0088881219098904F030
:104E0000ADF830BD0025F6E70809004070B5C4686C
:104E1000256869690A4DC8686B68426981B00126D6
:104E20009A420AD0A0882189A289238AF4006419B1
:104E3000009404F003F901B070BD0026F2E7000011
:104E40000809004000B504F0ABFF00BD00B5024802
:104E500005F024FB00BD00000809004010B5C26841
:104E600013685969C868064942694B6801249A4227
:104E700004D0E000401805F049F810BD0024F8E720
:104E80000809004010B5C26813685969C868064926
:104E900042694B6801249A4204D0E000401805F0B2
:104EA00097F910BD0024F8E70809004000B5C36871
:104EB000186804F053FC00BD00B5C368187804F00E
:104EC00073FC00BD00B5C368187804F0FFFC00BD9A
:104ED00010B5041C04F0B4FC0106080E0123237570
:104EE000A06110BD00B504F00DFD00BD00B5C368A4
:104EF000186804F037FE00BD10B5041C04F038FE3D
:104F00000104080C01232375A06110BD00B5C3681E
:104F1000186804F033FE00BD00B5C368186804F0DB
:104F200033FE00BD00B5C3681888197904F03CFE53
:104F300000BD000010B5C268041C108804F07AFEA1
:104F40000106080E01232375A06110BD00B5C368DA
:104F5000187801F05DFF00BD00B5C1680B685869A5
:104F6000D96801F065FF00BD10B5041C01F076FFA3
:104F700001232375207610BD10B5C2681168041C8A
:104F800048690023037001F079FF0006000E012834
:104F900004D00020A0610123237510BDA061FAE7B1
:104FA00000B5C1680B685869D96801F077FF00BD8A
:104FB00000B5C2681168486903680248596902F07F
:104FC000D7FA00BD3C4F0100F0B5474680B4C46835
:104FD00084B02268051C1849684609F0F7FB0126D1
:104FE0002E75164A13680421041C986800F098FB7B
:104FF0000106080EE846FF2817D0114E201C37681E
:1050000000F0DEFB0106080EFF280ED030687B6939
:1050100000211860002C06D94646735C426953543F
:105020000131A142F8D33B1C00E0002304B0AB6186
:1050300008BC9846F0BD0000404F0100B4E60040B7
:10504000B0E60040F0B5474680B4C46884B022881A
:10505000051C1849684609F0B9FB01262E75164A49
:1050600013680421041C986800F05AFB0106080E1E
:10507000E846FF2817D0114E201C376800F0A0FB2F
:105080000106080EFF280ED030687B6900211860E9
:10509000002C06D94646735C426953540131A14243
:1050A000F8D33B1C00E0002304B0AB6108BC984679
:1050B000F0BD0000404F0100B4E60040B0E6004003
:1050C000F0B5474680B4C46884B02268051C18490E
:1050D000684609F07BFB01262E75164A13680421E9
:1050E000041C986800F01CFB0106080EE846FF2827
:1050F00017D0114E201C376800F062FB0106080E25
:10510000FF280ED030687B6900211860002C06D97A
:105110004646735C426953540131A142F8D33B1CAB
:1051200000E0002304B0AB6108BC9846F0BD00006D
:10513000404F0100B4E60040B0E60040F0B54746FD
:1051400080B4C46884B0051C206809F0B5FA184919
:10515000021C684609F03AFB01262E75154A1368B1
:105160000421041C986800F0DBFA0106080EE846EA
:10517000FF2817D0104E201C376800F021FB0106D5
:10518000080EFF280ED030687B6900211860002CC3
:1051900006D94646735C426953540131A142F8D3A3
:1051A0003B1C00E0002304B0AB6108BC9846F0BD96
:1051B000404F0100B4E60040B0E60040F0B547467D
:1051C00080B4C46884B02268051C1849684609F098
:1051D000FDFA01262E75164A13680421041C9868EE
:1051E00000F09EFA0106080EE846FF2817D0114E7F
:1051F000201C376800F0E4FA0106080EFF280ED0E4
:1052000030687B6900211860002C06D94646735C23
:10521000426953540131A142F8D33B1C00E0002302
:1052200004B0AB6108BC9846F0BD0000404F0100DF
:10523000B4E60040B0E6004000B5C368186804F06A
:1052400061FC00BD10B5C168041C086808F0C0FB13
:1052500005F0C4FF08F000FF01232375A06110BD15
:1052600010B5C168041C086808F0B2FB05F00EFE1A
:1052700008F0F2FE01232375A06110BD10B5C168CE
:10528000041C086808F0A4FB05F0F4FE08F0E4FE36
:1052900001232375A06110BD10B5C168041C086806
:1052A00008F096FB05F058FE08F0D6FE01232375A2
:1052B000A06110BD10B5C168041C086808F088FB27
:1052C00005F032FF08F0C8FE01232375A06110BD70
:1052D00010B5C168041C086808F07AFB05F098FE58
:1052E00008F0BAFE01232375A06110BD10B5C16896
:1052F000041C086808F06CFB05F01EFC08F0ACFE0E
:1053000001232375A06110BD10B5041C00F032FE0E
:105310000106080E01232375A06110BD10B5C268F7
:10532000041C107800F04CFE0106080E01232375C2
:10533000A06110BD00B5C368187800F0ABFE00BDD9
:1053400000B5C368187800F023FF00BD00B5C3683E
:10535000187800F039FF00BD10B5C268041C107841
:1053600000F04EFF0106080E01232375A06110BD59
:1053700010B5041C00F082FF0106080E01232375FE
:10538000A06110BD10B5C268041C107800F09CFF2D
:105390000106080E01232375A06110BD00B5C36886
:1053A000187801F00DF800BD00B5C368187801F059
:1053B00095F800BD00B5C368187800F005FF00BD82
:1053C00010B5041C01F0C2F80106080E0123237574
:1053D000A06110BD10B5C268041C107800F074FF05
:1053E0000106080E01232375A06110BD00B5C36836
:1053F000187801F03DF900BD00B5C368187801F0D8
:105400005FF900BD00B5C368187800F0DDFE00BD8F
:1054100000B5C3681878197901F030FA00BD0000B2
:1054200000B501F0CDFA00BD00B501F0E5FA00BD10
:1054300000B5C368187801F0FBFA00BD00B5C36879
:10544000187801F031FB00BD00B5C26882B0136866
:1054500068460380516841809368037100F056FDEF
:1054600002B000BD00B5C26882B013686846038010
:10547000516841809368037100F01EFD02B000BDC9
:1054800000B5C368187801F001FC00BD70B51B4D74
:10549000C26829681160041C194B80681B6804C02D
:1054A00099B0A060002B25D0684600216022189397
:1054B00000F0A4F8134D6E462B6801A82E600093EF
:1054C000189B01F0F3FB002806D02B689E420ED0FB
:1054D00000F0FAFB19B070BD201CFFF767FA2069D5
:1054E0000268201C08F0A2F82B689E42F0D1009CB4
:1054F0002C60EDE7034E3368D6E70000B4E60040C9
:10550000304901000CE50040F0B5A0B004F0AAFA63
:105510008021480100F096F819908020C600802074
:105520001A9600F08FF81B9020202D4E00F08AF87C
:105530002C4C002330602268037035686B70316832
:1055400000248C704C60826031682748274D01220E
:10555000CC600C618C61CC6102604C61199A2C6842
:10556000234B1D9419601C9211601B98214B04C0A1
:105570001B6819AF1B90002B2FD0684600216022BA
:10558000189300F03BF81C4C6D46236801A8256079
:105590000093189B01F08AFB002810D023689D42DD
:1055A00018D000F091FB306800F08EF8199800F0E8
:1055B0008BF81B9800F088F8002020B0F0BD381C54
:1055C000FFF7F4F91D980268381C08F02FF82368DB
:1055D0009D42E6D1009F2760E3E7074D2B68CCE7AB
:1055E000B4E6004008000040ACE600400000004087
:1055F000B0E60040304901000CE5004000B5031C56
:10560000013A03D319700133013AFBD200BD000007
:1056100000B5074B07491A680B780020002B06D00D
:10562000111C53681268DB00C0188A42F9D100BD12
:105630001C09004020090040014B18687047000019
:10564000A8E6004030B50730C008441C174802786F
:10565000002A24D1164B174D191C08315A602B60B3
:10566000154A19609B60154B4A601A60144A154B25
:10567000012101701A602A68106804E02B689842C2
:105680000FD0021C00684368A342F7D3A3420AD09C
:105690001A1BD500426040194460083030BD054DEA
:1056A000E9E70020FAE704681460F6E72009004003
:1056B000280900401C090040FF0B0000240900409D
:1056C000F85F0000A8E6004030B5002819D0134C60
:1056D00021680A680838824204D8111C23681268BD
:1056E0009A42F8D14568EB001B18026008609342AB
:1056F00008D02368994204D04A68D3005C188442D9
:1057000007D030BD03685A68AD181A68456002605A
:10571000EFE7541905684C600D60F2E71C09004082
:10572000F0B5474680B4174E3368DD6980460F1CDC
:10573000002D24D12020FFF785FF041E1FD03268E2
:105740001149D461A261E56134606570087843460F
:105750002070A5706560A3602561E760002F08D107
:1057600067610A4C256801352560002008BC984611
:10577000F0BD381CFFF766FF60610028F1D1FF2003
:10578000F4E70000B0E6004028690040ACE60040C5
:1057900010B500240022002904D0835C0132E418F3
:1057A0008A42FAD30549086803E04268A24203D05E
:1057B00080690028F9D1002010BD0000B0E600404B
:1057C000F0B5474680B4071C1748184E0368984642
:1057D0003368DD69002D03D0FF2008BC9846F0BD7A
:1057E0002020FFF72FFF041EF6D03068104AC46156
:1057F000A061E56134606570117843462170A57041
:105800006560A3602561E760002F06D16761094CE0
:105810002568002001352560DFE7381CFFF712FFFF
:1058200060610028F3D1D7E7B4E60040B0E600405D
:1058300028690040ACE60040F0B557464E46454664
:10584000E0B44D4B884601218246197000200021AA
:10585000161E05D04246545C01310019B142F9D3FD
:10586000464D2A6804E05768874200D175E0926986
:10587000002AF8D100272B68D86900282ED0FF23F2
:10588000FF2B00D175E03D4D2C68AA463C4DE769E1
:105890002B689946002F42D0FF23FF2B69D0374A4F
:1058A000636910680121817018600021002E0AD9F7
:1058B00045466F5C426957546B5C65680131EF186F
:1058C0006760B142F4D32C4E00200121A1703070EA
:1058D000201C38BC9846A146AA46F0BD2020FFF700
:1058E000B1FE041ECBD02868264AC461A061E761DE
:1058F0002C6067701178534604252170A77067608B
:10590000A3602761E5600420FFF79CFE606100282A
:10591000B5D01D4C2768002301372760B0E7202051
:10592000FFF790FE051EB7D052461068C561A8610A
:10593000EF6115606F70134A11784B462970AF7094
:105940006F60AB602F61EE60002E0BD16E610E4F69
:105950003D68002301353D609FE7171E00D18AE7AF
:10596000381CB6E7301CFFF76DFE68610028EED1E9
:1059700092E70020ADE7000030690040B0E600404B
:10598000B4E6004028690040ACE60040F0B55F4650
:1059900056464D464446F0B481B000904148424CD2
:1059A0000368424E9146012222709A463368DD69AF
:1059B00088468F00002D49D0FF23FF2B44D03B4861
:1059C000009907684446B9603C610026002C10DD50
:1059D000834682460268D569002D15D0FF23FF2B30
:1059E00032D0504679690368B200013653504645BB
:1059F000F0DB2D4E00203070381C01B078BC98468A
:105A0000A146AA46B346F0BD2020FFF71BFE041EA8
:105A1000E4D05A4613682649DC61A361E56114604D
:105A200065700878A5702070009B4A466560A36089
:105A30002561E260002A26D162611E4D2C68002398
:105A400001342C60FF2BCCD10020D6E72020FFF7BB
:105A5000F9FD041EB0D03068154BC461A061E5614A
:105A6000346065701E7852462670A5706560A2602D
:105A70002561E760002F0DD167610E4D2F6800236F
:105A800001372F6099E74846FFF7DCFD6061002889
:105A9000D3D1A3E7381CFFF7D5FD60610028ECD116
:105AA0008AE70000B4E6004030690040B0E60040FC
:105AB00028690040ACE6004000B5064B1B6802E0D8
:105AC0009B69002B03D09842FAD1012000BDFF2032
:105AD000FCE70000B0E6004010B58378041C012B01
