:020000040800F2
:10000000000001200D75000815D0000821D000085F
:1000100029D0000831D0000839D0000800000000C5
:100020000000000000000000000000004DD00008AB
:1000300041D000080000000059D00008FD8E0008E3
:1000400065D0000871D000087DD0000889D0000874
:1000500095D00008A1D00008F9BA000859BB0008E3
:10006000B9BB0008C5BB0008D1BB0008ADD0000873
:10007000B9D00008C5D00008D1D00008DDD00008F4
:10008000E9D00008F5D0000801D100080DD1000822
:1000900019D1000825D1000831D10008DDBB0008C6
:1000A0003DD1000849D1000855D1000861D10008B0
:1000B000E195000871970008D9D1000809D200081D
:1000C00015D2000821D200082DD2000839D200082C
:1000D00045D2000859A40008E1C30008C9C40008BB
:1000E0002DBD000851D200085DD2000869D2000879
:1000F00075D2000881D200088DD2000899D200087C
:10010000A5D20008B1D20008BDD20008C9D20008AB
:10011000D5D20008E1D20008EDD20008F9D20008DB
:1001200005D3000811D300081DD3000829D3000807
:1001300030B50278C37890F801C043EA0263827850
:1001400043EA0C4343EA02231C4A934201D0FE20B7
:1001500033E083790579012B447901D0FC202CE030
:10016000037A90F807C053EA0C2C1CBF0E234B8077
:10017000427A837A53EA022201D1FD201DE04FEA40
:10018000CC0C0CF10E0C1FFA8CFC0A2303FB02C3EF
:10019000A1F804C044EA05249BB204F1060C447B98
:1001A000C3EB0C0C0C70A1F80AC0CA800B81037B56
:1001B000C27A002043EA02238B8130BDADDEBABA99
:1001C000054B1B68C3181879086099795B7941EA77
:1001D00003231380704700BF602B00200E4B1A686A
:1001E000831810F802C05A78088042EA0C224A802C
:1001F0009A7800200A71DA788A7193F804C05A79E3
:1002000042EA0C220A8193F806C0DA7942EA0C220B
:100210004A811B7A4B717047602B0020074B0849BD
:1002200003F1080240F2FF3010B5002448609B60E3
:100230005C600B6050601A6010BD00BF150B0020A1
:10024000000B00200E4AC31D1268DB08106810B5B1
:1002500001331446416899420AD302D103682360EE
:1002600004E0CA1A426000EBC2004360083005E0B7
:10027000904202D004460068ECE7002010BD00BFA9
:10028000000B002070B5034600282FD0184AA0F1BB
:100290000804106801680246A14207D80D680A46A2
:1002A000854201D02946F7E70A46014653F8045C27
:1002B00043F8081C04EBC50C8C45146008D153F8B6
:1002C000081C4E680968751943F8045C43F8081C5B
:1002D00082420BD0516802EBC100A04206D153F814
:1002E000040C53F8083C41181360516070BD00BF06
:1002F000000B002010B5044660B10146064801F02D
:1003000065F90146044801F089F90023E3702046AD
:10031000FFF7B8FF10BD00BF080B0020054B10B55C
:100320001C6803E02068FFF7E5FF6468002CF9D142
:1003300010BD00BF080B002010B50430FFF782FF8E
:10034000044628B10123C3702146024801F058F940
:10035000204610BD080B002010B50446FFF7ECFF47
:1003600001228270048010BD38B50D460446FFF7A7
:10037000E3FF0022134605808270A40802E00021FA
:10038000C15001320433A242F9D338BD10B504463E
:100390008000002180B2FFF7E7FF03228270048013
:1003A00010BD00BF2DE9F8450C4692468046FFF788
:1003B000EDFF00250423064683702F4603E0FFF778
:1003C000D3FF013770510435474520465146F6D3D7
:1003D0003046BDE8F88500BF08B5024801F0E4F8F2
:1003E00008BD00BF080B00202DE9F047917986B0C9
:1003F0008DF806101188A44B92F805E092F804C01D
:100400005489ADF80010518812891B6800250495A5
:100410008DF805E08DF804C0ADF80210ADF80A4083
:10042000ADF808201A5D06AB43F8082D06461846BD
:100430003568B76808F0F2FA049A944B53F8223002
:1004400043F001031847904B01341B6806A81B5D5D
:1004500040F8083D08F0E2FA049A8C4B53F8223039
:1004600043F001031847884B06A81A6812199178BF
:100470005278039155F821C055F8221045F822C052
:10048000039A033445F822101B681B5D40F8083DB1
:1004900008F0C4FA049A7D4B53F8223043F001036C
:1004A0001847794A06A813681B19997893F801C070
:1004B000039193F803E055F8213055F82E100434D9
:1004C000CB1845F82C3013681B5D40F8083D08F048
:1004D000A5FA049A6D4B53F8223043F001031847F4
:1004E000694A06A813681B19997893F801C003910B
:1004F000DB7855F8211055F823300434CB1A45F831
:100500002C3013681B5D40F8083D08F087FA049A08
:100510005E4B53F8223043F0010318475A4A06A8AD
:1005200013681B19997893F801C00391DB7855F88B
:10053000211055F8233004344B4345F82C30136810
:100540001B5D40F8083D08F069FA049A4F4B53F8D8
:10055000223043F0010318474B4A06A813681B19C1
:10056000997893F801C00391DB7855F8211055F87C
:100570002330043491FBF3F345F82C3013681B5DF2
:1005800040F8083D08F04AFA049A404B53F82230EC
:1005900043F0010318473C4A06A813681B199978D1
:1005A00093F801C00391DB7855F8211055F82330FA
:1005B000043491FBF3FE03FB1E1345F82C30136843
:1005C0001B5D40F8083D08F029FA049A2F4B53F8B8
:1005D000223043F0010318472B4B06A8196809196C
:1005E0008A784978039255F822200334524245F81C
:1005F00021201B681B5D40F8083D08F00FFA049AA3
:10060000224B53F8223043F0010318471E4A06A834
:1006100013681B19997893F801C00391DB7855F89A
:10062000211055F82330043411FA03F345F82C3027
:1006300013681B5D40F8083D08F0F0F9049A134B6D
:1006400053F8223043F0010318470F4A06A81368F5
:100650001B19997893F801C00391DB7855F82110A4
:1006600055F82330043451FA03F345F82C3013685D
:100670001B5D40F8083D08F0D1F9049A034B53F88C
:10068000223043F001031847602B0020C005010809
:100690009F4A06A813681B19997893F801C0039123
:1006A00093F803E055F8213055F82E10043401EA90
:1006B000030345F82C3013681B5D40F8083D08F033
:1006C000ADF9049A934B53F8223043F001031847D5
:1006D0008F4A06A813681B19997893F801C00391F3
:1006E00093F803E055F8213055F82E10043441EA10
:1006F000030345F82C3013681B5D40F8083D08F0F3
:100700008DF9049A834B53F8223043F001031847C4
:100710007F4A06A813681B19997893F801C00391C2
:1007200093F803E055F8213055F82E10043481EA8F
:10073000030345F82C3013681B5D40F8083D08F0B2
:100740006DF9049A734B53F8223043F001031847B4
:100750006F4B1B681B195A7855F822204AB9DA7872
:100760009B78BDF80A4042EA03231C19ADF8163005
:1007700000E00434664B06A81B681B5D40F8083D8A
:1007800008F04CF9049A634B53F8223043F001030C
:1007900018475F4B1B681B195A7855F822204AB13D
:1007A000DA789B78BDF80A4042EA03231C19ADF8B9
:1007B000163000E00434564B06A81B681B5D40F859
:1007C000083D08F02BF9049A524B53F8223043F0BD
:1007D000010318474E4B1B681B195A7855F8222005
:1007E000002A09DADA789B78BDF80A4042EA032346
:1007F0001C19ADF8163000E00434454B06A81B6800
:100800001B5D40F8083D08F009F9049A414B53F884
:10081000223043F0010318473D4B1B681B195A78DF
:1008200055F82220002A09DCDA789B78BDF80A40C6
:1008300042EA03231C19ADF8163000E00434344BAF
:1008400006A81B681B5D40F8083D08F0E7F8049A0D
:10085000304B53F8223043F0010318472C4B1B68F0
:100860001B195A7855F82220002A09DBDA789B7880
:10087000BDF80A4042EA03231C19ADF8163000E027
:100880000434234B06A81B681B5D40F8083D08F0A4
:10089000C5F8049A1F4B53F8223043F00103184760
:1008A0001B4B1B681B195A7855F82220002A09DDBA
:1008B000DA789B78BDF80A4042EA03231C19ADF8A8
:1008C000163000E00434124B06A81B681B5D40F88C
:1008D000083D08F0A3F8049A0E4B53F8223043F079
:1008E000010318470A4B1B681B199A785978039221
:1008F00055F8211055F8222091420DD11A79DB7854
:10090000BDF80A4042EA03231C19ADF8163004E092
:10091000602B0020C00501080534974B06A81B6812
:100920001B5D40F8083D08F079F8049A934B53F8A2
:10093000223043F0010318478F4B1B681B199A782C
:100940005978039255F8211055F82220914209D088
:100950001A79DB78BDF80A4042EA03231C19ADF886
:10096000163000E00534844B06A81B681B5D40F878
:10097000083D08F053F8049A804B53F8223043F0B6
:10098000010318477C4B1B681B199A78597803920E
:1009900055F8211055F82220914209DC1A79DB78AC
:1009A000BDF80A4042EA03231C19ADF8163000E0F6
:1009B0000534714B06A81B681B5D40F8083D08F024
:1009C0002DF8049A6D4B53F8223043F00103184779
:1009D000694B1B681B199A785978039255F82110B6
:1009E00055F82220914209DA1A79DB78BDF80A40DD
:1009F00042EA03231C19ADF8163000E005345E4BC3
:100A000006A81B681B5D40F8083D08F007F8049A2B
:100A10005A4B53F8223043F001031847564B1B68DA
:100A20001B199A785978039255F8211055F822200D
:100A3000914209DB1A79DB78BDF80A4042EA0323C8
:100A40001C19ADF8163000E005344B4B06A81B68A6
:100A50001B5D40F8083D07F0E1FF049A474B53F84F
:100A6000223043F001031847434B1B681B199A7847
:100A70005978039255F8211055F82220914209DD4A
:100A80001A79DB78BDF80A4042EA03231C19ADF855
:100A9000163000E00534384B06A81B681B5D40F893
:100AA000083D07F0BBFF049A344B53F8223043F063
:100AB00001031847304A06A813681B19997893F860
:100AC00001C00391DB7855F8211055F82330043428
:100AD000994214BF0023012345F82C3013681B5D95
:100AE00040F8083D07F09AFF049A244B53F822304F
:100AF00043F001031847204A06A813681B19997888
:100B000093F801C00391DB7855F8211055F8233094
:100B10000434CB1A18BF012345F82C3013681B5D31
:100B200040F8083D07F07AFF049A144B53F822303E
:100B300043F001031847104A06A813681B19997857
:100B400093F801C00391DB7855F8211055F8233054
:100B500004349942CCBF0023012345F82C3013689C
:100B60001B5D40F8083D07F059FF049A034B53F80A
:100B7000223043F001031847602B0020C005010814
:100B80009B4A06A813681B19997893F801C0039132
:100B9000DB7855F8211055F8233004349942ACBF66
:100BA0000023012345F82C3013681B5D40F8083DF5
:100BB00007F034FF049A8F4B53F8223043F00103BF
:100BC00018478B4A06A813681B19997893F801C037
:100BD0000391DB7855F8211055F8233004349942FD
:100BE000B4BF0023012345F82C3013681B5D40F887
:100BF000083D07F013FF049A7E4B53F8223043F070
:100C0000010318477A4A06A813681B19997893F8C4
:100C100001C00391DB7855F8211055F823300434D6
:100C20009942D4BF0023012345F82C3013681B5D83
:100C300040F8083D07F0F2FE049A6E4B53F822305C
:100C400043F0010318476A4BBDF80A101B6806A859
:100C50001C19A27894F801C042EA0C225418ADF88D
:100C600016201B5D40F8083D07F0D8FE049A614B42
:100C700053F8223043F001031847B3689F4200F055
:100C80006E8437F8025C37F8044C37F8063D32685A
:100C90001846694602EB8505ADF81630FFF79EFA57
:100CA000534B03341B6806A81B5D40F8083D07F052
:100CB000B5FE049A4F4B53F8223043F00103184716
:100CC000DFF82C81B368D8F80020A41862789F421E
:100CD00055F822A000F0438437F8025C37F8044C42
:100CE00037F8063D32681846694602EB8505ADF8CF
:100CF0001630FFF773FA9DF805300334013B45F8D1
:100D000023A0D8F8003006A81B5D40F8083D07F086
:100D100085FE049A374B53F8223043F001031847FD
:100D2000DFF8CC80B368D8F80020A41862789F421E
:100D300055F822A000F0138437F8025C37F8044C11
:100D400037F8063D32681846694602EB8505ADF86E
:100D50001630FFF743FA9DF805300334013B45F8A0
:100D600023A0D8F8003006A81B5D40F8083D07F026
:100D700055FE049A1F4B53F8223043F001031847E5
:100D8000DFF86C80B268D8F8003030321B199978DF
:100D90005B78974241EA0323ADF8163000F0E18317
:100DA0003368BDF80020EB1A9B103A807C80BB8032
:100DB0006946BDF816009DF805A0FFF70FFAD8F8B0
:100DC0000020BDF80A409DF80430125D06A840F8E6
:100DD000082DC3EB0A0A07F021FE049A054B05EB28
:100DE0008A05063753F8223043F00103184700BF45
:100DF000602B0020C0050108DFF81483B268D8F822
:100E0000003030321B1958789978974241EA002116
:100E1000ADF81610DB7855F82330F36000F0A183AD
:100E20003368BDF80010EB1A9B10013439807C80C8
:100E3000BB806946BDF816009DF805A0FFF7CEF906
:100E4000D8F80020BDF80A409DF80430125D06A8CD
:100E500040F8082DC3EB0A0A07F0E0FD049AAB4BFB
:100E600005EB8A05063753F8223043F00103184793
:100E7000DFF89C820DF11602D8F8003003A91B1987
:100E800093F802C0D87893F801A040EA0C20FFF74D
:100E900097F90398BDF81610800080B2FFF764FA46
:100EA00045F82A00D8F8003004341B5D06A840F845
:100EB000083D07F0B3FD049A944B53F8223043F0F9
:100EC00001031847DFF84882D8F800201219D378B8
:100ED000917892F801A043EA01231846ADF8163044
:100EE000FFF754FA45F82A00D8F8003004341B5DA7
:100EF00006A840F8083D07F091FD049A834B53F88B
:100F0000223043F001031847814B1B681B199A7864
:100F100093F801800392DB7855F82200012B03D16E
:100F2000C0B2FFF719FA02E080B2FFF72FFA784B50
:100F300045F828001B6804341B5D06A840F8083DEE
:100F400007F06CFD049A714B53F8223043F0010313
:100F50001847DFF8BCA10DF11008DAF8002041466F
:100F60001219937892F8019003931379D0780DF1C8
:100F7000160243EA0020FFF723F90499039B890036
:100F8000BDF8162089B235F82300FFF70BFA45F8B3
:100F90002900DAF8003005341B5D4046049307F061
:100FA0003DFD049A594B53F8223043F00103184792
:100FB000574A06A813681B19997893F801C0039142
:100FC00093F804E0DB7805344EEA0323ADF81630DD
:100FD00055F8211001EB83035B6845F82C3013684A
:100FE0001B5D40F8083D07F019FD049A474B53F884
:100FF000223043F001031847454AD6F80CC0136865
:1010000006A81B1993F804E093F8038059784EEA78
:101010000823ADF816300CEB830CDCF804300534F3
:1010200045F8213013681B5D40F8083D07F0F6FCD9
:10103000049A364B53F8223043F001031847344AE0
:1010400006A813681B19997893F801C0039193F8C7
:1010500004E0DB7805344EEA0323ADF8163055F88A
:101060002CC055F821100CEB8303596013681B5DED
:1010700040F8083D07F0D2FC049A244B53F8223084
:1010800043F001031847224AD6F80CC0136806A89B
:10109000E31899780534039193F804E0DB784EEA7D
:1010A0000323ADF8163055F821100CEB830359607B
:1010B00013681B5D40F8083D07F0B0FC049A134B21
:1010C00053F8223043F001031847114AD6F804C000
:1010D000136806A81B1993F803E093F80280597867
:1010E0004EEA0823ADF816305CF82330043445F896
:1010F000213013681B5D40F8083D07F08FFC049A0F
:10110000024B53F8223043F001031847C005010891
:10111000602B0020984A7168136806A81B1993F881
:1011200003E093F8028093F801C04EEA0823ADF87B
:10113000163055F82CC0043441F823C013681B5DE9
:1011400040F8083D07F06AFC049A8C4B53F82230B3
:1011500043F001031847884B1A68121993785178A5
:10116000039355F82330D2789878012802D19B1840
:101170001B7902E003EB82035B6845F821307E4B6C
:1011800004341B6806A81B5D40F8083D07F046FCC8
:10119000049A7A4B53F8223043F001031847764BF8
:1011A0001A68121993785178039355F82330D2783E
:1011B000987855F82220012802D19B181B7902E06B
:1011C00003EB82035B6845F821306B4B04341B68EA
:1011D00006A81B5D40F8083D07F020FC049A674B09
:1011E00053F8223043F001031847634B1A68121971
:1011F00090785378039055F82330D17893F802C053
:1012000055F82020BCF1010F02D15B181A7102E0E1
:1012100003EB81035A60584B04341B6806A81B5D1E
:1012200040F8083D07F0FAFB049A544B53F822307B
:1012300043F001031847504B1A68121990785378FD
:10124000039055F82330D1789A7855F82110012A67
:1012500055F8202002D15B181A7102E003EB8103DC
:101260005A60454B04341B6806A81B5D40F8083DD6
:1012700007F0D4FB049A414B53F8223043F00103AA
:1012800018473D4B06A8196809198A7849780392CE
:1012900055F822200334128845F821201B681B5D75
:1012A00040F8083D07F0BAFB049A344B53F822305B
:1012B00043F001031847304B06A8196809198A78CA
:1012C0004978039255F82220033445F821201B6801
:1012D0001B5D40F8083D07F0A1FB049A274B53F82B
:1012E000223043F001031847234A254B1268121994
:1012F0009178507841EA0020ADF81600D17833F8A3
:10130000312003EBC103824202D000F033F90346DF
:101310003BB19A789DF805005B68801A05EB800068
:101320009847154B04341B6806A81B5D40F8083D20
:1013300007F074FB049A114B53F8223043F0010379
:1013400018470D4B06A8196809198A78497803923D
:1013500055F822200334D24345F821201B681B5D39
:1013600040F8083D07F05AFB049A044B53F822302A
:1013700043F00103184700BF602B0020C00501089F
:10138000BC060108794904F1020C0B6806A803EBBE
:101390000C0213F80CE092F803C092F801804CEABA
:1013A0000E6E1B1992F802C05B784EEA084242EAC0
:1013B0000C2245F823200B6806341B5D40F8083DDD
:1013C00007F02CFB049A6A4B53F8223043F00103D8
:1013D0001847664B06A81A681219D3789178527884
:1013E00043EA012313F4004F03931CBF6FEA034346
:1013F0006FEA134345F822305C4B04341B681B5DD5
:1014000040F8083D07F00AFB049A594B53F8223084
:1014100043F001031847554B06A81A681219937830
:10142000527813F0800F03931CBF6FEA03636FEAD7
:10143000136345F822304D4B03341B681B5D40F8A5
:10144000083D07F0EBFA049A494B53F8223043F079
:1014500001031847454B1A681219937892F80180D6
:1014600018460393FEF778FFE21C002308E0D1F84A
:1014700000C0C1181CF802C0013381F804C0013259
:10148000DDF80CC039496345F1D345F82800039ACB
:101490000B680332A4181B5D06A840F8083D07F04E
:1014A000BDFA049A324B53F8223043F00103184737
:1014B000DFF8B880D8F80030E3185B78023455F8CC
:1014C0002300FEF717FFD8F8003006A81B5D40F890
:1014D000083D07F0A3FA049A254B53F8223043F055
:1014E00001031847214B1A68121991785378039118
:1014F000D17805EB830205EB810103E00868013335
:1015000042F8040C039804328342F7D9174B043491
:101510001B6806A81B5D40F8083D07F07FFA049A97
:10152000134B53F8223043F0010318470F4B06A822
:101530001B681A1991785278033441EA0222ADF8F7
:1015400016201B5D40F8083D07F068FA049A084B26
:1015500053F8223043F001031847F92002E002203B
:1015600000E0FA2006B0BDE8F08700BF602B002045
:10157000C00501080A4B1B681A8882420DD0094A2F
:1015800005E01988814202D1054A136005E05168DF
:10159000134608320029F4D10B461846704700BFA5
:1015A000C8000020BC0601080023436003607047A8
:1015B0000B4619B903685360026002E04968516044
:1015C0005A60536803B94260704700BF0368002047
:1015D00004E01A688A4204D018465B68002BF8D1F0
:1015E0001846704738B5044608200D46FEF72AFE17
:1015F0000246156020466168FFF7DAFF38BD00BF7C
:1016000038B5044608200D46FEF71CFE00210246B0
:1016100005602046FFF7CCFF38BD00BF38B5044653
:101620000D4641B9006843682360FEF72BFE23682E
:101630004BB9636007E0486843684B60FEF722FEE1
:101640006B6803B9656038BD036810B504462BB1FB
:101650000021FFF7E3FF236803B9636010BD00BFFB
:10166000704700BF08B5034600689A6801305968A2
:1016700006F07EFE08BD00BF08B5826803684168B9
:10168000581C1378043206F017FE08BD08B5006830
:1016900006F05AFD08BD00BF10B50446006806F00C
:1016A0009FFE206010BD00BF10B50446012007F06A
:1016B00005FC206010BD00BF10B5084C23682BB995
:1016C000012007F0CBFB0123236005E0012007F098
:1016D000DDFB012007F0C2FB10BD00BF100B002096
:1016E00010B50446006805F083F86368032B03D83F
:1016F000DFE803F005090D150020002118E00022A5
:101700000EF0B8FB12E000220EF096FB0EE0002275
:10171000094B05F0FDF900220EF0ECFB06E000227B
:10172000054B05F0F5F900220EF0C2FB05F060F85C
:1017300005F05CFB206010BD0000594010B5044668
:101740006168006806F0F0FE606010BD10B5416889
:10175000044604310068A2680BF0C8FAA06010BD0E
:1017600010B50446616800680BF0A6FA606010BD11
:1017700010B50446006809F05BFF206010BD00BF93
:1017800010B50446006809F053FF206010BD00BF8B
:1017900010B50446006809F04BFF206010BD00BF83
:1017A00010B50446006809F043FF206010BD00BF7B
:1017B00010B50446006806F02FFD206010BD00BF84
:1017C00010B50446006806F027FD206010BD00BF7C
:1017D00010B50446006806F01FFD206010BD00BF74
:1017E00008B5002100680BF01FF808BD08B5416876
:1017F00000680BF019F808BD08B54168006806F0EC
:1018000033FD08BD38B50546002402E007F0E4FAD0
:1018100001342B6864209C42F8D338BD08B5416878
:1018200000680BF023F808BD002370B50C46154680
:101830001E4603E0E25C0133B618F6B2DAB2AA4201
:10184000F8D3012801D082200EE0F52006F052FCEA
:10185000F043C0B206F04EFC284606F04BFC204692
:10186000294606F055FC002070BD00BF37B50022A8
:1018700002AB03F8012D044618460D4606F01EFC87
:1018800008B981301BE09DF80730F52B01D084208A
:1018900015E0284606F012FC0028FAD0204606F093
:1018A0000DFC0028FAD0012505E0281906F006FCF9
:1018B0000028FAD0013523789D42F6D900203EBD9C
:1018C00037B5002305460C46037008460DF10701A5
:1018D000FFF7CCFF08B181200FE001232B709DF8AA
:1018E0000700227803E0E15C01334018C0B2934264
:1018F000F9D9FF2814BF832000203EBD2DE9F04513
:10190000022885B08DF807000C46904603D100F5FB
:10191000957006F019FC0A2323709DF807002146F4
:101920000122FFF781FF0DF107002146FFF7C8FFF5
:1019300006460028F7D1A778E37843EA072719E09D
:101940009DF80730012B15D1A2464025504606F0E0
:10195000B5FB0028FAD015F1FF350AF1010AF5D1DF
:101960009DF8070003A901228DF80C504036403441
:10197000FFF75AFFBE42E3D3A8F80070002005B07D
:10198000BDE8F08500000000F0B55F4656464D46C4
:101990004446F0B4CA4CA54406900E1C98469246A4
:1019A000C64AC54910911192002208920C920F92DA
:1019B00001E0139B984654462378002B08D0252B32
:1019C00006D001342378002B03D0252B01D0F8E773
:1019D00054465146651A002D07D05046291C321C2A
:1019E00000F0EAFD089A521908920023E356002BF2
:1019F00001D100F0B2FD0134A2460022B14B6B448C
:101A00001A700792099201235B420A9300E09846FC
:101A10005446247824062416A34601218A4400E073
:101A200009915B46203B582B00D9DBE39B00A64A7B
:101A30009B589F46A54A0F9233E3A24A6A4400236B
:101A4000D356002BE4D120231370E1E70123079C38
:101A50001C430794DCE74346043341460968099177
:101A60000029D4DA4942099198460423079A1A4377
:101A70000792CDE72B22934B6B441A70C8E754466C
:101A8000237801218A441B061B162A2B06D09B466D
:101A90001A1C303A092A0FD900211DE043460433AD
:101AA000424612680A92002A04DA984601235B42F1
:101AB0000A93ADE79846ABE700218B005B185B000B
:101AC00099185446247824062416A34601229244E9
:101AD000221C303A092AF0D900290A91A1DA0123FF
:101AE0005B420A939DE78023079C1C4307948FE782
:101AF00000215B46303B8A0052185200991852462A
:101B0000127812061216934601239A44131C303B96
:101B1000092B85D8EDE70823079C1C43079477E73A
:101B2000402307991943079172E752460023D35681
:101B30006C2B06D101239A441023079C1C43079465
:101B400066E7102307991943079161E71023079A65
:101B50001A4307925CE75B46432B02D0079CE406DE
:101B600013D51EAB00221A601F9241460A680698E0
:101B700069468D3101F052FE071C421C01D100F074
:101B8000ECFC43460433139308E0444604341394B6
:101B900041460A686B468D331A7001270022494B73
:101BA0006B441A708D226A44914600F0CEFC1023DB
:101BB000079C1C4307940799C90605D54246043281
:101BC000139243461C680FE0079C640607D5414604
:101BD00004311391424613681B041C1404E043466D
:101BE0000433139341460C68002C01DB01217FE292
:101BF00064422D22334B6B441A70012178E25F4618
:101C0000079C0A9B1A1C013202D106230A9307E0A3
:101C1000672F01D0472F03D1002B01D101210A9159
:101C200022070BD54346073307229343191C08317B
:101C3000139119685A68109111920AE043460733CC
:101C4000072293431A1C0832139219685A6810919C
:101C500011921098119902F025FB002816D01098C7
:101C60001199164B144A05F099F8002805D1184A25
:101C7000914600230E930327CAE22D22114B6B4499
:101C80001A70134CA146032700F054FC10981199C8
:101C900002F01AFB002805D00E49894600220E9258
:101CA0000327B5E280235B001C430794662F13D102
:101CB0000A9B129303221BE00000000000000000BA
:101CC000B4FDFFFF4702000084070108200C010853
:101CD000340C0108380C0108652F05D0452F03D0BE
:101CE0000A9C1294022203E00A9901311291022205
:101CF000109B119C002C04DB251C1C1C00230B9347
:101D000005E0109C1199B44BCD182D210B91009238
:101D1000129A019290AB029321AB039320AB0493F0
:101D20000698221C2B1C00F06BFD8146672F01D00A
:101D3000472F02D1079BDB072DD5129949448846CE
:101D4000662F12D14A460023D356302B0BD1201CCC
:101D5000291CA04B9E4A05F017F8002803D1012347
:101D600012995B1A9093909B9844201C291C994BC4
:101D7000974A05F009F8002803D1209A904503D826
:101D800009E04246209206E020A930231370013278
:101D90000A604245F9D1209B4C461C1B0D94672FCD
:101DA00001D0472F0CD1909B191D02DD0A9A9A424F
:101DB0006FDA672F02D165239B4601E04524A346D5
:101DC000594665294ADC909B5D1E9095834A6A447A
:101DD0001170002D03DA6D422D23537003E02B2286
:101DE0007E4B6B445A70092D22DD1EAC013C281C31
:101DF0000A2104F09FFB30312170281C0A2104F0D5
:101E00004BFB051C0928F1DC013C031C303323701B
:101E10001EABA34202D87249694412E0704969447A
:101E200023780B70013101341EABA34209D9F7E7C7
:101E30006A4B6B4430229A702A1C3032DA7069493E
:101E40006944664B6B44C91A0C910D9A8F18012A8C
:101E500002DC079BDB072FD501372DE05C46662CA3
:101E600019D1909F002F09DD0A99002902D1079A04
:101E7000D20721D57B1C0A9C1F191DE00A99002955
:101E800004D1079AD20701D4012715E00A9F02372F
:101E900012E067239B46909F0D9CBC4204DC07998F
:101EA000C90709D5013707E0002F01DD012001E056
:101EB0000223D81B0D9A87180B9B002B00D1A1E1A0
:101EC0002D22494B6B441A7034E3079CE40607D576
:101ED00041460431139142461368089C1C6068E532
:101EE0000799490608D542460432139244462368AE
:101EF0006946098C19805CE54246043213924446D7
:101F000023680899196054E51023079A1A43079229
:101F1000079BDB0605D544460434139441460C6800
:101F20000DE0079A520605D5434604331393414604
:101F30000C8804E042460432139243461C68002198
:101F4000D2E044460434139441460C680223079AB5
:101F50001A43079278239B460221244A0F92C3E03A
:101F60000A9C0022204B6B441A704346043313939F
:101F7000414609688946002900D1E3E25A46532ABE
:101F800002D0079BDB0658D54D46219500231493BC
:101F90001593002C2CDB00270025842169448846FA
:101FA00042461368EA58002A30D0069869468D31B7
:101FB00014AB01F033FC431C00D1CEE2C0198442C3
:101FC00024DB0435844201D1271C1FE0071CE7E70E
:101FD0000000000000000000000000803902000046
:101FE0003B0200003D02000047020000200C0108F7
:101FF00021AC14AB009306980021221C002301F0B1
:10200000AFFB071C411C00D1A7E22560002F00D1C7
:10201000F8E014AB00251D601595BC4C6C44009392
:102020000698211C21AA3B1C01F09AFB874200D094
:1020300093E2E555A1460E95EAE0002C0DDB081C65
:102040000021221C02F05EF8002800D1DDE04A46A3
:10205000871ABC4200DAD8E0D4E0081C02F0D8F9B4
:10206000071C72E21023079C1C4307940799C906BA
:1020700005D542460432139243461C680DE0079C86
:10208000640605D54146043113914246148804E0A4
:1020900043460433139341460C68012124E09C4AD3
:1020A0000F92079BDB0605D5444604341394414642
:1020B0000C680DE0079A520605D543460433139386
:1020C00041460C8804E042460432139243461C68A1
:1020D0000799C90707D5002C05D00223079A1A4390
:1020E0000792022100E0022100228A4B6B441A7001
:1020F0000A9B002B03DB8023079A9A430792002C4C
:1021000002D10A9B002B50D0012909D001290CD300
:1021100002293AD00A9C0E947F498946192777E014
:10212000092C1CD8794D6D4429E0784A6A449146BF
:1021300001235B42994407232340303349460B7007
:10214000E408002CF4D1079AD20744D5302B42D0B2
:1021500001235B42994430234C4623703BE06B4D96
:102160006D44013D201C0A2104F08CF930312970A6
:10217000201C0A2104F04AF9041C0928F1D8013D69
:10218000A946231C30332B7025E0604969448946F9
:102190000122524291440F2323400F995B5C4A462F
:1021A00013702409002C16D0F2E7002903D0574BF6
:1021B0006B4499460FE0079CE40703D453496944F4
:1021C000894608E030216A468D32544BD154F422BE
:1021D00052006A4491464D4B6B444C461F1B0A9972
:1021E0000E9115E05A46002A00D1B6E169468D31BC
:1021F0000A700022474B6B441A704346139389467A
:102200000127A2E100210E9102E00A9F00220E9216
:10221000B8460E9B984500DA98463E4B6B441B78B7
:102220001B061B16002B02D00124A04404E00799D2
:10223000890701D5022290448423079D1D4013D1B4
:10224000099B41465C1A002C0EDD102C07DD34483A
:102250001021321C00F0B0F9103C102CF7DC304893
:10226000211C321C00F0A8F92A4868440023C356F8
:10227000002B04D00121321C00F09EF90CE0079ADB
:10228000920709D568468B30302303705B46437054
:102290000221321C00F090F9802D17D10999424695
:1022A0008C1A002C12DD102C0ADD1D4B1D1C103564
:1022B000281C1021321C00F07FF9103C102CF7DC98
:1022C00017481030211C321C00F076F90E9BDC1BE5
:1022D000002C12DD102C0ADD114B1D1C1035281CA2
:1022E0001021321C00F068F9103C102CF7DC0C486F
:1022F0001030211C321C00F05FF9079CE40511D45A
:102300004846391C321C00F057F9F3E0E90100009F
:102310003C0C010847020000500C01085B01000062
:10232000E80801085946652900DC9FE010981199DA
:10233000924B914A04F028FD00282AD090480121B0
:10234000321C00F039F9909B0D9A9A4203DC079BEE
:10235000DB0700D4CEE08B480121321C00F02CF9C1
:102360000D9C013C002C00DCC4E0102C0ADD864BE7
:102370001D1C1035281C1021321C00F01DF9103CCA
:10238000102CF7DC80481030211C321C00F014F9AE
:10239000B0E0909900292DDC79480121321C00F031
:1023A0000BF9909B002B03D10D9C002C00D1A1E0D8
:1023B00074480121321C00F0FFF8909B5C42002C15
:1023C00012DD102C0ADD704B1D1C1035281C10214D
:1023D000321C00F0F1F8103C102CF7DC6A48103089
:1023E000211C321C00F0E8F848460D99321C00F020
:1023F000E3F87FE00D9A8A4225DC4846111C321C26
:1024000000F0DAF8909B0D995C1A002C12DD102C6C
:102410000ADD5D4B1D1C1035281C1021321C00F0FC
:10242000CBF8103C102CF7DC57481030211C321C24
:1024300000F0C2F8079AD2075CD552480121321C3D
:1024400000F0BAF856E04846321C00F0B5F8909C0F
:102450004C444C480121321C00F0AEF890990D9B81
:10246000591A201C321C00F0A7F843E00D9C012CE7
:1024700002DC0799C90732D568468B304A46137883
:1024800003702E2343700221321C00F095F810983F
:1024900011993A4B384A04F077FC002807D1484696
:1024A00001300D990139321C00F086F81CE00D9CBA
:1024B000013C002C18DD102C0ADD334B1D1C10359F
:1024C000281C1021321C00F077F8103C102CF7DC8F
:1024D0002D481030211C321C00F06EF804E04846F4
:1024E0000121321C00F068F8284868440C99321C1D
:1024F00000F062F8079B5B0713D5099942468C1AD6
:10250000002C0EDD102C07DD1F481021321C00F0BE
:1025100053F8103C102CF7DC1B48211C321C00F037
:102520004BF8099A424500DA4246089B9B180893EB
:10253000FFF73FFA002FB84601DA0024A046002139
:102540000E9171E6124A91460627002FB84601DA2D
:102550000023984600240E9469E6089893239B0074
:102560009D443CBC90469946A246AB46F0BC02BC9A
:10257000084700000000000000000000000000000C
:102580006C0C0108700C0108E80801083902000011
:10259000740C010830B581B0041C0D1C131C054AD5
:1025A0001068211C2A1CFFF7EFF901B030BC02BCF7
:1025B00008470000CC00002070B5051C0C1C101C46
:1025C000002A03D00E22835E013302D0002C13D1E7
:1025D0001BE0828982239B001A42F7D006680029FB
:1025E00008D0321C2B7813700132013501390029D3
:1025F000F8D13619066008E0287801350006001683
:1026000007F026FA013C002CF6D170BC01BC004753
:1026100030B581B0041C01F0FBFE051C201C291CF8
:102620000022FFF7C9FF0A2007F012FA281C01B0A8
:1026300030BC02BC0847C0460EB400B598B019AB18
:1026400004CB19926946822292008A8100900490FC
:10265000094A0292059201225242CA811793074AFF
:102660001068199AFFF790F9009A0023137018B0B8
:1026700008BC03B018470000FFFFFF7FCC0000201C
:10268000F0B55F4656464D464446F0B487B08346A3
:1026900001910A6903699A4201DD0020A5E00199D0
:1026A00014318846013A9246029293000199CA1861
:1026B000143204925A461432059259465A18019916
:1026C0005B1859690131506903F0A0FE814600286A
:1026D00043D0059E474600229446039204CF474DBF
:1026E000131C2B4049465943039B59180C0C120CE0
:1026F0004B465343E418220C03923368181C2840BD
:1027000060442940401A1B0C2C401B1B02149B18D0
:1027100019148C46738030800436049ABA42DDD294
:10272000029B9A00594653185B69002B15D1131C64
:102730001033CA18059B93420CD21368002B09D1A1
:10274000012149428A44043A059B934202D213680C
:10275000002BF5D051465A4611615846019901F0B7
:10276000D5F9002840DB01239944059D0026002768
:10277000414604318846043908C9204C1A1C2240BD
:10278000BA18110C1B0CC9180F0C2B68181C204010
:1027900030182240801A1B0C21405B1A02149B182F
:1027A0001E146B8028800435049A4245E0D25346BB
:1027B0009A00594653185B69002B15D1131C10332E
:1027C000CA18059B93420CD21368002B09D1012132
:1027D00049428A44043A059B934202D21368002B73
:1027E000F5D051465A461161484607B03CBC904668
:1027F0009946A246AB46F0BC02BC0847FFFF00006A
:10280000F0B55F4656464D464446F0B4C84CA54424
:102810000590C84868440168161C1F1C1A1E05DA7A
:1028200001230B60C44B171C1F4001E000230B6009
:102830003C1CC24A3B1C134093421ED1C04BC149B1
:10284000694409680B60002E03D13A0301D1BE48E8
:1028500000E0BE48BE4B6B441B68002B01D100F06A
:1028600067FFC21C0323C356002B00D00532B84CAF
:102870006C442468226000F05BFF06960797301CCA
:10288000391CA24BA04A04F07FFA002814D001237F
:10289000AC48684400680360AD4969440968002990
:1028A00002D1AC4800F044FFAB4BA94A6A4412681D
:1028B0001360581E00F03CFFA84B6B440093A84BDC
:1028C0006B440193A74B6B4402930598069A079BB0
:1028D00001F038FA81467B005D0D002D0CD0069882
:1028E0000799A14B0B40A14A191C1143A04B5B193E
:1028F00098460024119421E0994868440268974959
:1029000069440B68D2189B4BD518202D09DD9A48D5
:102910001218311CD14040235B1B9C40081C2043F3
:1029200003E020235B1B301C984003F051FF934AC7
:102930008918934B5B19984601241194744A754B7E
:1029400003F008FE744A754B03F0B8FF744A754BE8
:1029500003F002FE041C0D1C404603F049FF724ABE
:10296000724B03F0ABFF021C0B1C201C291C03F054
:10297000F3FD041C0D1C04F039FA0D90201C291CD9
:10298000624B614A04F00AFA00280BD00D9803F05C
:102990002FFF221C2B1C04F0F7F9002802D10D9800
:1029A00001380D900D99162902D901220E9212E0DC
:1029B000744B0D9CE200D218069807995368126870
:1029C00004F0ECF9002801D10E9004E00D990139D2
:1029D0000D9100220E92624B6B441B68209344467B
:1029E0001B1B5A1E03D492460020099003E052425A
:1029F000099200218A460D9A002A04DB9244109223
:102A000000230A9307E0099C0D98241A0994414277
:102A10000A91002210925C4B6B441B68092B0DD964
:102A200000245A4868440460012149420B910C91EA
:102A300001220F92544B6B441C6076E2524C6C4462
:102A40002468052C01DC012105E04F496944086830
:102A50000438086000214C4A6A441268052A0ED8DE
:102A600093004B4A9B589F460020484969440860A0
:102A7000012252420B920C9201230F9355E2012442
:102A800064420B940C9401200F9021E000220F92DD
:102A900004E001230F9312E001240F943B486844A3
:102AA0000068002803DC0122384B6B441A60374C65
:102AB0006C4424680B940C940AE000200F90334A75
:102AC0006A44136801330D9C1B19581E0C900B931C
:102AD0000B9A0E2A00D928E2002900D125E20D9B8D
:102AE000002B00DC7FE0274A0F230D9C2340DB00F6
:102AF0009B1818685968129013912411E10649D463
:102B00000222904653E00000000000000000000098
:102B1000000000000000F83F61436F63A787D23FC9
:102B2000B3C8608B288AC63FFB799F501344D33FBC
:102B30000CDFFFFF24210000FFFFFF7F0000F07F7C
:102B40000F270000202100007C0C0108380C010830
:102B5000282100006C0C01086D0C0108E820000021
:102B6000EC200000281D0000FFFF0F000000F03FD8
:102B700001FCFFFF3204000012040000000010FE00
:102B8000CDFBFFFF20090108182100001C210000D7
:102B9000080901080F231C40CD4B069807991A6AB3
:102BA0005B6A03F0B5FF061C0F1C03239846002C3C
:102BB00010D0C74DE00709D5012188441298139918
:102BC0002A686B6803F07AFE12901391641008353E
:102BD000002CEFD1301C391C129A139B03F098FF84
:102BE000061C0F1C27E00D9A5442002C21D0B94A34
:102BF0000F232340DB009B18069807991A685B682F
:102C000003F05CFE061C0F1C2411002C11D0B04DEB
:102C100002239846E20705D5012398442A686B6889
:102C200003F04CFE64100835002CF3D1061C0F1C79
:102C300001E00224A0460E9800281ED0301C391C4A
:102C40009A4B994A04F0AAF8002816D00B9900294B
:102C500013DD0C9A002A00DC65E10D9B013B2193FA
:102C6000301C391C924A934B03F028FE061C0F1CA3
:102C70000124A0440C98834603E00B998B460D9ADF
:102C8000219214961597404603F0B2FD149A159BB5
:102C900003F014FE884A894B03F05EFC041C8E4B43
:102CA000CD185846002819D114981599844A854B97
:102CB00003F050FC061C0F1C221C2B1C04F08CF88B
:102CC000002800D086E3221C84496B18301C391C74
:102CD00004F064F8002800D073E324E10F9A002A7E
:102CE00000D18DE07B4A5846C3009B18083B7648CC
:102CF00076491A685B6803F00BFF221C2B1C03F05B
:102D000029FC051C0E1C1498159904F06FF8041C7E
:102D100003F06EFD021C0B1C1498159903F01AFCAD
:102D2000303422AB1C70169017911A951B962A1CF2
:102D3000331C04F033F8002806D021990D91892224
:102D40006A44904600F0DFFC58495748169A179B92
:102D500003F000FC021C0B1C1A981B9904F03CF8B1
:102D6000002803D089236B44984658E15C46012C27
:102D700000DCD8E089206844804611E04B494A488D
:102D8000169A179B03F0E6FB1A9A1B9B04F006F8B1
:102D9000002800D043E122AB5B44984500D1C2E05B
:102DA000434C444D1A981B99221C2B1C03F086FDA2
:102DB0001A901B9116981799221C2B1C03F07EFD6C
:102DC000051C0E1C04F012F8041C03F011FD021C7B
:102DD0000B1C281C311C03F0BDFB169017913034DE
:102DE00041460C7001229044169817991A9A1B9B21
:102DF00003F0D4FF0028C1D0219B0D9300F083FC89
:102E00001C941D95334A5C46E3009B18083B1868E8
:102E100059681E901F911498159903F0E7FF041C40
:102E200003F0E6FC021C0B1C1498159903F092FBAE
:102E3000061C0F1C303422AB1C70594601294FD19F
:102E400089226A4490461C981D991E9A1F9B03F084
:102E500035FD041C0D1C1C4A1C4B03F07DFB021CA1
:102E60000B1C301C391C03F0B7FF002800D0D6E043
:102E700015481649221C2B1C03F06CFB021C0B1C72
:102E8000301C391C03F08AFF00284CD001235B4220
:102E9000984444460023E356302BF7D00120804469
:102EA00021990D9100F02FFC000000000000F03F80
:102EB00000000000000024400000000000001C4052
:102EC0000000000000001440000000000000E03F8F
:102ED000F8090108200901080000C0FC000000807A
:102EE000301C391C89226A44904622AB5C46E718A4
:102EF000C84BC74A03F0E2FC051C0E1C03F076FF2A
:102F0000041C03F075FC021C0B1C281C311C03F074
:102F100021FB30344246147001239844B845E7D170
:102F2000061C0F1C8FE7069E079FBF4C6C4423684E
:102F3000002B00DA94E00D980E2800DD90E0BB4AEB
:102F4000C3009B1819685A6818911992B84A6A44C4
:102F50001268002A02DA0B9B002B07DD341C3D1C93
:102F60008820684480460B990F1811E00B9A002ABC
:102F700000DA26E218981999A74AA84B03F09EFC9C
:102F8000321C3B1C03F01EFF002800D019E223E294
:102F9000201C291C189A199B03F0BAFD03F026FF88
:102FA000061C03F025FC189A199B03F087FC021CF1
:102FB0000B1C201C291C03F0CDFA041C0D1C331C17
:102FC00030334046037001218844B84538D1201C75
:102FD000291C221C2B1C03F0BFFA041C0D1C189882
:102FE0001999221C2B1C03F0D9FE002815D1189822
:102FF0001999221C2B1C03F0C7FE002800D182E384
:10300000F2070AD47FE322AB984508D1219B013314
:10301000219330234446237009E00D98219001212B
:103020004942884442460023D356392BEBD04446CC
:103030002378013323700120804421990D9162E3AC
:10304000201C291C734B724A03F038FC041C0D1C15
:10305000734A744B03F098FE002800D053E397E7BF
:103060000F9A002A04D1099D0A9C0023984634E057
:10307000704C6C442468012C0BDC1198002802D0A1
:103080006D495B1802E03623209A9B1A099D0A9C21
:1030900018E00B9A013A0A9B934201DB9C1A07E065
:1030A0000A9C131B1098C0181090E4180A9400246E
:1030B0000B99002902DB0B1C099D03E0099A0B9B6D
:1030C000D51A00230998C01809909A44059801213F
:1030D0005A4A6A4400F016FC8046002D0DDD514628
:1030E00000290ADD5346AA4500DD2B1C099AD21A95
:1030F0000992ED1A5046C01A82460A9900294FDDFE
:103100000F9A002A37D0002C1CDD4C4B6B444345F2
:1031100009D105984146221C8D23DB006B4400F049
:1031200023FF804607E005984146221C434B6B4431
:1031300000F01AFF8046059841464A46404B6B44D2
:1031400000F0EAFB0A9BA3422AD03E4B6B444B455E
:1031500008D1059849460A9A3B4B6B4400F004FF9E
:1031600081461DE0059849460A9A364B6B4400F0AB
:10317000FBFE814614E0334B6B444B4508D1059868
:1031800049460A9A304B6B4400F0EEFE814607E058
:10319000059849460A9A2B4B6B4400F0E5FE8146A0
:1031A0002A4C6C4405980121221C00F0ABFB83469D
:1031B0001098002812DD5C4508D105985946109AF0
:1031C000234B6B4400F0D0FE834607E00598594638
:1031D000109A1E4B6B4400F0C7FE834615496944A4
:1031E000096801290DDC002E0BD13B0309D1194BD5
:1031F0001F4206D0099C0134099401208244012415
:1032000000E000241099002926D101222DE00000C1
:1032100000000000000024400000000000001440F6
:103220000000000000000000E82000002009010864
:103230001C21000018210000330400006813000066
:10324000281A0000281D0000E80B0000A80F00004D
:10325000280800000000F07F5A4613699B005B4479
:10326000186900F0F1FA20231A1A52441F231A4059
:103270000CD020239A1A042A06DD131F0998C018BF
:103280000990ED189A4408E0032A06DC131C1C334D
:103290000999C9180991ED189A44099A002A13DD71
:1032A000CA4B6B444B4507D105984946C84B6B4404
:1032B00000F0DEFB814607E005984946099AC34BBA
:1032C0006B4400F0D5FB81465346002B14DDC14B07
:1032D0006B445B4508D1059859465246BE4B6B443A
:1032E00000F0C6FB834607E0059859465246B94BA5
:1032F0006B4400F0BDFB83460E98002840D0484642
:10330000594600F003FC00283ADAB04B6B444B45B9
:103310000AD1AF4B6B440093059849460A2200231B
:1033200000F0CCFD814609E0A84B6B440093059862
:1033300049460A22002300F0C1FD81460F99002969
:1033400019D0A64B6B4443450BD18D23DB006B4456
:103350000093059841460A22002300F0AFFD804605
:1033600009E09E4B6B440093059841460A220023D6
:1033700000F0A4FD80460D9A013A0D920C9B0B9330
:103380000B98002832DC96496944096802292DDD32
:10339000904B6B445B4502D18F4B6B4401E08D4BEE
:1033A0006B440B9A002A0CDB0093059859460522C2
:1033B000002300F083FD011C484600F0A7FB002815
:1033C0000ADC884B6B441B68DB430D9388246C44F8
:1033D000A04698E121980D90312222AB1A700D99E8
:1033E00001310D9189226A4490468CE10F9B002B9C
:1033F00000D11AE1002D15DD784B6B44434509D10E
:10340000059841462A1C8D23DB006B4400F030FBFD
:10341000804607E0059841462A1C704B6B4400F03B
:1034200027FB8046002C01D1454623E044466268D4
:103430006D4868440260012393406C4969440B6005
:1034400000236B4A6A4413606A4C6C442360404614
:1034500002699200083241460C31201C00F092FEB5
:1034600005985E49694401228D23DB006B4400F01E
:10347000FFFA051C0123334008934646882169441E
:103480008A4648465946FFF7FBF8071C303748463E
:10349000311C00F03BFB041C059859462A1C564B76
:1034A0006B4400F055FB011CC368002B16D1484645
:1034B00000F02CFB002812D1494A6A441268002A05
:1034C0000DD1089B002B0AD15346392F3FD0002C39
:1034D00000DD01371F700133984614E10120002CF4
:1034E00009DB002C2ED13E4C6C442468002C29D1E1
:1034F0000899002926D100281EDD344B6B444B452A
:1035000007D1059849460122314B6B4400F0B0FACF
:1035100006E00598494601222C4B6B4400F0A8FABE
:10352000594600F0F3FA002803DC002804D1FA071A
:1035300002D501373A2F0AD053461F700124544454
:10354000A046E0E000280DDD5246392F05D1392391
:103550005046037001218A44BDE07B1C1370013288
:103560009046D0E05246177001239A4422AB0B9C40
:10357000E3189A4500D184E0144B6B444B450AD1C3
:10358000134B6B440093059849460A22002300F030
:1035900095FC814609E00D4B6B4400930598494624
:1035A0000A22002300F08AFC8146AE4226D18D23F8
:1035B000DB006B4400930598084969440A22002304
:1035C00000F07CFC051C061C5BE70000281D0000C9
:1035D000E80B0000A80F0000280800006813000096
:1035E000182100001C2100006C1300007013000063
:1035F000781300007413000028170000514C6C442D
:103600002AAB00930598211C0A22002300F056FCE7
:10361000061C8D23DB006B4400930598211C0A22B5
:10362000002300F04BFC051C2BE701248820684494
:10363000824648465946FFF723F8071C3037514663
:103640000F70012292440B9B9C421ADA3E4B6B4452
:103650004B450AD13D4B6B440093059849460A22DD
:10366000002300F02BFC814609E0374B6B440093AC
:10367000059849460A22002300F020FC81460134C7
:10368000D7E7314B6B444B4507D10598494601229A
:103690002E4B6B4400F0ECF906E0059849460122F8
:1036A000294B6B4400F0E4F9594600F02FFA00284A
:1036B00011DC00281CD1FC070DD419E022AB9A457F
:1036C00009D10D9801300D90312351460B7089229C
:1036D0006A44904617E001235B429A44544623789B
:1036E000392BEBD0013323700120504480460AE08F
:1036F000012149428A4452460023D356302BF7D049
:103700000123534498460023444623700D9B013304
:103710000F486844006803600E496944096800293D
:1037200001D122A804E00B4B6B441B681C6022A84B
:10373000094B9D443CBC90469946A246AB46F0BC22
:1037400002BC084768130000281D0000E80B0000B9
:103750002021000028210000F4200000C046C046BF
:10376000F0B557464646C0B485B08C4690461E1C00
:103770000C9D002923D01768002B23D11DE0012EBA
:103780000FD901306246002A25D13B68002B0BD1AE
:103790006246002A01D04246136000232B600138A4
:1037A00021E02C606A601EE0B0421CD204372C6815
:1037B0006A68731E8342F4D3E1E7002013E01768C0
:1037C000012676426B4606331B789A462C686A6857
:1037D00061460020D3E752460A7001314246136821
:1037E00004331360D1E705B00CBC90469A46F0BC98
:1037F00002BC084770B582B0041C0D1C161C064A9A
:1038000010680093211C2A1C331CFFF7A9FF02B08B
:1038100070BC02BC08470000CC00002001207047AB
:1038200030B581B0041C0D1C131C054A1068211C06
:103830002A1CFFF7F3FF01B030BC02BC08470000B0
:10384000CC0000200000000000B5104B184201D051
:10385000002201E0000410220D4B184201D1083271
:1038600000020C4B184201D1043200010A4B1842ED
:1038700001D102328000002804DB430001D4202261
:1038800000E00132101C02BC084700000000FFFFEE
:10389000000000FF000000F0000000C000B5011CA7
:1038A000026853070DD0D30701D5002026E0930707
:1038B00003D553080360012020E093080360022031
:1038C0001CE00F4B1A4201D0002001E0120C102026
:1038D000FF231A4201D10830120A130701D1043024
:1038E0001209930701D102309208D30705D4520878
:1038F000002A01D1202001E001300A6002BC084703
:10390000FFFF000001205060022393600023D3607A
:1039100051611061101C7047F0B55F4656464D4628
:103920004446F0B485B00191101C00930A69036904
:103930009A4203DA8446081C6146019101994A685B
:103940000C6905692B199B468B689B4500DD01328C
:1039500000994A60012393408B6000230B61CB6088
:10396000009914315A469300009AD31814330293E5
:10397000994205D20A1C002308C2029B9342FAD83E
:10398000A300019AD31814339A4614231B1898469F
:10399000AB00C31814330393984548D28946414677
:1039A0000F88002F1ED0019E14364D4600229446EB
:1039B00004CE28682D4C131C2340391C5943031C8A
:1039C0002340C9186144120C3B1C5343000C1B18C4
:1039D0000A0C9B181A0C94466B8029800435B2455A
:1039E000E6D82A6043465D88002D19D0019C143426
:1039F0004A4611684846002623882A1C5A434388B1
:103A0000D218921942800180043008CC1B0C6B4301
:103A100001885B18120C99180E0CA245ECD80160B5
:103A2000042398440399414501D99944B7E75A467C
:103A3000002A0EDD029A043A1368002B09D10123F3
:103A40005B429B445946002903D0043A1368002B7B
:103A5000F5D05A46009B1A61009805B03CBC9046D0
:103A60009946A246AB46F0BC02BC0847FFFF0000E7
:103A7000F0B50C1C151C9C4650114A680B690133AB
:103A80001F188B689F4203DD01325B009F42FBDC05
:103A900063465A600123934062469360002313619A
:103AA000D36061461431002809DD0022002308C1DB
:103AB00001328242FAD183006344191C1431221C62
:103AC000143223699B00E3181C1C14341F232E1C82
:103AD0001E4010D020239D1B00201368B3400343D9
:103AE00008C108CA181CE8409442F6D808600028AB
:103AF00005D0013703E008CA08C19442FBD87B1EF9
:103B0000624613616046F0BC02BC084730B50369E9
:103B10000A699D1A002D16D1041C14349300103329
:103B2000C218101DCB18191D0438026804390B681F
:103B30009A4206D0934202D901256D4203E0012545
:103B400001E08442F0D3281C30BC02BC08470000CE
:103B5000F0B557464E464546E0B40C1C171C984637
:103B6000081C111CFFF7D2FF002807D14246506005
:103B700001239360D0601361506155E0002804DA9E
:103B8000BC46271C6446012100E0002163684246D0
:103B9000536062680123934042469360002313619F
:103BA000D16023699C46261C14369B00E31814330D
:103BB00099463D1C14353B699B00FB1814339A460B
:103BC00044461434002708CE01CD1B4A191C11406D
:103BD0000240891AC9191B0C000C1B1A0A149B18E5
:103BE0001F14638021800434AA45ECD8B1450DD957
:103BF00004CE114B111C194079180B14120C9B1890
:103C00001F14638021800434B145F1D8221F13684A
:103C1000002B06D101235B429C44043A1368002B1D
:103C2000F8D0624643461A6140461CBC904699460D
:103C3000A246F0BC02BC0847FFFF000030B5114BA4
:103C40000B40114A9B18002B02DD1D1C002414E0C0
:103C50005B421A15132A05DC80231B031D1C15412A
:103C600000240AE00025143A1E2A01DD012203E0A7
:103C70001F239B1A01229A40141C201C291C30BCB3
:103C800004BC10470000F07F0000C0FCF0B55746B0
:103C90004646C0B481B08846142212189246036981
:103CA0009B001033C5182C68201CFFF7CDFD202386
:103CB0001B1A424613600A2813DC0B23191A221C14
:103CC000CA401F4B171C1F43AA4501D3002201E025
:103CD0002B1F1A68CA40031C15339C40161C264330
:103CE00024E0AA4502D300239C4602E0043D2A6852
:103CF00094460B38002815D02023191A231C834022
:103D00000F4A13436246CA401F1C1743554501D84A
:103D1000002201E02B1F1A68CA4063468340161C2C
:103D20001E4303E0064B271C1F436646301C391C0C
:103D300001B00CBC90469A46F0BC04BC1047000091
:103D40000000F03FF0B583B00A9E101C191C01233F
:103D500073600223B36000233361F3600A1C2A4BB3
:103D60000C1C1C400094294B1A40150D2F1C002DD3
:103D700003D080235B032343009300281CD00190D1
:103D800001A8FFF78BFD00280BD0009B2022121A00
:103D9000191C91400A1C01990A437261C3400093A7
:103DA00001E0019B7361009BB361002B01D00222F3
:103DB00000E00122326108E06846FFF76FFD009BDA
:103DC00073610123336120300122002F09D0104A92
:103DD000AB181B1808990B6035231B1A099A13603E
:103DE0000DE00C496B181B1808990B6054019300E7
:103DF0009B191869FFF728FD241A099A1460301CD2
:103E000003B0F0BC02BC0847FFFF0F00FFFFFF7FBD
:103E1000CDFBFFFFCEFBFFFFF0B585B0041C0D1CF2
:103E200003A9FFF733FF061C0F1C281C02A9FFF78C
:103E30002DFF009001910399029BC91A23692A69F9
:103E40009B1A5B01C918002902DD0B05DF1903E08D
:103E50000B05019AD31A0193301C391C009A019B5F
:103E600002F056FE05B0F0BC04BC104710B5041CAF
:103E7000172804DD002808DC0C490B480EE00E4A28
:103E8000C3009B181868596808E008490648084AA2
:103E9000084B02F013FD013C002CF8D110BC04BC0F
:103EA0001047000000000000000000000000F03F8C
:103EB000000000000000244020090108F0B557462A
:103EC0004646C0B481B08A4694461F1C0A69904693
:103ED00054461434002522682248131C03406146CE
:103EE000594379180B0C120C161C624672439B182E
:103EF0001E0C371C1B0401405B1808C40135A84583
:103F0000E9DC002E25D052469368984519DB5368AA
:103F10000133089A536053465A6801320123934093
:103F2000089A936000231361D360101C0C30534631
:103F30001A699200083251460C3100F023F9089AB0
:103F400092464246930053445E61434601335646CF
:103F50003361504601B00CBC90469A46F0BC02BC9E
:103F600008470000FFFF0000F0B5474680B43C4C16
:103F7000A544071C0E1C98460323111C19401AD097
:103F80009410002C0BD1374B8A00D218526C434648
:103F90000093311C0023FFF791FF061C58E0314AC3
:103FA0008B009B185A6C02AB0093311C0023FFF767
:103FB00085FF061C02E09410002C49D02A4A6A446E
:103FC000AA4206D0381C2949FFF79CFC051C002397
:103FD0000360E3071CD56410002C07D1381C311C8A
:103FE0002A1C4346FFF798FC061C31E002ABB342A3
:103FF00006D1381C311C2A1CF2ABFFF78DFC05E002
:10400000381C311C2A1C02ABFFF786FC061C02E0A0
:104010006410002C1CD02868002817D1124B6B4468
:10402000AB4209D1381C291C2A1CF123DB006B444C
:10403000FFF772FC286007E0381C291C2A1C0A4B79
:104040006B44FFF769FC286000230360051CC0E790
:10405000301C074B9D4404BC9046F0BC02BC084792
:1040600018EFFFFFA0090108380C000071020000E2
:10407000E8100000F0B5474680B482B080460D1CC1
:10408000141C1F1C099E181C0830092102F004FA98
:10409000012801DC002105E0002101235B00013142
:1040A0009842FBDC71600122131C8B40B36000233B
:1040B000F360089B73613261092C04DD0A35A74265
:1040C00004DC311C10E00A350924F8E7311C002318
:1040D000EB56303B0135009640460A22FFF7EEFED4
:1040E000011C0134BC42F2D1081C02B004BC904651
:1040F000F0BC02BC0847C04640F2CC03C2F2000349
:1041000018687047032A844630B4C9B2144627D9C8
:104110001CF0030325D11D461A462B0201325D18FF
:10412000042AFAD16046036885EA0303A3F1013249
:10413000DB431A4012F0803F0ED003788B421ED032
:104140004378421C8B421BD08378821C8B4217D051
:10415000C378C21C8B4213D0043C0430032CE2D839
:104160005CB103788B4206D0621E32B110F8013F79
:10417000013A8B42F9D130BC70470020FBE7024680
:104180001046F8E770B414460F2C06460D4604D9C5
:1041900045EA060313F0030F0DD04AB14FF0000CAF
:1041A00011F80C3000F80C300CF1010C9445F7D1EB
:1041B000304670BC7047A4460B68ACF1100C03602D
:1041C0004A6842608B688360CA681031C2601030F0
:1041D000BCF10F0FF0D8A4F1100303F00F0223F08D
:1041E0000F031033EC18F118032A13D94FF0000C09
:1041F00054F80C3041F80C300CF1040CCCEB0203F9
:10420000032BF5D8131F03F0030223F00303043339
:10421000E418C91808462146BFE7C046032A844669
:1042200030B40446CDB231D910F0030F2FD145EA96
:1042300005230F2A88BF944643EA034188BF2346DB
:1042400012D9ACF1100C196059609960D960103323
:10425000BCF10F0FF5D8103A22F00F0302F00F0255
:104260001033E018032A10D94FF0000C40F80C105E
:104270000CF1040CCCEB0203032BF7D8131F03F053
:10428000030223F003030433C018844632B1E9B2B9
:1042900000230CF8031001339A42FAD1204630BCB7
:1042A0007047C0460B464142014323F0004040F2B4
:1042B000000340EAD170C7F6F0731B1A5842184346
:1042C000C01701307047C0460B464142014340F2DF
:1042D000000010B423F0004444EAD174C7F6F07033
:1042E000001BC00F10BC704740F200038C46C7F69D
:1042F000F07301EA03032DE9F041904606460F46AC
:1043000004460D461A15002B33D121F00043034318
:104310002BD040F200030022C4F2503302F0CEFA58
:1043200043F6B043CFF6FF73984506460F4639DB98
:1043300040F200038C46C7F6F07301EA03031B1535
:10434000A3F1360202EB080040F2FE73984231DC22
:104350000028C1BF2CF0FE41324621F47001164600
:10436000C4BF41EA00531F460EDD30463946BDE862
:10437000F08140F2FF739A42E4D102460B4602F00C
:10438000EBF806460F46F0E710F1350F21DA4CF254
:10439000503398450EDC1AA1D1E9000132463B4664
:1043A00000F076F816A3D3E9002302F087FA064658
:1043B0000F46DAE732463B4613A1D1E9000100F08F
:1043C00067F811A3D3E9002302F078FA06460F46F6
:1043D000CBE700F136022CF0FE4323F470033046A5
:1043E00043EA025540F2000329460022C3F69043F7
:1043F000344602F063FA06460F46B6E7C046C046AA
:1044000059F3F8C21F6EA5019C7500883CE4377E05
:1044100010F0030F014618BF00460BD108460B6889
:1044200001E050F8043FA3F10132DB431A4012F0DF
:10443000803FF6D003781BB110F8013F002BFBD171
:10444000401A704710B598B04FF40274019105916D
:104450006FF00041039106914FF0FF31ADF812105B
:1044600001A9ADF81040FDF78FFA019B00221A70E8
:1044700018B010BD134640F2CC02C2F2000270B573
:1044800004460D46106821462A46FFF7DBFF70BD43
:1044900021F0004203F000432DE9300343EA020516
:1044A0008946804604462946BDE830037047C04629
:1044B000D0B542F2FB1421F00042C3F6E974A242E7
:1044C00086B006460F461CDD4FF6FF73C7F6EF7346
:1044D0009A4205DD02460B4602F03CF806B0D0BD1C
:1044E00002AA00F085FE00F0030001280ED0022889
:1044F0001FD0A8B9DDE90201DDE9042301F080F94C
:10450000ECE70022002301F07BF9E7E70090DDE90A
:104510000423DDE9020101F0B7FE01F10041DDE70E
:104520000123DDE902010093DDE9042301F0ACFE83
:10453000D4E7DDE90201DDE9042301F061F901F1CD
:104540000041CBE721F0004330B40D460446194644
:1045500030BC7047000000000B152DE9F04F5B05E3
:1045600083B006465B0D0F46A3F57E748046073C7C
:104570008946132C0D468A46834624DC002C48DBF2
:104580004FF6FF73C0F20F032341019303EA0102C8
:10459000024313D03AA3D3E9002301F0DDFF002248
:1045A000002302F019FC002842D0002F4EDB019AB4
:1045B0000021D3430AEA03000E4607463046394637
:1045C00003B0BDE8F08F332C09DDB4F5806FF5D171
:1045D00002460B4601F0C0FF06460F46EEE74FF0DD
:1045E000FF33A4F1140233FA02F50542E6D024A306
:1045F000D3E9002301F0B0FF0022002302F0ECFB1E
:10460000B0B1002F17DB4246EB43504602EA0301EC
:10461000D2E71BA3D3E9002301F09EFF0022002371
:1046200002F0DAFB20B1002F16DB00200146C3E7C1
:1046300048464146C0E7142C1ED00123C4F1340281
:1046400093409A1928BF07F1010ADDE74FF4801360
:10465000234107EB030AAAE727F0004240F20003D8
:1046600042EA0602CBF6F073002A0CBF3846184621
:104670000CBF114600219FE707F1010AC3E7C046BE
:104680009C7500883CE4377ED0B542F2FB1421F0E3
:104690000042C3F6E974A24286B006460F461EDD0C
:1046A0004FF6FF73C7F6EF739A4205DD02460B46DD
:1046B00001F050FF06B0D0BD02AA00F099FD00F055
:1046C0000300012812D0022820D0B0B90123DDE96F
:1046D00002010093DDE9042301F0D6FDEAE700239F
:1046E00000220093002301F0CFFDE3E7DDE90201A2
:1046F000DDE9042301F084F8DCE7DDE90201DDE90E
:10470000042301F07DF801F10041D3E70123DDE945
:1047100002010093DDE9042301F0B6FD01F100413F
:10472000C8E7C0462DE9F0438BB004460D4600F0C3
:10473000A7F840F2C016C2F2000696F90030B3F1B5
:10474000FF3F8046894605D020462946FFF7BCFD3D
:10475000074620B1404649460BB0BDE8F0832046ED
:104760002946FFF7EFFE40F200030022C3F6F07384
:1047700002F032FB0028EDD040F64C4040F68C426F
:10478000C0F601000123C0F60102009301920897D0
:10479000CDE90445CDE9024501F030FE96F900303F
:1047A000022BCDE9060108D0684601F025FE20B1B4
:1047B000089B3BB9DDE90689CCE7FFF79DFC212387
:1047C0000360F5E7FFF798FC089B0360F2E7C0463B
:1047D0002DE9F0438BB004460D4600F0C1FA40F2DB
:1047E000C016C2F2000696F90030B3F1FF3F8046D2
:1047F000894605D020462946FFF766FD074620B1C9
:10480000404649460BB0BDE8F08320462946FFF7F5
:1048100099FE40F200030022C3F6F07302F0DCFAC6
:104820000028EDD040F64C4040F69442C0F601001E
:104830000123C0F60102009301920897CDE90445D7
:10484000CDE9024501F0DAFD96F90030022BCDE901
:10485000060108D0684601F0CFFD20B1089B3BB9A6
:10486000DDE90689CCE7FFF747FC21230360F5E784
:10487000FFF742FC089B0360F2E7C046000000001F
:104880002DE9F84F4FF6FF7321F0004CC3F6EF739C
:104890009C4506460F460EDD0CF14043044603F5E9
:1048A00080130D46034340F0CB80002940F356812E
:1048B00000200021CCE04FF6FF73C3F6DF739C4568
:1048C0000ADC40F20003C3F660439C4500F3C2805B
:1048D000A5A1D1E90001BBE00029C0F2798140F235
:1048E000000132463B460020C3F6F07101F032FE73
:1048F00040F200030022C3F6E07301F0DFFF04463C
:104900000D4600F091FE0022904699A3D3E90023C2
:104910008B46824689462046294601F0CFFF96A362
:10492000D3E9002301F018FE22462B4601F0C6FF12
:1049300093A3D3E9002301F00DFE22462B4601F09C
:10494000BDFF91A3D3E9002301F006FE22462B46CA
:1049500001F0B4FF8EA3D3E9002301F0FBFD224652
:104960002B4601F0ABFF8CA3D3E9002301F0F4FD4B
:1049700022462B4601F0A2FF89A3D3E90023064675
:104980000F462046294601F099FF87A3D3E900236B
:1049900001F0E0FD22462B4601F090FF84A3D3E90D
:1049A000002301F0D9FD22462B4601F087FF82A3A8
:1049B000D3E9002301F0CEFD22462B4601F07EFF15
:1049C00040F200030022C3F6F07301F0C5FD024679
:1049D0000B463046394602F09BF802460B465046DD
:1049E000594601F06BFF42465B4606460F4640467D
:1049F000594601F063FF02460B462046294601F066
:104A0000A9FD42465B4604460D465046594601F014
:104A1000A3FD02460B462046294602F079F80246DD
:104A20000B463046394601F097FD02460B4640469C
:104A3000594601F091FD02460B4601F08DFD07E05D
:104A400002460B4601F086FD02460B4602F060F876
:104A5000BDE8F88F02460B4601F030FF44A3D3E9CE
:104A6000002304460D4601F029FF43A3D3E90023A8
:104A700001F072FD22462B4601F020FF40A3D3E94E
:104A8000002301F067FD22462B4601F017FF3EA3ED
:104A9000D3E9002301F060FD22462B4601F00EFF12
:104AA0003BA3D3E9002301F055FD22462B4601F03C
:104AB00005FF39A3D3E9002301F04EFD22462B4622
:104AC00001F0FCFE36A3D3E9002380468946204648
:104AD000294601F0F3FE34A3D3E9002301F03AFDA7
:104AE00022462B4601F0EAFE31A3D3E9002301F070
:104AF00033FD22462B4601F0E1FE2FA3D3E900232C
:104B000001F028FD22462B4601F0D8FE40F20003BA
:104B10000022C3F6F07301F01FFD02460B4640462B
:104B2000494601F0F5FF02460B463046394601F092
:104B3000C5FE02460B4622A1D1E9000101F00AFDA3
:104B400002460B463046394601F004FD02460B464C
:104B500005A1D1E9000101F0FDFC79E71AA1D1E935
:104B6000000175E7C046C046182D4454FB21F93FAB
:104B700009F7FD0DE13D023F88B20175E0EF493FC5
:104B80003B8F68B52882A43F5544880E55C1C93F64
:104B90007D6FEB0312D6D43F555555555555C53F3E
:104BA00082922EB1C5B8B33F59018D1B6C06E63F0A
:104BB000C88A599CE52A00404B2D8A1C273A03409D
:104BC000075C143326A6913C182D4454FB21094060
:104BD00040F200030022C3F6F07301F0BDFC40F286
:104BE00000030022C3F6E07301F068FE04460D46A0
:104BF00000F01AFD42A3D3E9002382468B462046EB
:104C0000294601F05BFE40A3D3E9002301F0A4FC98
:104C100022462B4601F052FE3DA3D3E9002301F0CA
:104C200099FC22462B4601F049FE3BA3D3E9002321
:104C300001F092FC22462B4601F040FE38A3D3E956
:104C4000002301F087FC22462B4601F037FE36A3F5
:104C5000D3E9002301F080FC22462B4601F02EFE12
:104C600033A3D3E90023804689462046294601F034
:104C700025FE31A3D3E9002301F06CFC22462B462C
:104C800001F01CFE2EA3D3E9002301F065FC2246AF
:104C90002B4601F013FE2CA3D3E9002301F05AFCAC
:104CA00022462B4601F00AFE40F200030022C3F622
:104CB000F07301F051FC02460B464046494601F0B4
:104CC00027FF02460B465046594601F0F7FD20A348
:104CD000D3E9002301F03EFC02460B4650465946FC
:104CE00001F03AFC00224FF0404301F0E7FD1AA327
:104CF000D3E9002301F030FCAAE6C046C046C04616
:104D000009F7FD0DE13D023F88B20175E0EF493F33
:104D10003B8F68B52882A43F5544880E55C1C93FD2
:104D20007D6FEB0312D6D43F555555555555C53FAC
:104D300082922EB1C5B8B33F59018D1B6C06E63F78
:104D4000C88A599CE52A00404B2D8A1C273A03400B
:104D5000075C143326A6913C182D4454FB210940CE
:104D60004FF6FF732DE9F04FC3F6EF7321F00048C3
:104D700087B0984506460F46059117DD08F1404378
:104D8000044603F580130D46034300F013810246E9
:104D90000B4601F0DFFB02460B4601F0B9FE06466A
:104DA0000F463046394607B0BDE8F08F4FF6FF7327
:104DB000C3F6DF73984511DCB8F1795F80F24C815E
:104DC00089A3D3E9002301F0C7FB40F200030022CE
:104DD000C3F6F07302F000F80028E2D130463946FD
:104DE000FFF7B0FB0B4640F200010246C3F6F0713C
:104DF000002001F0AFFB40F200030022C3F6E07395
:104E000001F05CFD7AA3D3E9002306460F4601F0CA
:104E100055FD79A3D3E9002301F09EFB32463B46C2
:104E200001F04CFD76A3D3E9002301F093FB324659
:104E30003B4601F043FD74A3D3E9002301F08CFB52
:104E400032463B4601F03AFD71A3D3E9002301F05D
:104E500081FB32463B4601F031FD6FA3D3E90023CD
:104E600001F07AFB32463B4601F028FD6CA3D3E902
:104E70000023CDE900013046394601F01FFD6AA349
:104E8000D3E9002301F066FB32463B4601F016FDF4
:104E900067A3D3E9002301F05FFB32463B4601F0F4
:104EA0000DFD65A3D3E9002301F054FB32463B46D8
:104EB00001F004FD40F200030022C3F6F07301F09C
:104EC0004BFB82468B463046394600F0ADFB43F241
:104ED0003233C3F6EF739845CDE9020100F3348114
:104EE000DDE90223002290469946DDE9022301F024
:104EF00033FB52465B4604460D46DDE9000101F0F6
:104F000007FE02460B462046294601F0D7FC4246E2
:104F10004B4682468B464046494601F0CFFC02464E
:104F20000B463046394601F015FB42464B460446D7
:104F30000D46DDE9020101F00FFB02460B4620465B
:104F4000294601F0E5FD00224FF0404301F0B6FC98
:104F50003BA3D3E9002301F0FFFA02460B4650467B
:104F6000594601F0F7FA00224FF0404304460D463F
:104F70004046494601F0A2FC33A3D3E9002301F0E7
:104F8000EBFA02460B462046294601F0E3FA0246B8
:104F90000B462DA1D1E9000101F0DCFA059B002BA5
:104FA000C1BF02460B4616461F46DCBF064601F14E
:104FB0000047F6E626A3D3E9002301F07FFC20A3F7
:104FC000D3E9002304460D463046394601F076FC0D
:104FD00002460B462046294601F0BEFA06460F4619
:104FE000DFE6C046C046C0469C7500883CE4377E7C
:104FF00009F7FD0DE13D023F88B20175E0EF493F41
:105000003B8F68B52882A43F5544880E55C1C93FDF
:105010007D6FEB0312D6D43F555555555555C53FB9
:1050200082922EB1C5B8B33F59018D1B6C06E63F85
:10503000C88A599CE52A00404B2D8A1C273A034018
:10504000075C143326A6913C182D4454FB21E93FFC
:10505000182D4454FB21F93F02460B4601F02EFC6B
:105060004BA3D3E9002304460D4601F027FC4AA3D5
:10507000D3E9002301F070FA22462B4601F01EFC12
:1050800047A3D3E9002301F065FA22462B4601F03D
:1050900015FC45A3D3E9002301F05EFA22462B4616
:1050A00001F00CFC42A3D3E9002301F053FA22469D
:1050B0002B4601F003FC40A3D3E9002301F04CFA96
:1050C00022462B4601F0FAFB3DA3D3E9002380469C
:1050D00089462046294601F0F1FB3BA3D3E9002392
:1050E00001F038FA22462B4601F0E8FB38A3D3E959
:1050F000002301F031FA22462B4601F0DFFB36A3F4
:10510000D3E9002301F026FA22462B4601F0D6FB14
:1051100040F200030022C3F6F07301F01DFA0246CC
:105120000B464046494601F0F3FC02460B4630462A
:10513000394601F0C3FB02460B463046394601F0C2
:105140000BFA06460F462CE652465B46DDE90001A7
:1051500001F0DEFC02460B46DDE9020101F0AEFB88
:1051600002460B46DDE9020101F0F6F902460B4664
:1051700001F0F2F91AA3D3E9002301F0EBF902469A
:105180000B4619A1D1E9000101F0E4F906E7C04698
:1051900009F7FD0DE13D023F88B20175E0EF493F9F
:1051A0003B8F68B52882A43F5544880E55C1C93F3E
:1051B0007D6FEB0312D6D43F555555555555C53F18
:1051C00082922EB1C5B8B33F59018D1B6C06E63FE4
:1051D000C88A599CE52A00404B2D8A1C273A034077
:1051E000075C143326A6913C182D4454FB21F93F4B
:1051F00042F2FB132DE9F04FC3F6E97321F00046AC
:105200008FB09E4204460D469046894640F39880F2
:105210004DF67B13C4F202039E4226DC002940F3C4
:10522000F9808FA3D3E9002301F094F942F2FB1334
:10523000C3F6F9739E4204460D4600F07D818AA3B1
:10524000D3E90023012701F085F902460B462046E9
:10525000C8E90023294601F07DF983A3D3E900239F
:1052600001F078F9C8E9020171E042F2FB13C4F2DF
:1052700039139E426FDD4FF6FF73C7F6EF739E4200
:1052800000F3508134150DF1200AA4F5826704461D
:10529000063F3905731A19461D4601F0A7FD01F0B6
:1052A000A7FA02460B4620462946CDE9082301F01D
:1052B00051F940F200030022C4F2701301F0FEFA2B
:1052C0000D46044601F092FD01F092FA02460B46AB
:1052D00020462946CDE90A2301F03CF940F20003BB
:1052E0000022C4F27013554601F0E8FA0324CDE918
:1052F0000C01D5E90401002200232646083D013CAB
:1053000001F042FD0028F4D15D4A0223504600938B
:105310004146334601923A4600F0A2FBB9F1000F34
:10532000074614DAD8F8043008F10802474203F1BE
:105330000043C8F80430536803F10043536006E0AB
:105340000027C2E9004500230022C8E902233846AD
:105350000FB0BDE8F08FFFF7F5F845A3D3E90023C0
:1053600004460D4601F0AAFA40F200030022C3F6FB
:10537000E07301F0F1F801F039FD074601F038FA69
:105380003DA3D3E90023CDE9040101F097FA0246D9
:105390000B462046294601F0DFF833A3D3E900236A
:1053A000CDE90601DDE9040101F088FA1F2F8246EC
:1053B0008B4667DC40F648237A1EC0F6010353F89B
:1053C0002210B1425ED0DDE9060152465B4601F093
:1053D000C1F804460D46C8E9004522462B46DDE9E2
:1053E000060108F1080601F0B5F852465B4601F0E7
:1053F000B1F8B9F1000FC8E90201A8DAD8F8043011
:105400007F4203F10043C8F80430726802F10042A1
:1054100072609CE712A3D3E9002301F09DF842F2E9
:10542000FB13C3F6F9739E4204460D4600F0A180BB
:105430000DA3D3E900234FF0FF3701F08DF80246AA
:105440000B462046C8E90023294601F083F806A34D
:10545000D3E9002301F080F8C8E9020177E7C046EC
:1054600000004054FB21F93F3163621A61B4D03D22
:1054700083C8C96D305FE43F00004054FB21F9BF91
:10548000C80A01085B46DDE906015246361501F0FF
:1054900061F80B0D04460D46C8E900455B055B0D40
:1054A000F31A102B99DD58A3D3E90023DDE9040199
:1054B00001F004FA04460D4622462B46DDE90601BA
:1054C00001F048F8CDE90201DDE90223DDE906013A
:1054D00001F040F822462B4601F03CF84CA3D3E9FA
:1054E000002304460D46DDE9040101F0E7F92246F8
:1054F0002B4601F02FF882468B465B46DDE9020120
:10550000524601F027F80B0D04460D46C8E9004548
:105510005B055B0DF31A312B49DCDDE90223CDE994
:1055200006235AE702460B4601F014F80027C8E9A3
:105530000201C8E900010AE733A3D3E900230127E8
:1055400001F008F832A3D3E9002304460D4601F028
:1055500001F802460B462046C8E90023294600F020
:10556000F9FF2BA3D3E9002300F0F4FFC8E90201FF
:10557000EDE625A3D3E900234FF0FF3700F0ECFF61
:1055800023A3D3E9002304460D4600F0E5FF0246BD
:105590000B462046C8E90023294600F0DBFF1CA388
:1055A000D3E9002300F0D8FFC8E90201CFE61AA32F
:1055B000D3E90023DDE9040101F080F904460D463A
:1055C00022462B46DDE9020100F0C4FFCDE90601C9
:1055D000DDE90623DDE9020100F0BCFF22462B468F
:1055E00000F0B8FF0EA3D3E9002304460D46DDE921
:1055F000040101F063F922462B4600F0ABFF82461E
:105600008B46E0E6C046C0460000601A61B4D03D5B
:105610007370032E8A19A33B0000002E8A19A33B46
:10562000C14920259A837B3940F2000340F20002F1
:10563000C7F6F073C7F6F07201EA030393422DE94F
:10564000F04706460F46804689460C46054600F060
:10565000B880002940F38980091500F09180A1F5F8
:105660007E7A24F07F43AAF1070A23F470031AF02C
:10567000010F43F480136BD100245B0003EBD57260
:1056800069004FF40010A146A4462318934202DC9F
:105690001C18D21A814453000CF1010C03EBD17297
:1056A00040084900BCF1160FEFD100274FF0004C25
:1056B000B8463E4614E088428CBF00230123A24234
:1056C00014BF002303F0010373B95300013603EB49
:1056D000D1724900202E25464FEA5C0C1BD02C4687
:1056E00094420CEB0700E6DA00F0004300EB0C07F5
:1056F000B3F1004F28D02546121B884288BF013ADB
:10570000091A0136E04453004FEA5C0C03EBD172F6
:105710004900202EE3D10A4308BF4FEA58001CD1AC
:105720004FEA6A0119F0010F18BF40F00040090567
:10573000064601F17E5101F5C00101EB69031F46E8
:1057400030463946BDE8F087002FD4DB651CD3E72F
:105750005B0003EBD5736D008EE7B8F1FF3F3DD0E2
:1057600008F0010343445808DAE721F000430343FB
:10577000E6D0002936D1EC0A15396D05002CFAD097
:1057800014F4801308BF184637D16400013014F4B4
:10579000801FFAD0C0F120024B1C35FA02F2191A10
:1057A0001443A1F57E7A8540AAF1070A24F07F43CD
:1057B0001AF0010F23F4700343F480133FF45CAF3D
:1057C000C6E702460B4601F079F802460B46304622
:1057D000394600F0C1FE06460F46B1E709F101095E
:1057E00000209DE702460B4600F0B4FE02460B4641
:1057F00001F08EF906460F46A2E700202022CBE7F3
:105800002DE9F04F21F0004687B0B6F1795FCDE980
:105810000201CDE900236FDA01F0E8FA002800F078
:10582000EF80DDE9020102460B4601F047F880A354
:10583000D3E9002304460D4601F040F87EA3D3E9E6
:10584000002300F089FE22462B4601F037F87CA3A6
:10585000D3E9002300F07EFE22462B4601F02EF80D
:1058600079A3D3E9002300F077FE22462B4601F00E
:1058700025F877A3D3E9002300F06CFE22462B46DF
:1058800001F01CF874A3D3E9002300F065FE224662
:105890002B4601F013F882468B4640F200030022AB
:1058A00020462946C3F6E07301F008F852465B46ED
:1058B000804689462046294601F000F8DDE90023AC
:1058C00004460D46DDE9020100F0F8FF02460B46F2
:1058D0002046294600F03EFE02460B464046494619
:1058E00000F038FE0B4640F200010246C3F6F071AC
:1058F000002000F02FFE80E0DDE9022300F0DEFF53
:105900004BA3D3E9002304460D4600F0D7FF4AA37A
:10591000D3E9002300F020FE22462B4600F0CEFF04
:1059200047A3D3E9002300F015FE22462B4600F0E2
:10593000C5FF45A3D3E9002300F00EFE22462B4607
:1059400000F0BCFF42A3D3E9002300F003FE22468F
:105950002B4600F0B3FF40A3D3E9002300F0FCFD89
:105960002B46224600F0AAFF43F23233C3F6D3732C
:105970009E4282468B4690DD40F20003C3F6E973F7
:105980009E4243DD40F200070026C3F6D27740F284
:1059900000030022C3F6E773CDE9042340F20003BD
:1059A000204629460022C3F6E07300F087FF324606
:1059B0003B4600F0CFFD52465B4680468946204676
:1059C000294600F07BFFDDE9002304460D46DDE9B2
:1059D000020100F073FF02460B462046294600F004
:1059E000B9FD02460B464046494600F0B3FD02466B
:1059F0000B46DDE9040100F0ADFD07B0BDE8F08F16
:105A000040F200010020C3F6F071F6E740F2000119
:105A1000A6F5001300220020C3F6F07116461F46BB
:105A200000F098FDCDE90401B8E7C046C046C04685
:105A3000D43888BEE9FAA8BDC4B1B4BD9EEE213EFB
:105A4000AD529C804F7E923E9015CB19A001FA3E3C
:105A50007751C1166CC1563F4C5555555555A53F0C
:105A60002DE9F04FADF5217D089340F6D0330A9033
:105A7000C0F60103AA980991089953F8203001391A
:105A80000C91D11E0D934AF6AB23C2F6AA230D98B2
:105A900083FB0143C917C1EBA30121EAE171129114
:105AA000CB43D9005B015B1A0C999B180F934218EA
:105AB00019D4129B64AEAB985C1AA718A300C51842
:105AC00008E02868043500F093FEBC42E6E80201D5
:105AD00009D00134002CF4DA002000210435BC4246
